:020000040800F2
:1000000038070020290200080108000893040008AE
:10001000FD070008F50300088F0A00080000000033
:10002000000000000000000000000000250800089B
:10003000F903000800000000030800083D0900085B
:10004000430200084302000843020008430200087C
:10005000430200084302000843020008430200086C
:10006000430200084302000843020008430200085C
:10007000430200084302000843020008430200084C
:10008000430200084302000843020008430200083C
:10009000430200084302000843020008430200082C
:1000A000430200084302000843020008430200081C
:1000B000430200084302000843020008430200080C
:1000C00043020008430200084302000843020008FC
:1000D00043020008A909000843020008430200087F
:1000E00043020008430200084302000843020008DC
:1000F00043020008430200084302000843020008CC
:1001000043020008430200084302000843020008BB
:1001100043020008430200084302000843020008AB
:10012000430200084302000843020008430200089B
:10013000430200084302000843020008430200088B
:10014000430200084302000843020008430200087B
:10015000430200084302000843020008430200086B
:10016000430200084302000843020008430200085B
:10017000430200084302000843020008430200084B
:10018000430200084302000800F002F800F03CF8C7
:100190000AA090E8000C82448344AAF10107DA45E2
:1001A00001D100F031F8AFF2090EBAE80F0013F0F8
:1001B000010F18BFFB1A43F001031847880A00001B
:1001C000A80A0000103A24BF78C878C1FAD85207AC
:1001D00024BF30C830C144BF04680C6070470000C1
:1001E0000023002400250026103A28BF78C1FBD840
:1001F000520728BF30C148BF0B6070471FB500F0E1
:1002000011FD1FBD10B510BD00F033F81146FFF70A
:10021000F5FF00F0C7FC00F051F803B4FFF7F2FF60
:1002200003BC00F036FC000009488047094800473D
:10023000FEE7FEE7FEE7FEE7FEE7FEE7FEE7FEE796
:10024000FEE7FEE704480549054A064B70470000F3
:100250004109000889010008380100203807002002
:1002600038030020380300207047704770477047FC
:100270007047754600F028F8AE46050069465346BB
:1002800020F00700854618B020B5FFF7DBFFBDE87A
:1002900020404FF000064FF000074FF000084FF0ED
:1002A000000B21F00701AC46ACE8C009ACE8C0097E
:1002B000ACE8C009ACE8C0098D4670470446AFF30E
:1002C00000802046FFF7A9FF00487047D4000020B7
:1002D00010B5FF2000F028F80446552C01D100206D
:1002E00010BD5521FF2000F05DF8FF2000F01CF844
:1002F0000446552C01D10020F2E70120F0E710B5AB
:1003000000F0F2F810BD70B506460C46154608E040
:100310003046721C96B200F007F804F8010B681E14
:1003200085B2002DF4D170BD70B50446002600F0F2
:1003300091F92546E11704EB11610912A02202EBA5
:100340004101C8B200F052F900F0D0F9E11704EB16
:1003500011610912A4EB0121C8B200F047F900F0C5
:10036000C5F900F077F9A12000F040F900F0BEF9DE
:10037000002000F005F9064600F092F9304670BD05
:1003800070B505460C46164606E02178284600F072
:1003900009F8681C85B2641C3000A6F101018EB218
:1003A000F3D170BD70B504460E4600F053F92546F2
:1003B000E11704EB11610912A02202EB4101C8B25E
:1003C00000F014F900F092F9E11704EB1161091241
:1003D000A4EB0121C8B200F009F900F087F930461A
:1003E00000F004F900F082F900F05AF90A2000F058
:1003F00071FB70BD00BFFEE77047F0B50A460021F3
:100400000023002400BF3DE0012505FA01F3156833
:1004100005EA03049C4234D105684F000326BE4020
:10042000B543056015794E00B54006683543056053
:100430001579012D02D01579022D16D185684F004E
:100440000326BE40B543856055794E00B5408668A9
:1004500035438560456801268E40B5434560456853
:1004600096798E40B6B235434560C5684F00032685
:10047000BE40B543C560D5794E00B540C66835432A
:10048000C560491C1029BFD3F0BD4183704701836B
:10049000704700BFFEE7000010B500200F4908605C
:1004A0000F48006820F440500D4908600846006875
:1004B00040F48050086000200A49C1F898020220E8
:1004C00000F024FB012005490860022000F01EFB1B
:1004D00000200449C1F89C0210BD00009C824142EA
:1004E000000C0240008041421CB50121082000F0B0
:1004F00089F9C020009001208DF8040000208DF8BB
:10050000060003208DF8050001208DF807006946DC
:100510000448FFF772FF0120034908600349C1F84E
:1005200098021CBD000C02409C8241420080414266
:1005300010B500200F4908600F48006820F44050B3
:100540000D4908600846006840F4805008600120AA
:100550000A49C1F89802022000F0D8FA01200549A2
:100560000860022000F0D2FA00200449C1F89C0281
:1005700010BD00009C824142000C024000804142BC
:1005800070B5054600241648006820F44050144910
:100590000860084600680860002616E0002011493F
:1005A0000860022000F0B2FA01200F49C1F89C0255
:1005B0006006040E0B488438006808B1601CC4B2A1
:1005C000012000F0A3FA701CC6B2082EE6DB15B9B4
:1005D000FFF7AEFF01E0FFF75FFF204670BD0000B0
:1005E000000C02409C8241420080414270B50446AA
:1005F0001548006820F44050134908600846006818
:1006000040F480500860002010490860002517E081
:10061000E0090E49091F08606006040E022000F080
:1006200075FA01200A49C1F89C02022000F06EFA16
:10063000002006490860022000F068FA681CC5B274
:10064000082DE5DB70BD0000000C02409C82414299
:100650000080414210B50F48006820F440500D4919
:1006600008600846006840F48050086001200A498C
:1006700008600A49C1F89C02042000F047FA0020F3
:1006800005490860042000F041FA00200349C1F840
:100690009C0210BD000C0240988241420080414201
:1006A00010B50F48006820F440500D490860084616
:1006B000006840F48050086000200A4908600A4938
:1006C000C1F89802042000F021FA012005490860D1
:1006D0000549C1F89802042000F018FA10BD000086
:1006E000000C02409C8241420080414210B500242F
:1006F0001348006820F4405011490860084600681B
:10070000086001200F49086000F000FA01200E493E
:10071000C1F89C0200F0FAF907E0601CC4B2FA2CA0
:1007200003DDFFF7BDFF012010BD064880380068DB
:100730000028F2D10349091D086000BFF4E700005A
:10074000000C0240988241420080414200B587B0CF
:100750000121084600F056F80121022000F052F86D
:100760000121042000F04EF83020059001208DF882
:10077000180000208DF81A0003208DF819000120C0
:100780008DF81B0005A91A48FFF737FE30211948DC
:10079000FFF77DFE0320039001208DF8100000205C
:1007A0008DF8120003208DF8110001208DF8130040
:1007B00003A91048FFF721FE03210E48FFF767FE4B
:1007C0000820019001208DF8080000208DF80A0013
:1007D00003208DF8090001208DF80B0001A90648BF
:1007E000FFF70BFE08210448FFF751FE07B000BDDC
:1007F00000000240000402400008024000BFFEE783
:100800007047704729B1064A12680243044B1A60C8
:1008100004E0034A12688243014B1A6070470000EB
:1008200030380240704700000CB500200190009065
:100830003448006840F480303249086000BF3148D5
:10084000006800F4003000900198401C019000986E
:1008500018B90198B0F5A04FF1D12A48006800F40A
:10086000003010B10120009001E0002000900098BD
:10087000012846D123484030006840F0805021498B
:10088000403108602048006840F440401E4908603C
:100890001C48083000681B49083108600846006899
:1008A00040F4004008600846006840F4A05008602A
:1008B0001648091F0860081F006840F08070091F73
:1008C000086000BF0F48006800F000700028F9D0F1
:1008D00040F205700E4908600A480830006820F0B0
:1008E00003000849083108600846006840F002002B
:1008F000086000BF03480830006800F00C000828BA
:10090000F8D10CBD00380240007000400854400788
:10091000003C0240042808D14FF0E021096941F071
:1009200004014FF0E022116107E04FF0E021096976
:1009300021F004014FF0E022116170477047000080
:1009400010B51548006840F470001349086013485A
:10095000006840F001001149086000200F4908318B
:1009600008600E4800680E4908400C4908600D48B0
:10097000091D0860081F006820F48020091F086016
:10098000002006490C310860FFF74EFF4FF0006071
:1009900001498039086010BD88ED00E00038024050
:1009A000FFFFF6FE1030002410B540F225511D481F
:1009B00000F03EF810B31B4800F064F8C4B21A48C7
:1009C000008800F40040C8B91748008800F480404F
:1009D00060B10A2C03D000201349088020E012489F
:1009E000008840F400401049088019E00D2C06D121
:1009F0000D48008840F480400B49088010E00A4808
:100A00000088C0F30D0009490C5407480088401CB9
:100A10000549088008460088C72801DD00200880B5
:100A200010BD000000100140080000200C00002054
:100A300070B50246002400230025002040F66A1607
:100A4000B14200D100BFC1F3421501F01F030126DE
:100A500006FA03F3012D02D19689334006E0022DF8
:100A600002D1168A334001E0968A33400C120126E7
:100A700006FA04F41688344013B10CB1012000E0EA
:100A8000002070BD01468888C0F30800704700BF91
:100A9000FEE7014600BF704710B504466FF0040042
:100AA000FFF738FFE11704EB5171C1F3C701074AA3
:100AB00011701046007800EB4001C1EBC0104FF6FA
:100AC000FF7101EAC0000249088010BD000000204B
:100AD0000200002070B504464FF4077094FBF0F05C
:100AE000C6B24FF4077094FBF0F100FB114085B2E1
:100AF00005E04FF4077000F02FF8701EC6B2002E0C
:100B0000F7D115B1284600F027F870BD0146114A0B
:100B100012784A434FF0E0235A6100229A611A4644
:100B2000126942F001021A6100BF4FF0E022106921
:100B300000F001021AB100F48032002AF5D04FF023
:100B4000E022126922F001024FF0E0231A61002234
:100B50009A617047000000200146114A12884A43FA
:100B60004FF0E0235A6100229A611A46126942F05E
:100B700001021A6100BF4FF0E022106900F001028B
:100B80001AB100F48032002AF5D04FF0E022126949
:100B900022F001024FF0E0231A6100229A617047AF
:100BA0000200002086B0A820FFF776FFFFF7CEFDF9
:100BB000FFF7A5FB0FE010211748FFF768FC4FF483
:100BC000FA60FFF787FF10211348FFF75EFC4FF430
:100BD000FA60FFF77FFFFFF77BFB0028EBD119E0FE
:100BE00008210E48FFF751FC16220D490020FFF79F
:100BF000C7FB4FF4FA60FFF76DFF1622694600202D
:100C0000FFF781FB08210548FFF741FC4FF4FA602C
:100C1000FFF760FFE4E70000000002400008024028
:100C20002E0C00084FF04070E1EE100A704753544C
:100C30004D333246343037204949432052572054EF
:100C400045535400640C0008000000200C00000014
:100C5000C4010008700C00080C0000202C070000E4
:100C6000E00100080000000000000000000000009B
:040000050800018965
:00000001FF
