Component: ARM Compiler 5.05 update 1 (build 106) Tool: armlink [4d0efa]

==============================================================================

Section Cross References

    main.o(i.HardFault_Handler) refers to _printf_pad.o(.text) for _printf_pre_padding
    main.o(i.HardFault_Handler) refers to _printf_percent.o(.ARM.Collect$$_printf_percent$$00000000) for _printf_percent
    main.o(i.HardFault_Handler) refers to _printf_x.o(.ARM.Collect$$_printf_percent$$0000000C) for _printf_x
    main.o(i.HardFault_Handler) refers to _printf_hex_int.o(.text) for _printf_longlong_hex
    main.o(i.HardFault_Handler) refers to noretval__2printf.o(.text) for __2printf
    main.o(i.key_task) refers to key.o(i.KEY_Scan) for KEY_Scan
    main.o(i.key_task) refers to os_mbox.o(i.OSMboxPost) for OSMboxPost
    main.o(i.key_task) refers to delay.o(i.delay_ms) for delay_ms
    main.o(i.key_task) refers to main.o(.data) for msg_key
    main.o(i.main) refers to misc.o(i.NVIC_PriorityGroupConfig) for NVIC_PriorityGroupConfig
    main.o(i.main) refers to main.o(i.system_init) for system_init
    main.o(i.main) refers to os_core.o(i.OSInit) for OSInit
    main.o(i.main) refers to lwip_comm.o(i.lwip_comm_init) for lwip_comm_init
    main.o(i.main) refers to os_task.o(i.OSTaskCreate) for OSTaskCreate
    main.o(i.main) refers to tcp_server.o(i.tcp_server_init) for tcp_server_init
    main.o(i.main) refers to os_core.o(i.OSStart) for OSStart
    main.o(i.main) refers to main.o(.bss) for START_TASK_STK
    main.o(i.main) refers to main.o(i.start_task) for start_task
==============================================================================

Removing Unused input sections from the image.

    Removing main.o(.rev16_text), (4 bytes).
    Removing main.o(.revsh_text), (4 bytes).
    Removing system_stm32f4xx.o(.rev16_text), (4 bytes).
    Removing system_stm32f4xx.o(.revsh_text), (4 bytes).
    Removing system_stm32f4xx.o(i.SystemCoreClockUpdate), (192 bytes).
    Removing system_stm32f4xx.o(.data), (20 bytes).
    Removing led.o(.rev16_text), (4 bytes).
    Removing led.o(.revsh_text), (4 bytes).
    Removing myiic.o(.rev16_text), (4 bytes).
    Removing myiic.o(.revsh_text), (4 bytes).
    Removing 24cxx.o(.rev16_text), (4 bytes).
    Removing 24cxx.o(.revsh_text), (4 bytes).
    Removing 24cxx.o(i.AT24CXX_Init), (2 bytes).
    Removing 24cxx.o(i.FormatEEProm), (28 bytes).
    Removing lm75.o(.rev16_text), (4 bytes).
    Removing lm75.o(.revsh_text), (4 bytes).
    Removing lm75.o(i.LM75_SetPointer), (104 bytes).
    Removing lan8720.o(.rev16_text), (4 bytes).
==============================================================================

Image Symbol Table

    Local Symbols

    Symbol Name                              Value     Ov Type        Size  Object(Section)

    ../clib/angel/boardlib.s                 0x00000000   Number         0  boardinit1.o ABSOLUTE
    ../clib/angel/boardlib.s                 0x00000000   Number         0  boardshut.o ABSOLUTE
    ../clib/angel/boardlib.s                 0x00000000   Number         0  boardinit2.o ABSOLUTE
    ../clib/angel/boardlib.s                 0x00000000   Number         0  boardinit3.o ABSOLUTE
    ../clib/angel/dczerorl2.s                0x00000000   Number         0  __dczerorl2.o ABSOLUTE
    ../clib/angel/handlers.s                 0x00000000   Number         0  __scatter_zi.o ABSOLUTE
    ../clib/angel/kernel.s                   0x00000000   Number         0  rtexit2.o ABSOLUTE
    ../clib/angel/kernel.s                   0x00000000   Number         0  __rtentry2.o ABSOLUTE
    ../clib/angel/kernel.s                   0x00000000   Number         0  rtexit.o ABSOLUTE
    ../clib/angel/kernel.s                   0x00000000   Number         0  __rtentry.o ABSOLUTE
    ../clib/angel/kernel.s                   0x00000000   Number         0  __rtentry4.o ABSOLUTE
    ../clib/angel/rt.s                       0x00000000   Number         0  rt_ctype_table.o ABSOLUTE
    ../clib/angel/rt.s                       0x00000000   Number         0  rt_raise.o ABSOLUTE
    ../clib/angel/rt.s                       0x00000000   Number         0  rt_locale_intlibspace.o ABSOLUTE
    ../clib/angel/rt.s                       0x00000000   Number         0  rt_errno_addr.o ABSOLUTE
    ../clib/angel/rt.s                       0x00000000   Number         0  rt_errno_addr_intlibspace.o ABSOLUTE
    ../clib/angel/rt.s                       0x00000000   Number         0  rt_locale.o ABSOLUTE
    ../clib/angel/scatter.s                  0x00000000   Number         0  __scatter.o ABSOLUTE
    ../clib/angel/startup.s                  0x00000000   Number         0  __main.o ABSOLUTE
    ../clib/angel/sys.s                      0x00000000   Number         0  sys_stackheap_outer.o ABSOLUTE
    ../clib/angel/sys.s                      0x00000000   Number         0  use_no_semi.o ABSOLUTE
    ../clib/angel/sys.s                      0x00000000   Number         0  use_no_semi_2.o ABSOLUTE
    ../clib/angel/sys.s                      0x00000000   Number         0  libspace.o ABSOLUTE
    ../clib/angel/sys.s                      0x00000000   Number         0  indicate_semi.o ABSOLUTE
    ../clib/angel/sysapp.c                   0x00000000   Number         0  sys_wrch.o ABSOLUTE
    ../clib/angel/sysapp.c                   0x00000000   Number         0  sys_command.o ABSOLUTE
    ../clib/armsys.c                         0x00000000   Number         0  no_argv.o ABSOLUTE
    ../clib/armsys.c                         0x00000000   Number         0  _get_argv_nomalloc.o ABSOLUTE
    ../clib/armsys.c                         0x00000000   Number         0  argv_veneer.o ABSOLUTE
    ../clib/armsys.c                         0x00000000   Number         0  argv_veneer.o ABSOLUTE
    ../clib/heapalloc.c                      0x00000000   Number         0  hrguard.o ABSOLUTE
    ../clib/heapaux.c                        0x00000000   Number         0  heapauxi.o ABSOLUTE
    ../clib/libinit.s                        0x00000000   Number         0  libshutdown2.o ABSOLUTE
    ../clib/libinit.s                        0x00000000   Number         0  libshutdown.o ABSOLUTE
    ../clib/libinit.s                        0x00000000   Number         0  libinit2.o ABSOLUTE
    ../clib/libinit.s                        0x00000000   Number         0  libinit.o ABSOLUTE
    ../clib/locale.s                         0x00000000   Number         0  lc_ctype_c.o ABSOLUTE
    ../clib/memcpset.s                       0x00000000   Number         0  rt_memclr.o ABSOLUTE
    ../clib/memcpset.s                       0x00000000   Number         0  rt_memclr_w.o ABSOLUTE
    ../clib/memcpset.s                       0x00000000   Number         0  strncpy.o ABSOLUTE
    ../clib/memcpset.s                       0x00000000   Number         0  rt_memcpy_v6.o ABSOLUTE
    ../clib/memcpset.s                       0x00000000   Number         0  rt_memcpy_w.o ABSOLUTE
    ../clib/memcpset.s                       0x00000000   Number         0  strcmpv7m.o ABSOLUTE
    ../clib/misc.s                           0x00000000   Number         0  printf_stubs.o ABSOLUTE
    ../clib/printf.c                         0x00000000   Number         0  _printf_char_file.o ABSOLUTE
    ../clib/printf.c                         0x00000000   Number         0  _printf_char.o ABSOLUTE
    ../clib/printf.c                         0x00000000   Number         0  _sputc.o ABSOLUTE
    ../clib/printf.c                         0x00000000   Number         0  __2sprintf.o ABSOLUTE
    ../clib/printf.c                         0x00000000   Number         0  __printf_nopercent.o ABSOLUTE
    ../clib/printf.c                         0x00000000   Number         0  _printf_hex_int_ll_ptr.o ABSOLUTE
    ../clib/printf.c                         0x00000000   Number         0  _printf_char_common.o ABSOLUTE
    ../clib/printf.c                         0x00000000   Number         0  _printf_intcommon.o ABSOLUTE
    ../clib/printf.c                         0x00000000   Number         0  __2printf.o ABSOLUTE
    ../clib/printf.c                         0x00000000   Number         0  __printf_flags_ss_wp.o ABSOLUTE
    ../clib/printf.c                         0x00000000   Number         0  __printf_ss_wp.o ABSOLUTE
    ../clib/printf.c                         0x00000000   Number         0  __printf_flags_wp.o ABSOLUTE
    ../clib/printf.c                         0x00000000   Number         0  __printf_wp.o ABSOLUTE
    ../clib/printf.c                         0x00000000   Number         0  __printf_flags_ss.o ABSOLUTE
    ../clib/printf.c                         0x00000000   Number         0  __printf_ss.o ABSOLUTE
    ../clib/printf.c                         0x00000000   Number         0  __printf_flags.o ABSOLUTE
    ../clib/printf.c                         0x00000000   Number         0  _printf_hex_ll_ptr.o ABSOLUTE
    ../clib/printf.c                         0x00000000   Number         0  _printf_hex_int_ptr.o ABSOLUTE
    ../clib/printf.c                         0x00000000   Number         0  _printf_hex_ptr.o ABSOLUTE
    ../clib/printf.c                         0x00000000   Number         0  _printf_hex_int_ll.o ABSOLUTE
    ../clib/printf.c                         0x00000000   Number         0  _printf_hex_int.o ABSOLUTE
    ../clib/printf.c                         0x00000000   Number         0  _printf_hex_ll.o ABSOLUTE
    ../clib/printf.c                         0x00000000   Number         0  _printf_dec.o ABSOLUTE
    ../clib/printf.c                         0x00000000   Number         0  _printf_str.o ABSOLUTE
    ../clib/printf.c                         0x00000000   Number         0  _printf_pad.o ABSOLUTE
    ../clib/printf.c                         0x00000000   Number         0  __printf.o ABSOLUTE
    ../clib/printf.c                         0x00000000   Number         0  noretval__2sprintf.o ABSOLUTE
    ../clib/printf.c                         0x00000000   Number         0  noretval__2printf.o ABSOLUTE
    ../clib/printf_percent.s                 0x00000000   Number         0  _printf_x.o ABSOLUTE
    ../clib/printf_percent.s                 0x00000000   Number         0  _printf_percent.o ABSOLUTE
    ../clib/printf_percent.s                 0x00000000   Number         0  _printf_d.o ABSOLUTE
    ../clib/printf_percent.s                 0x00000000   Number         0  _printf_percent_end.o ABSOLUTE
    ../clib/printf_percent.s                 0x00000000   Number         0  _printf_s.o ABSOLUTE
    ../clib/scanf.c                          0x00000000   Number         0  _chval.o ABSOLUTE
    ../clib/scanf.c                          0x00000000   Number         0  strtol.o ABSOLUTE
    ../clib/scanf.c                          0x00000000   Number         0  atoi.o ABSOLUTE
    ../clib/scanf.c                          0x00000000   Number         0  _strtoul.o ABSOLUTE
    ../clib/signal.c                         0x00000000   Number         0  defsig_general.o ABSOLUTE
    ../clib/signal.c                         0x00000000   Number         0  defsig_rtmem_formal.o ABSOLUTE
    ../clib/signal.c                         0x00000000   Number         0  defsig_rtmem_inner.o ABSOLUTE
    ../clib/signal.c                         0x00000000   Number         0  defsig_segv_inner.o ABSOLUTE
    ../clib/signal.c                         0x00000000   Number         0  __raise.o ABSOLUTE
    ../clib/signal.c                         0x00000000   Number         0  defsig_cppl_inner.o ABSOLUTE
    ../clib/signal.c                         0x00000000   Number         0  defsig_pvfn_inner.o ABSOLUTE
    ../clib/signal.c                         0x00000000   Number         0  defsig_stak_inner.o ABSOLUTE
    ../clib/signal.c                         0x00000000   Number         0  defsig_rtred_inner.o ABSOLUTE
    ../clib/signal.c                         0x00000000   Number         0  defsig_fpe_inner.o ABSOLUTE
    ../clib/signal.c                         0x00000000   Number         0  defsig_abrt_inner.o ABSOLUTE
    ../clib/signal.c                         0x00000000   Number         0  defsig_other.o ABSOLUTE
    ../clib/signal.c                         0x00000000   Number         0  defsig_exit.o ABSOLUTE
    ../clib/signal.c                         0x00000000   Number         0  defsig_rtmem_outer.o ABSOLUTE
    ../clib/signal.s                         0x00000000   Number         0  defsig.o ABSOLUTE
    ../clib/stdio.c                          0x00000000   Number         0  ferror_locked.o ABSOLUTE
    ../clib/stdio.c                          0x00000000   Number         0  ferror.o ABSOLUTE
    ../clib/stdlib.c                         0x00000000   Number         0  exit.o ABSOLUTE
    ../clib/string.c                         0x00000000   Number         0  strtok_int.o ABSOLUTE
    ../clib/string.c                         0x00000000   Number         0  strcat.o ABSOLUTE
    ../clib/string.c                         0x00000000   Number         0  strtok.o ABSOLUTE
    ../clib/string.c                         0x00000000   Number         0  strchr.o ABSOLUTE
    ../clib/string.c                         0x00000000   Number         0  strstr.o ABSOLUTE
    ../clib/string.c                         0x00000000   Number         0  memcmp.o ABSOLUTE
    ../clib/string.c                         0x00000000   Number         0  strlen.o ABSOLUTE
    ../clib/string.c                         0x00000000   Number         0  strncmp.o ABSOLUTE
    ../clib/string.c                         0x00000000   Number         0  strcpy.o ABSOLUTE
    ../clib/string.c                         0x00000000   Number         0  strspn.o ABSOLUTE
    ../clib/string.c                         0x00000000   Number         0  strcspn.o ABSOLUTE
    ../fplib/fpinit.s                        0x00000000   Number         0  fpinit.o ABSOLUTE
    ..\CORE\startup_stm32f40_41xxx.s         0x00000000   Number         0  startup_stm32f40_41xxx.o ABSOLUTE
    ..\FWLIB\STM32F4x7_ETH_Driver\src\stm32f4x7_eth.c 0x00000000   Number         0  stm32f4x7_eth.o ABSOLUTE
    ..\FWLIB\STM32F4xx_StdPeriph_Driver\src\misc.c 0x00000000   Number         0  misc.o ABSOLUTE
    ..\FWLIB\STM32F4xx_StdPeriph_Driver\src\stm32f4xx_adc.c 0x00000000   Number         0  stm32f4xx_adc.o ABSOLUTE
    ..\FWLIB\STM32F4xx_StdPeriph_Driver\src\stm32f4xx_exti.c 0x00000000   Number         0  stm32f4xx_exti.o ABSOLUTE
    ..\FWLIB\STM32F4xx_StdPeriph_Driver\src\stm32f4xx_fsmc.c 0x00000000   Number         0  stm32f4xx_fsmc.o ABSOLUTE
    ..\FWLIB\STM32F4xx_StdPeriph_Driver\src\stm32f4xx_gpio.c 0x00000000   Number         0  stm32f4xx_gpio.o ABSOLUTE
    ..\FWLIB\STM32F4xx_StdPeriph_Driver\src\stm32f4xx_rcc.c 0x00000000   Number         0  stm32f4xx_rcc.o ABSOLUTE
    ..\FWLIB\STM32F4xx_StdPeriph_Driver\src\stm32f4xx_syscfg.c 0x00000000   Number         0  stm32f4xx_syscfg.o ABSOLUTE
    ..\FWLIB\STM32F4xx_StdPeriph_Driver\src\stm32f4xx_tim.c 0x00000000   Number         0  stm32f4xx_tim.o ABSOLUTE
    ..\FWLIB\STM32F4xx_StdPeriph_Driver\src\stm32f4xx_usart.c 0x00000000   Number         0  stm32f4xx_usart.o ABSOLUTE
    ..\HARDWARE\24CXX\24cxx.c                0x00000000   Number         0  24cxx.o ABSOLUTE
    ..\HARDWARE\ALARM\alarm.c                0x00000000   Number         0  alarm.o ABSOLUTE
    ..\HARDWARE\ETHERNET\lan8720.c           0x00000000   Number         0  lan8720.o ABSOLUTE
    ..\HARDWARE\IIC\iicrw.c                  0x00000000   Number         0  iicrw.o ABSOLUTE
    ..\HARDWARE\IIC\myiic.c                  0x00000000   Number         0  myiic.o ABSOLUTE
    ..\HARDWARE\KEY\key.c                    0x00000000   Number         0  key.o ABSOLUTE
    ..\HARDWARE\LCD\DisplayMenu.c            0x00000000   Number         0  displaymenu.o ABSOLUTE
    ..\HARDWARE\LCD\lcd.c                    0x00000000   Number         0  lcd.o ABSOLUTE
    ..\HARDWARE\LED\led.c                    0x00000000   Number         0  led.o ABSOLUTE
    ..\HARDWARE\LM75\lm75.c                  0x00000000   Number         0  lm75.o ABSOLUTE
    ..\HARDWARE\LOG\log.c                    0x00000000   Number         0  log.o ABSOLUTE
    ..\HARDWARE\PCF8563\pcf8563.c            0x00000000   Number         0  pcf8563.o ABSOLUTE
    ..\HARDWARE\PWM\pwm.c                    0x00000000   Number         0  pwm.o ABSOLUTE
    ..\HARDWARE\RS485\RS485.c                0x00000000   Number         0  rs485.o ABSOLUTE
    ..\HARDWARE\TIMER\timer.c                0x00000000   Number         0  timer.o ABSOLUTE
    ..\LWIP\arch\sys_arch.c                  0x00000000   Number         0  sys_arch.o ABSOLUTE
    ..\LWIP\lwip-1.4.1\src\api\api_lib.c     0x00000000   Number         0  api_lib.o ABSOLUTE
    ..\LWIP\lwip-1.4.1\src\api\api_msg.c     0x00000000   Number         0  api_msg.o ABSOLUTE
    ..\LWIP\lwip-1.4.1\src\api\err.c         0x00000000   Number         0  err.o ABSOLUTE
    ..\LWIP\lwip-1.4.1\src\api\netbuf.c      0x00000000   Number         0  netbuf.o ABSOLUTE
    ..\LWIP\lwip-1.4.1\src\api\netdb.c       0x00000000   Number         0  netdb.o ABSOLUTE
    ..\LWIP\lwip-1.4.1\src\api\netifapi.c    0x00000000   Number         0  netifapi.o ABSOLUTE
    ..\LWIP\lwip-1.4.1\src\api\sockets.c     0x00000000   Number         0  sockets.o ABSOLUTE
    ..\LWIP\lwip-1.4.1\src\api\tcpip.c       0x00000000   Number         0  tcpip.o ABSOLUTE
    ..\LWIP\lwip-1.4.1\src\core\def.c        0x00000000   Number         0  def.o ABSOLUTE
    ..\LWIP\lwip-1.4.1\src\core\dhcp.c       0x00000000   Number         0  dhcp.o ABSOLUTE
    ..\LWIP\lwip-1.4.1\src\core\dns.c        0x00000000   Number         0  dns.o ABSOLUTE
    ..\LWIP\lwip-1.4.1\src\core\init.c       0x00000000   Number         0  init.o ABSOLUTE
    ..\LWIP\lwip-1.4.1\src\core\ipv4\autoip.c 0x00000000   Number         0  autoip.o ABSOLUTE
    ..\LWIP\lwip-1.4.1\src\core\ipv4\icmp.c  0x00000000   Number         0  icmp.o ABSOLUTE
    ..\LWIP\lwip-1.4.1\src\core\ipv4\igmp.c  0x00000000   Number         0  igmp.o ABSOLUTE
    ..\LWIP\lwip-1.4.1\src\core\ipv4\inet.c  0x00000000   Number         0  inet.o ABSOLUTE
    ..\LWIP\lwip-1.4.1\src\core\ipv4\inet_chksum.c 0x00000000   Number         0  inet_chksum.o ABSOLUTE
    ..\LWIP\lwip-1.4.1\src\core\ipv4\ip.c    0x00000000   Number         0  ip.o ABSOLUTE
    ..\LWIP\lwip-1.4.1\src\core\ipv4\ip_addr.c 0x00000000   Number         0  ip_addr.o ABSOLUTE
    ..\LWIP\lwip-1.4.1\src\core\ipv4\ip_frag.c 0x00000000   Number         0  ip_frag.o ABSOLUTE
    ..\LWIP\lwip-1.4.1\src\core\mem.c        0x00000000   Number         0  mem.o ABSOLUTE
    ..\LWIP\lwip-1.4.1\src\core\memp.c       0x00000000   Number         0  memp.o ABSOLUTE
    ..\LWIP\lwip-1.4.1\src\core\netif.c      0x00000000   Number         0  netif.o ABSOLUTE
    ..\LWIP\lwip-1.4.1\src\core\pbuf.c       0x00000000   Number         0  pbuf.o ABSOLUTE
    ..\LWIP\lwip-1.4.1\src\core\raw.c        0x00000000   Number         0  raw.o ABSOLUTE
    ..\LWIP\lwip-1.4.1\src\core\stats.c      0x00000000   Number         0  stats.o ABSOLUTE
    ..\LWIP\lwip-1.4.1\src\core\tcp.c        0x00000000   Number         0  tcp.o ABSOLUTE
    ..\LWIP\lwip-1.4.1\src\core\tcp_in.c     0x00000000   Number         0  tcp_in.o ABSOLUTE
    ..\LWIP\lwip-1.4.1\src\core\tcp_out.c    0x00000000   Number         0  tcp_out.o ABSOLUTE
    ..\LWIP\lwip-1.4.1\src\core\timers.c     0x00000000   Number         0  timers.o ABSOLUTE
    ..\LWIP\lwip-1.4.1\src\core\udp.c        0x00000000   Number         0  udp.o ABSOLUTE
    ..\LWIP\lwip-1.4.1\src\netif\etharp.c    0x00000000   Number         0  etharp.o ABSOLUTE
    ..\LWIP\lwip-1.4.1\src\netif\ethernetif.c 0x00000000   Number         0  ethernetif.o ABSOLUTE
    ..\LWIP\lwip_app\lwip_comm\lwip_comm.c   0x00000000   Number         0  lwip_comm.o ABSOLUTE
    ..\LWIP\lwip_app\tcp_server\tcp_server.c 0x00000000   Number         0  tcp_server.o ABSOLUTE
    ..\LWIP\lwip_app\web_server\fs.c         0x00000000   Number         0  fs.o ABSOLUTE
    ..\LWIP\lwip_app\web_server\httpd.c      0x00000000   Number         0  httpd.o ABSOLUTE
    ..\LWIP\lwip_app\web_server\httpd_cgi_ssi.c 0x00000000   Number         0  httpd_cgi_ssi.o ABSOLUTE
    ..\MALLOC\malloc.c                       0x00000000   Number         0  malloc.o ABSOLUTE
    ..\SYSTEM\delay\delay.c                  0x00000000   Number         0  delay.o ABSOLUTE
    ..\SYSTEM\sys\sys.c                      0x00000000   Number         0  sys.o ABSOLUTE
    ..\SYSTEM\usart\usart.c                  0x00000000   Number         0  usart.o ABSOLUTE
    ..\SYSTEM\version\version.c              0x00000000   Number         0  version.o ABSOLUTE
    ..\UCOSII\CORE\os_core.c                 0x00000000   Number         0  os_core.o ABSOLUTE
    ..\UCOSII\CORE\os_flag.c                 0x00000000   Number         0  os_flag.o ABSOLUTE
    ..\UCOSII\CORE\os_mbox.c                 0x00000000   Number         0  os_mbox.o ABSOLUTE
    ..\UCOSII\CORE\os_mem.c                  0x00000000   Number         0  os_mem.o ABSOLUTE
    ..\UCOSII\CORE\os_mutex.c                0x00000000   Number         0  os_mutex.o ABSOLUTE
    ..\UCOSII\CORE\os_q.c                    0x00000000   Number         0  os_q.o ABSOLUTE
    ..\UCOSII\CORE\os_sem.c                  0x00000000   Number         0  os_sem.o ABSOLUTE
    ..\UCOSII\CORE\os_task.c                 0x00000000   Number         0  os_task.o ABSOLUTE
    ..\UCOSII\CORE\os_time.c                 0x00000000   Number         0  os_time.o ABSOLUTE
    ..\UCOSII\CORE\os_tmr.c                  0x00000000   Number         0  os_tmr.o ABSOLUTE
    ..\UCOSII\PORT\os_cpu_a.asm              0x00000000   Number         0  os_cpu_a.o ABSOLUTE
    ..\UCOSII\PORT\os_cpu_c.c                0x00000000   Number         0  os_cpu_c.o ABSOLUTE
    ..\\FWLIB\\STM32F4x7_ETH_Driver\\src\\stm32f4x7_eth.c 0x00000000   Number         0  stm32f4x7_eth.o ABSOLUTE
    ..\\FWLIB\\STM32F4xx_StdPeriph_Driver\\src\\misc.c 0x00000000   Number         0  misc.o ABSOLUTE
    ..\\FWLIB\\STM32F4xx_StdPeriph_Driver\\src\\stm32f4xx_adc.c 0x00000000   Number         0  stm32f4xx_adc.o ABSOLUTE
    ..\\FWLIB\\STM32F4xx_StdPeriph_Driver\\src\\stm32f4xx_exti.c 0x00000000   Number         0  stm32f4xx_exti.o ABSOLUTE
    ..\\FWLIB\\STM32F4xx_StdPeriph_Driver\\src\\stm32f4xx_fsmc.c 0x00000000   Number         0  stm32f4xx_fsmc.o ABSOLUTE
    ..\\FWLIB\\STM32F4xx_StdPeriph_Driver\\src\\stm32f4xx_gpio.c 0x00000000   Number         0  stm32f4xx_gpio.o ABSOLUTE
    ..\\FWLIB\\STM32F4xx_StdPeriph_Driver\\src\\stm32f4xx_rcc.c 0x00000000   Number         0  stm32f4xx_rcc.o ABSOLUTE
    ..\\FWLIB\\STM32F4xx_StdPeriph_Driver\\src\\stm32f4xx_syscfg.c 0x00000000   Number         0  stm32f4xx_syscfg.o ABSOLUTE
    ..\\FWLIB\\STM32F4xx_StdPeriph_Driver\\src\\stm32f4xx_tim.c 0x00000000   Number         0  stm32f4xx_tim.o ABSOLUTE
    ..\\FWLIB\\STM32F4xx_StdPeriph_Driver\\src\\stm32f4xx_usart.c 0x00000000   Number         0  stm32f4xx_usart.o ABSOLUTE
    ..\\HARDWARE\\24CXX\\24cxx.c             0x00000000   Number         0  24cxx.o ABSOLUTE
    ..\\HARDWARE\\ALARM\\alarm.c             0x00000000   Number         0  alarm.o ABSOLUTE
    ..\\HARDWARE\\ETHERNET\\lan8720.c        0x00000000   Number         0  lan8720.o ABSOLUTE
    ..\\HARDWARE\\IIC\\iicrw.c               0x00000000   Number         0  iicrw.o ABSOLUTE
    ..\\HARDWARE\\IIC\\myiic.c               0x00000000   Number         0  myiic.o ABSOLUTE
    ..\\HARDWARE\\KEY\\key.c                 0x00000000   Number         0  key.o ABSOLUTE
    ..\\HARDWARE\\LCD\\DisplayMenu.c         0x00000000   Number         0  displaymenu.o ABSOLUTE
    ..\\HARDWARE\\LCD\\lcd.c                 0x00000000   Number         0  lcd.o ABSOLUTE
    ..\\HARDWARE\\LED\\led.c                 0x00000000   Number         0  led.o ABSOLUTE
    ..\\HARDWARE\\LM75\\lm75.c               0x00000000   Number         0  lm75.o ABSOLUTE
    ..\\HARDWARE\\LOG\\log.c                 0x00000000   Number         0  log.o ABSOLUTE
    ..\\HARDWARE\\PCF8563\\pcf8563.c         0x00000000   Number         0  pcf8563.o ABSOLUTE
    ..\\HARDWARE\\PWM\\pwm.c                 0x00000000   Number         0  pwm.o ABSOLUTE
    ..\\HARDWARE\\RS485\\RS485.c             0x00000000   Number         0  rs485.o ABSOLUTE
    ..\\HARDWARE\\TIMER\\timer.c             0x00000000   Number         0  timer.o ABSOLUTE
    ..\\LWIP\\arch\\sys_arch.c               0x00000000   Number         0  sys_arch.o ABSOLUTE
    ..\\LWIP\\lwip-1.4.1\\src\\api\\api_lib.c 0x00000000   Number         0  api_lib.o ABSOLUTE
    ..\\LWIP\\lwip-1.4.1\\src\\api\\api_msg.c 0x00000000   Number         0  api_msg.o ABSOLUTE
    ..\\LWIP\\lwip-1.4.1\\src\\api\\err.c    0x00000000   Number         0  err.o ABSOLUTE
    ..\\LWIP\\lwip-1.4.1\\src\\api\\netbuf.c 0x00000000   Number         0  netbuf.o ABSOLUTE
    ..\\LWIP\\lwip-1.4.1\\src\\api\\netdb.c  0x00000000   Number         0  netdb.o ABSOLUTE
    ..\\LWIP\\lwip-1.4.1\\src\\api\\netifapi.c 0x00000000   Number         0  netifapi.o ABSOLUTE
    ..\\LWIP\\lwip-1.4.1\\src\\api\\sockets.c 0x00000000   Number         0  sockets.o ABSOLUTE
    ..\\LWIP\\lwip-1.4.1\\src\\api\\tcpip.c  0x00000000   Number         0  tcpip.o ABSOLUTE
    ..\\LWIP\\lwip-1.4.1\\src\\core\\def.c   0x00000000   Number         0  def.o ABSOLUTE
    ..\\LWIP\\lwip-1.4.1\\src\\core\\dhcp.c  0x00000000   Number         0  dhcp.o ABSOLUTE
    ..\\LWIP\\lwip-1.4.1\\src\\core\\dns.c   0x00000000   Number         0  dns.o ABSOLUTE
    ..\\LWIP\\lwip-1.4.1\\src\\core\\init.c  0x00000000   Number         0  init.o ABSOLUTE
    ..\\LWIP\\lwip-1.4.1\\src\\core\\ipv4\\autoip.c 0x00000000   Number         0  autoip.o ABSOLUTE
    ..\\LWIP\\lwip-1.4.1\\src\\core\\ipv4\\icmp.c 0x00000000   Number         0  icmp.o ABSOLUTE
    ..\\LWIP\\lwip-1.4.1\\src\\core\\ipv4\\igmp.c 0x00000000   Number         0  igmp.o ABSOLUTE
    ..\\LWIP\\lwip-1.4.1\\src\\core\\ipv4\\inet.c 0x00000000   Number         0  inet.o ABSOLUTE
    ..\\LWIP\\lwip-1.4.1\\src\\core\\ipv4\\inet_chksum.c 0x00000000   Number         0  inet_chksum.o ABSOLUTE
    ..\\LWIP\\lwip-1.4.1\\src\\core\\ipv4\\ip.c 0x00000000   Number         0  ip.o ABSOLUTE
    ..\\LWIP\\lwip-1.4.1\\src\\core\\ipv4\\ip_addr.c 0x00000000   Number         0  ip_addr.o ABSOLUTE
    ..\\LWIP\\lwip-1.4.1\\src\\core\\ipv4\\ip_frag.c 0x00000000   Number         0  ip_frag.o ABSOLUTE
    ..\\LWIP\\lwip-1.4.1\\src\\core\\mem.c   0x00000000   Number         0  mem.o ABSOLUTE
    ..\\LWIP\\lwip-1.4.1\\src\\core\\memp.c  0x00000000   Number         0  memp.o ABSOLUTE
    ..\\LWIP\\lwip-1.4.1\\src\\core\\netif.c 0x00000000   Number         0  netif.o ABSOLUTE
    ..\\LWIP\\lwip-1.4.1\\src\\core\\pbuf.c  0x00000000   Number         0  pbuf.o ABSOLUTE
    ..\\LWIP\\lwip-1.4.1\\src\\core\\raw.c   0x00000000   Number         0  raw.o ABSOLUTE
    ..\\LWIP\\lwip-1.4.1\\src\\core\\stats.c 0x00000000   Number         0  stats.o ABSOLUTE
    ..\\LWIP\\lwip-1.4.1\\src\\core\\tcp.c   0x00000000   Number         0  tcp.o ABSOLUTE
    ..\\LWIP\\lwip-1.4.1\\src\\core\\tcp_in.c 0x00000000   Number         0  tcp_in.o ABSOLUTE
    ..\\LWIP\\lwip-1.4.1\\src\\core\\tcp_out.c 0x00000000   Number         0  tcp_out.o ABSOLUTE
    ..\\LWIP\\lwip-1.4.1\\src\\core\\timers.c 0x00000000   Number         0  timers.o ABSOLUTE
    ..\\LWIP\\lwip-1.4.1\\src\\core\\udp.c   0x00000000   Number         0  udp.o ABSOLUTE
    ..\\LWIP\\lwip-1.4.1\\src\\netif\\etharp.c 0x00000000   Number         0  etharp.o ABSOLUTE
    ..\\LWIP\\lwip-1.4.1\\src\\netif\\ethernetif.c 0x00000000   Number         0  ethernetif.o ABSOLUTE
    ..\\LWIP\\lwip_app\\lwip_comm\\lwip_comm.c 0x00000000   Number         0  lwip_comm.o ABSOLUTE
    ..\\LWIP\\lwip_app\\tcp_server\\tcp_server.c 0x00000000   Number         0  tcp_server.o ABSOLUTE
    ..\\LWIP\\lwip_app\\web_server\\fs.c     0x00000000   Number         0  fs.o ABSOLUTE
    ..\\LWIP\\lwip_app\\web_server\\httpd.c  0x00000000   Number         0  httpd.o ABSOLUTE
    ..\\LWIP\\lwip_app\\web_server\\httpd_cgi_ssi.c 0x00000000   Number         0  httpd_cgi_ssi.o ABSOLUTE
    ..\\MALLOC\\malloc.c                     0x00000000   Number         0  malloc.o ABSOLUTE
    ..\\SYSTEM\\delay\\delay.c               0x00000000   Number         0  delay.o ABSOLUTE
    ..\\SYSTEM\\sys\\sys.c                   0x00000000   Number         0  sys.o ABSOLUTE
    ..\\SYSTEM\\usart\\usart.c               0x00000000   Number         0  usart.o ABSOLUTE
    ..\\UCOSII\\CORE\\os_core.c              0x00000000   Number         0  os_core.o ABSOLUTE
    ..\\UCOSII\\CORE\\os_flag.c              0x00000000   Number         0  os_flag.o ABSOLUTE
    ..\\UCOSII\\CORE\\os_mbox.c              0x00000000   Number         0  os_mbox.o ABSOLUTE
    ..\\UCOSII\\CORE\\os_mem.c               0x00000000   Number         0  os_mem.o ABSOLUTE
    ..\\UCOSII\\CORE\\os_mutex.c             0x00000000   Number         0  os_mutex.o ABSOLUTE
    ..\\UCOSII\\CORE\\os_q.c                 0x00000000   Number         0  os_q.o ABSOLUTE
    ..\\UCOSII\\CORE\\os_sem.c               0x00000000   Number         0  os_sem.o ABSOLUTE
    ..\\UCOSII\\CORE\\os_task.c              0x00000000   Number         0  os_task.o ABSOLUTE
    ..\\UCOSII\\CORE\\os_time.c              0x00000000   Number         0  os_time.o ABSOLUTE
    ..\\UCOSII\\CORE\\os_tmr.c               0x00000000   Number         0  os_tmr.o ABSOLUTE
    ..\\UCOSII\\PORT\\os_cpu_c.c             0x00000000   Number         0  os_cpu_c.o ABSOLUTE
    dc.s                                     0x00000000   Number         0  dc.o ABSOLUTE
    main.c                                   0x00000000   Number         0  main.o ABSOLUTE
    main.c                                   0x00000000   Number         0  main.o ABSOLUTE
    system_stm32f4xx.c                       0x00000000   Number         0  system_stm32f4xx.o ABSOLUTE
    system_stm32f4xx.c                       0x00000000   Number         0  system_stm32f4xx.o ABSOLUTE
    RESET                                    0x08000000   Section      392  startup_stm32f40_41xxx.o(RESET)
    !!!main                                  0x08000188   Section        8  __main.o(!!!main)
    !!!scatter                               0x08000190   Section       52  __scatter.o(!!!scatter)
    !!dczerorl2                              0x080001c4   Section       90  __dczerorl2.o(!!dczerorl2)
    !!handler_zi                             0x08000220   Section       28  __scatter_zi.o(!!handler_zi)
    .ARM.Collect$$_printf_percent$$00000000  0x0800023c   Section        0  _printf_percent.o(.ARM.Collect$$_printf_percent$$00000000)
    .ARM.Collect$$_printf_percent$$00000009  0x0800023c   Section        6  _printf_d.o(.ARM.Collect$$_printf_percent$$00000009)
    .ARM.Collect$$_printf_percent$$0000000C  0x08000242   Section        6  _printf_x.o(.ARM.Collect$$_printf_percent$$0000000C)
    .ARM.Collect$$_printf_percent$$00000014  0x08000248   Section        6  _printf_s.o(.ARM.Collect$$_printf_percent$$00000014)
    .ARM.Collect$$_printf_percent$$00000017  0x0800024e   Section        4  _printf_percent_end.o(.ARM.Collect$$_printf_percent$$00000017)
    .ARM.Collect$$libinit$$00000000          0x08000252   Section        2  libinit.o(.ARM.Collect$$libinit$$00000000)
    .ARM.Collect$$libinit$$00000001          0x08000254   Section        4  libinit2.o(.ARM.Collect$$libinit$$00000001)
    .ARM.Collect$$libinit$$00000004          0x08000258   Section        0  libinit2.o(.ARM.Collect$$libinit$$00000004)
    .ARM.Collect$$libinit$$0000000A          0x08000258   Section        0  libinit2.o(.ARM.Collect$$libinit$$0000000A)
    .ARM.Collect$$libinit$$0000000C          0x08000258   Section        0  libinit2.o(.ARM.Collect$$libinit$$0000000C)
    .ARM.Collect$$libinit$$0000000E          0x08000258   Section        0  libinit2.o(.ARM.Collect$$libinit$$0000000E)
    .ARM.Collect$$libinit$$0000000F          0x08000258   Section        6  libinit2.o(.ARM.Collect$$libinit$$0000000F)
    .ARM.Collect$$libinit$$00000011          0x0800025e   Section        0  libinit2.o(.ARM.Collect$$libinit$$00000011)
    .ARM.Collect$$libinit$$00000012          0x0800025e   Section       12  libinit2.o(.ARM.Collect$$libinit$$00000012)
    .ARM.Collect$$libinit$$00000013          0x0800026a   Section        0  libinit2.o(.ARM.Collect$$libinit$$00000013)
    .ARM.Collect$$libinit$$00000015          0x0800026a   Section        0  libinit2.o(.ARM.Collect$$libinit$$00000015)
    .ARM.Collect$$libinit$$00000017          0x0800026a   Section        0  libinit2.o(.ARM.Collect$$libinit$$00000017)
    .ARM.Collect$$libinit$$00000019          0x0800026a   Section        0  libinit2.o(.ARM.Collect$$libinit$$00000019)
    .ARM.Collect$$libinit$$0000001B          0x0800026a   Section        0  libinit2.o(.ARM.Collect$$libinit$$0000001B)
    .ARM.Collect$$libinit$$0000001D          0x0800026a   Section        0  libinit2.o(.ARM.Collect$$libinit$$0000001D)
    .ARM.Collect$$libinit$$0000001F          0x0800026a   Section        0  libinit2.o(.ARM.Collect$$libinit$$0000001F)
    .ARM.Collect$$libinit$$00000021          0x0800026a   Section        0  libinit2.o(.ARM.Collect$$libinit$$00000021)
    .ARM.Collect$$libinit$$00000023          0x0800026a   Section        0  libinit2.o(.ARM.Collect$$libinit$$00000023)
    .ARM.Collect$$libinit$$00000025          0x0800026a   Section        0  libinit2.o(.ARM.Collect$$libinit$$00000025)
    .ARM.Collect$$libinit$$0000002C          0x0800026a   Section        0  libinit2.o(.ARM.Collect$$libinit$$0000002C)
    .ARM.Collect$$libinit$$0000002E          0x0800026a   Section        0  libinit2.o(.ARM.Collect$$libinit$$0000002E)
    .ARM.Collect$$libinit$$00000030          0x0800026a   Section        0  libinit2.o(.ARM.Collect$$libinit$$00000030)
    .ARM.Collect$$libinit$$00000032          0x0800026a   Section        0  libinit2.o(.ARM.Collect$$libinit$$00000032)
    .ARM.Collect$$libinit$$00000033          0x0800026a   Section        2  libinit2.o(.ARM.Collect$$libinit$$00000033)
    .ARM.Collect$$libshutdown$$00000000      0x0800026c   Section        2  libshutdown.o(.ARM.Collect$$libshutdown$$00000000)
    .ARM.Collect$$libshutdown$$00000003      0x0800026e   Section        0  libshutdown2.o(.ARM.Collect$$libshutdown$$00000003)
    .ARM.Collect$$libshutdown$$00000006      0x0800026e   Section        0  libshutdown2.o(.ARM.Collect$$libshutdown$$00000006)
    .ARM.Collect$$libshutdown$$00000009      0x0800026e   Section        0  libshutdown2.o(.ARM.Collect$$libshutdown$$00000009)
    .ARM.Collect$$libshutdown$$0000000B      0x0800026e   Section        0  libshutdown2.o(.ARM.Collect$$libshutdown$$0000000B)
    .ARM.Collect$$libshutdown$$0000000E      0x0800026e   Section        0  libshutdown2.o(.ARM.Collect$$libshutdown$$0000000E)
    .ARM.Collect$$libshutdown$$0000000F      0x0800026e   Section        2  libshutdown2.o(.ARM.Collect$$libshutdown$$0000000F)
    .ARM.Collect$$rtentry$$00000000          0x08000270   Section        0  __rtentry.o(.ARM.Collect$$rtentry$$00000000)
    .ARM.Collect$$rtentry$$00000002          0x08000270   Section        0  __rtentry2.o(.ARM.Collect$$rtentry$$00000002)
    .ARM.Collect$$rtentry$$00000004          0x08000270   Section        6  __rtentry4.o(.ARM.Collect$$rtentry$$00000004)
    .ARM.Collect$$rtentry$$00000009          0x08000276   Section        0  __rtentry2.o(.ARM.Collect$$rtentry$$00000009)
    .ARM.Collect$$rtentry$$0000000A          0x08000276   Section        4  __rtentry2.o(.ARM.Collect$$rtentry$$0000000A)
    .ARM.Collect$$rtentry$$0000000C          0x0800027a   Section        0  __rtentry2.o(.ARM.Collect$$rtentry$$0000000C)
    .ARM.Collect$$rtentry$$0000000D          0x0800027a   Section        8  __rtentry2.o(.ARM.Collect$$rtentry$$0000000D)
    .ARM.Collect$$rtexit$$00000000           0x08000282   Section        2  rtexit.o(.ARM.Collect$$rtexit$$00000000)
    .ARM.Collect$$rtexit$$00000002           0x08000284   Section        0  rtexit2.o(.ARM.Collect$$rtexit$$00000002)
    .ARM.Collect$$rtexit$$00000003           0x08000284   Section        4  rtexit2.o(.ARM.Collect$$rtexit$$00000003)
    .ARM.Collect$$rtexit$$00000004           0x08000288   Section        6  rtexit2.o(.ARM.Collect$$rtexit$$00000004)
    .text                                    0x08000290   Section       60  startup_stm32f40_41xxx.o(.text)
    $v0                                      0x08000290   Number         0  startup_stm32f40_41xxx.o(.text)
    .text                                    0x080002cc   Section      200  os_cpu_a.o(.text)
    $v0                                      0x080002cc   Number         0  os_cpu_a.o(.text)
    .text                                    0x08000394   Section        2  use_no_semi_2.o(.text)
    .text                                    0x08000398   Section       16  rt_ctype_table.o(.text)
    .text                                    0x080003a8   Section        0  noretval__2printf.o(.text)
    .text                                    0x080003c0   Section        0  noretval__2sprintf.o(.text)
    .text                                    0x080003e8   Section        0  _printf_pad.o(.text)
    .text                                    0x08000436   Section        0  _printf_str.o(.text)
    .text                                    0x08000488   Section        0  _printf_dec.o(.text)
    .text                                    0x08000500   Section        0  _printf_hex_int.o(.text)
    .text                                    0x08000558   Section        0  __printf_flags_wp.o(.text)
    .text                                    0x08000690   Section        0  atoi.o(.text)
    .text                                    0x080006aa   Section        0  strtol.o(.text)
    .text                                    0x0800071c   Section        0  strtok.o(.text)
    .text                                    0x08000728   Section        0  strchr.o(.text)
    .text                                    0x0800073c   Section        0  strstr.o(.text)
    .text                                    0x08000760   Section        0  memcmp.o(.text)
    .text                                    0x080007b8   Section        0  strcpy.o(.text)
    .text                                    0x08000800   Section        0  strlen.o(.text)
    .text                                    0x0800083e   Section        0  strncmp.o(.text)
    .text                                    0x080008d4   Section        0  strcat.o(.text)
    .text                                    0x080008ec   Section      138  rt_memcpy_v6.o(.text)
    .text                                    0x08000976   Section      100  rt_memcpy_w.o(.text)
    .text                                    0x080009da   Section       68  rt_memclr.o(.text)
    .text                                    0x08000a1e   Section       78  rt_memclr_w.o(.text)
    .text                                    0x08000a6c   Section       86  strncpy.o(.text)
    .text                                    0x08000ac4   Section      128  strcmpv7m.o(.text)
    .text                                    0x08000b44   Section        0  heapauxi.o(.text)
    .text                                    0x08000b4a   Section        2  use_no_semi.o(.text)
    .text                                    0x08000b4c   Section        8  rt_locale_intlibspace.o(.text)
    .text                                    0x08000b54   Section        8  rt_errno_addr_intlibspace.o(.text)
    .text                                    0x08000b5c   Section        0  _printf_intcommon.o(.text)
    .text                                    0x08000c10   Section        0  _printf_char_common.o(.text)
    _printf_input_char                       0x08000c11   Thumb Code    10  _printf_char_common.o(.text)
    .text                                    0x08000c40   Section        0  _sputc.o(.text)
    .text                                    0x08000c4a   Section        0  _printf_char.o(.text)
    .text                                    0x08000c78   Section        0  _printf_char_file.o(.text)
    .text                                    0x08000c9c   Section        0  _strtoul.o(.text)
    .text                                    0x08000d3c   Section        0  strtok_int.o(.text)
    .text                                    0x08000d80   Section        8  libspace.o(.text)
    .text                                    0x08000d88   Section        0  _chval.o(.text)
    .text                                    0x08000da4   Section        0  ferror.o(.text)
    .text                                    0x08000dac   Section        0  strcspn.o(.text)
    .text                                    0x08000dcc   Section        0  strspn.o(.text)
    .text                                    0x08000de8   Section       74  sys_stackheap_outer.o(.text)
    .text                                    0x08000e32   Section        0  exit.o(.text)
    i.AHV_Check                              0x08000e40   Section        0  alarm.o(i.AHV_Check)
    i.AHV_Check_Handler                      0x08000f18   Section        0  alarm.o(i.AHV_Check_Handler)
    i.ALARM_Init                             0x080010a0   Section        0  alarm.o(i.ALARM_Init)
    i.ALARM_Update                           0x08001288   Section        0  alarm.o(i.ALARM_Update)
    i.AT24CXX_Check                          0x080012d4   Section        0  24cxx.o(i.AT24CXX_Check)
    i.AT24CXX_Read                           0x08001308   Section        0  24cxx.o(i.AT24CXX_Read)
    i.AT24CXX_ReadLenByte                    0x0800132a   Section        0  24cxx.o(i.AT24CXX_ReadLenByte)
    i.AT24CXX_ReadOneByte                    0x08001358   Section        0  24cxx.o(i.AT24CXX_ReadOneByte)
    i.AT24CXX_Write                          0x080013c8   Section        0  24cxx.o(i.AT24CXX_Write)
    i.AT24CXX_WriteLenByte                   0x080013ec   Section        0  24cxx.o(i.AT24CXX_WriteLenByte)
    i.AT24CXX_WriteOneByte                   0x08001418   Section        0  24cxx.o(i.AT24CXX_WriteOneByte)
    i.Alarm_RL_A                             0x08001484   Section        0  alarm.o(i.Alarm_RL_A)
    i.Alarm_RL_B                             0x08001498   Section        0  alarm.o(i.Alarm_RL_B)
    i.BHV_Check                              0x080014ac   Section        0  alarm.o(i.BHV_Check)
    i.BHV_Check_Handler                      0x08001584   Section        0  alarm.o(i.BHV_Check_Handler)
    i.ClearLog                               0x0800170c   Section        0  log.o(i.ClearLog)
    i.Control_CGI_Handler                    0x08001718   Section        0  httpd_cgi_ssi.o(i.Control_CGI_Handler)
    i.Datetime_CGI_Handler                   0x08001950   Section        0  httpd_cgi_ssi.o(i.Datetime_CGI_Handler)
    i.Default_CGI_Handler                    0x08001a20   Section        0  httpd_cgi_ssi.o(i.Default_CGI_Handler)
    i.DiaplayInqAFangQuPara                  0x08001ae8   Section        0  displaymenu.o(i.DiaplayInqAFangQuPara)
    i.DiaplayInqBFangQuPara                  0x08001bec   Section        0  displaymenu.o(i.DiaplayInqBFangQuPara)
    i.DiaplayInqFangQuPara                   0x08001cf0   Section        0  displaymenu.o(i.DiaplayInqFangQuPara)
    i.DiaplaySetBuFangPara                   0x08001d80   Section        0  displaymenu.o(i.DiaplaySetBuFangPara)
    i.DiaplaySetExtDeviceTypeScreen          0x080021dc   Section        0  displaymenu.o(i.DiaplaySetExtDeviceTypeScreen)
    i.DiaplaySetFangQuPara                   0x08002648   Section        0  displaymenu.o(i.DiaplaySetFangQuPara)
    i.DisplayAlarmTypeList                   0x080026f8   Section        0  displaymenu.o(i.DisplayAlarmTypeList)
    i.DisplayClearDuanLuAlarmRecord          0x08003084   Section        0  displaymenu.o(i.DisplayClearDuanLuAlarmRecord)
    i.DisplayClearDuanXianAlarmRecord        0x0800310c   Section        0  displaymenu.o(i.DisplayClearDuanXianAlarmRecord)
    i.DisplayInitMenu                        0x08003194   Section        0  displaymenu.o(i.DisplayInitMenu)
    i.DisplayInputPassword                   0x080031c4   Section        0  displaymenu.o(i.DisplayInputPassword)
    i.DisplayInqAAreaDuanLuAlarmRecord       0x08003204   Section        0  displaymenu.o(i.DisplayInqAAreaDuanLuAlarmRecord)
    i.DisplayInqAAreaDuanXianAlarmRecord     0x08003258   Section        0  displaymenu.o(i.DisplayInqAAreaDuanXianAlarmRecord)
    i.DisplayInqAlarmRecord                  0x080032ac   Section        0  displaymenu.o(i.DisplayInqAlarmRecord)
    i.DisplayInqBAreaDuanLuAlarmRecord       0x08003314   Section        0  displaymenu.o(i.DisplayInqBAreaDuanLuAlarmRecord)
    i.DisplayInqBAreaDuanXianAlarmRecord     0x08003368   Section        0  displaymenu.o(i.DisplayInqBAreaDuanXianAlarmRecord)
    i.DisplayInqBuFangPara                   0x080033bc   Section        0  displaymenu.o(i.DisplayInqBuFangPara)
    i.DisplayInqDuanLuAlarmRecord            0x08003558   Section        0  displaymenu.o(i.DisplayInqDuanLuAlarmRecord)
    i.DisplayInqDuanXianAlarmRecord          0x080035e8   Section        0  displaymenu.o(i.DisplayInqDuanXianAlarmRecord)
    i.DisplayInqEthPara                      0x08003678   Section        0  displaymenu.o(i.DisplayInqEthPara)
    i.DisplayInqFangChaiAlarmRecord          0x08003778   Section        0  displaymenu.o(i.DisplayInqFangChaiAlarmRecord)
    i.DisplayInqGateWay                      0x080037ac   Section        0  displaymenu.o(i.DisplayInqGateWay)
    i.DisplayInqIpAddr                       0x0800380c   Section        0  displaymenu.o(i.DisplayInqIpAddr)
    i.DisplayInqMacAddr                      0x08003890   Section        0  displaymenu.o(i.DisplayInqMacAddr)
    i.DisplayInqSubnetMask                   0x08003930   Section        0  displaymenu.o(i.DisplayInqSubnetMask)
    i.DisplayInqSysPara                      0x080039a0   Section        0  displaymenu.o(i.DisplayInqSysPara)
    i.DisplayInquireMenu                     0x08003a00   Section        0  displaymenu.o(i.DisplayInquireMenu)
    i.DisplayOrdinaryUserRootMenu            0x08003ab0   Section        0  displaymenu.o(i.DisplayOrdinaryUserRootMenu)
    i.DisplayPasswordError                   0x08003b04   Section        0  displaymenu.o(i.DisplayPasswordError)
    i.DisplayRunMenu                         0x08003b5c   Section        0  displaymenu.o(i.DisplayRunMenu)
    i.DisplaySetAFangQuPara                  0x08003c58   Section        0  displaymenu.o(i.DisplaySetAFangQuPara)
    i.DisplaySetBFangQuPara                  0x08003e04   Section        0  displaymenu.o(i.DisplaySetBFangQuPara)
    i.DisplaySetClearRecord                  0x08003fb0   Section        0  displaymenu.o(i.DisplaySetClearRecord)
    i.DisplaySetDateTime                     0x08004068   Section        0  displaymenu.o(i.DisplaySetDateTime)
    i.DisplaySetEthPara                      0x08004554   Section        0  displaymenu.o(i.DisplaySetEthPara)
    i.DisplaySetGateWay                      0x08004654   Section        0  displaymenu.o(i.DisplaySetGateWay)
    i.DisplaySetIpAddr                       0x08004730   Section        0  displaymenu.o(i.DisplaySetIpAddr)
    i.DisplaySetMacAddr                      0x08004820   Section        0  displaymenu.o(i.DisplaySetMacAddr)
    i.DisplaySetMenu                         0x080048e8   Section        0  displaymenu.o(i.DisplaySetMenu)
    i.DisplaySetSubnetMask                   0x08004998   Section        0  displaymenu.o(i.DisplaySetSubnetMask)
    i.DisplaySetSysPara                      0x08004a84   Section        0  displaymenu.o(i.DisplaySetSysPara)
    i.DisplaySuperUserRootMenu               0x08004b30   Section        0  displaymenu.o(i.DisplaySuperUserRootMenu)
    i.DisplayUserLogin                       0x08004be0   Section        0  displaymenu.o(i.DisplayUserLogin)
    i.DisplayVersionMenu                     0x08004c64   Section        0  displaymenu.o(i.DisplayVersionMenu)
    i.DisplayZhengZaiQingChu                 0x08004d3c   Section        0  displaymenu.o(i.DisplayZhengZaiQingChu)
    i.Display_16x16                          0x08004d70   Section        0  lcd.o(i.Display_16x16)
    i.Display_8x16                           0x08004df4   Section        0  lcd.o(i.Display_8x16)
    i.Display_Line_Index_16x16               0x08004e78   Section        0  lcd.o(i.Display_Line_Index_16x16)
    i.Display_Line_Index_8x16                0x08004f24   Section        0  lcd.o(i.Display_Line_Index_8x16)
    i.Display_Line_Index_8x16_pn             0x08004fb4   Section        0  lcd.o(i.Display_Line_Index_8x16_pn)
    i.ETHERNET_NVICConfiguration             0x08005088   Section        0  lan8720.o(i.ETHERNET_NVICConfiguration)
    ETHERNET_NVICConfiguration               0x08005089   Thumb Code    32  lan8720.o(i.ETHERNET_NVICConfiguration)
    i.ETH_DMAClearITPendingBit               0x080050a8   Section        0  stm32f4x7_eth.o(i.ETH_DMAClearITPendingBit)
    i.ETH_DMAITConfig                        0x080050b4   Section        0  stm32f4x7_eth.o(i.ETH_DMAITConfig)
    i.ETH_DMAReceptionCmd                    0x080050d4   Section        0  stm32f4x7_eth.o(i.ETH_DMAReceptionCmd)
    i.ETH_DMARxDescChainInit                 0x080050f8   Section        0  stm32f4x7_eth.o(i.ETH_DMARxDescChainInit)
    i.ETH_DMATransmissionCmd                 0x0800515c   Section        0  stm32f4x7_eth.o(i.ETH_DMATransmissionCmd)
    i.ETH_DMATxDescChainInit                 0x08005180   Section        0  stm32f4x7_eth.o(i.ETH_DMATxDescChainInit)
    i.ETH_DMATxDescChecksumInsertionConfig   0x080051d0   Section        0  stm32f4x7_eth.o(i.ETH_DMATxDescChecksumInsertionConfig)
    i.ETH_DeInit                             0x080051d8   Section        0  stm32f4x7_eth.o(i.ETH_DeInit)
    i.ETH_Delay                              0x08005200   Section        0  stm32f4x7_eth.o(i.ETH_Delay)
    ETH_Delay                                0x08005201   Thumb Code    28  stm32f4x7_eth.o(i.ETH_Delay)
    i.ETH_FlushTransmitFIFO                  0x0800521c   Section        0  stm32f4x7_eth.o(i.ETH_FlushTransmitFIFO)
    i.ETH_GetCurrentTxBuffer                 0x08005230   Section        0  lan8720.o(i.ETH_GetCurrentTxBuffer)
    i.ETH_GetDMARxDescFrameLength            0x0800523c   Section        0  stm32f4x7_eth.o(i.ETH_GetDMARxDescFrameLength)
    i.ETH_GetRxPktSize                       0x08005246   Section        0  stm32f4x7_eth.o(i.ETH_GetRxPktSize)
    i.ETH_GetSoftwareResetStatus             0x08005270   Section        0  stm32f4x7_eth.o(i.ETH_GetSoftwareResetStatus)
    i.ETH_Get_Link_Status                    0x08005288   Section        0  lan8720.o(i.ETH_Get_Link_Status)
    i.ETH_IRQHandler                         0x080052a0   Section        0  lan8720.o(i.ETH_IRQHandler)
    i.ETH_Init                               0x080052d0   Section        0  stm32f4x7_eth.o(i.ETH_Init)
    i.ETH_MACAddressConfig                   0x0800556c   Section        0  stm32f4x7_eth.o(i.ETH_MACAddressConfig)
    i.ETH_MACDMA_Config                      0x080055a0   Section        0  lan8720.o(i.ETH_MACDMA_Config)
    i.ETH_MACReceptionCmd                    0x08005640   Section        0  stm32f4x7_eth.o(i.ETH_MACReceptionCmd)
    i.ETH_MACTransmissionCmd                 0x08005664   Section        0  stm32f4x7_eth.o(i.ETH_MACTransmissionCmd)
    i.ETH_Mem_Free                           0x08005688   Section        0  lan8720.o(i.ETH_Mem_Free)
    i.ETH_Mem_Malloc                         0x080056c4   Section        0  lan8720.o(i.ETH_Mem_Malloc)
    i.ETH_ReadPHYRegister                    0x08005730   Section        0  stm32f4x7_eth.o(i.ETH_ReadPHYRegister)
    i.ETH_Reinit                             0x0800579c   Section        0  lan8720.o(i.ETH_Reinit)
    i.ETH_Rx_Packet                          0x080057c0   Section        0  lan8720.o(i.ETH_Rx_Packet)
    i.ETH_SoftwareReset                      0x0800585c   Section        0  stm32f4x7_eth.o(i.ETH_SoftwareReset)
    i.ETH_Start                              0x08005870   Section        0  stm32f4x7_eth.o(i.ETH_Start)
    i.ETH_StructInit                         0x08005890   Section        0  stm32f4x7_eth.o(i.ETH_StructInit)
    i.ETH_Tx_Packet                          0x08005944   Section        0  lan8720.o(i.ETH_Tx_Packet)
    i.ETH_WritePHYRegister                   0x080059ac   Section        0  stm32f4x7_eth.o(i.ETH_WritePHYRegister)
    i.EXTI15_10_IRQHandler                   0x08005a14   Section        0  alarm.o(i.EXTI15_10_IRQHandler)
    i.EXTI9_5_IRQHandler                     0x08005a26   Section        0  alarm.o(i.EXTI9_5_IRQHandler)
    i.EXTIX_Init                             0x08005a38   Section        0  alarm.o(i.EXTIX_Init)
    i.EXTI_ClearITPendingBit                 0x08005aa4   Section        0  stm32f4xx_exti.o(i.EXTI_ClearITPendingBit)
    i.EXTI_Init                              0x08005ab0   Section        0  stm32f4xx_exti.o(i.EXTI_Init)
    i.EraseEEPormParas                       0x08005b44   Section        0  24cxx.o(i.EraseEEPormParas)
    i.EraseEEProm                            0x08005b70   Section        0  24cxx.o(i.EraseEEProm)
    i.Eth_Link_ITHandler                     0x08005b90   Section        0  lwip_comm.o(i.Eth_Link_ITHandler)
    i.Eth_re_link                            0x08005be8   Section        0  lwip_comm.o(i.Eth_re_link)
    i.FANG_CHAI_Check                        0x08005e1c   Section        0  alarm.o(i.FANG_CHAI_Check)
    i.FangChai_Start                         0x08005ef8   Section        0  alarm.o(i.FangChai_Start)
    i.FangChai_Stop                          0x08005f0c   Section        0  alarm.o(i.FangChai_Stop)
    i.FastClearLog                           0x08005f20   Section        0  log.o(i.FastClearLog)
    i.FastEraseLogEEProm                     0x08005f90   Section        0  log.o(i.FastEraseLogEEProm)
    i.FindCGIParameter                       0x08005fb6   Section        0  httpd_cgi_ssi.o(i.FindCGIParameter)
    FindCGIParameter                         0x08005fb7   Thumb Code    44  httpd_cgi_ssi.o(i.FindCGIParameter)
    i.GPIO_Init                              0x08005fe2   Section        0  stm32f4xx_gpio.o(i.GPIO_Init)
    i.GPIO_PinAFConfig                       0x08006072   Section        0  stm32f4xx_gpio.o(i.GPIO_PinAFConfig)
    i.GPIO_ResetBits                         0x080060b8   Section        0  stm32f4xx_gpio.o(i.GPIO_ResetBits)
    i.GetGateWay                             0x080060bc   Section        0  displaymenu.o(i.GetGateWay)
    i.GetIpAddr                              0x08006134   Section        0  displaymenu.o(i.GetIpAddr)
    i.GetSubNetMask                          0x080061ac   Section        0  displaymenu.o(i.GetSubNetMask)
    i.HEX2ASCII                              0x08006224   Section        0  displaymenu.o(i.HEX2ASCII)
    i.HEX2ASCII_2                            0x08006258   Section        0  displaymenu.o(i.HEX2ASCII_2)
    i.HardFault_Handler                      0x08006270   Section        0  main.o(i.HardFault_Handler)
    i.Hex2BCD                                0x08006314   Section        0  pcf8563.o(i.Hex2BCD)
    i.IICRead                                0x08006338   Section        0  iicrw.o(i.IICRead)
    i.IICWrite                               0x080063f0   Section        0  iicrw.o(i.IICWrite)
    i.IIC_Ack                                0x08006488   Section        0  myiic.o(i.IIC_Ack)
    i.IIC_Init                               0x080064d8   Section        0  myiic.o(i.IIC_Init)
    i.IIC_NAck                               0x08006544   Section        0  myiic.o(i.IIC_NAck)
    i.IIC_Read_Byte                          0x08006594   Section        0  myiic.o(i.IIC_Read_Byte)
    i.IIC_Send_Byte                          0x08006600   Section        0  myiic.o(i.IIC_Send_Byte)
    i.IIC_Start                              0x08006668   Section        0  myiic.o(i.IIC_Start)
    i.IIC_Stop                               0x080066bc   Section        0  myiic.o(i.IIC_Stop)
    i.IIC_Wait_Ack                           0x08006718   Section        0  myiic.o(i.IIC_Wait_Ack)
    i.KEY_Init                               0x0800677c   Section        0  key.o(i.KEY_Init)
    i.KEY_Scan                               0x080067bc   Section        0  key.o(i.KEY_Scan)
    i.LAN8720_Init                           0x08006898   Section        0  lan8720.o(i.LAN8720_Init)
    i.LCD_Init                               0x080069b4   Section        0  lcd.o(i.LCD_Init)
    i.LED_Init                               0x08006aa8   Section        0  led.o(i.LED_Init)
    i.LM75_ReadTemp                          0x08006b1c   Section        0  lm75.o(i.LM75_ReadTemp)
    i.LM75_ReadTempStr                       0x08006b7c   Section        0  lm75.o(i.LM75_ReadTempStr)
    i.LcdCheckBusy                           0x08006bd8   Section        0  lcd.o(i.LcdCheckBusy)
    i.LcdSetColumn                           0x08006c1c   Section        0  lcd.o(i.LcdSetColumn)
    i.LcdSetLine                             0x08006c30   Section        0  lcd.o(i.LcdSetLine)
    i.LcdSetPage                             0x08006c40   Section        0  lcd.o(i.LcdSetPage)
    i.LcdWriteCmd                            0x08006c50   Section        0  lcd.o(i.LcdWriteCmd)
    i.LcdWriteData                           0x08006c90   Section        0  lcd.o(i.LcdWriteData)
    i.Lcd_Clear                              0x08006cd4   Section        0  lcd.o(i.Lcd_Clear)
    i.Lcd_Cs                                 0x08006d0c   Section        0  lcd.o(i.Lcd_Cs)
    i.Lcd_On_Off                             0x08006d54   Section        0  lcd.o(i.Lcd_On_Off)
    i.Lcd_Reset                              0x08006d64   Section        0  lcd.o(i.Lcd_Reset)
    i.Log_Handler                            0x08006d8c   Section        0  httpd_cgi_ssi.o(i.Log_Handler)
    i.Log_Init                               0x08006ec0   Section        0  log.o(i.Log_Init)
    i.MacAddrInsertMaohao                    0x08006f30   Section        0  displaymenu.o(i.MacAddrInsertMaohao)
    i.NVIC_Init                              0x08006f78   Section        0  misc.o(i.NVIC_Init)
    i.NVIC_PriorityGroupConfig               0x08006ff0   Section        0  misc.o(i.NVIC_PriorityGroupConfig)
    i.Network_CGI_Handler                    0x08007004   Section        0  httpd_cgi_ssi.o(i.Network_CGI_Handler)
    i.OSEventNameSet                         0x080070e8   Section        0  os_core.o(i.OSEventNameSet)
    i.OSInit                                 0x08007140   Section        0  os_core.o(i.OSInit)
    i.OSInitHookBegin                        0x08007170   Section        0  os_cpu_c.o(i.OSInitHookBegin)
    i.OSInitHookEnd                          0x08007172   Section        0  os_cpu_c.o(i.OSInitHookEnd)
    i.OSIntEnter                             0x08007174   Section        0  os_core.o(i.OSIntEnter)
    i.OSIntExit                              0x08007198   Section        0  os_core.o(i.OSIntExit)
    i.OSMboxCreate                           0x08007228   Section        0  os_mbox.o(i.OSMboxCreate)
    i.OSMboxPend                             0x0800727c   Section        0  os_mbox.o(i.OSMboxPend)
    i.OSMboxPost                             0x08007380   Section        0  os_mbox.o(i.OSMboxPost)
    i.OSMutexCreate                          0x080073d0   Section        0  os_mutex.o(i.OSMutexCreate)
    i.OSMutexPend                            0x0800746c   Section        0  os_mutex.o(i.OSMutexPend)
    i.OSMutexPost                            0x080076a4   Section        0  os_mutex.o(i.OSMutexPost)
    i.OSMutex_RdyAtPrio                      0x0800776c   Section        0  os_mutex.o(i.OSMutex_RdyAtPrio)
    OSMutex_RdyAtPrio                        0x0800776d   Thumb Code   114  os_mutex.o(i.OSMutex_RdyAtPrio)
    i.OSQCreate                              0x080077f0   Section        0  os_q.o(i.OSQCreate)
    i.OSQDel                                 0x08007890   Section        0  os_q.o(i.OSQDel)
    i.OSQPend                                0x08007994   Section        0  os_q.o(i.OSQPend)
    i.OSQPost                                0x08007ab0   Section        0  os_q.o(i.OSQPost)
    i.OSQQuery                               0x08007b22   Section        0  os_q.o(i.OSQQuery)
    i.OSSchedLock                            0x08007b84   Section        0  os_core.o(i.OSSchedLock)
    i.OSSchedUnlock                          0x08007bc4   Section        0  os_core.o(i.OSSchedUnlock)
    i.OSSemCreate                            0x08007c24   Section        0  os_sem.o(i.OSSemCreate)
    i.OSSemDel                               0x08007c78   Section        0  os_sem.o(i.OSSemDel)
    i.OSSemPend                              0x08007d58   Section        0  os_sem.o(i.OSSemPend)
    i.OSSemPost                              0x08007e44   Section        0  os_sem.o(i.OSSemPost)
    i.OSSemQuery                             0x08007e9c   Section        0  os_sem.o(i.OSSemQuery)
    i.OSStart                                0x08007ee8   Section        0  os_core.o(i.OSStart)
    i.OSStatInit                             0x08007f30   Section        0  os_core.o(i.OSStatInit)
    i.OSTCBInitHook                          0x08007f7c   Section        0  os_cpu_c.o(i.OSTCBInitHook)
    i.OSTaskCreate                           0x08007f80   Section        0  os_task.o(i.OSTaskCreate)
    i.OSTaskCreateExt                        0x08008020   Section        0  os_task.o(i.OSTaskCreateExt)
    i.OSTaskCreateHook                       0x080080d8   Section        0  os_cpu_c.o(i.OSTaskCreateHook)
    i.OSTaskDel                              0x080080dc   Section        0  os_task.o(i.OSTaskDel)
    i.OSTaskDelHook                          0x08008230   Section        0  os_cpu_c.o(i.OSTaskDelHook)
    i.OSTaskIdleHook                         0x08008232   Section        0  os_cpu_c.o(i.OSTaskIdleHook)
    i.OSTaskNameSet                          0x08008234   Section        0  os_task.o(i.OSTaskNameSet)
    i.OSTaskReturnHook                       0x080082a4   Section        0  os_cpu_c.o(i.OSTaskReturnHook)
    i.OSTaskStatHook                         0x080082a6   Section        0  os_cpu_c.o(i.OSTaskStatHook)
    i.OSTaskStkChk                           0x080082a8   Section        0  os_task.o(i.OSTaskStkChk)
    i.OSTaskStkInit                          0x08008334   Section        0  os_cpu_c.o(i.OSTaskStkInit)
    i.OSTaskSuspend                          0x080084e4   Section        0  os_task.o(i.OSTaskSuspend)
    i.OSTaskSwHook                           0x0800858c   Section        0  os_cpu_c.o(i.OSTaskSwHook)
    i.OSTimeDly                              0x08008590   Section        0  os_time.o(i.OSTimeDly)
    i.OSTimeGet                              0x08008608   Section        0  os_time.o(i.OSTimeGet)
    i.OSTimeTick                             0x08008624   Section        0  os_core.o(i.OSTimeTick)
    i.OSTimeTickHook                         0x08008710   Section        0  os_cpu_c.o(i.OSTimeTickHook)
    i.OS_Dummy                               0x08008712   Section        0  os_core.o(i.OS_Dummy)
    i.OS_EventTaskRdy                        0x08008714   Section        0  os_core.o(i.OS_EventTaskRdy)
    i.OS_EventTaskRemove                     0x08008798   Section        0  os_core.o(i.OS_EventTaskRemove)
    i.OS_EventTaskWait                       0x080087c4   Section        0  os_core.o(i.OS_EventTaskWait)
    i.OS_EventWaitListInit                   0x08008840   Section        0  os_core.o(i.OS_EventWaitListInit)
    i.OS_FlagInit                            0x0800885c   Section        0  os_flag.o(i.OS_FlagInit)
    i.OS_FlagUnlink                          0x080088b4   Section        0  os_flag.o(i.OS_FlagUnlink)
    i.OS_InitEventList                       0x080088d8   Section        0  os_core.o(i.OS_InitEventList)
    OS_InitEventList                         0x080088d9   Thumb Code    84  os_core.o(i.OS_InitEventList)
    i.OS_InitMisc                            0x08008938   Section        0  os_core.o(i.OS_InitMisc)
    OS_InitMisc                              0x08008939   Thumb Code    44  os_core.o(i.OS_InitMisc)
    i.OS_InitRdyList                         0x0800898c   Section        0  os_core.o(i.OS_InitRdyList)
    OS_InitRdyList                           0x0800898d   Thumb Code    44  os_core.o(i.OS_InitRdyList)
    i.OS_InitTCBList                         0x080089d0   Section        0  os_core.o(i.OS_InitTCBList)
    OS_InitTCBList                           0x080089d1   Thumb Code   106  os_core.o(i.OS_InitTCBList)
    i.OS_InitTaskIdle                        0x08008a50   Section        0  os_core.o(i.OS_InitTaskIdle)
    OS_InitTaskIdle                          0x08008a51   Thumb Code    50  os_core.o(i.OS_InitTaskIdle)
    i.OS_InitTaskStat                        0x08008aa0   Section        0  os_core.o(i.OS_InitTaskStat)
    OS_InitTaskStat                          0x08008aa1   Thumb Code    50  os_core.o(i.OS_InitTaskStat)
    i.OS_MemClr                              0x08008af0   Section        0  os_core.o(i.OS_MemClr)
    i.OS_MemInit                             0x08008b04   Section        0  os_mem.o(i.OS_MemInit)
    i.OS_QInit                               0x08008b5c   Section        0  os_q.o(i.OS_QInit)
    i.OS_Sched                               0x08008bac   Section        0  os_core.o(i.OS_Sched)
    i.OS_SchedNew                            0x08008c20   Section        0  os_core.o(i.OS_SchedNew)
    OS_SchedNew                              0x08008c21   Thumb Code    26  os_core.o(i.OS_SchedNew)
    i.OS_TCBInit                             0x08008c4c   Section        0  os_core.o(i.OS_TCBInit)
    i.OS_TaskIdle                            0x08008d80   Section        0  os_core.o(i.OS_TaskIdle)
    i.OS_TaskReturn                          0x08008da8   Section        0  os_task.o(i.OS_TaskReturn)
    i.OS_TaskStat                            0x08008dc0   Section        0  os_core.o(i.OS_TaskStat)
    i.OS_TaskStatStkChk                      0x08008e48   Section        0  os_core.o(i.OS_TaskStatStkChk)
    i.OS_TaskStkClr                          0x08008e84   Section        0  os_task.o(i.OS_TaskStkClr)
    i.PCF8563_Check                          0x08008e9e   Section        0  pcf8563.o(i.PCF8563_Check)
    i.PCF8563_Get                            0x08008ee8   Section        0  pcf8563.o(i.PCF8563_Get)
    i.PCF8563_Get_Str                        0x08008fd8   Section        0  pcf8563.o(i.PCF8563_Get_Str)
    i.PCF8563_Init                           0x0800908c   Section        0  pcf8563.o(i.PCF8563_Init)
    i.PCF8563_Set                            0x080090c0   Section        0  pcf8563.o(i.PCF8563_Set)
    i.PCF8563_Set_Str                        0x080091c4   Section        0  pcf8563.o(i.PCF8563_Set_Str)
    i.PWMVal_CGI_Handler                     0x08009254   Section        0  httpd_cgi_ssi.o(i.PWMVal_CGI_Handler)
    i.Push_A_Start                           0x08009344   Section        0  alarm.o(i.Push_A_Start)
    i.Push_A_Stop                            0x08009360   Section        0  alarm.o(i.Push_A_Stop)
    i.Push_B_Start                           0x08009394   Section        0  alarm.o(i.Push_B_Start)
    i.Push_B_Stop                            0x080093b0   Section        0  alarm.o(i.Push_B_Stop)
    i.RCC_AHB1PeriphClockCmd                 0x080093e4   Section        0  stm32f4xx_rcc.o(i.RCC_AHB1PeriphClockCmd)
    i.RCC_APB1PeriphClockCmd                 0x08009404   Section        0  stm32f4xx_rcc.o(i.RCC_APB1PeriphClockCmd)
    i.RCC_APB2PeriphClockCmd                 0x08009424   Section        0  stm32f4xx_rcc.o(i.RCC_APB2PeriphClockCmd)
    i.RCC_GetClocksFreq                      0x08009444   Section        0  stm32f4xx_rcc.o(i.RCC_GetClocksFreq)
    i.ReadConfigCodeToEEProm                 0x0800952c   Section        0  24cxx.o(i.ReadConfigCodeToEEProm)
    i.ReadControlParaFromEEProm              0x08009540   Section        0  24cxx.o(i.ReadControlParaFromEEProm)
    i.ReadFieldParaFromEEProm                0x08009580   Section        0  24cxx.o(i.ReadFieldParaFromEEProm)
    i.ReadFirstLog                           0x080095d8   Section        0  log.o(i.ReadFirstLog)
    i.ReadLCDFirstPageLog                    0x08009608   Section        0  log.o(i.ReadLCDFirstPageLog)
    i.ReadLCDNextPageLog                     0x08009698   Section        0  log.o(i.ReadLCDNextPageLog)
    i.ReadLCDPreviousPageLog                 0x08009728   Section        0  log.o(i.ReadLCDPreviousPageLog)
    i.ReadNetParasFromEEProm                 0x080097c0   Section        0  24cxx.o(i.ReadNetParasFromEEProm)
    i.ReadNextLog                            0x08009800   Section        0  log.o(i.ReadNextLog)
    i.ReadPWMValFromEEProm                   0x080098c8   Section        0  24cxx.o(i.ReadPWMValFromEEProm)
    i.ReadPreviousLog                        0x080098e8   Section        0  log.o(i.ReadPreviousLog)
    i.ReadSWValToEEProm                      0x08009998   Section        0  24cxx.o(i.ReadSWValToEEProm)
    i.ReadWebFirstPageLog                    0x080099b8   Section        0  log.o(i.ReadWebFirstPageLog)
    i.ReadWebNextPageLog                     0x08009a60   Section        0  log.o(i.ReadWebNextPageLog)
    i.ReadWebPreviousPageLog                 0x08009b00   Section        0  log.o(i.ReadWebPreviousPageLog)
    i.Remove_Alarm_RL_A                      0x08009bcc   Section        0  alarm.o(i.Remove_Alarm_RL_A)
    i.Remove_Alarm_RL_B                      0x08009bf4   Section        0  alarm.o(i.Remove_Alarm_RL_B)
    i.SSIHandler                             0x08009c1c   Section        0  httpd_cgi_ssi.o(i.SSIHandler)
    SSIHandler                               0x08009c1d   Thumb Code   522  httpd_cgi_ssi.o(i.SSIHandler)
    i.SYSCFG_ETH_MediaInterfaceConfig        0x08009eb8   Section        0  stm32f4xx_syscfg.o(i.SYSCFG_ETH_MediaInterfaceConfig)
    i.SYSCFG_EXTILineConfig                  0x08009ec4   Section        0  stm32f4xx_syscfg.o(i.SYSCFG_EXTILineConfig)
    i.SetGateWay                             0x08009f04   Section        0  displaymenu.o(i.SetGateWay)
    i.SetIpAddr                              0x08009fac   Section        0  displaymenu.o(i.SetIpAddr)
    i.SetSubNetMask                          0x0800a054   Section        0  displaymenu.o(i.SetSubNetMask)
    i.SetSysClock                            0x0800a0fc   Section        0  system_stm32f4xx.o(i.SetSysClock)
    SetSysClock                              0x0800a0fd   Thumb Code   220  system_stm32f4xx.o(i.SetSysClock)
    i.Set_Alarm_State_Util_Clear             0x0800a1e8   Section        0  alarm.o(i.Set_Alarm_State_Util_Clear)
    i.Shutdown_Handler                       0x0800a21c   Section        0  httpd_cgi_ssi.o(i.Shutdown_Handler)
    i.Switch_Handler                         0x0800a2ac   Section        0  httpd_cgi_ssi.o(i.Switch_Handler)
    i.SysTick_CLKSourceConfig                0x0800a318   Section        0  misc.o(i.SysTick_CLKSourceConfig)
    i.SysTick_Handler                        0x0800a340   Section        0  delay.o(i.SysTick_Handler)
    i.Sys_Soft_Reset                         0x0800a35c   Section        0  sys.o(i.Sys_Soft_Reset)
    i.SystemInit                             0x0800a36c   Section        0  system_stm32f4xx.o(i.SystemInit)
    i.SystemReset                            0x0800a3d4   Section        0  sys.o(i.SystemReset)
    i.TIM1_PWM_Init                          0x0800a400   Section        0  pwm.o(i.TIM1_PWM_Init)
    i.TIM3_IRQHandler                        0x0800a4d0   Section        0  timer.o(i.TIM3_IRQHandler)
    i.TIM3_Int_Init                          0x0800a658   Section        0  timer.o(i.TIM3_Int_Init)
    i.TIM4_IRQHandler                        0x0800a6b4   Section        0  timer.o(i.TIM4_IRQHandler)
    i.TIM4_Int_Init                          0x0800a838   Section        0  timer.o(i.TIM4_Int_Init)
    i.TIM5_IRQHandler                        0x0800a894   Section        0  timer.o(i.TIM5_IRQHandler)
    i.TIM5_Int_Init                          0x0800a95c   Section        0  timer.o(i.TIM5_Int_Init)
    i.TIM_ClearITPendingBit                  0x0800a9b8   Section        0  stm32f4xx_tim.o(i.TIM_ClearITPendingBit)
    i.TIM_Cmd                                0x0800a9be   Section        0  stm32f4xx_tim.o(i.TIM_Cmd)
    i.TIM_CtrlPWMOutputs                     0x0800a9d6   Section        0  stm32f4xx_tim.o(i.TIM_CtrlPWMOutputs)
    i.TIM_GetITStatus                        0x0800a9f4   Section        0  stm32f4xx_tim.o(i.TIM_GetITStatus)
    i.TIM_ITConfig                           0x0800aa16   Section        0  stm32f4xx_tim.o(i.TIM_ITConfig)
    i.TIM_OC4Init                            0x0800aa28   Section        0  stm32f4xx_tim.o(i.TIM_OC4Init)
    i.TIM_SetCompare4                        0x0800aaa0   Section        0  stm32f4xx_tim.o(i.TIM_SetCompare4)
    i.TIM_TimeBaseInit                       0x0800aaa4   Section        0  stm32f4xx_tim.o(i.TIM_TimeBaseInit)
    i.Temperate_Handler                      0x0800ab28   Section        0  httpd_cgi_ssi.o(i.Temperate_Handler)
    i.USART1_IRQHandler                      0x0800ab34   Section        0  usart.o(i.USART1_IRQHandler)
    i.USART_Cmd                              0x0800abc4   Section        0  stm32f4xx_usart.o(i.USART_Cmd)
    i.USART_GetITStatus                      0x0800abdc   Section        0  stm32f4xx_usart.o(i.USART_GetITStatus)
    i.USART_ITConfig                         0x0800ac30   Section        0  stm32f4xx_usart.o(i.USART_ITConfig)
    i.USART_Init                             0x0800ac7c   Section        0  stm32f4xx_usart.o(i.USART_Init)
    i.USART_ReceiveData                      0x0800ad50   Section        0  stm32f4xx_usart.o(i.USART_ReceiveData)
    i.UpdateAlarmRecord                      0x0800ad5c   Section        0  displaymenu.o(i.UpdateAlarmRecord)
    i.WriteConfigCodeToEEProm                0x0800ad9c   Section        0  24cxx.o(i.WriteConfigCodeToEEProm)
    i.WriteControlParaToEEProm               0x0800adb0   Section        0  24cxx.o(i.WriteControlParaToEEProm)
    i.WriteFieldParaToEEProm                 0x0800adec   Section        0  24cxx.o(i.WriteFieldParaToEEProm)
    i.WriteLcdDataBus                        0x0800ae38   Section        0  lcd.o(i.WriteLcdDataBus)
    i.WriteLog                               0x0800ae94   Section        0  log.o(i.WriteLog)
    i.WriteNetParasToEEProm                  0x0800af60   Section        0  24cxx.o(i.WriteNetParasToEEProm)
    i.WritePWMValToEEProm                    0x0800afa0   Section        0  24cxx.o(i.WritePWMValToEEProm)
    i.WriteSWValToEEProm                     0x0800afc0   Section        0  24cxx.o(i.WriteSWValToEEProm)
    i._is_digit                              0x0800afdc   Section        0  __printf_wp.o(i._is_digit)
    i._sys_exit                              0x0800afea   Section        0  usart.o(i._sys_exit)
    i.accept_function                        0x0800aff0   Section        0  api_msg.o(i.accept_function)
    accept_function                          0x0800aff1   Thumb Code   176  api_msg.o(i.accept_function)
    i.arp_timer                              0x0800b0a0   Section        0  timers.o(i.arp_timer)
    i.delay_init                             0x0800b0bc   Section        0  delay.o(i.delay_init)
    i.delay_ms                               0x0800b110   Section        0  delay.o(i.delay_ms)
    i.delay_osschedlock                      0x0800b160   Section        0  delay.o(i.delay_osschedlock)
    i.delay_osschedunlock                    0x0800b168   Section        0  delay.o(i.delay_osschedunlock)
    i.delay_ostimedly                        0x0800b170   Section        0  delay.o(i.delay_ostimedly)
    i.delay_us                               0x0800b17c   Section        0  delay.o(i.delay_us)
    i.disconnect_server                      0x0800b1d4   Section        0  tcp_server.o(i.disconnect_server)
    i.do_bind                                0x0800b1e6   Section        0  api_msg.o(i.do_bind)
    i.do_close                               0x0800b25c   Section        0  api_msg.o(i.do_close)
    i.do_close_internal                      0x0800b39c   Section        0  api_msg.o(i.do_close_internal)
    do_close_internal                        0x0800b39d   Thumb Code   426  api_msg.o(i.do_close_internal)
    i.do_delconn                             0x0800b650   Section        0  api_msg.o(i.do_delconn)
    i.do_getaddr                             0x0800b824   Section        0  api_msg.o(i.do_getaddr)
    i.do_listen                              0x0800b954   Section        0  api_msg.o(i.do_listen)
    i.do_newconn                             0x0800ba20   Section        0  api_msg.o(i.do_newconn)
    i.do_recv                                0x0800ba40   Section        0  api_msg.o(i.do_recv)
    i.do_write                               0x0800ba88   Section        0  api_msg.o(i.do_write)
    i.do_writemore                           0x0800bbac   Section        0  api_msg.o(i.do_writemore)
    do_writemore                             0x0800bbad   Thumb Code   472  api_msg.o(i.do_writemore)
    i.err_tcp                                0x0800be90   Section        0  api_msg.o(i.err_tcp)
    err_tcp                                  0x0800be91   Thumb Code   256  api_msg.o(i.err_tcp)
    i.etharp_arp_input                       0x0800c02c   Section        0  etharp.o(i.etharp_arp_input)
    etharp_arp_input                         0x0800c02d   Thumb Code   342  etharp.o(i.etharp_arp_input)
    i.etharp_find_entry                      0x0800c1ec   Section        0  etharp.o(i.etharp_find_entry)
    etharp_find_entry                        0x0800c1ed   Thumb Code   510  etharp.o(i.etharp_find_entry)
    i.etharp_free_entry                      0x0800c4dc   Section        0  etharp.o(i.etharp_free_entry)
    etharp_free_entry                        0x0800c4dd   Thumb Code   112  etharp.o(i.etharp_free_entry)
    i.etharp_output                          0x0800c554   Section        0  etharp.o(i.etharp_output)
    i.etharp_output_to_arp_index             0x0800c75c   Section        0  etharp.o(i.etharp_output_to_arp_index)
    etharp_output_to_arp_index               0x0800c75d   Thumb Code   138  etharp.o(i.etharp_output_to_arp_index)
    i.etharp_query                           0x0800c870   Section        0  etharp.o(i.etharp_query)
    i.etharp_raw                             0x0800cae8   Section        0  etharp.o(i.etharp_raw)
    etharp_raw                               0x0800cae9   Thumb Code   256  etharp.o(i.etharp_raw)
    i.etharp_request                         0x0800cc84   Section        0  etharp.o(i.etharp_request)
    i.etharp_send_ip                         0x0800ccb4   Section        0  etharp.o(i.etharp_send_ip)
    etharp_send_ip                           0x0800ccb5   Thumb Code    86  etharp.o(i.etharp_send_ip)
    i.etharp_tmr                             0x0800cd64   Section        0  etharp.o(i.etharp_tmr)
    i.etharp_update_arp_entry                0x0800cdf8   Section        0  etharp.o(i.etharp_update_arp_entry)
    etharp_update_arp_entry                  0x0800cdf9   Thumb Code   216  etharp.o(i.etharp_update_arp_entry)
    i.ethernet_input                         0x0800cf50   Section        0  etharp.o(i.ethernet_input)
    i.ethernetif_init                        0x0800d094   Section        0  ethernetif.o(i.ethernetif_init)
    i.ethernetif_input                       0x0800d138   Section        0  ethernetif.o(i.ethernetif_input)
    i.extract_uri_parameters                 0x0800d168   Section        0  httpd.o(i.extract_uri_parameters)
    extract_uri_parameters                   0x0800d169   Thumb Code   126  httpd.o(i.extract_uri_parameters)
    i.fputc                                  0x0800d1e8   Section        0  usart.o(i.fputc)
    i.fs_bytes_left                          0x0800d204   Section        0  fs.o(i.fs_bytes_left)
    i.fs_close                               0x0800d20e   Section        0  fs.o(i.fs_close)
    i.fs_free                                0x0800d21c   Section        0  fs.o(i.fs_free)
    fs_free                                  0x0800d21d   Thumb Code    48  fs.o(i.fs_free)
    i.fs_malloc                              0x0800d250   Section        0  fs.o(i.fs_malloc)
    fs_malloc                                0x0800d251   Thumb Code    54  fs.o(i.fs_malloc)
    i.fs_open                                0x0800d28c   Section        0  fs.o(i.fs_open)
    i.fs_read                                0x0800d2d8   Section        0  fs.o(i.fs_read)
    i.getAlarmDelay                          0x0800d318   Section        0  alarm.o(i.getAlarmDelay)
    i.getAlarmDelayedStatus                  0x0800d344   Section        0  alarm.o(i.getAlarmDelayedStatus)
    i.getAlarmStatus                         0x0800d380   Section        0  alarm.o(i.getAlarmStatus)
    i.getBFFlag                              0x0800d3bc   Section        0  alarm.o(i.getBFFlag)
    i.getPWMLevel                            0x0800d3ec   Section        0  pwm.o(i.getPWMLevel)
    i.getPeerFieldNum                        0x0800d41c   Section        0  alarm.o(i.getPeerFieldNum)
    i.getWebLogPageTotal                     0x0800d444   Section        0  log.o(i.getWebLogPageTotal)
    i.get_tag_insert                         0x0800d4a0   Section        0  httpd.o(i.get_tag_insert)
    get_tag_insert                           0x0800d4a1   Thumb Code   202  httpd.o(i.get_tag_insert)
    i.http_accept                            0x0800d5f4   Section        0  httpd.o(i.http_accept)
    http_accept                              0x0800d5f5   Thumb Code   118  httpd.o(i.http_accept)
    i.http_close_conn                        0x0800d6fc   Section        0  httpd.o(i.http_close_conn)
    http_close_conn                          0x0800d6fd   Thumb Code    84  httpd.o(i.http_close_conn)
    i.http_err                               0x0800d754   Section        0  httpd.o(i.http_err)
    http_err                                 0x0800d755   Thumb Code    22  httpd.o(i.http_err)
    i.http_find_file                         0x0800d76c   Section        0  httpd.o(i.http_find_file)
    http_find_file                           0x0800d76d   Thumb Code   320  httpd.o(i.http_find_file)
    i.http_get_404_file                      0x0800d8bc   Section        0  httpd.o(i.http_get_404_file)
    http_get_404_file                        0x0800d8bd   Thumb Code    54  httpd.o(i.http_get_404_file)
    i.http_init_file                         0x0800d918   Section        0  httpd.o(i.http_init_file)
    http_init_file                           0x0800d919   Thumb Code   168  httpd.o(i.http_init_file)
    i.http_parse_request                     0x0800da64   Section        0  httpd.o(i.http_parse_request)
    http_parse_request                       0x0800da65   Thumb Code   382  httpd.o(i.http_parse_request)
    i.http_poll                              0x0800dc60   Section        0  httpd.o(i.http_poll)
    http_poll                                0x0800dc61   Thumb Code    92  httpd.o(i.http_poll)
    i.http_recv                              0x0800dcbc   Section        0  httpd.o(i.http_recv)
    http_recv                                0x0800dcbd   Thumb Code   200  httpd.o(i.http_recv)
    i.http_send_data                         0x0800de00   Section        0  httpd.o(i.http_send_data)
    http_send_data                           0x0800de01   Thumb Code  1726  httpd.o(i.http_send_data)
    i.http_sent                              0x0800e4be   Section        0  httpd.o(i.http_sent)
    http_sent                                0x0800e4bf   Thumb Code    40  httpd.o(i.http_sent)
    i.http_set_cgi_handlers                  0x0800e4e8   Section        0  httpd.o(i.http_set_cgi_handlers)
    i.http_set_ssi_handler                   0x0800e5b0   Section        0  httpd.o(i.http_set_ssi_handler)
    i.http_state_alloc                       0x0800e6b0   Section        0  httpd.o(i.http_state_alloc)
    http_state_alloc                         0x0800e6b1   Thumb Code    28  httpd.o(i.http_state_alloc)
    i.http_state_free                        0x0800e6cc   Section        0  httpd.o(i.http_state_free)
    http_state_free                          0x0800e6cd   Thumb Code    42  httpd.o(i.http_state_free)
    i.http_write                             0x0800e6f8   Section        0  httpd.o(i.http_write)
    http_write                               0x0800e6f9   Thumb Code   106  httpd.o(i.http_write)
    i.httpd_cgi_init                         0x0800e7c4   Section        0  httpd_cgi_ssi.o(i.httpd_cgi_init)
    i.httpd_init                             0x0800e7d4   Section        0  httpd.o(i.httpd_init)
    i.httpd_init_addr                        0x0800e7f0   Section        0  httpd.o(i.httpd_init_addr)
    httpd_init_addr                          0x0800e7f1   Thumb Code   130  httpd.o(i.httpd_init_addr)
    i.httpd_ssi_init                         0x0800e920   Section        0  httpd_cgi_ssi.o(i.httpd_ssi_init)
    i.icmp_dest_unreach                      0x0800e938   Section        0  icmp.o(i.icmp_dest_unreach)
    i.icmp_input                             0x0800e94c   Section        0  icmp.o(i.icmp_input)
    i.icmp_send_response                     0x0800ec80   Section        0  icmp.o(i.icmp_send_response)
    icmp_send_response                       0x0800ec81   Thumb Code   160  icmp.o(i.icmp_send_response)
    i.icmp_time_exceeded                     0x0800eda0   Section        0  icmp.o(i.icmp_time_exceeded)
    i.inet_chksum                            0x0800edb2   Section        0  inet_chksum.o(i.inet_chksum)
    i.inet_chksum_pbuf                       0x0800edc6   Section        0  inet_chksum.o(i.inet_chksum_pbuf)
    i.ip4_addr_isbroadcast                   0x0800ee1c   Section        0  ip_addr.o(i.ip4_addr_isbroadcast)
    i.ipStrToInt                             0x0800ee6a   Section        0  httpd_cgi_ssi.o(i.ipStrToInt)
    i.ip_frag                                0x0800eee0   Section        0  ip_frag.o(i.ip_frag)
    i.ip_frag_alloc_pbuf_custom_ref          0x0800f11c   Section        0  ip_frag.o(i.ip_frag_alloc_pbuf_custom_ref)
    ip_frag_alloc_pbuf_custom_ref            0x0800f11d   Thumb Code    10  ip_frag.o(i.ip_frag_alloc_pbuf_custom_ref)
    i.ip_frag_free_pbuf_custom_ref           0x0800f128   Section        0  ip_frag.o(i.ip_frag_free_pbuf_custom_ref)
    ip_frag_free_pbuf_custom_ref             0x0800f129   Thumb Code    38  ip_frag.o(i.ip_frag_free_pbuf_custom_ref)
    i.ip_input                               0x0800f1b4   Section        0  ip.o(i.ip_input)
    i.ip_output                              0x0800f37c   Section        0  ip.o(i.ip_output)
    i.ip_output_if                           0x0800f430   Section        0  ip.o(i.ip_output_if)
    i.ip_reass                               0x0800f5c0   Section        0  ip_frag.o(i.ip_reass)
    i.ip_reass_chain_frag_into_datagram_and_validate 0x0800f764   Section        0  ip_frag.o(i.ip_reass_chain_frag_into_datagram_and_validate)
    ip_reass_chain_frag_into_datagram_and_validate 0x0800f765   Thumb Code   502  ip_frag.o(i.ip_reass_chain_frag_into_datagram_and_validate)
    i.ip_reass_dequeue_datagram              0x0800fa74   Section        0  ip_frag.o(i.ip_reass_dequeue_datagram)
    ip_reass_dequeue_datagram                0x0800fa75   Thumb Code    62  ip_frag.o(i.ip_reass_dequeue_datagram)
    i.ip_reass_enqueue_new_datagram          0x0800fb2c   Section        0  ip_frag.o(i.ip_reass_enqueue_new_datagram)
    ip_reass_enqueue_new_datagram            0x0800fb2d   Thumb Code    84  ip_frag.o(i.ip_reass_enqueue_new_datagram)
    i.ip_reass_free_complete_datagram        0x0800fb84   Section        0  ip_frag.o(i.ip_reass_free_complete_datagram)
    ip_reass_free_complete_datagram          0x0800fb85   Thumb Code   274  ip_frag.o(i.ip_reass_free_complete_datagram)
    i.ip_reass_remove_oldest_datagram        0x0800fd50   Section        0  ip_frag.o(i.ip_reass_remove_oldest_datagram)
    ip_reass_remove_oldest_datagram          0x0800fd51   Thumb Code   118  ip_frag.o(i.ip_reass_remove_oldest_datagram)
    i.ip_reass_timer                         0x0800fdcc   Section        0  timers.o(i.ip_reass_timer)
    i.ip_reass_tmr                           0x0800fde8   Section        0  ip_frag.o(i.ip_reass_tmr)
    i.ip_route                               0x0800fe24   Section        0  ip.o(i.ip_route)
    i.ipfrag_free_pbuf_custom                0x0800fe7c   Section        0  ip_frag.o(i.ipfrag_free_pbuf_custom)
    ipfrag_free_pbuf_custom                  0x0800fe7d   Thumb Code    74  ip_frag.o(i.ipfrag_free_pbuf_custom)
    i.isLCDLogPageOverOne                    0x0800ff38   Section        0  log.o(i.isLCDLogPageOverOne)
    i.isLogFull                              0x0800ff70   Section        0  log.o(i.isLogFull)
    i.isWebLogPageOverOne                    0x0800ff98   Section        0  log.o(i.isWebLogPageOverOne)
    i.key_task                               0x0800ffd0   Section        0  main.o(i.key_task)
    i.low_level_init                         0x0800fff4   Section        0  ethernetif.o(i.low_level_init)
    low_level_init                           0x0800fff5   Thumb Code   142  ethernetif.o(i.low_level_init)
    i.low_level_input                        0x08010098   Section        0  ethernetif.o(i.low_level_input)
    low_level_input                          0x08010099   Thumb Code   110  ethernetif.o(i.low_level_input)
    i.low_level_output                       0x0801010c   Section        0  ethernetif.o(i.low_level_output)
    low_level_output                         0x0801010d   Thumb Code    62  ethernetif.o(i.low_level_output)
    i.lwip_comm_default_ip_set               0x0801014c   Section        0  lwip_comm.o(i.lwip_comm_default_ip_set)
    i.lwip_comm_init                         0x080101dc   Section        0  lwip_comm.o(i.lwip_comm_init)
    i.lwip_comm_ip_init                      0x080102b8   Section        0  lwip_comm.o(i.lwip_comm_ip_init)
    i.lwip_comm_mem_free                     0x08010320   Section        0  lwip_comm.o(i.lwip_comm_mem_free)
    i.lwip_comm_mem_malloc                   0x0801035c   Section        0  lwip_comm.o(i.lwip_comm_mem_malloc)
    i.lwip_htonl                             0x080103d0   Section        0  def.o(i.lwip_htonl)
    i.lwip_htons                             0x080103ea   Section        0  def.o(i.lwip_htons)
    i.lwip_init                              0x080103f6   Section        0  init.o(i.lwip_init)
    i.lwip_ntohl                             0x0801041a   Section        0  def.o(i.lwip_ntohl)
    i.lwip_ntohs                             0x08010426   Section        0  def.o(i.lwip_ntohs)
    i.lwip_packet_handler                    0x08010434   Section        0  lwip_comm.o(i.lwip_packet_handler)
    i.lwip_reset_netif_ipaddr                0x08010444   Section        0  lwip_comm.o(i.lwip_reset_netif_ipaddr)
    i.lwip_socket_init                       0x08010450   Section        0  sockets.o(i.lwip_socket_init)
    i.lwip_standard_chksum                   0x08010452   Section        0  inet_chksum.o(i.lwip_standard_chksum)
    lwip_standard_chksum                     0x08010453   Thumb Code    94  inet_chksum.o(i.lwip_standard_chksum)
    i.macStrToInt                            0x080104b0   Section        0  httpd_cgi_ssi.o(i.macStrToInt)
    i.main                                   0x08010550   Section        0  main.o(i.main)
    i.main_task                              0x08010588   Section        0  main.o(i.main_task)
    i.mem_free                               0x080143a0   Section        0  mem.o(i.mem_free)
    i.mem_init                               0x08014508   Section        0  mem.o(i.mem_init)
    i.mem_malloc                             0x080145fc   Section        0  mem.o(i.mem_malloc)
    i.mem_trim                               0x08014884   Section        0  mem.o(i.mem_trim)
    i.memp_free                              0x08014a70   Section        0  memp.o(i.memp_free)
    i.memp_get_memorysize                    0x08014b30   Section        0  memp.o(i.memp_get_memorysize)
    i.memp_init                              0x08014b38   Section        0  memp.o(i.memp_init)
    i.memp_malloc                            0x08014ba0   Section        0  memp.o(i.memp_malloc)
    i.modifyAlarmDelay                       0x08014ca0   Section        0  alarm.o(i.modifyAlarmDelay)
    i.modifyBFFlag                           0x08014cd0   Section        0  alarm.o(i.modifyBFFlag)
    i.modifyFieldNum                         0x08014d0c   Section        0  alarm.o(i.modifyFieldNum)
    i.my_mem_free                            0x08014d38   Section        0  malloc.o(i.my_mem_free)
    i.my_mem_init                            0x08014da4   Section        0  malloc.o(i.my_mem_init)
    i.my_mem_malloc                          0x08014de8   Section        0  malloc.o(i.my_mem_malloc)
    i.my_mem_perused                         0x08014e90   Section        0  malloc.o(i.my_mem_perused)
    i.myfree                                 0x08014ed0   Section        0  malloc.o(i.myfree)
    i.mymalloc                               0x08014f04   Section        0  malloc.o(i.mymalloc)
    i.mymemcpy                               0x08014f3c   Section        0  malloc.o(i.mymemcpy)
    i.mymemset                               0x08014f56   Section        0  malloc.o(i.mymemset)
    i.netbuf_delete                          0x08014f6a   Section        0  netbuf.o(i.netbuf_delete)
    i.netconn_accept                         0x08014f8c   Section        0  api_lib.o(i.netconn_accept)
    i.netconn_alloc                          0x08015138   Section        0  api_msg.o(i.netconn_alloc)
    i.netconn_bind                           0x08015260   Section        0  api_lib.o(i.netconn_bind)
    i.netconn_close                          0x08015338   Section        0  api_lib.o(i.netconn_close)
    i.netconn_close_shutdown                 0x08015348   Section        0  api_lib.o(i.netconn_close_shutdown)
    netconn_close_shutdown                   0x08015349   Thumb Code    92  api_lib.o(i.netconn_close_shutdown)
    i.netconn_delete                         0x08015418   Section        0  api_lib.o(i.netconn_delete)
    i.netconn_drain                          0x08015440   Section        0  api_msg.o(i.netconn_drain)
    netconn_drain                            0x08015441   Thumb Code   200  api_msg.o(i.netconn_drain)
    i.netconn_free                           0x0801558c   Section        0  api_msg.o(i.netconn_free)
    i.netconn_getaddr                        0x08015708   Section        0  api_lib.o(i.netconn_getaddr)
    i.netconn_listen_with_backlog            0x08015860   Section        0  api_lib.o(i.netconn_listen_with_backlog)
    i.netconn_new_with_proto_and_callback    0x08015930   Section        0  api_lib.o(i.netconn_new_with_proto_and_callback)
    i.netconn_recv                           0x08015ac8   Section        0  api_lib.o(i.netconn_recv)
    i.netconn_recv_data                      0x08015c88   Section        0  api_lib.o(i.netconn_recv_data)
    netconn_recv_data                        0x08015c89   Thumb Code   358  api_lib.o(i.netconn_recv_data)
    i.netconn_write_partly                   0x08015eb4   Section        0  api_lib.o(i.netconn_write_partly)
    i.netif_add                              0x08016018   Section        0  netif.o(i.netif_add)
    i.netif_init                             0x0801611c   Section        0  netif.o(i.netif_init)
    i.netif_set_addr                         0x0801611e   Section        0  netif.o(i.netif_set_addr)
    i.netif_set_default                      0x08016148   Section        0  netif.o(i.netif_set_default)
    i.netif_set_gw                           0x08016158   Section        0  netif.o(i.netif_set_gw)
    i.netif_set_ipaddr                       0x08016168   Section        0  netif.o(i.netif_set_ipaddr)
    i.netif_set_link_callback                0x080161ec   Section        0  netif.o(i.netif_set_link_callback)
    i.netif_set_link_down                    0x080161f2   Section        0  netif.o(i.netif_set_link_down)
    i.netif_set_link_up                      0x0801621c   Section        0  netif.o(i.netif_set_link_up)
    i.netif_set_netmask                      0x08016260   Section        0  netif.o(i.netif_set_netmask)
    i.netif_set_up                           0x08016270   Section        0  netif.o(i.netif_set_up)
    i.parse_reply_data                       0x080162a8   Section        0  tcp_server.o(i.parse_reply_data)
    i.pbuf_alloc                             0x0801646c   Section        0  pbuf.o(i.pbuf_alloc)
    i.pbuf_alloced_custom                    0x08016888   Section        0  pbuf.o(i.pbuf_alloced_custom)
    i.pbuf_cat                               0x08016990   Section        0  pbuf.o(i.pbuf_cat)
    i.pbuf_clen                              0x08016ad8   Section        0  pbuf.o(i.pbuf_clen)
    i.pbuf_copy                              0x08016aec   Section        0  pbuf.o(i.pbuf_copy)
    i.pbuf_copy_partial                      0x08016d24   Section        0  pbuf.o(i.pbuf_copy_partial)
    i.pbuf_free                              0x08016e70   Section        0  pbuf.o(i.pbuf_free)
    i.pbuf_header                            0x08017030   Section        0  pbuf.o(i.pbuf_header)
    i.pbuf_realloc                           0x08017184   Section        0  pbuf.o(i.pbuf_realloc)
    i.pbuf_ref                               0x08017348   Section        0  pbuf.o(i.pbuf_ref)
    i.pcb_new                                0x08017364   Section        0  api_msg.o(i.pcb_new)
    pcb_new                                  0x08017365   Thumb Code   174  api_msg.o(i.pcb_new)
    i.plug_holes                             0x08017490   Section        0  mem.o(i.plug_holes)
    plug_holes                               0x08017491   Thumb Code   218  mem.o(i.plug_holes)
    i.poll_tcp                               0x08017644   Section        0  api_msg.o(i.poll_tcp)
    poll_tcp                                 0x08017645   Thumb Code   126  api_msg.o(i.poll_tcp)
    i.raw_bind                               0x08017728   Section        0  raw.o(i.raw_bind)
    i.raw_input                              0x08017738   Section        0  raw.o(i.raw_input)
    i.raw_new                                0x080177ac   Section        0  raw.o(i.raw_new)
    i.raw_recv                               0x080177e0   Section        0  raw.o(i.raw_recv)
    i.raw_remove                             0x080177e8   Section        0  raw.o(i.raw_remove)
    i.readConfigCode                         0x08017828   Section        0  sys.o(i.readConfigCode)
    i.recv_raw                               0x08017848   Section        0  api_msg.o(i.recv_raw)
    recv_raw                                 0x08017849   Thumb Code   150  api_msg.o(i.recv_raw)
    i.recv_tcp                               0x080178e4   Section        0  api_msg.o(i.recv_tcp)
    recv_tcp                                 0x080178e5   Thumb Code   206  api_msg.o(i.recv_tcp)
    i.recv_udp                               0x08017a6c   Section        0  api_msg.o(i.recv_udp)
    recv_udp                                 0x08017a6d   Thumb Code   200  api_msg.o(i.recv_udp)
    i.remoteShutdown                         0x08017bec   Section        0  alarm.o(i.remoteShutdown)
    i.removeAlarmRL                          0x08017c88   Section        0  alarm.o(i.removeAlarmRL)
    i.sent_tcp                               0x08017cac   Section        0  api_msg.o(i.sent_tcp)
    sent_tcp                                 0x08017cad   Thumb Code   124  api_msg.o(i.sent_tcp)
    i.setAPWMLevel                           0x08017d8c   Section        0  pwm.o(i.setAPWMLevel)
    i.setAPWMVal                             0x08017da8   Section        0  pwm.o(i.setAPWMVal)
    i.setAlarmDelay                          0x08017db4   Section        0  alarm.o(i.setAlarmDelay)
    i.setBPWMLevel                           0x08017dcc   Section        0  pwm.o(i.setBPWMLevel)
    i.setBPWMVal                             0x08017de8   Section        0  pwm.o(i.setBPWMVal)
    i.setConfigCode                          0x08017df4   Section        0  sys.o(i.setConfigCode)
    i.setFieldNum                            0x08017e28   Section        0  alarm.o(i.setFieldNum)
    i.setPWMEnable                           0x08017e3c   Section        0  pwm.o(i.setPWMEnable)
    i.setPWMLevelByFieldNum                  0x08017e50   Section        0  pwm.o(i.setPWMLevelByFieldNum)
    i.setPWMVal                              0x08017e7c   Section        0  pwm.o(i.setPWMVal)
    i.setSWValue                             0x08017e90   Section        0  alarm.o(i.setSWValue)
    i.setup_tcp                              0x08017eb8   Section        0  api_msg.o(i.setup_tcp)
    setup_tcp                                0x08017eb9   Thumb Code    50  api_msg.o(i.setup_tcp)
    i.splitStrToInt                          0x08017efc   Section        0  pcf8563.o(i.splitStrToInt)
    i.start_task                             0x08017f54   Section        0  main.o(i.start_task)
    i.stopPWM                                0x08017fd0   Section        0  pwm.o(i.stopPWM)
    i.strnstr                                0x08018008   Section        0  httpd.o(i.strnstr)
    strnstr                                  0x08018009   Thumb Code    74  httpd.o(i.strnstr)
    i.sys_arch_mbox_fetch                    0x08018054   Section        0  sys_arch.o(i.sys_arch_mbox_fetch)
    i.sys_arch_mbox_tryfetch                 0x08018144   Section        0  sys_arch.o(i.sys_arch_mbox_tryfetch)
    i.sys_arch_sem_wait                      0x08018156   Section        0  sys_arch.o(i.sys_arch_sem_wait)
    i.sys_init                               0x080181b6   Section        0  sys_arch.o(i.sys_init)
    i.sys_mbox_free                          0x080181b8   Section        0  sys_arch.o(i.sys_mbox_free)
    i.sys_mbox_new                           0x0801823c   Section        0  sys_arch.o(i.sys_mbox_new)
    i.sys_mbox_post                          0x080182f8   Section        0  sys_arch.o(i.sys_mbox_post)
    i.sys_mbox_set_invalid                   0x08018318   Section        0  sys_arch.o(i.sys_mbox_set_invalid)
    i.sys_mbox_trypost                       0x08018320   Section        0  sys_arch.o(i.sys_mbox_trypost)
    i.sys_mbox_valid                         0x08018344   Section        0  sys_arch.o(i.sys_mbox_valid)
    i.sys_sem_free                           0x0801837c   Section        0  sys_arch.o(i.sys_sem_free)
    i.sys_sem_new                            0x08018400   Section        0  sys_arch.o(i.sys_sem_new)
    i.sys_sem_set_invalid                    0x080184a0   Section        0  sys_arch.o(i.sys_sem_set_invalid)
    i.sys_sem_signal                         0x080184a6   Section        0  sys_arch.o(i.sys_sem_signal)
    i.sys_sem_valid                          0x080184b2   Section        0  sys_arch.o(i.sys_sem_valid)
    i.sys_thread_new                         0x080184c8   Section        0  sys_arch.o(i.sys_thread_new)
    i.sys_timeout                            0x08018520   Section        0  timers.o(i.sys_timeout)
    i.sys_timeouts_init                      0x08018668   Section        0  timers.o(i.sys_timeouts_init)
    i.sys_timeouts_mbox_fetch                0x0801868c   Section        0  timers.o(i.sys_timeouts_mbox_fetch)
    i.sys_untimeout                          0x08018714   Section        0  timers.o(i.sys_untimeout)
    i.systemDefault                          0x08018774   Section        0  sys.o(i.systemDefault)
    i.system_init                            0x0801877c   Section        0  main.o(i.system_init)
    i.tcp_abandon                            0x0801880c   Section        0  tcp.o(i.tcp_abandon)
    i.tcp_abort                              0x08018940   Section        0  tcp.o(i.tcp_abort)
    i.tcp_accept                             0x0801894e   Section        0  tcp.o(i.tcp_accept)
    i.tcp_accept_null                        0x08018952   Section        0  tcp.o(i.tcp_accept_null)
    tcp_accept_null                          0x08018953   Thumb Code     8  tcp.o(i.tcp_accept_null)
    i.tcp_alloc                              0x0801895c   Section        0  tcp.o(i.tcp_alloc)
    i.tcp_arg                                0x08018a20   Section        0  tcp.o(i.tcp_arg)
    i.tcp_bind                               0x08018a24   Section        0  tcp.o(i.tcp_bind)
    i.tcp_close                              0x08018b4c   Section        0  tcp.o(i.tcp_close)
    i.tcp_close_shutdown                     0x08018b68   Section        0  tcp.o(i.tcp_close_shutdown)
    tcp_close_shutdown                       0x08018b69   Thumb Code   456  tcp.o(i.tcp_close_shutdown)
    i.tcp_create_segment                     0x08018db4   Section        0  tcp_out.o(i.tcp_create_segment)
    tcp_create_segment                       0x08018db5   Thumb Code   184  tcp_out.o(i.tcp_create_segment)
    i.tcp_eff_send_mss                       0x08018e6c   Section        0  tcp.o(i.tcp_eff_send_mss)
    i.tcp_enqueue_flags                      0x08018e9c   Section        0  tcp_out.o(i.tcp_enqueue_flags)
    i.tcp_err                                0x08019140   Section        0  tcp.o(i.tcp_err)
    i.tcp_fasttmr                            0x080191e0   Section        0  tcp.o(i.tcp_fasttmr)
    i.tcp_init                               0x08019260   Section        0  tcp.o(i.tcp_init)
    i.tcp_input                              0x08019264   Section        0  tcp_in.o(i.tcp_input)
    i.tcp_keepalive                          0x0801991c   Section        0  tcp_out.o(i.tcp_keepalive)
    i.tcp_kill_prio                          0x08019970   Section        0  tcp.o(i.tcp_kill_prio)
    tcp_kill_prio                            0x08019971   Thumb Code    80  tcp.o(i.tcp_kill_prio)
    i.tcp_kill_timewait                      0x080199c8   Section        0  tcp.o(i.tcp_kill_timewait)
    tcp_kill_timewait                        0x080199c9   Thumb Code    54  tcp.o(i.tcp_kill_timewait)
    i.tcp_listen_input                       0x08019a08   Section        0  tcp_in.o(i.tcp_listen_input)
    tcp_listen_input                         0x08019a09   Thumb Code   280  tcp_in.o(i.tcp_listen_input)
    i.tcp_listen_with_backlog                0x08019b44   Section        0  tcp.o(i.tcp_listen_with_backlog)
    i.tcp_new                                0x08019ca4   Section        0  tcp.o(i.tcp_new)
    i.tcp_new_port                           0x08019cb0   Section        0  tcp.o(i.tcp_new_port)
    tcp_new_port                             0x08019cb1   Thumb Code    96  tcp.o(i.tcp_new_port)
    i.tcp_next_iss                           0x08019d18   Section        0  tcp.o(i.tcp_next_iss)
    i.tcp_output                             0x08019d34   Section        0  tcp_out.o(i.tcp_output)
    i.tcp_output_alloc_header                0x08019fb8   Section        0  tcp_out.o(i.tcp_output_alloc_header)
    tcp_output_alloc_header                  0x08019fb9   Thumb Code   148  tcp_out.o(i.tcp_output_alloc_header)
    i.tcp_output_segment                     0x0801a0d0   Section        0  tcp_out.o(i.tcp_output_segment)
    tcp_output_segment                       0x0801a0d1   Thumb Code   210  tcp_out.o(i.tcp_output_segment)
    i.tcp_parseopt                           0x0801a1a8   Section        0  tcp_in.o(i.tcp_parseopt)
    tcp_parseopt                             0x0801a1a9   Thumb Code   202  tcp_in.o(i.tcp_parseopt)
    i.tcp_pbuf_prealloc                      0x0801a278   Section        0  tcp_out.o(i.tcp_pbuf_prealloc)
    tcp_pbuf_prealloc                        0x0801a279   Thumb Code   142  tcp_out.o(i.tcp_pbuf_prealloc)
    i.tcp_pcb_purge                          0x0801a370   Section        0  tcp.o(i.tcp_pcb_purge)
    i.tcp_pcb_remove                         0x0801a3c8   Section        0  tcp.o(i.tcp_pcb_remove)
    i.tcp_poll                               0x0801a508   Section        0  tcp.o(i.tcp_poll)
    i.tcp_process                            0x0801a5a8   Section        0  tcp_in.o(i.tcp_process)
    tcp_process                              0x0801a5a9   Thumb Code  1658  tcp_in.o(i.tcp_process)
    i.tcp_process_refused_data               0x0801ac40   Section        0  tcp.o(i.tcp_process_refused_data)
    i.tcp_receive                            0x0801acd4   Section        0  tcp_in.o(i.tcp_receive)
    tcp_receive                              0x0801acd5   Thumb Code  2156  tcp_in.o(i.tcp_receive)
    i.tcp_recv                               0x0801b5f8   Section        0  tcp.o(i.tcp_recv)
    i.tcp_recv_data                          0x0801b698   Section        0  tcp_server.o(i.tcp_recv_data)
    i.tcp_recv_null                          0x0801b770   Section        0  tcp.o(i.tcp_recv_null)
    i.tcp_recved                             0x0801b7a0   Section        0  tcp.o(i.tcp_recved)
    i.tcp_rexmit                             0x0801b8bc   Section        0  tcp_out.o(i.tcp_rexmit)
    i.tcp_rexmit_fast                        0x0801b916   Section        0  tcp_out.o(i.tcp_rexmit_fast)
    i.tcp_rexmit_rto                         0x0801b98e   Section        0  tcp_out.o(i.tcp_rexmit_rto)
    i.tcp_rst                                0x0801b9c8   Section        0  tcp_out.o(i.tcp_rst)
    i.tcp_seg_free                           0x0801bae8   Section        0  tcp.o(i.tcp_seg_free)
    i.tcp_segs_free                          0x0801bb02   Section        0  tcp.o(i.tcp_segs_free)
    i.tcp_send_data                          0x0801bb1c   Section        0  tcp_server.o(i.tcp_send_data)
    i.tcp_send_empty_ack                     0x0801bd88   Section        0  tcp_out.o(i.tcp_send_empty_ack)
    i.tcp_send_err                           0x0801bde0   Section        0  tcp_server.o(i.tcp_send_err)
    i.tcp_send_fin                           0x0801be70   Section        0  tcp_out.o(i.tcp_send_fin)
    i.tcp_sent                               0x0801bebc   Section        0  tcp.o(i.tcp_sent)
    i.tcp_server_init                        0x0801bf5c   Section        0  tcp_server.o(i.tcp_server_init)
    i.tcp_server_thread                      0x0801bf84   Section        0  tcp_server.o(i.tcp_server_thread)
    tcp_server_thread                        0x0801bf85   Thumb Code   134  tcp_server.o(i.tcp_server_thread)
    i.tcp_setprio                            0x0801c01c   Section        0  tcp.o(i.tcp_setprio)
    i.tcp_shutdown                           0x0801c020   Section        0  tcp.o(i.tcp_shutdown)
    i.tcp_slowtmr                            0x0801c084   Section        0  tcp.o(i.tcp_slowtmr)
    i.tcp_timer_needed                       0x0801c674   Section        0  timers.o(i.tcp_timer_needed)
    i.tcp_timewait_input                     0x0801c6ac   Section        0  tcp_in.o(i.tcp_timewait_input)
    tcp_timewait_input                       0x0801c6ad   Thumb Code   140  tcp_in.o(i.tcp_timewait_input)
    i.tcp_tmr                                0x0801c758   Section        0  tcp.o(i.tcp_tmr)
    i.tcp_update_rcv_ann_wnd                 0x0801c77c   Section        0  tcp.o(i.tcp_update_rcv_ann_wnd)
    i.tcp_write                              0x0801c850   Section        0  tcp_out.o(i.tcp_write)
    i.tcp_write_checks                       0x0801cf6c   Section        0  tcp_out.o(i.tcp_write_checks)
    tcp_write_checks                         0x0801cf6d   Thumb Code   190  tcp_out.o(i.tcp_write_checks)
    i.tcp_zero_window_probe                  0x0801d0f0   Section        0  tcp_out.o(i.tcp_zero_window_probe)
    i.tcpip_apimsg                           0x0801d1a4   Section        0  tcpip.o(i.tcpip_apimsg)
    i.tcpip_init                             0x0801d1e4   Section        0  tcpip.o(i.tcpip_init)
    i.tcpip_input                            0x0801d2c0   Section        0  tcpip.o(i.tcpip_input)
    i.tcpip_tcp_timer                        0x0801d30c   Section        0  timers.o(i.tcpip_tcp_timer)
    tcpip_tcp_timer                          0x0801d30d   Thumb Code    40  timers.o(i.tcpip_tcp_timer)
    i.tcpip_thread                           0x0801d344   Section        0  tcpip.o(i.tcpip_thread)
    tcpip_thread                             0x0801d345   Thumb Code   230  tcpip.o(i.tcpip_thread)
    i.uart_init                              0x0801d4a8   Section        0  usart.o(i.uart_init)
    i.udp_bind                               0x0801d54c   Section        0  udp.o(i.udp_bind)
    i.udp_init                               0x0801d658   Section        0  udp.o(i.udp_init)
    i.udp_input                              0x0801d65c   Section        0  udp.o(i.udp_input)
    i.udp_new                                0x0801d8a8   Section        0  udp.o(i.udp_new)
    i.udp_new_port                           0x0801d8c4   Section        0  udp.o(i.udp_new_port)
    udp_new_port                             0x0801d8c5   Thumb Code    80  udp.o(i.udp_new_port)
    i.udp_recv                               0x0801d91c   Section        0  udp.o(i.udp_recv)
    i.udp_remove                             0x0801d924   Section        0  udp.o(i.udp_remove)
    i.updateLogPageFlag                      0x0801d964   Section        0  log.o(i.updateLogPageFlag)
    i.updateSWAlarmState                     0x0801d9a4   Section        0  alarm.o(i.updateSWAlarmState)
    i.watch_task                             0x0801da00   Section        0  main.o(i.watch_task)
    locale$$code                             0x0801daa0   Section       44  lc_ctype_c.o(locale$$code)
    x$fpl$fpinit                             0x0801dacc   Section       10  fpinit.o(x$fpl$fpinit)
    $v0                                      0x0801dacc   Number         0  fpinit.o(x$fpl$fpinit)
    .constdata                               0x0801dad6   Section     7990  lcd.o(.constdata)
    .constdata                               0x0801fa0c   Section     2340  displaymenu.o(.constdata)
    .constdata                               0x08020330   Section      256  os_core.o(.constdata)
    .constdata                               0x08020430   Section    187136  fs.o(.constdata)
    data__image_gray_20_gif                  0x08020430   Data         837  fs.o(.constdata)
    data__image_green_20_gif                 0x08020775   Data        1293  fs.o(.constdata)
    data__image_head_d_jpg                   0x08020c82   Data       12910  fs.o(.constdata)
    data__image_head_nologo_jpg              0x08023ef0   Data        6381  fs.o(.constdata)
    data__image_head_s_jpg                   0x080257dd   Data       12960  fs.o(.constdata)
    data__image_red_20_gif                   0x08028a7d   Data        1309  fs.o(.constdata)
    data__image_tab_jpg                      0x08028f9a   Data         642  fs.o(.constdata)
    data__image_yellow_20_gif                0x0802921c   Data        1290  fs.o(.constdata)
    data__about_shtml                        0x08029726   Data        6249  fs.o(.constdata)
    data__adminsetting_shtml                 0x0802af8f   Data       10712  fs.o(.constdata)
    data__control_shtml                      0x0802d967   Data       17750  fs.o(.constdata)
    data__index_shtml                        0x08031ebd   Data        4892  fs.o(.constdata)
    data__jquery_1_2_3_min_js                0x080331d9   Data       54252  fs.o(.constdata)
    data__log_shtml                          0x080405c5   Data        9559  fs.o(.constdata)
    data__logexport_html                     0x08042b1c   Data        9455  fs.o(.constdata)
    data__logexporting_shtml                 0x0804500b   Data        3859  fs.o(.constdata)
    data__parameters_shtml                   0x08045f1e   Data       15229  fs.o(.constdata)
    data__process_shtml                      0x08049a9b   Data        1653  fs.o(.constdata)
    data__remotepower_shtml                  0x0804a110   Data        4535  fs.o(.constdata)
    data__state_shtml                        0x0804b2c7   Data       10966  fs.o(.constdata)
    .constdata                               0x0804df30   Section       48  httpd.o(.constdata)
    .constdata                               0x0804df60   Section       64  httpd_cgi_ssi.o(.constdata)
    ppcURLs                                  0x0804df60   Data          64  httpd_cgi_ssi.o(.constdata)
    .constdata                               0x0804dfa0   Section       12  etharp.o(.constdata)
    .constdata                               0x0804dfac   Section        8  ip_addr.o(.constdata)
    .constdata                               0x0804dfb4   Section       56  memp.o(.constdata)
    memp_sizes                               0x0804dfb4   Data          28  memp.o(.constdata)
    memp_num                                 0x0804dfd0   Data          28  memp.o(.constdata)
    .constdata                               0x0804dfec   Section       80  tcp.o(.constdata)
    .constdata                               0x0804e03c   Section        4  sys_arch.o(.constdata)
    .constdata                               0x0804e040   Section       24  malloc.o(.constdata)
    .constdata                               0x0804e058   Section       40  _printf_hex_int.o(.constdata)
    uc_hextab                                0x0804e058   Data          20  _printf_hex_int.o(.constdata)
    lc_hextab                                0x0804e06c   Data          20  _printf_hex_int.o(.constdata)
    .constdata                               0x0804e080   Section       17  __printf_flags_wp.o(.constdata)
    maptable                                 0x0804e080   Data          17  __printf_flags_wp.o(.constdata)
    .conststring                             0x0804e094   Section      106  httpd.o(.conststring)
    .conststring                             0x0804e100   Section      194  httpd_cgi_ssi.o(.conststring)
    .conststring                             0x0804e1c4   Section       68  etharp.o(.conststring)
    .conststring                             0x0804e208   Section      160  memp.o(.conststring)
    .conststring                             0x0804e2a8   Section      109  tcp.o(.conststring)
    .conststring                             0x0804e318   Section       85  tcp_out.o(.conststring)
    locale$$data                             0x0804e390   Section      272  lc_ctype_c.o(locale$$data)
    __lcctype_c_name                         0x0804e394   Data           2  lc_ctype_c.o(locale$$data)
    __lcctype_c_start                        0x0804e39c   Data           0  lc_ctype_c.o(locale$$data)
    __lcctype_c_end                          0x0804e4a0   Data           0  lc_ctype_c.o(locale$$data)
    .ARM.__AT_0x10000000                     0x10000000   Section    61440  malloc.o(.ARM.__AT_0x10000000)
    .ARM.__AT_0x1000F000                     0x1000f000   Section     3840  malloc.o(.ARM.__AT_0x1000F000)
    .data                                    0x20000000   Section       24  main.o(.data)
    no_key_num                               0x20000014   Data           4  main.o(.data)
    .data                                    0x20000018   Section        4  myiic.o(.data)
    .data                                    0x2000001c   Section        5  lm75.o(.data)
    .data                                    0x20000024   Section       16  lan8720.o(.data)
    .data                                    0x20000034   Section      108  alarm.o(.data)
    AHV_state_crt                            0x20000041   Data           1  alarm.o(.data)
    AHV_state_crt_tmp                        0x20000042   Data           1  alarm.o(.data)
    AHV_state_last                           0x20000043   Data           1  alarm.o(.data)
    BHV_state_crt                            0x20000044   Data           1  alarm.o(.data)
    BHV_state_crt_tmp                        0x20000045   Data           1  alarm.o(.data)
    BHV_state_last                           0x20000046   Data           1  alarm.o(.data)
    .data                                    0x200000a0   Section        1  key.o(.data)
    key_up                                   0x200000a0   Data           1  key.o(.data)
    .data                                    0x200000a1   Section        2  lcd.o(.data)
    .data                                    0x200000a4   Section       54  displaymenu.o(.data)
    alarm_sequence_buf                       0x200000d3   Data           7  displaymenu.o(.data)
    .data                                    0x200000da   Section       26  pwm.o(.data)
    .data                                    0x200000f4   Section        9  timer.o(.data)
    .data                                    0x200000fd   Section        8  log.o(.data)
    .data                                    0x20000106   Section        4  delay.o(.data)
    fac_us                                   0x20000106   Data           1  delay.o(.data)
    fac_ms                                   0x20000108   Data           2  delay.o(.data)
    .data                                    0x2000010a   Section        1  sys.o(.data)
    .data                                    0x2000010c   Section        6  usart.o(.data)
    .data                                    0x20000112   Section        9  version.o(.data)
    .data                                    0x2000011b   Section       16  stm32f4xx_rcc.o(.data)
    APBAHBPrescTable                         0x2000011b   Data          16  stm32f4xx_rcc.o(.data)
    .data                                    0x2000012c   Section       16  stm32f4x7_eth.o(.data)
    .data                                    0x2000013c   Section       76  os_core.o(.data)
    .data                                    0x20000188   Section       16  lwip_comm.o(.data)
    .data                                    0x20000198   Section       36  httpd.o(.data)
    .data                                    0x200001bc   Section       92  httpd_cgi_ssi.o(.data)
    ppcTAGs                                  0x200001c4   Data          84  httpd_cgi_ssi.o(.data)
    .data                                    0x20000218   Section       10  tcp_server.o(.data)
    ipaddr                                   0x2000021c   Data           4  tcp_server.o(.data)
    port                                     0x20000220   Data           2  tcp_server.o(.data)
    .data                                    0x20000222   Section        1  etharp.o(.data)
    .data                                    0x20000224   Section       18  ip.o(.data)
    .data                                    0x20000238   Section        6  ip_frag.o(.data)
    .data                                    0x20000240   Section       60  memp.o(.data)
    memp_desc                                0x20000240   Data          56  memp.o(.data)
    .data                                    0x2000027c   Section        9  netif.o(.data)
    .data                                    0x20000288   Section        4  raw.o(.data)
    raw_pcbs                                 0x20000288   Data           4  raw.o(.data)
    .data                                    0x2000028c   Section       36  tcp.o(.data)
    tcp_port                                 0x2000028c   Data           2  tcp.o(.data)
    tcp_timer                                0x200002a9   Data           1  tcp.o(.data)
    tcp_timer_ctr                            0x200002aa   Data           1  tcp.o(.data)
    iss                                      0x200002ac   Data           4  tcp.o(.data)
    .data                                    0x200002b0   Section       32  tcp_in.o(.data)
    flags                                    0x200002c0   Data           1  tcp_in.o(.data)
    .data                                    0x200002d0   Section        8  timers.o(.data)
    .data                                    0x200002d8   Section        8  udp.o(.data)
    udp_port                                 0x200002d8   Data           2  udp.o(.data)
    .data                                    0x200002e0   Section       20  mem.o(.data)
    .data                                    0x200002f4   Section       12  tcpip.o(.data)
    tcpip_init_done                          0x200002f4   Data           4  tcpip.o(.data)
    tcpip_init_done_arg                      0x200002f8   Data           4  tcpip.o(.data)
    .data                                    0x20000300   Section       28  malloc.o(.data)
    .data                                    0x2000031c   Section        4  strtok.o(.data)
    _strtok_saves1                           0x2000031c   Data           4  strtok.o(.data)
    .bss                                     0x20000320   Section     6336  main.o(.bss)
    START_TASK_STK                           0x20000320   Data         256  main.o(.bss)
    MAIN_TASK_STK                            0x20000420   Data        4800  main.o(.bss)
    WATCH_TASK_STK                           0x200017e0   Data        1024  main.o(.bss)
    .bss                                     0x20001be0   Section      192  lan8720.o(.bss)
    .bss                                     0x20001ca0   Section       38  pcf8563.o(.bss)
    .bss                                     0x20001cc6   Section       85  displaymenu.o(.bss)
    .bss                                     0x20001d1c   Section      480  log.o(.bss)
    .bss                                     0x20001efc   Section      200  usart.o(.bss)
    .bss                                     0x20001fc4   Section       12  stm32f4x7_eth.o(.bss)
    .bss                                     0x20001fd0   Section     2968  os_core.o(.bss)
    .bss                                     0x20002b68   Section       76  lwip_comm.o(.bss)
    .bss                                     0x20002bb4   Section      240  fs.o(.bss)
    .bss                                     0x20002ca4   Section     1024  httpd.o(.bss)
    httpd_req_buf                            0x20002ca4   Data        1024  httpd.o(.bss)
    .bss                                     0x200030a4   Section     3024  tcp_server.o(.bss)
    .bss                                     0x20003c74   Section      200  etharp.o(.bss)
    arp_table                                0x20003c74   Data         200  etharp.o(.bss)
    .bss                                     0x20003d3c   Section       56  memp.o(.bss)
    memp_tab                                 0x20003d3c   Data          56  memp.o(.bss)
    .bss                                     0x20003d74   Section       20  tcp_in.o(.bss)
    .bss                                     0x20003da0   Section    108800  malloc.o(.bss)
    .bss                                     0x2001e6a0   Section       96  libspace.o(.bss)
    HEAP                                     0x2001e700   Section        0  startup_stm32f40_41xxx.o(HEAP)
    STACK                                    0x2001e700   Section     1024  startup_stm32f40_41xxx.o(STACK)
    Heap_Mem                                 0x2001e700   Data           0  startup_stm32f40_41xxx.o(HEAP)
    Stack_Mem                                0x2001e700   Data        1024  startup_stm32f40_41xxx.o(STACK)
    __initial_sp                             0x2001eb00   Data           0  startup_stm32f40_41xxx.o(STACK)

    Global Symbols

    Symbol Name                              Value     Ov Type        Size  Object(Section)

    BuildAttributes$$THM_ISAv4$E$P$D$K$B$S$7EM$VFPi3$EXTD16$VFPS$VFMA$PE$A:L22UL41UL21$X:L11$S22US41US21$IEEE1$IW$USESV6$~STKCKD$USESV7$~SHL$OSPACE$ROPI$EBA8$UX$STANDARDLIB$REQ8$PRES8$EABIv2 0x00000000   Number         0  anon$$obj.o ABSOLUTE
    __ARM_use_no_argv                        0x00000000   Number         0  main.o ABSOLUTE
    _printf_flags                            0x00000000   Number         0  printf_stubs.o ABSOLUTE
    _printf_return_value                     0x00000000   Number         0  printf_stubs.o ABSOLUTE
    _printf_sizespec                         0x00000000   Number         0  printf_stubs.o ABSOLUTE
    _printf_widthprec                        0x00000000   Number         0  printf_stubs.o ABSOLUTE
    __ARM_exceptions_init                     - Undefined Weak Reference
    __alloca_initialize                       - Undefined Weak Reference
    __arm_preinit_                            - Undefined Weak Reference
    __cpp_initialize__aeabi_                  - Undefined Weak Reference
    __cxa_finalize                            - Undefined Weak Reference
    __sigvec_lookup                           - Undefined Weak Reference
    _atexit_init                              - Undefined Weak Reference
    _call_atexit_fns                          - Undefined Weak Reference
    _clock_init                               - Undefined Weak Reference
    _fp_trap_init                             - Undefined Weak Reference
    _fp_trap_shutdown                         - Undefined Weak Reference
    _get_lc_collate                           - Undefined Weak Reference
    _get_lc_monetary                          - Undefined Weak Reference
    _get_lc_numeric                           - Undefined Weak Reference
    _get_lc_time                              - Undefined Weak Reference
    _getenv_init                              - Undefined Weak Reference
    _handle_redirection                       - Undefined Weak Reference
    _init_alloc                               - Undefined Weak Reference
    _init_user_alloc                          - Undefined Weak Reference
    _initio                                   - Undefined Weak Reference
    _mutex_acquire                            - Undefined Weak Reference
    _mutex_release                            - Undefined Weak Reference
    _printf_mbtowc                            - Undefined Weak Reference
    _printf_truncate_signed                   - Undefined Weak Reference
    _printf_truncate_unsigned                 - Undefined Weak Reference
    _rand_init                                - Undefined Weak Reference
    _signal_finish                            - Undefined Weak Reference
    _signal_init                              - Undefined Weak Reference
    _terminate_alloc                          - Undefined Weak Reference
    _terminate_user_alloc                     - Undefined Weak Reference
    _terminateio                              - Undefined Weak Reference
    __Vectors_Size                           0x00000188   Number         0  startup_stm32f40_41xxx.o ABSOLUTE
    __Vectors                                0x08000000   Data           4  startup_stm32f40_41xxx.o(RESET)
    __Vectors_End                            0x08000188   Data           0  startup_stm32f40_41xxx.o(RESET)
    __main                                   0x08000189   Thumb Code     8  __main.o(!!!main)
    __scatterload                            0x08000191   Thumb Code     0  __scatter.o(!!!scatter)
    __scatterload_rt2                        0x08000191   Thumb Code    44  __scatter.o(!!!scatter)
    __scatterload_rt2_thumb_only             0x08000191   Thumb Code     0  __scatter.o(!!!scatter)
    __scatterload_null                       0x0800019f   Thumb Code     0  __scatter.o(!!!scatter)
    __decompress                             0x080001c5   Thumb Code    90  __dczerorl2.o(!!dczerorl2)
    __decompress1                            0x080001c5   Thumb Code     0  __dczerorl2.o(!!dczerorl2)
    __scatterload_zeroinit                   0x08000221   Thumb Code    28  __scatter_zi.o(!!handler_zi)
    _printf_d                                0x0800023d   Thumb Code     0  _printf_d.o(.ARM.Collect$$_printf_percent$$00000009)
    _printf_percent                          0x0800023d   Thumb Code     0  _printf_percent.o(.ARM.Collect$$_printf_percent$$00000000)
    _printf_x                                0x08000243   Thumb Code     0  _printf_x.o(.ARM.Collect$$_printf_percent$$0000000C)
    _printf_s                                0x08000249   Thumb Code     0  _printf_s.o(.ARM.Collect$$_printf_percent$$00000014)
    _printf_percent_end                      0x0800024f   Thumb Code     0  _printf_percent_end.o(.ARM.Collect$$_printf_percent$$00000017)
    __rt_lib_init                            0x08000253   Thumb Code     0  libinit.o(.ARM.Collect$$libinit$$00000000)
    __rt_lib_init_fp_1                       0x08000255   Thumb Code     0  libinit2.o(.ARM.Collect$$libinit$$00000001)
    __rt_lib_init_heap_1                     0x08000259   Thumb Code     0  libinit2.o(.ARM.Collect$$libinit$$0000000A)
    __rt_lib_init_lc_common                  0x08000259   Thumb Code     0  libinit2.o(.ARM.Collect$$libinit$$0000000F)
    __rt_lib_init_preinit_1                  0x08000259   Thumb Code     0  libinit2.o(.ARM.Collect$$libinit$$00000004)
    __rt_lib_init_rand_1                     0x08000259   Thumb Code     0  libinit2.o(.ARM.Collect$$libinit$$0000000E)
    __rt_lib_init_user_alloc_1               0x08000259   Thumb Code     0  libinit2.o(.ARM.Collect$$libinit$$0000000C)
    __rt_lib_init_lc_collate_1               0x0800025f   Thumb Code     0  libinit2.o(.ARM.Collect$$libinit$$00000011)
    __rt_lib_init_lc_ctype_2                 0x0800025f   Thumb Code     0  libinit2.o(.ARM.Collect$$libinit$$00000012)
    __rt_lib_init_alloca_1                   0x0800026b   Thumb Code     0  libinit2.o(.ARM.Collect$$libinit$$0000002E)
    __rt_lib_init_argv_1                     0x0800026b   Thumb Code     0  libinit2.o(.ARM.Collect$$libinit$$0000002C)
    __rt_lib_init_atexit_1                   0x0800026b   Thumb Code     0  libinit2.o(.ARM.Collect$$libinit$$0000001B)
    __rt_lib_init_clock_1                    0x0800026b   Thumb Code     0  libinit2.o(.ARM.Collect$$libinit$$00000021)
    __rt_lib_init_cpp_1                      0x0800026b   Thumb Code     0  libinit2.o(.ARM.Collect$$libinit$$00000032)
    __rt_lib_init_exceptions_1               0x0800026b   Thumb Code     0  libinit2.o(.ARM.Collect$$libinit$$00000030)
    __rt_lib_init_fp_trap_1                  0x0800026b   Thumb Code     0  libinit2.o(.ARM.Collect$$libinit$$0000001F)
    __rt_lib_init_getenv_1                   0x0800026b   Thumb Code     0  libinit2.o(.ARM.Collect$$libinit$$00000023)
    __rt_lib_init_lc_ctype_1                 0x0800026b   Thumb Code     0  libinit2.o(.ARM.Collect$$libinit$$00000013)
    __rt_lib_init_lc_monetary_1              0x0800026b   Thumb Code     0  libinit2.o(.ARM.Collect$$libinit$$00000015)
    __rt_lib_init_lc_numeric_1               0x0800026b   Thumb Code     0  libinit2.o(.ARM.Collect$$libinit$$00000017)
    __rt_lib_init_lc_time_1                  0x0800026b   Thumb Code     0  libinit2.o(.ARM.Collect$$libinit$$00000019)
    __rt_lib_init_return                     0x0800026b   Thumb Code     0  libinit2.o(.ARM.Collect$$libinit$$00000033)
    __rt_lib_init_signal_1                   0x0800026b   Thumb Code     0  libinit2.o(.ARM.Collect$$libinit$$0000001D)
    __rt_lib_init_stdio_1                    0x0800026b   Thumb Code     0  libinit2.o(.ARM.Collect$$libinit$$00000025)
    __rt_lib_shutdown                        0x0800026d   Thumb Code     0  libshutdown.o(.ARM.Collect$$libshutdown$$00000000)
    __rt_lib_shutdown_fp_trap_1              0x0800026f   Thumb Code     0  libshutdown2.o(.ARM.Collect$$libshutdown$$00000006)
    __rt_lib_shutdown_heap_1                 0x0800026f   Thumb Code     0  libshutdown2.o(.ARM.Collect$$libshutdown$$0000000E)
    __rt_lib_shutdown_return                 0x0800026f   Thumb Code     0  libshutdown2.o(.ARM.Collect$$libshutdown$$0000000F)
    __rt_lib_shutdown_signal_1               0x0800026f   Thumb Code     0  libshutdown2.o(.ARM.Collect$$libshutdown$$00000009)
    __rt_lib_shutdown_stdio_1                0x0800026f   Thumb Code     0  libshutdown2.o(.ARM.Collect$$libshutdown$$00000003)
    __rt_lib_shutdown_user_alloc_1           0x0800026f   Thumb Code     0  libshutdown2.o(.ARM.Collect$$libshutdown$$0000000B)
    __rt_entry                               0x08000271   Thumb Code     0  __rtentry.o(.ARM.Collect$$rtentry$$00000000)
    __rt_entry_presh_1                       0x08000271   Thumb Code     0  __rtentry2.o(.ARM.Collect$$rtentry$$00000002)
    __rt_entry_sh                            0x08000271   Thumb Code     0  __rtentry4.o(.ARM.Collect$$rtentry$$00000004)
    __rt_entry_li                            0x08000277   Thumb Code     0  __rtentry2.o(.ARM.Collect$$rtentry$$0000000A)
    __rt_entry_postsh_1                      0x08000277   Thumb Code     0  __rtentry2.o(.ARM.Collect$$rtentry$$00000009)
    __rt_entry_main                          0x0800027b   Thumb Code     0  __rtentry2.o(.ARM.Collect$$rtentry$$0000000D)
    __rt_entry_postli_1                      0x0800027b   Thumb Code     0  __rtentry2.o(.ARM.Collect$$rtentry$$0000000C)
    __rt_exit                                0x08000283   Thumb Code     0  rtexit.o(.ARM.Collect$$rtexit$$00000000)
    __rt_exit_ls                             0x08000285   Thumb Code     0  rtexit2.o(.ARM.Collect$$rtexit$$00000003)
    __rt_exit_prels_1                        0x08000285   Thumb Code     0  rtexit2.o(.ARM.Collect$$rtexit$$00000002)
    __rt_exit_exit                           0x08000289   Thumb Code     0  rtexit2.o(.ARM.Collect$$rtexit$$00000004)
    Reset_Handler                            0x08000291   Thumb Code     8  startup_stm32f40_41xxx.o(.text)
    NMI_Handler                              0x08000299   Thumb Code     2  startup_stm32f40_41xxx.o(.text)
    MemManage_Handler                        0x0800029d   Thumb Code     2  startup_stm32f40_41xxx.o(.text)
    BusFault_Handler                         0x0800029f   Thumb Code     2  startup_stm32f40_41xxx.o(.text)
    UsageFault_Handler                       0x080002a1   Thumb Code     2  startup_stm32f40_41xxx.o(.text)
    SVC_Handler                              0x080002a3   Thumb Code     2  startup_stm32f40_41xxx.o(.text)
    DebugMon_Handler                         0x080002a5   Thumb Code     2  startup_stm32f40_41xxx.o(.text)
    ADC_IRQHandler                           0x080002ab   Thumb Code     0  startup_stm32f40_41xxx.o(.text)
    CAN1_RX0_IRQHandler                      0x080002ab   Thumb Code     0  startup_stm32f40_41xxx.o(.text)
    CAN1_RX1_IRQHandler                      0x080002ab   Thumb Code     0  startup_stm32f40_41xxx.o(.text)
    CAN1_SCE_IRQHandler                      0x080002ab   Thumb Code     0  startup_stm32f40_41xxx.o(.text)
    CAN1_TX_IRQHandler                       0x080002ab   Thumb Code     0  startup_stm32f40_41xxx.o(.text)
    CAN2_RX0_IRQHandler                      0x080002ab   Thumb Code     0  startup_stm32f40_41xxx.o(.text)
    CAN2_RX1_IRQHandler                      0x080002ab   Thumb Code     0  startup_stm32f40_41xxx.o(.text)
    CAN2_SCE_IRQHandler                      0x080002ab   Thumb Code     0  startup_stm32f40_41xxx.o(.text)
    CAN2_TX_IRQHandler                       0x080002ab   Thumb Code     0  startup_stm32f40_41xxx.o(.text)
    CRYP_IRQHandler                          0x080002ab   Thumb Code     0  startup_stm32f40_41xxx.o(.text)
    DCMI_IRQHandler                          0x080002ab   Thumb Code     0  startup_stm32f40_41xxx.o(.text)
    DMA1_Stream0_IRQHandler                  0x080002ab   Thumb Code     0  startup_stm32f40_41xxx.o(.text)
    DMA1_Stream1_IRQHandler                  0x080002ab   Thumb Code     0  startup_stm32f40_41xxx.o(.text)
    DMA1_Stream2_IRQHandler                  0x080002ab   Thumb Code     0  startup_stm32f40_41xxx.o(.text)
    DMA1_Stream3_IRQHandler                  0x080002ab   Thumb Code     0  startup_stm32f40_41xxx.o(.text)
    DMA1_Stream4_IRQHandler                  0x080002ab   Thumb Code     0  startup_stm32f40_41xxx.o(.text)
    DMA1_Stream5_IRQHandler                  0x080002ab   Thumb Code     0  startup_stm32f40_41xxx.o(.text)
    DMA1_Stream6_IRQHandler                  0x080002ab   Thumb Code     0  startup_stm32f40_41xxx.o(.text)
    DMA1_Stream7_IRQHandler                  0x080002ab   Thumb Code     0  startup_stm32f40_41xxx.o(.text)
    DMA2_Stream0_IRQHandler                  0x080002ab   Thumb Code     0  startup_stm32f40_41xxx.o(.text)
    DMA2_Stream1_IRQHandler                  0x080002ab   Thumb Code     0  startup_stm32f40_41xxx.o(.text)
    DMA2_Stream2_IRQHandler                  0x080002ab   Thumb Code     0  startup_stm32f40_41xxx.o(.text)
    DMA2_Stream3_IRQHandler                  0x080002ab   Thumb Code     0  startup_stm32f40_41xxx.o(.text)
    DMA2_Stream4_IRQHandler                  0x080002ab   Thumb Code     0  startup_stm32f40_41xxx.o(.text)
    DMA2_Stream5_IRQHandler                  0x080002ab   Thumb Code     0  startup_stm32f40_41xxx.o(.text)
    DMA2_Stream6_IRQHandler                  0x080002ab   Thumb Code     0  startup_stm32f40_41xxx.o(.text)
    DMA2_Stream7_IRQHandler                  0x080002ab   Thumb Code     0  startup_stm32f40_41xxx.o(.text)
    ETH_WKUP_IRQHandler                      0x080002ab   Thumb Code     0  startup_stm32f40_41xxx.o(.text)
    EXTI0_IRQHandler                         0x080002ab   Thumb Code     0  startup_stm32f40_41xxx.o(.text)
    EXTI1_IRQHandler                         0x080002ab   Thumb Code     0  startup_stm32f40_41xxx.o(.text)
    EXTI2_IRQHandler                         0x080002ab   Thumb Code     0  startup_stm32f40_41xxx.o(.text)
    EXTI3_IRQHandler                         0x080002ab   Thumb Code     0  startup_stm32f40_41xxx.o(.text)
    EXTI4_IRQHandler                         0x080002ab   Thumb Code     0  startup_stm32f40_41xxx.o(.text)
    FLASH_IRQHandler                         0x080002ab   Thumb Code     0  startup_stm32f40_41xxx.o(.text)
    FPU_IRQHandler                           0x080002ab   Thumb Code     0  startup_stm32f40_41xxx.o(.text)
    FSMC_IRQHandler                          0x080002ab   Thumb Code     0  startup_stm32f40_41xxx.o(.text)
    HASH_RNG_IRQHandler                      0x080002ab   Thumb Code     0  startup_stm32f40_41xxx.o(.text)
    I2C1_ER_IRQHandler                       0x080002ab   Thumb Code     0  startup_stm32f40_41xxx.o(.text)
    I2C1_EV_IRQHandler                       0x080002ab   Thumb Code     0  startup_stm32f40_41xxx.o(.text)
    I2C2_ER_IRQHandler                       0x080002ab   Thumb Code     0  startup_stm32f40_41xxx.o(.text)
    I2C2_EV_IRQHandler                       0x080002ab   Thumb Code     0  startup_stm32f40_41xxx.o(.text)
    I2C3_ER_IRQHandler                       0x080002ab   Thumb Code     0  startup_stm32f40_41xxx.o(.text)
    I2C3_EV_IRQHandler                       0x080002ab   Thumb Code     0  startup_stm32f40_41xxx.o(.text)
    OTG_FS_IRQHandler                        0x080002ab   Thumb Code     0  startup_stm32f40_41xxx.o(.text)
    OTG_FS_WKUP_IRQHandler                   0x080002ab   Thumb Code     0  startup_stm32f40_41xxx.o(.text)
    OTG_HS_EP1_IN_IRQHandler                 0x080002ab   Thumb Code     0  startup_stm32f40_41xxx.o(.text)
    OTG_HS_EP1_OUT_IRQHandler                0x080002ab   Thumb Code     0  startup_stm32f40_41xxx.o(.text)
    OTG_HS_IRQHandler                        0x080002ab   Thumb Code     0  startup_stm32f40_41xxx.o(.text)
    OTG_HS_WKUP_IRQHandler                   0x080002ab   Thumb Code     0  startup_stm32f40_41xxx.o(.text)
    PVD_IRQHandler                           0x080002ab   Thumb Code     0  startup_stm32f40_41xxx.o(.text)
    RCC_IRQHandler                           0x080002ab   Thumb Code     0  startup_stm32f40_41xxx.o(.text)
    RTC_Alarm_IRQHandler                     0x080002ab   Thumb Code     0  startup_stm32f40_41xxx.o(.text)
    RTC_WKUP_IRQHandler                      0x080002ab   Thumb Code     0  startup_stm32f40_41xxx.o(.text)
    SDIO_IRQHandler                          0x080002ab   Thumb Code     0  startup_stm32f40_41xxx.o(.text)
    SPI1_IRQHandler                          0x080002ab   Thumb Code     0  startup_stm32f40_41xxx.o(.text)
    SPI2_IRQHandler                          0x080002ab   Thumb Code     0  startup_stm32f40_41xxx.o(.text)
    SPI3_IRQHandler                          0x080002ab   Thumb Code     0  startup_stm32f40_41xxx.o(.text)
    TAMP_STAMP_IRQHandler                    0x080002ab   Thumb Code     0  startup_stm32f40_41xxx.o(.text)
    TIM1_BRK_TIM9_IRQHandler                 0x080002ab   Thumb Code     0  startup_stm32f40_41xxx.o(.text)
    TIM1_CC_IRQHandler                       0x080002ab   Thumb Code     0  startup_stm32f40_41xxx.o(.text)
    TIM1_TRG_COM_TIM11_IRQHandler            0x080002ab   Thumb Code     0  startup_stm32f40_41xxx.o(.text)
    TIM1_UP_TIM10_IRQHandler                 0x080002ab   Thumb Code     0  startup_stm32f40_41xxx.o(.text)
    TIM2_IRQHandler                          0x080002ab   Thumb Code     0  startup_stm32f40_41xxx.o(.text)
    TIM6_DAC_IRQHandler                      0x080002ab   Thumb Code     0  startup_stm32f40_41xxx.o(.text)
    TIM7_IRQHandler                          0x080002ab   Thumb Code     0  startup_stm32f40_41xxx.o(.text)
    TIM8_BRK_TIM12_IRQHandler                0x080002ab   Thumb Code     0  startup_stm32f40_41xxx.o(.text)
    TIM8_CC_IRQHandler                       0x080002ab   Thumb Code     0  startup_stm32f40_41xxx.o(.text)
    TIM8_TRG_COM_TIM14_IRQHandler            0x080002ab   Thumb Code     0  startup_stm32f40_41xxx.o(.text)
    TIM8_UP_TIM13_IRQHandler                 0x080002ab   Thumb Code     0  startup_stm32f40_41xxx.o(.text)
    UART4_IRQHandler                         0x080002ab   Thumb Code     0  startup_stm32f40_41xxx.o(.text)
    UART5_IRQHandler                         0x080002ab   Thumb Code     0  startup_stm32f40_41xxx.o(.text)
    USART2_IRQHandler                        0x080002ab   Thumb Code     0  startup_stm32f40_41xxx.o(.text)
    USART3_IRQHandler                        0x080002ab   Thumb Code     0  startup_stm32f40_41xxx.o(.text)
    USART6_IRQHandler                        0x080002ab   Thumb Code     0  startup_stm32f40_41xxx.o(.text)
    WWDG_IRQHandler                          0x080002ab   Thumb Code     0  startup_stm32f40_41xxx.o(.text)
    __user_initial_stackheap                 0x080002ad   Thumb Code     0  startup_stm32f40_41xxx.o(.text)
    OS_CPU_SR_Save                           0x080002cd   Thumb Code     0  os_cpu_a.o(.text)
    OS_CPU_SR_Restore                        0x080002d5   Thumb Code     0  os_cpu_a.o(.text)
    OSStartHighRdy                           0x080002db   Thumb Code     0  os_cpu_a.o(.text)
    OSCtxSw                                  0x080002ff   Thumb Code     0  os_cpu_a.o(.text)
    OSIntCtxSw                               0x0800030d   Thumb Code     0  os_cpu_a.o(.text)
    PendSV_Handler                           0x0800031d   Thumb Code     0  os_cpu_a.o(.text)
    __use_no_semihosting                     0x08000395   Thumb Code     2  use_no_semi_2.o(.text)
    __rt_ctype_table                         0x08000399   Thumb Code    16  rt_ctype_table.o(.text)
    __2printf                                0x080003a9   Thumb Code    20  noretval__2printf.o(.text)
    __2sprintf                               0x080003c1   Thumb Code    34  noretval__2sprintf.o(.text)
    _printf_pre_padding                      0x080003e9   Thumb Code    44  _printf_pad.o(.text)
    _printf_post_padding                     0x08000415   Thumb Code    34  _printf_pad.o(.text)
    _printf_str                              0x08000437   Thumb Code    82  _printf_str.o(.text)
    _printf_int_dec                          0x08000489   Thumb Code   104  _printf_dec.o(.text)
    _printf_int_hex                          0x08000501   Thumb Code    84  _printf_hex_int.o(.text)
    _printf_longlong_hex                     0x08000501   Thumb Code     0  _printf_hex_int.o(.text)
    __printf                                 0x08000559   Thumb Code   308  __printf_flags_wp.o(.text)
    atoi                                     0x08000691   Thumb Code    26  atoi.o(.text)
    strtol                                   0x080006ab   Thumb Code   112  strtol.o(.text)
    strtok                                   0x0800071d   Thumb Code     6  strtok.o(.text)
    strchr                                   0x08000729   Thumb Code    20  strchr.o(.text)
    strstr                                   0x0800073d   Thumb Code    36  strstr.o(.text)
    memcmp                                   0x08000761   Thumb Code    88  memcmp.o(.text)
    strcpy                                   0x080007b9   Thumb Code    72  strcpy.o(.text)
    strlen                                   0x08000801   Thumb Code    62  strlen.o(.text)
    strncmp                                  0x0800083f   Thumb Code   150  strncmp.o(.text)
    strcat                                   0x080008d5   Thumb Code    24  strcat.o(.text)
    __aeabi_memcpy                           0x080008ed   Thumb Code     0  rt_memcpy_v6.o(.text)
    __rt_memcpy                              0x080008ed   Thumb Code   138  rt_memcpy_v6.o(.text)
    _memcpy_lastbytes                        0x08000953   Thumb Code     0  rt_memcpy_v6.o(.text)
    __aeabi_memcpy4                          0x08000977   Thumb Code     0  rt_memcpy_w.o(.text)
    __aeabi_memcpy8                          0x08000977   Thumb Code     0  rt_memcpy_w.o(.text)
    __rt_memcpy_w                            0x08000977   Thumb Code   100  rt_memcpy_w.o(.text)
    _memcpy_lastbytes_aligned                0x080009bf   Thumb Code     0  rt_memcpy_w.o(.text)
    __aeabi_memclr                           0x080009db   Thumb Code     0  rt_memclr.o(.text)
    __rt_memclr                              0x080009db   Thumb Code    68  rt_memclr.o(.text)
    _memset                                  0x080009df   Thumb Code     0  rt_memclr.o(.text)
    __aeabi_memclr4                          0x08000a1f   Thumb Code     0  rt_memclr_w.o(.text)
    __aeabi_memclr8                          0x08000a1f   Thumb Code     0  rt_memclr_w.o(.text)
    __rt_memclr_w                            0x08000a1f   Thumb Code    78  rt_memclr_w.o(.text)
    _memset_w                                0x08000a23   Thumb Code     0  rt_memclr_w.o(.text)
    strncpy                                  0x08000a6d   Thumb Code    86  strncpy.o(.text)
    strcmp                                   0x08000ac5   Thumb Code   128  strcmpv7m.o(.text)
    __use_two_region_memory                  0x08000b45   Thumb Code     2  heapauxi.o(.text)
    __rt_heap_escrow$2region                 0x08000b47   Thumb Code     2  heapauxi.o(.text)
    __rt_heap_expand$2region                 0x08000b49   Thumb Code     2  heapauxi.o(.text)
    __I$use$semihosting                      0x08000b4b   Thumb Code     0  use_no_semi.o(.text)
    __use_no_semihosting_swi                 0x08000b4b   Thumb Code     2  use_no_semi.o(.text)
    __rt_locale                              0x08000b4d   Thumb Code     8  rt_locale_intlibspace.o(.text)
    __aeabi_errno_addr                       0x08000b55   Thumb Code     8  rt_errno_addr_intlibspace.o(.text)
    __errno$intlibspace                      0x08000b55   Thumb Code     0  rt_errno_addr_intlibspace.o(.text)
    __rt_errno_addr$intlibspace              0x08000b55   Thumb Code     0  rt_errno_addr_intlibspace.o(.text)
    _printf_int_common                       0x08000b5d   Thumb Code   178  _printf_intcommon.o(.text)
    _printf_char_common                      0x08000c1b   Thumb Code    32  _printf_char_common.o(.text)
    _sputc                                   0x08000c41   Thumb Code    10  _sputc.o(.text)
    _printf_cs_common                        0x08000c4b   Thumb Code    20  _printf_char.o(.text)
    _printf_char                             0x08000c5f   Thumb Code    16  _printf_char.o(.text)
    _printf_string                           0x08000c6f   Thumb Code     8  _printf_char.o(.text)
    _printf_char_file                        0x08000c79   Thumb Code    32  _printf_char_file.o(.text)
    _strtoul                                 0x08000c9d   Thumb Code   158  _strtoul.o(.text)
    __strtok_internal                        0x08000d3d   Thumb Code    64  strtok_int.o(.text)
    __user_libspace                          0x08000d81   Thumb Code     8  libspace.o(.text)
    __user_perproc_libspace                  0x08000d81   Thumb Code     0  libspace.o(.text)
    __user_perthread_libspace                0x08000d81   Thumb Code     0  libspace.o(.text)
    _chval                                   0x08000d89   Thumb Code    28  _chval.o(.text)
    ferror                                   0x08000da5   Thumb Code     8  ferror.o(.text)
    strcspn                                  0x08000dad   Thumb Code    32  strcspn.o(.text)
    strspn                                   0x08000dcd   Thumb Code    28  strspn.o(.text)
    __user_setup_stackheap                   0x08000de9   Thumb Code    74  sys_stackheap_outer.o(.text)
    exit                                     0x08000e33   Thumb Code    12  exit.o(.text)
    AHV_Check                                0x08000e41   Thumb Code   184  alarm.o(i.AHV_Check)
    AHV_Check_Handler                        0x08000f19   Thumb Code   350  alarm.o(i.AHV_Check_Handler)
    ALARM_Init                               0x080010a1   Thumb Code   430  alarm.o(i.ALARM_Init)
    ALARM_Update                             0x08001289   Thumb Code    60  alarm.o(i.ALARM_Update)
    AT24CXX_Check                            0x080012d5   Thumb Code    52  24cxx.o(i.AT24CXX_Check)
    AT24CXX_Read                             0x08001309   Thumb Code    34  24cxx.o(i.AT24CXX_Read)
    AT24CXX_ReadLenByte                      0x0800132b   Thumb Code    44  24cxx.o(i.AT24CXX_ReadLenByte)
    AT24CXX_ReadOneByte                      0x08001359   Thumb Code   108  24cxx.o(i.AT24CXX_ReadOneByte)
    AT24CXX_Write                            0x080013c9   Thumb Code    36  24cxx.o(i.AT24CXX_Write)
    AT24CXX_WriteLenByte                     0x080013ed   Thumb Code    42  24cxx.o(i.AT24CXX_WriteLenByte)
    AT24CXX_WriteOneByte                     0x08001419   Thumb Code   102  24cxx.o(i.AT24CXX_WriteOneByte)
    Alarm_RL_A                               0x08001485   Thumb Code    12  alarm.o(i.Alarm_RL_A)
    Alarm_RL_B                               0x08001499   Thumb Code    12  alarm.o(i.Alarm_RL_B)
    BHV_Check                                0x080014ad   Thumb Code   186  alarm.o(i.BHV_Check)
    BHV_Check_Handler                        0x08001585   Thumb Code   350  alarm.o(i.BHV_Check_Handler)
    ClearLog                                 0x0800170d   Thumb Code    12  log.o(i.ClearLog)
    Control_CGI_Handler                      0x08001719   Thumb Code   446  httpd_cgi_ssi.o(i.Control_CGI_Handler)
    Datetime_CGI_Handler                     0x08001951   Thumb Code   158  httpd_cgi_ssi.o(i.Datetime_CGI_Handler)
    Default_CGI_Handler                      0x08001a21   Thumb Code   138  httpd_cgi_ssi.o(i.Default_CGI_Handler)
    DiaplayInqAFangQuPara                    0x08001ae9   Thumb Code   188  displaymenu.o(i.DiaplayInqAFangQuPara)
    DiaplayInqBFangQuPara                    0x08001bed   Thumb Code   188  displaymenu.o(i.DiaplayInqBFangQuPara)
    DiaplayInqFangQuPara                     0x08001cf1   Thumb Code   110  displaymenu.o(i.DiaplayInqFangQuPara)
    DiaplaySetBuFangPara                     0x08001d81   Thumb Code  1116  displaymenu.o(i.DiaplaySetBuFangPara)
    DiaplaySetExtDeviceTypeScreen            0x080021dd   Thumb Code   956  displaymenu.o(i.DiaplaySetExtDeviceTypeScreen)
    DiaplaySetFangQuPara                     0x08002649   Thumb Code   126  displaymenu.o(i.DiaplaySetFangQuPara)
    DisplayAlarmTypeList                     0x080026f9   Thumb Code  2434  displaymenu.o(i.DisplayAlarmTypeList)
    DisplayClearDuanLuAlarmRecord            0x08003085   Thumb Code   102  displaymenu.o(i.DisplayClearDuanLuAlarmRecord)
    DisplayClearDuanXianAlarmRecord          0x0800310d   Thumb Code   102  displaymenu.o(i.DisplayClearDuanXianAlarmRecord)
    DisplayInitMenu                          0x08003195   Thumb Code    30  displaymenu.o(i.DisplayInitMenu)
    DisplayInputPassword                     0x080031c5   Thumb Code    42  displaymenu.o(i.DisplayInputPassword)
    DisplayInqAAreaDuanLuAlarmRecord         0x08003205   Thumb Code    58  displaymenu.o(i.DisplayInqAAreaDuanLuAlarmRecord)
    DisplayInqAAreaDuanXianAlarmRecord       0x08003259   Thumb Code    58  displaymenu.o(i.DisplayInqAAreaDuanXianAlarmRecord)
    DisplayInqAlarmRecord                    0x080032ad   Thumb Code    84  displaymenu.o(i.DisplayInqAlarmRecord)
    DisplayInqBAreaDuanLuAlarmRecord         0x08003315   Thumb Code    58  displaymenu.o(i.DisplayInqBAreaDuanLuAlarmRecord)
    DisplayInqBAreaDuanXianAlarmRecord       0x08003369   Thumb Code    58  displaymenu.o(i.DisplayInqBAreaDuanXianAlarmRecord)
    DisplayInqBuFangPara                     0x080033bd   Thumb Code   342  displaymenu.o(i.DisplayInqBuFangPara)
    DisplayInqDuanLuAlarmRecord              0x08003559   Thumb Code   110  displaymenu.o(i.DisplayInqDuanLuAlarmRecord)
    DisplayInqDuanXianAlarmRecord            0x080035e9   Thumb Code   110  displaymenu.o(i.DisplayInqDuanXianAlarmRecord)
    DisplayInqEthPara                        0x08003679   Thumb Code   196  displaymenu.o(i.DisplayInqEthPara)
    DisplayInqFangChaiAlarmRecord            0x08003779   Thumb Code    34  displaymenu.o(i.DisplayInqFangChaiAlarmRecord)
    DisplayInqGateWay                        0x080037ad   Thumb Code    74  displaymenu.o(i.DisplayInqGateWay)
    DisplayInqIpAddr                         0x0800380d   Thumb Code   104  displaymenu.o(i.DisplayInqIpAddr)
    DisplayInqMacAddr                        0x08003891   Thumb Code   132  displaymenu.o(i.DisplayInqMacAddr)
    DisplayInqSubnetMask                     0x08003931   Thumb Code    88  displaymenu.o(i.DisplayInqSubnetMask)
    DisplayInqSysPara                        0x080039a1   Thumb Code    74  displaymenu.o(i.DisplayInqSysPara)
    DisplayInquireMenu                       0x08003a01   Thumb Code   156  displaymenu.o(i.DisplayInquireMenu)
    DisplayOrdinaryUserRootMenu              0x08003ab1   Thumb Code    68  displaymenu.o(i.DisplayOrdinaryUserRootMenu)
    DisplayPasswordError                     0x08003b05   Thumb Code    60  displaymenu.o(i.DisplayPasswordError)
    DisplayRunMenu                           0x08003b5d   Thumb Code   154  displaymenu.o(i.DisplayRunMenu)
    DisplaySetAFangQuPara                    0x08003c59   Thumb Code   338  displaymenu.o(i.DisplaySetAFangQuPara)
    DisplaySetBFangQuPara                    0x08003e05   Thumb Code   338  displaymenu.o(i.DisplaySetBFangQuPara)
    DisplaySetClearRecord                    0x08003fb1   Thumb Code   160  displaymenu.o(i.DisplaySetClearRecord)
    DisplaySetDateTime                       0x08004069   Thumb Code  1250  displaymenu.o(i.DisplaySetDateTime)
    DisplaySetEthPara                        0x08004555   Thumb Code   196  displaymenu.o(i.DisplaySetEthPara)
    DisplaySetGateWay                        0x08004655   Thumb Code   196  displaymenu.o(i.DisplaySetGateWay)
    DisplaySetIpAddr                         0x08004731   Thumb Code   208  displaymenu.o(i.DisplaySetIpAddr)
    DisplaySetMacAddr                        0x08004821   Thumb Code   158  displaymenu.o(i.DisplaySetMacAddr)
    DisplaySetMenu                           0x080048e9   Thumb Code   156  displaymenu.o(i.DisplaySetMenu)
    DisplaySetSubnetMask                     0x08004999   Thumb Code   206  displaymenu.o(i.DisplaySetSubnetMask)
    DisplaySetSysPara                        0x08004a85   Thumb Code   148  displaymenu.o(i.DisplaySetSysPara)
    DisplaySuperUserRootMenu                 0x08004b31   Thumb Code   156  displaymenu.o(i.DisplaySuperUserRootMenu)
    DisplayUserLogin                         0x08004be1   Thumb Code    86  displaymenu.o(i.DisplayUserLogin)
    DisplayVersionMenu                       0x08004c65   Thumb Code   162  displaymenu.o(i.DisplayVersionMenu)
    DisplayZhengZaiQingChu                   0x08004d3d   Thumb Code    48  displaymenu.o(i.DisplayZhengZaiQingChu)
    Display_16x16                            0x08004d71   Thumb Code   132  lcd.o(i.Display_16x16)
    Display_8x16                             0x08004df5   Thumb Code   132  lcd.o(i.Display_8x16)
    Display_Line_Index_16x16                 0x08004e79   Thumb Code   162  lcd.o(i.Display_Line_Index_16x16)
    Display_Line_Index_8x16                  0x08004f25   Thumb Code   134  lcd.o(i.Display_Line_Index_8x16)
    Display_Line_Index_8x16_pn               0x08004fb5   Thumb Code   202  lcd.o(i.Display_Line_Index_8x16_pn)
    ETH_DMAClearITPendingBit                 0x080050a9   Thumb Code     6  stm32f4x7_eth.o(i.ETH_DMAClearITPendingBit)
    ETH_DMAITConfig                          0x080050b5   Thumb Code    26  stm32f4x7_eth.o(i.ETH_DMAITConfig)
    ETH_DMAReceptionCmd                      0x080050d5   Thumb Code    30  stm32f4x7_eth.o(i.ETH_DMAReceptionCmd)
    ETH_DMARxDescChainInit                   0x080050f9   Thumb Code    82  stm32f4x7_eth.o(i.ETH_DMARxDescChainInit)
    ETH_DMATransmissionCmd                   0x0800515d   Thumb Code    30  stm32f4x7_eth.o(i.ETH_DMATransmissionCmd)
    ETH_DMATxDescChainInit                   0x08005181   Thumb Code    70  stm32f4x7_eth.o(i.ETH_DMATxDescChainInit)
    ETH_DMATxDescChecksumInsertionConfig     0x080051d1   Thumb Code     8  stm32f4x7_eth.o(i.ETH_DMATxDescChecksumInsertionConfig)
    ETH_DeInit                               0x080051d9   Thumb Code    34  stm32f4x7_eth.o(i.ETH_DeInit)
    ETH_FlushTransmitFIFO                    0x0800521d   Thumb Code    14  stm32f4x7_eth.o(i.ETH_FlushTransmitFIFO)
    ETH_GetCurrentTxBuffer                   0x08005231   Thumb Code     8  lan8720.o(i.ETH_GetCurrentTxBuffer)
    ETH_GetDMARxDescFrameLength              0x0800523d   Thumb Code    10  stm32f4x7_eth.o(i.ETH_GetDMARxDescFrameLength)
    ETH_GetRxPktSize                         0x08005247   Thumb Code    42  stm32f4x7_eth.o(i.ETH_GetRxPktSize)
    ETH_GetSoftwareResetStatus               0x08005271   Thumb Code    20  stm32f4x7_eth.o(i.ETH_GetSoftwareResetStatus)
    ETH_Get_Link_Status                      0x08005289   Thumb Code    24  lan8720.o(i.ETH_Get_Link_Status)
    ETH_IRQHandler                           0x080052a1   Thumb Code    44  lan8720.o(i.ETH_IRQHandler)
    ETH_Init                                 0x080052d1   Thumb Code   618  stm32f4x7_eth.o(i.ETH_Init)
    ETH_MACAddressConfig                     0x0800556d   Thumb Code    46  stm32f4x7_eth.o(i.ETH_MACAddressConfig)
    ETH_MACDMA_Config                        0x080055a1   Thumb Code   150  lan8720.o(i.ETH_MACDMA_Config)
    ETH_MACReceptionCmd                      0x08005641   Thumb Code    30  stm32f4x7_eth.o(i.ETH_MACReceptionCmd)
    ETH_MACTransmissionCmd                   0x08005665   Thumb Code    30  stm32f4x7_eth.o(i.ETH_MACTransmissionCmd)
    ETH_Mem_Free                             0x08005689   Thumb Code    44  lan8720.o(i.ETH_Mem_Free)
    ETH_Mem_Malloc                           0x080056c5   Thumb Code    90  lan8720.o(i.ETH_Mem_Malloc)
    ETH_ReadPHYRegister                      0x08005731   Thumb Code    98  stm32f4x7_eth.o(i.ETH_ReadPHYRegister)
    ETH_Reinit                               0x0800579d   Thumb Code    28  lan8720.o(i.ETH_Reinit)
    ETH_Rx_Packet                            0x080057c1   Thumb Code   148  lan8720.o(i.ETH_Rx_Packet)
    ETH_SoftwareReset                        0x0800585d   Thumb Code    14  stm32f4x7_eth.o(i.ETH_SoftwareReset)
    ETH_Start                                0x08005871   Thumb Code    32  stm32f4x7_eth.o(i.ETH_Start)
    ETH_StructInit                           0x08005891   Thumb Code   178  stm32f4x7_eth.o(i.ETH_StructInit)
    ETH_Tx_Packet                            0x08005945   Thumb Code    94  lan8720.o(i.ETH_Tx_Packet)
    ETH_WritePHYRegister                     0x080059ad   Thumb Code    96  stm32f4x7_eth.o(i.ETH_WritePHYRegister)
    EXTI15_10_IRQHandler                     0x08005a15   Thumb Code    18  alarm.o(i.EXTI15_10_IRQHandler)
    EXTI9_5_IRQHandler                       0x08005a27   Thumb Code    18  alarm.o(i.EXTI9_5_IRQHandler)
    EXTIX_Init                               0x08005a39   Thumb Code   106  alarm.o(i.EXTIX_Init)
    EXTI_ClearITPendingBit                   0x08005aa5   Thumb Code     6  stm32f4xx_exti.o(i.EXTI_ClearITPendingBit)
    EXTI_Init                                0x08005ab1   Thumb Code   142  stm32f4xx_exti.o(i.EXTI_Init)
    EraseEEPormParas                         0x08005b45   Thumb Code    44  24cxx.o(i.EraseEEPormParas)
    EraseEEProm                              0x08005b71   Thumb Code    32  24cxx.o(i.EraseEEProm)
    Eth_Link_ITHandler                       0x08005b91   Thumb Code    70  lwip_comm.o(i.Eth_Link_ITHandler)
    Eth_re_link                              0x08005be9   Thumb Code   536  lwip_comm.o(i.Eth_re_link)
    FANG_CHAI_Check                          0x08005e1d   Thumb Code   194  alarm.o(i.FANG_CHAI_Check)
    FangChai_Start                           0x08005ef9   Thumb Code    14  alarm.o(i.FangChai_Start)
    FangChai_Stop                            0x08005f0d   Thumb Code    14  alarm.o(i.FangChai_Stop)
    FastClearLog                             0x08005f21   Thumb Code   104  log.o(i.FastClearLog)
    FastEraseLogEEProm                       0x08005f91   Thumb Code    38  log.o(i.FastEraseLogEEProm)
    GPIO_Init                                0x08005fe3   Thumb Code   144  stm32f4xx_gpio.o(i.GPIO_Init)
    GPIO_PinAFConfig                         0x08006073   Thumb Code    70  stm32f4xx_gpio.o(i.GPIO_PinAFConfig)
    GPIO_ResetBits                           0x080060b9   Thumb Code     4  stm32f4xx_gpio.o(i.GPIO_ResetBits)
    GetGateWay                               0x080060bd   Thumb Code   110  displaymenu.o(i.GetGateWay)
    GetIpAddr                                0x08006135   Thumb Code   110  displaymenu.o(i.GetIpAddr)
    GetSubNetMask                            0x080061ad   Thumb Code   110  displaymenu.o(i.GetSubNetMask)
    HEX2ASCII                                0x08006225   Thumb Code    48  displaymenu.o(i.HEX2ASCII)
    HEX2ASCII_2                              0x08006259   Thumb Code    24  displaymenu.o(i.HEX2ASCII_2)
    HardFault_Handler                        0x08006271   Thumb Code   104  main.o(i.HardFault_Handler)
    Hex2BCD                                  0x08006315   Thumb Code    36  pcf8563.o(i.Hex2BCD)
    IICRead                                  0x08006339   Thumb Code   180  iicrw.o(i.IICRead)
    IICWrite                                 0x080063f1   Thumb Code   148  iicrw.o(i.IICWrite)
    IIC_Ack                                  0x08006489   Thumb Code    66  myiic.o(i.IIC_Ack)
    IIC_Init                                 0x080064d9   Thumb Code    94  myiic.o(i.IIC_Init)
    IIC_NAck                                 0x08006545   Thumb Code    66  myiic.o(i.IIC_NAck)
    IIC_Read_Byte                            0x08006595   Thumb Code    94  myiic.o(i.IIC_Read_Byte)
    IIC_Send_Byte                            0x08006601   Thumb Code    90  myiic.o(i.IIC_Send_Byte)
    IIC_Start                                0x08006669   Thumb Code    72  myiic.o(i.IIC_Start)
    IIC_Stop                                 0x080066bd   Thumb Code    78  myiic.o(i.IIC_Stop)
    IIC_Wait_Ack                             0x08006719   Thumb Code    86  myiic.o(i.IIC_Wait_Ack)
    KEY_Init                                 0x0800677d   Thumb Code    56  key.o(i.KEY_Init)
    KEY_Scan                                 0x080067bd   Thumb Code   208  key.o(i.KEY_Scan)
    LAN8720_Init                             0x08006899   Thumb Code   260  lan8720.o(i.LAN8720_Init)
    LCD_Init                                 0x080069b5   Thumb Code   220  lcd.o(i.LCD_Init)
    LED_Init                                 0x08006aa9   Thumb Code   108  led.o(i.LED_Init)
    LM75_ReadTemp                            0x08006b1d   Thumb Code    92  lm75.o(i.LM75_ReadTemp)
    LM75_ReadTempStr                         0x08006b7d   Thumb Code    74  lm75.o(i.LM75_ReadTempStr)
    LcdCheckBusy                             0x08006bd9   Thumb Code    56  lcd.o(i.LcdCheckBusy)
    LcdSetColumn                             0x08006c1d   Thumb Code    20  lcd.o(i.LcdSetColumn)
    LcdSetLine                               0x08006c31   Thumb Code    16  lcd.o(i.LcdSetLine)
    LcdSetPage                               0x08006c41   Thumb Code    16  lcd.o(i.LcdSetPage)
    LcdWriteCmd                              0x08006c51   Thumb Code    56  lcd.o(i.LcdWriteCmd)
    LcdWriteData                             0x08006c91   Thumb Code    58  lcd.o(i.LcdWriteData)
    Lcd_Clear                                0x08006cd5   Thumb Code    54  lcd.o(i.Lcd_Clear)
    Lcd_Cs                                   0x08006d0d   Thumb Code    64  lcd.o(i.Lcd_Cs)
    Lcd_On_Off                               0x08006d55   Thumb Code    16  lcd.o(i.Lcd_On_Off)
    Lcd_Reset                                0x08006d65   Thumb Code    30  lcd.o(i.Lcd_Reset)
    Log_Handler                              0x08006d8d   Thumb Code   252  httpd_cgi_ssi.o(i.Log_Handler)
    Log_Init                                 0x08006ec1   Thumb Code    98  log.o(i.Log_Init)
    MacAddrInsertMaohao                      0x08006f31   Thumb Code    58  displaymenu.o(i.MacAddrInsertMaohao)
    NVIC_Init                                0x08006f79   Thumb Code   106  misc.o(i.NVIC_Init)
    NVIC_PriorityGroupConfig                 0x08006ff1   Thumb Code    10  misc.o(i.NVIC_PriorityGroupConfig)
    Network_CGI_Handler                      0x08007005   Thumb Code   174  httpd_cgi_ssi.o(i.Network_CGI_Handler)
    OSEventNameSet                           0x080070e9   Thumb Code    84  os_core.o(i.OSEventNameSet)
    OSInit                                   0x08007141   Thumb Code    48  os_core.o(i.OSInit)
    OSInitHookBegin                          0x08007171   Thumb Code     2  os_cpu_c.o(i.OSInitHookBegin)
    OSInitHookEnd                            0x08007173   Thumb Code     2  os_cpu_c.o(i.OSInitHookEnd)
    OSIntEnter                               0x08007175   Thumb Code    28  os_core.o(i.OSIntEnter)
    OSIntExit                                0x08007199   Thumb Code   112  os_core.o(i.OSIntExit)
    OSMboxCreate                             0x08007229   Thumb Code    72  os_mbox.o(i.OSMboxCreate)
    OSMboxPend                               0x0800727d   Thumb Code   246  os_mbox.o(i.OSMboxPend)
    OSMboxPost                               0x08007381   Thumb Code    80  os_mbox.o(i.OSMboxPost)
    OSMutexCreate                            0x080073d1   Thumb Code   138  os_mutex.o(i.OSMutexCreate)
    OSMutexPend                              0x0800746d   Thumb Code   542  os_mutex.o(i.OSMutexPend)
    OSMutexPost                              0x080076a5   Thumb Code   186  os_mutex.o(i.OSMutexPost)
    OSQCreate                                0x080077f1   Thumb Code   144  os_q.o(i.OSQCreate)
    OSQDel                                   0x08007891   Thumb Code   244  os_q.o(i.OSQDel)
    OSQPend                                  0x08007995   Thumb Code   272  os_q.o(i.OSQPend)
    OSQPost                                  0x08007ab1   Thumb Code   114  os_q.o(i.OSQPost)
    OSQQuery                                 0x08007b23   Thumb Code    98  os_q.o(i.OSQQuery)
    OSSchedLock                              0x08007b85   Thumb Code    52  os_core.o(i.OSSchedLock)
    OSSchedUnlock                            0x08007bc5   Thumb Code    82  os_core.o(i.OSSchedUnlock)
    OSSemCreate                              0x08007c25   Thumb Code    72  os_sem.o(i.OSSemCreate)
    OSSemDel                                 0x08007c79   Thumb Code   210  os_sem.o(i.OSSemDel)
    OSSemPend                                0x08007d59   Thumb Code   222  os_sem.o(i.OSSemPend)
    OSSemPost                                0x08007e45   Thumb Code    88  os_sem.o(i.OSSemPost)
    OSSemQuery                               0x08007e9d   Thumb Code    76  os_sem.o(i.OSSemQuery)
    OSStart                                  0x08007ee9   Thumb Code    48  os_core.o(i.OSStart)
    OSStatInit                               0x08007f31   Thumb Code    62  os_core.o(i.OSStatInit)
    OSTCBInitHook                            0x08007f7d   Thumb Code     2  os_cpu_c.o(i.OSTCBInitHook)
    OSTaskCreate                             0x08007f81   Thumb Code   148  os_task.o(i.OSTaskCreate)
    OSTaskCreateExt                          0x08008021   Thumb Code   170  os_task.o(i.OSTaskCreateExt)
    OSTaskCreateHook                         0x080080d9   Thumb Code     2  os_cpu_c.o(i.OSTaskCreateHook)
    OSTaskDel                                0x080080dd   Thumb Code   294  os_task.o(i.OSTaskDel)
    OSTaskDelHook                            0x08008231   Thumb Code     2  os_cpu_c.o(i.OSTaskDelHook)
    OSTaskIdleHook                           0x08008233   Thumb Code     2  os_cpu_c.o(i.OSTaskIdleHook)
    OSTaskNameSet                            0x08008235   Thumb Code    98  os_task.o(i.OSTaskNameSet)
    OSTaskReturnHook                         0x080082a5   Thumb Code     2  os_cpu_c.o(i.OSTaskReturnHook)
    OSTaskStatHook                           0x080082a7   Thumb Code     2  os_cpu_c.o(i.OSTaskStatHook)
    OSTaskStkChk                             0x080082a9   Thumb Code   132  os_task.o(i.OSTaskStkChk)
    OSTaskStkInit                            0x08008335   Thumb Code   426  os_cpu_c.o(i.OSTaskStkInit)
    OSTaskSuspend                            0x080084e5   Thumb Code   152  os_task.o(i.OSTaskSuspend)
    OSTaskSwHook                             0x0800858d   Thumb Code     2  os_cpu_c.o(i.OSTaskSwHook)
    OSTimeDly                                0x08008591   Thumb Code   100  os_time.o(i.OSTimeDly)
    OSTimeGet                                0x08008609   Thumb Code    24  os_time.o(i.OSTimeGet)
    OSTimeTick                               0x08008625   Thumb Code   210  os_core.o(i.OSTimeTick)
    OSTimeTickHook                           0x08008711   Thumb Code     2  os_cpu_c.o(i.OSTimeTickHook)
    OS_Dummy                                 0x08008713   Thumb Code     2  os_core.o(i.OS_Dummy)
    OS_EventTaskRdy                          0x08008715   Thumb Code   114  os_core.o(i.OS_EventTaskRdy)
    OS_EventTaskRemove                       0x08008799   Thumb Code    42  os_core.o(i.OS_EventTaskRemove)
    OS_EventTaskWait                         0x080087c5   Thumb Code   112  os_core.o(i.OS_EventTaskWait)
    OS_EventWaitListInit                     0x08008841   Thumb Code    28  os_core.o(i.OS_EventWaitListInit)
    OS_FlagInit                              0x0800885d   Thumb Code    74  os_flag.o(i.OS_FlagInit)
    OS_FlagUnlink                            0x080088b5   Thumb Code    36  os_flag.o(i.OS_FlagUnlink)
    OS_MemClr                                0x08008af1   Thumb Code    18  os_core.o(i.OS_MemClr)
    OS_MemInit                               0x08008b05   Thumb Code    74  os_mem.o(i.OS_MemInit)
    OS_QInit                                 0x08008b5d   Thumb Code    72  os_q.o(i.OS_QInit)
    OS_Sched                                 0x08008bad   Thumb Code    88  os_core.o(i.OS_Sched)
    OS_TCBInit                               0x08008c4d   Thumb Code   278  os_core.o(i.OS_TCBInit)
    OS_TaskIdle                              0x08008d81   Thumb Code    34  os_core.o(i.OS_TaskIdle)
    OS_TaskReturn                            0x08008da9   Thumb Code    18  os_task.o(i.OS_TaskReturn)
    OS_TaskStat                              0x08008dc1   Thumb Code   116  os_core.o(i.OS_TaskStat)
    OS_TaskStatStkChk                        0x08008e49   Thumb Code    54  os_core.o(i.OS_TaskStatStkChk)
    OS_TaskStkClr                            0x08008e85   Thumb Code    26  os_task.o(i.OS_TaskStkClr)
    PCF8563_Check                            0x08008e9f   Thumb Code    74  pcf8563.o(i.PCF8563_Check)
    PCF8563_Get                              0x08008ee9   Thumb Code   240  pcf8563.o(i.PCF8563_Get)
    PCF8563_Get_Str                          0x08008fd9   Thumb Code   144  pcf8563.o(i.PCF8563_Get_Str)
    PCF8563_Init                             0x0800908d   Thumb Code    36  pcf8563.o(i.PCF8563_Init)
    PCF8563_Set                              0x080090c1   Thumb Code   242  pcf8563.o(i.PCF8563_Set)
    PCF8563_Set_Str                          0x080091c5   Thumb Code   136  pcf8563.o(i.PCF8563_Set_Str)
    PWMVal_CGI_Handler                       0x08009255   Thumb Code   192  httpd_cgi_ssi.o(i.PWMVal_CGI_Handler)
    Push_A_Start                             0x08009345   Thumb Code    18  alarm.o(i.Push_A_Start)
    Push_A_Stop                              0x08009361   Thumb Code    34  alarm.o(i.Push_A_Stop)
    Push_B_Start                             0x08009395   Thumb Code    18  alarm.o(i.Push_B_Start)
    Push_B_Stop                              0x080093b1   Thumb Code    34  alarm.o(i.Push_B_Stop)
    RCC_AHB1PeriphClockCmd                   0x080093e5   Thumb Code    26  stm32f4xx_rcc.o(i.RCC_AHB1PeriphClockCmd)
    RCC_APB1PeriphClockCmd                   0x08009405   Thumb Code    26  stm32f4xx_rcc.o(i.RCC_APB1PeriphClockCmd)
    RCC_APB2PeriphClockCmd                   0x08009425   Thumb Code    26  stm32f4xx_rcc.o(i.RCC_APB2PeriphClockCmd)
    RCC_GetClocksFreq                        0x08009445   Thumb Code   214  stm32f4xx_rcc.o(i.RCC_GetClocksFreq)
    ReadConfigCodeToEEProm                   0x0800952d   Thumb Code    14  24cxx.o(i.ReadConfigCodeToEEProm)
    ReadControlParaFromEEProm                0x08009541   Thumb Code    50  24cxx.o(i.ReadControlParaFromEEProm)
    ReadFieldParaFromEEProm                  0x08009581   Thumb Code    80  24cxx.o(i.ReadFieldParaFromEEProm)
    ReadFirstLog                             0x080095d9   Thumb Code    38  log.o(i.ReadFirstLog)
    ReadLCDFirstPageLog                      0x08009609   Thumb Code   126  log.o(i.ReadLCDFirstPageLog)
    ReadLCDNextPageLog                       0x08009699   Thumb Code   124  log.o(i.ReadLCDNextPageLog)
    ReadLCDPreviousPageLog                   0x08009729   Thumb Code   130  log.o(i.ReadLCDPreviousPageLog)
    ReadNetParasFromEEProm                   0x080097c1   Thumb Code    58  24cxx.o(i.ReadNetParasFromEEProm)
    ReadNextLog                              0x08009801   Thumb Code   190  log.o(i.ReadNextLog)
    ReadPWMValFromEEProm                     0x080098c9   Thumb Code    24  24cxx.o(i.ReadPWMValFromEEProm)
    ReadPreviousLog                          0x080098e9   Thumb Code   168  log.o(i.ReadPreviousLog)
    ReadSWValToEEProm                        0x08009999   Thumb Code    28  24cxx.o(i.ReadSWValToEEProm)
    ReadWebFirstPageLog                      0x080099b9   Thumb Code   142  log.o(i.ReadWebFirstPageLog)
    ReadWebNextPageLog                       0x08009a61   Thumb Code   132  log.o(i.ReadWebNextPageLog)
    ReadWebPreviousPageLog                   0x08009b01   Thumb Code   172  log.o(i.ReadWebPreviousPageLog)
    Remove_Alarm_RL_A                        0x08009bcd   Thumb Code    22  alarm.o(i.Remove_Alarm_RL_A)
    Remove_Alarm_RL_B                        0x08009bf5   Thumb Code    22  alarm.o(i.Remove_Alarm_RL_B)
    SYSCFG_ETH_MediaInterfaceConfig          0x08009eb9   Thumb Code     6  stm32f4xx_syscfg.o(i.SYSCFG_ETH_MediaInterfaceConfig)
    SYSCFG_EXTILineConfig                    0x08009ec5   Thumb Code    60  stm32f4xx_syscfg.o(i.SYSCFG_EXTILineConfig)
    SetGateWay                               0x08009f05   Thumb Code   160  displaymenu.o(i.SetGateWay)
    SetIpAddr                                0x08009fad   Thumb Code   160  displaymenu.o(i.SetIpAddr)
    SetSubNetMask                            0x0800a055   Thumb Code   160  displaymenu.o(i.SetSubNetMask)
    Set_Alarm_State_Util_Clear               0x0800a1e9   Thumb Code    40  alarm.o(i.Set_Alarm_State_Util_Clear)
    Shutdown_Handler                         0x0800a21d   Thumb Code    90  httpd_cgi_ssi.o(i.Shutdown_Handler)
    Switch_Handler                           0x0800a2ad   Thumb Code    78  httpd_cgi_ssi.o(i.Switch_Handler)
    SysTick_CLKSourceConfig                  0x0800a319   Thumb Code    40  misc.o(i.SysTick_CLKSourceConfig)
    SysTick_Handler                          0x0800a341   Thumb Code    24  delay.o(i.SysTick_Handler)
    Sys_Soft_Reset                           0x0800a35d   Thumb Code     8  sys.o(i.Sys_Soft_Reset)
    SystemInit                               0x0800a36d   Thumb Code    88  system_stm32f4xx.o(i.SystemInit)
    SystemReset                              0x0800a3d5   Thumb Code    34  sys.o(i.SystemReset)
    TIM1_PWM_Init                            0x0800a401   Thumb Code   192  pwm.o(i.TIM1_PWM_Init)
    TIM3_IRQHandler                          0x0800a4d1   Thumb Code   338  timer.o(i.TIM3_IRQHandler)
    TIM3_Int_Init                            0x0800a659   Thumb Code    86  timer.o(i.TIM3_Int_Init)
    TIM4_IRQHandler                          0x0800a6b5   Thumb Code   348  timer.o(i.TIM4_IRQHandler)
    TIM4_Int_Init                            0x0800a839   Thumb Code    88  timer.o(i.TIM4_Int_Init)
    TIM5_IRQHandler                          0x0800a895   Thumb Code   180  timer.o(i.TIM5_IRQHandler)
    TIM5_Int_Init                            0x0800a95d   Thumb Code    86  timer.o(i.TIM5_Int_Init)
    TIM_ClearITPendingBit                    0x0800a9b9   Thumb Code     6  stm32f4xx_tim.o(i.TIM_ClearITPendingBit)
    TIM_Cmd                                  0x0800a9bf   Thumb Code    24  stm32f4xx_tim.o(i.TIM_Cmd)
    TIM_CtrlPWMOutputs                       0x0800a9d7   Thumb Code    30  stm32f4xx_tim.o(i.TIM_CtrlPWMOutputs)
    TIM_GetITStatus                          0x0800a9f5   Thumb Code    34  stm32f4xx_tim.o(i.TIM_GetITStatus)
    TIM_ITConfig                             0x0800aa17   Thumb Code    18  stm32f4xx_tim.o(i.TIM_ITConfig)
    TIM_OC4Init                              0x0800aa29   Thumb Code   112  stm32f4xx_tim.o(i.TIM_OC4Init)
    TIM_SetCompare4                          0x0800aaa1   Thumb Code     4  stm32f4xx_tim.o(i.TIM_SetCompare4)
    TIM_TimeBaseInit                         0x0800aaa5   Thumb Code   104  stm32f4xx_tim.o(i.TIM_TimeBaseInit)
    Temperate_Handler                        0x0800ab29   Thumb Code    12  httpd_cgi_ssi.o(i.Temperate_Handler)
    USART1_IRQHandler                        0x0800ab35   Thumb Code   130  usart.o(i.USART1_IRQHandler)
    USART_Cmd                                0x0800abc5   Thumb Code    24  stm32f4xx_usart.o(i.USART_Cmd)
    USART_GetITStatus                        0x0800abdd   Thumb Code    84  stm32f4xx_usart.o(i.USART_GetITStatus)
    USART_ITConfig                           0x0800ac31   Thumb Code    74  stm32f4xx_usart.o(i.USART_ITConfig)
    USART_Init                               0x0800ac7d   Thumb Code   204  stm32f4xx_usart.o(i.USART_Init)
    USART_ReceiveData                        0x0800ad51   Thumb Code    10  stm32f4xx_usart.o(i.USART_ReceiveData)
    UpdateAlarmRecord                        0x0800ad5d   Thumb Code    60  displaymenu.o(i.UpdateAlarmRecord)
    WriteConfigCodeToEEProm                  0x0800ad9d   Thumb Code    14  24cxx.o(i.WriteConfigCodeToEEProm)
    WriteControlParaToEEProm                 0x0800adb1   Thumb Code    46  24cxx.o(i.WriteControlParaToEEProm)
    WriteFieldParaToEEProm                   0x0800aded   Thumb Code    68  24cxx.o(i.WriteFieldParaToEEProm)
    WriteLcdDataBus                          0x0800ae39   Thumb Code    74  lcd.o(i.WriteLcdDataBus)
    WriteLog                                 0x0800ae95   Thumb Code   180  log.o(i.WriteLog)
    WriteNetParasToEEProm                    0x0800af61   Thumb Code    58  24cxx.o(i.WriteNetParasToEEProm)
    WritePWMValToEEProm                      0x0800afa1   Thumb Code    24  24cxx.o(i.WritePWMValToEEProm)
    WriteSWValToEEProm                       0x0800afc1   Thumb Code    24  24cxx.o(i.WriteSWValToEEProm)
    _is_digit                                0x0800afdd   Thumb Code    14  __printf_wp.o(i._is_digit)
    _sys_exit                                0x0800afeb   Thumb Code     6  usart.o(i._sys_exit)
    arp_timer                                0x0800b0a1   Thumb Code    28  timers.o(i.arp_timer)
    delay_init                               0x0800b0bd   Thumb Code    76  delay.o(i.delay_init)
    delay_ms                                 0x0800b111   Thumb Code    66  delay.o(i.delay_ms)
    delay_osschedlock                        0x0800b161   Thumb Code     8  delay.o(i.delay_osschedlock)
    delay_osschedunlock                      0x0800b169   Thumb Code     8  delay.o(i.delay_osschedunlock)
    delay_ostimedly                          0x0800b171   Thumb Code    12  delay.o(i.delay_ostimedly)
    delay_us                                 0x0800b17d   Thumb Code    84  delay.o(i.delay_us)
    disconnect_server                        0x0800b1d5   Thumb Code    18  tcp_server.o(i.disconnect_server)
    do_bind                                  0x0800b1e7   Thumb Code   116  api_msg.o(i.do_bind)
    do_close                                 0x0800b25d   Thumb Code   176  api_msg.o(i.do_close)
    do_delconn                               0x0800b651   Thumb Code   292  api_msg.o(i.do_delconn)
    do_getaddr                               0x0800b825   Thumb Code   196  api_msg.o(i.do_getaddr)
    do_listen                                0x0800b955   Thumb Code   198  api_msg.o(i.do_listen)
    do_newconn                               0x0800ba21   Thumb Code    32  api_msg.o(i.do_newconn)
    do_recv                                  0x0800ba41   Thumb Code    72  api_msg.o(i.do_recv)
    do_write                                 0x0800ba89   Thumb Code   160  api_msg.o(i.do_write)
    etharp_output                            0x0800c555   Thumb Code   378  etharp.o(i.etharp_output)
    etharp_query                             0x0800c871   Thumb Code   460  etharp.o(i.etharp_query)
    etharp_request                           0x0800cc85   Thumb Code    40  etharp.o(i.etharp_request)
    etharp_tmr                               0x0800cd65   Thumb Code   144  etharp.o(i.etharp_tmr)
    ethernet_input                           0x0800cf51   Thumb Code   200  etharp.o(i.ethernet_input)
    ethernetif_init                          0x0800d095   Thumb Code    56  ethernetif.o(i.ethernetif_init)
    ethernetif_input                         0x0800d139   Thumb Code    48  ethernetif.o(i.ethernetif_input)
    fputc                                    0x0800d1e9   Thumb Code    22  usart.o(i.fputc)
    fs_bytes_left                            0x0800d205   Thumb Code    10  fs.o(i.fs_bytes_left)
    fs_close                                 0x0800d20f   Thumb Code    12  fs.o(i.fs_close)
    fs_open                                  0x0800d28d   Thumb Code    70  fs.o(i.fs_open)
    fs_read                                  0x0800d2d9   Thumb Code    62  fs.o(i.fs_read)
    getAlarmDelay                            0x0800d319   Thumb Code    34  alarm.o(i.getAlarmDelay)
    getAlarmDelayedStatus                    0x0800d345   Thumb Code    52  alarm.o(i.getAlarmDelayedStatus)
    getAlarmStatus                           0x0800d381   Thumb Code    52  alarm.o(i.getAlarmStatus)
    getBFFlag                                0x0800d3bd   Thumb Code    34  alarm.o(i.getBFFlag)
    getPWMLevel                              0x0800d3ed   Thumb Code    34  pwm.o(i.getPWMLevel)
    getPeerFieldNum                          0x0800d41d   Thumb Code    34  alarm.o(i.getPeerFieldNum)
    getWebLogPageTotal                       0x0800d445   Thumb Code    86  log.o(i.getWebLogPageTotal)
    http_set_cgi_handlers                    0x0800e4e9   Thumb Code    66  httpd.o(i.http_set_cgi_handlers)
    http_set_ssi_handler                     0x0800e5b1   Thumb Code   100  httpd.o(i.http_set_ssi_handler)
    httpd_cgi_init                           0x0800e7c5   Thumb Code    12  httpd_cgi_ssi.o(i.httpd_cgi_init)
    httpd_init                               0x0800e7d5   Thumb Code    22  httpd.o(i.httpd_init)
    httpd_ssi_init                           0x0800e921   Thumb Code    14  httpd_cgi_ssi.o(i.httpd_ssi_init)
    icmp_dest_unreach                        0x0800e939   Thumb Code    18  icmp.o(i.icmp_dest_unreach)
    icmp_input                               0x0800e94d   Thumb Code   492  icmp.o(i.icmp_input)
    icmp_time_exceeded                       0x0800eda1   Thumb Code    18  icmp.o(i.icmp_time_exceeded)
    inet_chksum                              0x0800edb3   Thumb Code    20  inet_chksum.o(i.inet_chksum)
    inet_chksum_pbuf                         0x0800edc7   Thumb Code    86  inet_chksum.o(i.inet_chksum_pbuf)
    ip4_addr_isbroadcast                     0x0800ee1d   Thumb Code    78  ip_addr.o(i.ip4_addr_isbroadcast)
    ipStrToInt                               0x0800ee6b   Thumb Code   116  httpd_cgi_ssi.o(i.ipStrToInt)
    ip_frag                                  0x0800eee1   Thumb Code   448  ip_frag.o(i.ip_frag)
    ip_input                                 0x0800f1b5   Thumb Code   434  ip.o(i.ip_input)
    ip_output                                0x0800f37d   Thumb Code    84  ip.o(i.ip_output)
    ip_output_if                             0x0800f431   Thumb Code   252  ip.o(i.ip_output_if)
    ip_reass                                 0x0800f5c1   Thumb Code   410  ip_frag.o(i.ip_reass)
    ip_reass_timer                           0x0800fdcd   Thumb Code    28  timers.o(i.ip_reass_timer)
    ip_reass_tmr                             0x0800fde9   Thumb Code    56  ip_frag.o(i.ip_reass_tmr)
    ip_route                                 0x0800fe25   Thumb Code    80  ip.o(i.ip_route)
    isLCDLogPageOverOne                      0x0800ff39   Thumb Code    50  log.o(i.isLCDLogPageOverOne)
    isLogFull                                0x0800ff71   Thumb Code    38  log.o(i.isLogFull)
    isWebLogPageOverOne                      0x0800ff99   Thumb Code    50  log.o(i.isWebLogPageOverOne)
    key_task                                 0x0800ffd1   Thumb Code    32  main.o(i.key_task)
    lwip_comm_default_ip_set                 0x0801014d   Thumb Code   132  lwip_comm.o(i.lwip_comm_default_ip_set)
    lwip_comm_init                           0x080101dd   Thumb Code   200  lwip_comm.o(i.lwip_comm_init)
    lwip_comm_ip_init                        0x080102b9   Thumb Code    94  lwip_comm.o(i.lwip_comm_ip_init)
    lwip_comm_mem_free                       0x08010321   Thumb Code    44  lwip_comm.o(i.lwip_comm_mem_free)
    lwip_comm_mem_malloc                     0x0801035d   Thumb Code   100  lwip_comm.o(i.lwip_comm_mem_malloc)
    lwip_htonl                               0x080103d1   Thumb Code    26  def.o(i.lwip_htonl)
    lwip_htons                               0x080103eb   Thumb Code    12  def.o(i.lwip_htons)
    lwip_init                                0x080103f7   Thumb Code    36  init.o(i.lwip_init)
    lwip_ntohl                               0x0801041b   Thumb Code    12  def.o(i.lwip_ntohl)
    lwip_ntohs                               0x08010427   Thumb Code    12  def.o(i.lwip_ntohs)
    lwip_packet_handler                      0x08010435   Thumb Code    10  lwip_comm.o(i.lwip_packet_handler)
    lwip_reset_netif_ipaddr                  0x08010445   Thumb Code    12  lwip_comm.o(i.lwip_reset_netif_ipaddr)
    lwip_socket_init                         0x08010451   Thumb Code     2  sockets.o(i.lwip_socket_init)
    macStrToInt                              0x080104b1   Thumb Code   160  httpd_cgi_ssi.o(i.macStrToInt)
    main                                     0x08010551   Thumb Code    46  main.o(i.main)
    main_task                                0x08010589   Thumb Code 15890  main.o(i.main_task)
    mem_free                                 0x080143a1   Thumb Code   182  mem.o(i.mem_free)
    mem_init                                 0x08014509   Thumb Code   114  mem.o(i.mem_init)
    mem_malloc                               0x080145fd   Thumb Code   390  mem.o(i.mem_malloc)
    mem_trim                                 0x08014885   Thumb Code   338  mem.o(i.mem_trim)
    memp_free                                0x08014a71   Thumb Code    74  memp.o(i.memp_free)
    memp_get_memorysize                      0x08014b31   Thumb Code     8  memp.o(i.memp_get_memorysize)
    memp_init                                0x08014b39   Thumb Code    86  memp.o(i.memp_init)
    memp_malloc                              0x08014ba1   Thumb Code   104  memp.o(i.memp_malloc)
    modifyAlarmDelay                         0x08014ca1   Thumb Code    38  alarm.o(i.modifyAlarmDelay)
    modifyBFFlag                             0x08014cd1   Thumb Code    54  alarm.o(i.modifyBFFlag)
    modifyFieldNum                           0x08014d0d   Thumb Code    38  alarm.o(i.modifyFieldNum)
    my_mem_free                              0x08014d39   Thumb Code    96  malloc.o(i.my_mem_free)
    my_mem_init                              0x08014da5   Thumb Code    54  malloc.o(i.my_mem_init)
    my_mem_malloc                            0x08014de9   Thumb Code   156  malloc.o(i.my_mem_malloc)
    my_mem_perused                           0x08014e91   Thumb Code    54  malloc.o(i.my_mem_perused)
    myfree                                   0x08014ed1   Thumb Code    48  malloc.o(i.myfree)
    mymalloc                                 0x08014f05   Thumb Code    52  malloc.o(i.mymalloc)
    mymemcpy                                 0x08014f3d   Thumb Code    26  malloc.o(i.mymemcpy)
    mymemset                                 0x08014f57   Thumb Code    20  malloc.o(i.mymemset)
    netbuf_delete                            0x08014f6b   Thumb Code    32  netbuf.o(i.netbuf_delete)
    netconn_accept                           0x08014f8d   Thumb Code   242  api_lib.o(i.netconn_accept)
    netconn_alloc                            0x08015139   Thumb Code   170  api_msg.o(i.netconn_alloc)
    netconn_bind                             0x08015261   Thumb Code    98  api_lib.o(i.netconn_bind)
    netconn_close                            0x08015339   Thumb Code    14  api_lib.o(i.netconn_close)
    netconn_delete                           0x08015419   Thumb Code    36  api_lib.o(i.netconn_delete)
    netconn_free                             0x0801558d   Thumb Code   126  api_msg.o(i.netconn_free)
    netconn_getaddr                          0x08015709   Thumb Code   160  api_lib.o(i.netconn_getaddr)
    netconn_listen_with_backlog              0x08015861   Thumb Code    86  api_lib.o(i.netconn_listen_with_backlog)
    netconn_new_with_proto_and_callback      0x08015931   Thumb Code   194  api_lib.o(i.netconn_new_with_proto_and_callback)
    netconn_recv                             0x08015ac9   Thumb Code   254  api_lib.o(i.netconn_recv)
    netconn_write_partly                     0x08015eb5   Thumb Code   204  api_lib.o(i.netconn_write_partly)
    netif_add                                0x08016019   Thumb Code   148  netif.o(i.netif_add)
    netif_init                               0x0801611d   Thumb Code     2  netif.o(i.netif_init)
    netif_set_addr                           0x0801611f   Thumb Code    40  netif.o(i.netif_set_addr)
    netif_set_default                        0x08016149   Thumb Code    10  netif.o(i.netif_set_default)
    netif_set_gw                             0x08016159   Thumb Code    16  netif.o(i.netif_set_gw)
    netif_set_ipaddr                         0x08016169   Thumb Code   124  netif.o(i.netif_set_ipaddr)
    netif_set_link_callback                  0x080161ed   Thumb Code     6  netif.o(i.netif_set_link_callback)
    netif_set_link_down                      0x080161f3   Thumb Code    42  netif.o(i.netif_set_link_down)
    netif_set_link_up                        0x0801621d   Thumb Code    68  netif.o(i.netif_set_link_up)
    netif_set_netmask                        0x08016261   Thumb Code    16  netif.o(i.netif_set_netmask)
    netif_set_up                             0x08016271   Thumb Code    54  netif.o(i.netif_set_up)
    parse_reply_data                         0x080162a9   Thumb Code   430  tcp_server.o(i.parse_reply_data)
    pbuf_alloc                               0x0801646d   Thumb Code   652  pbuf.o(i.pbuf_alloc)
    pbuf_alloced_custom                      0x08016889   Thumb Code   148  pbuf.o(i.pbuf_alloced_custom)
    pbuf_cat                                 0x08016991   Thumb Code   126  pbuf.o(i.pbuf_cat)
    pbuf_clen                                0x08016ad9   Thumb Code    18  pbuf.o(i.pbuf_clen)
    pbuf_copy                                0x08016aed   Thumb Code   326  pbuf.o(i.pbuf_copy)
    pbuf_copy_partial                        0x08016d25   Thumb Code   182  pbuf.o(i.pbuf_copy_partial)
    pbuf_free                                0x08016e71   Thumb Code   272  pbuf.o(i.pbuf_free)
    pbuf_header                              0x08017031   Thumb Code   200  pbuf.o(i.pbuf_header)
    pbuf_realloc                             0x08017185   Thumb Code   248  pbuf.o(i.pbuf_realloc)
    pbuf_ref                                 0x08017349   Thumb Code    26  pbuf.o(i.pbuf_ref)
    raw_bind                                 0x08017729   Thumb Code    16  raw.o(i.raw_bind)
    raw_input                                0x08017739   Thumb Code   102  raw.o(i.raw_input)
    raw_new                                  0x080177ad   Thumb Code    46  raw.o(i.raw_new)
    raw_recv                                 0x080177e1   Thumb Code     6  raw.o(i.raw_recv)
    raw_remove                               0x080177e9   Thumb Code    60  raw.o(i.raw_remove)
    readConfigCode                           0x08017829   Thumb Code    26  sys.o(i.readConfigCode)
    remoteShutdown                           0x08017bed   Thumb Code   118  alarm.o(i.remoteShutdown)
    removeAlarmRL                            0x08017c89   Thumb Code    32  alarm.o(i.removeAlarmRL)
    setAPWMLevel                             0x08017d8d   Thumb Code    22  pwm.o(i.setAPWMLevel)
    setAPWMVal                               0x08017da9   Thumb Code     6  pwm.o(i.setAPWMVal)
    setAlarmDelay                            0x08017db5   Thumb Code    18  alarm.o(i.setAlarmDelay)
    setBPWMLevel                             0x08017dcd   Thumb Code    22  pwm.o(i.setBPWMLevel)
    setBPWMVal                               0x08017de9   Thumb Code     6  pwm.o(i.setBPWMVal)
    setConfigCode                            0x08017df5   Thumb Code    38  sys.o(i.setConfigCode)
    setFieldNum                              0x08017e29   Thumb Code    16  alarm.o(i.setFieldNum)
    setPWMEnable                             0x08017e3d   Thumb Code    14  pwm.o(i.setPWMEnable)
    setPWMLevelByFieldNum                    0x08017e51   Thumb Code    38  pwm.o(i.setPWMLevelByFieldNum)
    setPWMVal                                0x08017e7d   Thumb Code    14  pwm.o(i.setPWMVal)
    setSWValue                               0x08017e91   Thumb Code    34  alarm.o(i.setSWValue)
    splitStrToInt                            0x08017efd   Thumb Code    88  pcf8563.o(i.splitStrToInt)
    start_task                               0x08017f55   Thumb Code    90  main.o(i.start_task)
    stopPWM                                  0x08017fd1   Thumb Code    44  pwm.o(i.stopPWM)
    sys_arch_mbox_fetch                      0x08018055   Thumb Code   154  sys_arch.o(i.sys_arch_mbox_fetch)
