:020000040800F2
:1000000000EB0120910200089902000871620008CB
:100010009D0200089F020008A102000800000000E5
:10002000000000000000000000000000A302000823
:10003000A5020008000000001D03000841A30008FD
:10004000AB020008AB020008AB020008AB020008DC
:10005000AB020008AB020008AB020008AB020008CC
:10006000AB020008AB020008AB020008AB020008BC
:10007000AB020008AB020008AB020008AB020008AC
:10008000AB020008AB020008AB020008AB0200089C
:10009000AB020008AB020008AB020008275A0008B8
:1000A000AB020008AB020008AB020008AB0200087C
:1000B000AB020008D1A40008B5A60008AB020008F6
:1000C000AB020008AB020008AB020008AB0200085C
:1000D000AB02000835AB0008AB020008AB02000819
:1000E000155A0008AB020008AB020008AB0200087A
:1000F000AB020008AB020008AB020008AB0200082C
:10010000AB020008AB02000895A80008AB0200088B
:10011000AB020008AB020008AB020008AB0200080B
:10012000AB020008AB020008AB020008AB020008FB
:10013000AB020008A1520008AB020008AB020008A5
:10014000AB020008AB020008AB020008AB020008DB
:10015000AB020008AB020008AB020008AB020008CB
:10016000AB020008AB020008AB020008AB020008BB
:10017000AB020008AB020008AB020008AB020008AB
:10018000AB020008AB02000800F002F800F070F8C3
:100190000AA090E8000C82448344AAF10107DA45E2
:1001A00001D100F065F8AFF2090EBAE80F0013F0C4
:1001B000010F18BFFB1A43F001031847B4E1040014
:1001C000D4E104000A444FF0000C10F8013B13F096
:1001D000070408BF10F8014B1D1108BF10F8015BA0
:1001E000641E05D010F8016B641E01F8016BF9D193
:1001F00013F0080F1EBF10F8014BAD1C0C1B09D1EA
:100200006D1E58BF01F801CBFAD505E014F8016B5B
:1002100001F8016B6D1EF9D59142D6D370470000ED
:100220000023002400250026103A28BF78C1FBD8FF
:10023000520728BF30C148BF0B607047642900F0E7
:100240002381782900F05C81732900F0108500205B
:1002500070471FB51DF03AFC00F078FC0400002048
:1002600000211DF01DFC401C60601FBD10B510BDBD
:1002700000F0BAFD1146FFF7ECFF10F069F900F04D
:10028000D8FD03B4FFF7F2FF03BC0AF0AEFE000096
:100290000948804709480047FEE7FEE7FEE7FEE71A
:1002A000FEE7FEE7FEE7FEE7FEE7FEE70448054956
:1002B000034A054B704700006DA300088901000840
:1002C00000E7012000EB012000E70120EFF31080A0
:1002D00072B6704780F310887047264C4FF6FF7552
:1002E00025604FF0000484F30988234C4FF001058A
:1002F0002570224C4FF08055256062B6FEE730B481
:100300001E4C4FF08055256030BC704730B41B4CFC
:100310004FF08055256030BC704700BF72B6EFF3D8
:10032000098050B11EF0100F08BF20ED108A203850
:1003300080E8F00F12490968086000B5114880474D
:100340005DF804EB104811490A7802700C48104916
:100350000A680260106890E8F00F20301EF0100F5D
:1003600008BFB0EC108A80F309884EF0040E62B624
:10037000704700BF22ED00E06201002004ED00E0C4
:10038000680100208D8500085701002058010020D9
:10039000700100207047000010B500F0D7FB001D71
:1003A00010BD00BFFDD601000FB4044910B503AA6B
:1003B000029800F061FC10BC5DF814FB0C010020F9
:1003C0000FB41CB5074B06AA7B44694600900598FC
:1003D00000F023FC0020694600F032FC1CBC5DF8F4
:1003E00014FB00007508000070B5044685690068BC
:1003F000C10601D5302600E02026C00707D070BD19
:10040000D4E9012130469047206A401C20626D1ECD
:10041000F6D570BD70B5044685690078C00707D170
:1004200070BDD4E9012120209047206A401C206241
:100430006D1EF6D570BD70B50C460546012A05D077
:100440002878800600D5EA69002302E0012305E050
:100450005B1C934202D2E05C0028F9D1A869E6183F
:10046000C01AA861286A184428622846FFF7BCFF12
:1004700004E0D5E9012114F8010B9047B442F8D308
:100480002846FFF7C7FF70BD2DE9F041064600245E
:1004900010687529314616A510D0AFF300800028EA
:1004A00002DA404213A507E031688A0701D512A598
:1004B00002E0490704D511A5012401E0AFF3008053
:1004C00000210A2206F1240709E0B0FBF2FCB0FB90
:1004D000F2F302FB1C00303078541846491C002807
:1004E000F3D123462A463046BDE8F04100F036BB42
:1004F000000000002D0000002B0000002000000084
:1005000070B504460D4621461068AFF3008021887F
:10051000090502D50F4A7A4402E00E4A7A440E32A7
:10052000002104F1240305E000F00F060009965DA8
:100530005E54491C0028F7D120780023000704D519
:10054000702D02D009B1022311322046BDE870405F
:1005500000F004BB3EDB04002DE9F05F8946044651
:100560004FF0000ADFF824B1FB44C0F820A0204679
:10057000E168884700287DD0252806D0D4E90121EC
:100580009047206A401C2062F1E700255F46204624
:10059000E16888472028064607DB312E05D2B819C6
:1005A00010F8200C08B10543F1E7A80701D525F0A4
:1005B0000405C4F81CA00027C4F818A02A2E09D0EE
:1005C00030460AF00BFD38B304EB8708303EC8F81C
:1005D000186019E059F8041B204604EB870291616A
:1005E000E1688847012F064618D1E069002820DA23
:1005F00025F020051DE0D8F8180000EB800006EB80
:1006000040003038C8F818002046E16888470646A0
:100610000AF0E4FC0028EED1012F0AD02E2E08D1DA
:100620002046E16888477F1C0646022F45F02005DA
:10063000C4DBA069002803DA404245F00105A0614F
:10064000E80701D025F01005A6B1A6F14100192850
:1006500002D8203645F400654A46314620462560DA
:100660004D46FFF7EBFD60B1012807D0ED1D25F0E9
:10067000070000E007E000F1080978E705F1040948
:1006800075E730467AE7206ABDE8F09F14DB040086
:1006900070B5064600F05EFA0468054630460A2248
:1006A000002100F002F82C6070BD2DE9F047914662
:1006B0000F4680460446002614F8015B2DB1FFF773
:1006C0006BFE0068405DC007F6D12B2D02D02D2DAA
:1006D00018D0641E4A463946204600F0DFFA27B19A
:1006E0003968A14201D1C7F800804FF002047105BA
:1006F0000BD54042002803DD00F02CFA0460A0076F
:10070000BDE8F08746F48066E4E70028F8DA00F0F8
:1007100021FA04606FF00040F2E70000014A00F0A7
:100720000DBB00001C030020401ECAB210F8011FC0
:100730008A4202D00029F9D10020704730B5054621
:100740000B462A4613F8014B12F8010B08B1A042E0
:10075000F8D01CB1002802D06D1CF1E7284630BD4E
:1007600040EA010310B59B070FD1042A0DD310C82E
:1007700008C9121F9C42F8D020BA19BA884201D980
:10078000012010BD4FF0FF3010BD1AB1D30703D0C8
:10079000521C07E0002010BD10F8013B11F8014B7E
:1007A0001B1B07D110F8013B11F8014B1B1B01D19A
:1007B000921EF1D1184610BD40EA0103024630B541
:1007C0009B0710D14FF0013400E008C208C91D1B7F
:1007D0009D4315EAC41FF8D013F0FF0102F8011B76
:1007E0000DD01B0AF8E711F8013B002B02F8013B82
:1007F00005D011F8013B002B02F8013BF3D130BDCD
:1008000010B5431C02E010F8011B71B18107FAD149
:100810004FF0013202C88C1A8C4314EAC211F9D08D
:10082000C01A0A0603D0C01E10BDC01A10BD0A04AB
:1008300001D0801E10BD0902FCD0401E10BD40EA50
:10084000010370B59B072ED14FF00136042A2AD33D
:1008500008C810C99D1B9D43121F15EAC61517D065
:10086000D8B2E1B2401A50EA056110D198B2A1B2F3
:10087000401A50EA05410AD123F07F4024F07F411D
:10088000401A50EA052102D1180EA0EB146070BD89
:10089000A342DBD018BA21BA884201D9012070BD29
:1008A0004FF0FF3070BD0AB9002070BD10F8013B59
:1008B00011F8014B63B1A3420AD1521E08D010F8BF
:1008C000013B11F8014B1BB1A34201D1521EEDD1E6
:1008D000181B70BD421E12F8013F002BFBD111F80E
:1008E000013B002B02F8013BF9D17047032A40F28B
:1008F000308010F0030C00F0158011F8013BBCF1C2
:10090000020F624498BF11F801CB00F8013B38BFD9
:1009100011F8013BA2F1040298BF00F801CB38BFE7
:1009200000F8013B11F0030300F02580083AC0F005
:10093000088051F8043B083A51F804CBA0E80810AD
:10094000F5E7121D5CBF51F8043B40F8043BAFF3E0
:100950000080D20724BF11F8013B11F801CB48BF3A
:1009600011F8012B24BF00F8013B00F801CB48BF70
:1009700000F8012B704710B5203AC0F00B80B1E8A9
:100980001850203AA0E81850B1E81850A0E81850C4
:10099000BFF4F5AF5FEA027C24BFB1E81850A0E8CD
:1009A000185044BF18C918C0BDE810405FEA827CE7
:1009B00024BF51F8043B40F8043B08BF7047D207FE
:1009C00028BF31F8023B48BF11F8012B28BF20F89F
:1009D000023B48BF00F8012B70474FF0000204298A
:1009E000C0F0128010F0030C00F01B80CCF1040C5E
:1009F000BCF1020F18BF00F8012BA8BF20F8022B92
:100A0000A1EB0C0100F00DB85FEAC17C24BF00F837
:100A1000012B00F8012B48BF00F8012B70474FF065
:100A2000000200B5134694469646203922BFA0E83E
:100A30000C50A0E80C50B1F12001BFF4F7AF09074A
:100A400028BFA0E80C5048BF0CC05DF804EB89003B
:100A500028BF40F8042B08BF704748BF20F8022B7E
:100A600011F0804F18BF00F8012B704710B50446F5
:100A700010F0030F08BF11F0030F40F015804FF086
:100A8000013E121FC0F20E8051F8043BA3EB0E0C86
:100A90002CEA030C1CEACE1C08BF40F8043BF0D043
:100AA000A1F1040102F10402521E08DB11F8013B1E
:100AB000002B00F8013BF7D11146FFF78EFF2046CF
:100AC00010BD00004FF0013C50F8042B51F8043BDE
:100AD0009A4221D1A2EB0C03934313EACC1317D112
:100AE00050F8042B51F8043B9A4215D1A2EB0C03A9
:100AF000934313EACC130BD150F8042B51F8043B69
:100B00009A4209D1A2EB0C03934313EACC13DBD036
:100B10004FF00000704700BFD01A01BAB1FA81F15E
:100B200001F0180122FA01F0CB40C1F12001DBB243
:100B3000C0B2C01A2CFA01F3D11A914311EAC311C1
:100B4000E6D170477047704770477047004870475C
:100B5000C0E6012000487047A0E601202DE9F047DB
:100B60000D4699469246044600F12408016888061D
:100B700004D5E06921F01001216000E00120A842C5
:100B800001DD471B00E00027A1697A1902EB09008B
:100B9000081AA0612078C00602D42046FFF724FC82
:100BA000002608E0D4E901211AF806009047206ADF
:100BB000401C761C20624E45F4DB2078C0060AD526
:100BC0002046FFF711FC06E0D4E9012130209047D0
:100BD000206A401C2062381EA7F10107F4DC07E000
:100BE000D4E9012118F805009047206A401C2062D2
:100BF000281EA5F10105F3DC2046FFF70BFC207849
:100C0000000602D50220BDE8F0870120FBE70000C6
:100C100001694A1C02610878704700B58FB0CDE9C0
:100C200001310021059105497944CDE903101146B0
:100C30006846FFF791FC0FB000BD0000E5FFFFFF25
:100C40000A6802F8010B0A60704710B5436913B1D6
:100C5000AFF3008001E0FFF7EEFB012010BD12783A
:100C600000F124010A7000224A700122EDE71168A8
:100C70004FF0FF32E9E70000074B70B50D467B44AB
:100C8000FFF7CBFF0446284600F08CF810B14FF078
:100C9000FF3070BD204670BD67C500002DE9F05FD4
:100CA000824615468B4600270AF10104B9460078B2
:100CB000302801D09DB113E014F8010B01277828EA
:100CC00003D0582801D045B10AE00DB1102D07D14D
:100CD000002714F8010B102502E0082500E00A2582
:100CE0000026B0460EE005FB080005FB06F10127D3
:100CF0001FFA80F801EB1046B6F5803F00D3B946E5
:100D000014F8010B294600F03FF80028EBDABBF19C
:100D1000000F05D00FB1641E00E05446CBF8004030
:100D2000B9F1000F06D0FFF715FF02210160C81EC0
:100D3000BDE8F09F48EA0640FAE700002DE9F041DF
:100D400015460E46040002D12C6804B90BA42046B7
:100D500000F03CF80444207870B12746314638460C
:100D600000F024F80444207810B1002004F8010BAE
:100D700038462C60BDE8F0810027F9E7000000004C
:100D800000487047A0E601203A2800D2303820F011
:100D90002002412A01D3A2F13700884201D34FF04B
:100DA000FF307047007B00F08000704730B503468D
:100DB0001D781DB10A4603E0AC4201D1181A30BDBE
:100DC00012F8014B002CF7D15B1CF1E730B503465C
:100DD0001D783DB10A4612F8014B1CB1AC42FAD164
:100DE0005B1CF5E7181A30BD7546FFF7C9FFAE4624
:100DF00005006946534620F00700854618B020B527
:100E0000FFF754FABDE820404FF000064FF000070E
:100E10004FF000084FF0000B21F00701AC46ACE8A2
:100E2000C009ACE8C009ACE8C009ACE8C0098D460F
:100E300070470446AFF300802046FFF722FA000017
:100E40002D480078012853D12C48007800284FD035
:100E50002B49097809B9032100E00F2108462949E7
:100E60000968012900D100E00021274A11702449B6
:100E70000978012918D125490968012900D100E024
:100E80000021214A127841EA42011F4A11701F498C
:100E9000091D0968012900D100E000211A4A1278D1
:100EA00041EA4201184A11701849083109680129BC
:100EB00000D100E00021144A127841EA4201124AAE
:100EC000117011460978014011701149097839B93A
:100ED000114609780F4A117001210D4A117006E080
:100EE0000C490978084A127811430A4A117002E045
:100EF000002007490870704749000020ED000020DD
:100F0000580000203C02404242000020280241429A
:100F1000470000204100002010B50020564908700D
:100F20005648007801287DD155480078002879D0AE
:100F30005448007808B9032000E00F2004465248C6
:100F4000007852490978884271D04F4800780028CB
:100F500053D04D480078A04227D04D48007810B9B2
:100F600001204B4908704B480078C0F10400484903
:100F70000978884217D1002047490870474800780F
:100F800020F0010045490870012009F02DF90121E8
:100F9000022009F07FFF00F077F93B4800783B49D9
:100FA0000870012010BD0020FCE73B48007810B914
:100FB00001203949087037480078C0F104003649EB
:100FC0000978884217D100203149087033480078E9
:100FD00020F0020031490870002009F005F90121D4
:100FE000032009F057FF00F04FF927480078274900
:100FF00008700120D6E70020D4E7002026490870B9
:101000002648007820F0010024490870002020497B
:1010100008702248007820F00200204908701A4821
:10102000007801E011E002E01849087004E00020B7
:10103000194908701649087000F026F9134800781D
:1010400008B90020AEE70120ACE700200F49087086
:10105000114908700E4908701048007820F002000D
:101060000E4908700846007820F00100087000F072
:101070000BF9002096E700004700002049000020FF
:10108000ED00002058000020410000204300002017
:101090004D0000205A0000204C0000203A000020A3
:1010A0000EB501211D2008F09DF9032001900120BB
:1010B0008DF8080000208DF80A0003208DF8090043
:1010C00001208DF80B0001A9614804F08AFF03217B
:1010D0005F4804F0F1FF4FF40070019001208DF89B
:1010E000080000208DF80A0003208DF80900012077
:1010F0008DF80B0001A9574804F073FF4FF40071FD
:10110000544804F0D9FF4FF48070019001A952486F
:1011100004F067FF4FF480714F4804F0CDFF4FF4A7
:101120001140019000208DF8080003208DF809007F
:1011300001208DF80B0001A9464804F052FF4FF43E
:10114000E050019001A9444804F04BFF0F200190AA
:1011500001A9424804F045FF1820019001A93C482C
:1011600004F03FFF04F068FC3D480078C0F3400005
:1011700018B900203B49087002E001203949087085
:1011800037480078C0F3C000374908703448007809
:10119000C0F3011035490870272000F0DDF8FF2862
:1011A00004D0282000F0D8F8FF280AD100203049C8
:1011B000087048701E202F490880488009F016FEEC
:1011C00001E008F0DDF901226946222000F09CF8D8
:1011D0009DF80000FF280FD10120274908702749FA
:1011E00008702148007808B9012000E00020244957
:1011F000087009F0DDFD08E008F0A2F91A4800784F
:10120000012802D100201E4908701C4800781C49A2
:10121000097808431B49086001226946242000F030
:1012200073F89DF80000FF2802D109F0C9FE01E023
:1012300008F0B2FB01201CF0B5FB00201CF0B2FB53
:1012400042F2CF0140F2E73009F088FB0EBD00000A
:10125000001002400000024000080240000C024062
:101260000A01002058000020590000205A000020E8
:1012700034000020360000203F00002049000020FC
:101280004A000020940240420E480078C0F300104B
:101290000D4908600B480078C0F3400009490978FF
:1012A000C1F3C00108430949C1F884020548007828
:1012B00000F0010003490978C1F3800108430449A3
:1012C000086070473A00002080824042008040421F
:1012D0009002404210B547F6FF7000F03DF804461A
:1012E000552C01D1002010BD552147F6FF7000F0AC
:1012F00093F847F6FF7000F02FF80446552C01D103
:101300000020F0E70120EEE770B506460C461546D2
:1013100008E03046721C96B200F01EF804F8010B8B
:10132000681E85B2002DF4D170BD2DE9F04107464D
:101330000C460026002509E036023919491B491ED2
:1013400088B200F009F80644681CC5B2A542F3DB78
:101350003046BDE8F0810000F8B5044600260020C4
:1013600000906A4600211748006806F07FF805F0F3
:101370007BF9A02005F044F905F0CEF9201205F024
:101380003FF905F0C9F92546E11704EB116109128F
:10139000A4EB0121C8B205F033F905F0BDF905F061
:1013A00063F9A12005F02CF905F0B6F9002005F04D
:1013B000F1F8064605F082F90248006806F072F975
:1013C0003046F8BD1800002070B505460C4616469C
:1013D00006E02178284600F01FF8681C85B2641CDE
:1013E0003000A6F101018EB2F3D170BD2DE9F041BC
:1013F00005460E461746002409E0E20026FA02F2EE
:10140000D1B22A1990B200F007F8601CC4B2BC42F5
:10141000F3DBBDE8F0810000F8B504460E4600207D
:1014200000906A4600211648006806F01FF805F093
:101430001BF9A02005F0E4F805F06EF9201205F084
:10144000DFF805F069F92546E11704EB116109128F
:10145000A4EB0121C8B205F0D3F805F05DF93046E0
:1014600005F0CEF805F058F905F028F942F21070B1
:1014700009F084FE0248006806F014F9F8BD000087
:1014800018000020012002490860024908607047E6
:1014900084024242500000200120024908600249B3
:1014A0000860704780024242540000202E480078B5
:1014B000012854D12D480078002850D02C490978B3
:1014C00009B9032100E00F2108462A4909680129CA
:1014D00000D100E00021284A11702549097801292E
:1014E00019D12449091D0968012900D100E0002112
:1014F000214A127841EA42011F4A11701D49083100
:101500000968012900D100E000211B4A127841EA54
:101510004201194A117017490C310968012900D19B
:1015200000E00021144A127841EA4201124A117087
:1015300011460978014011701049097839B91146EE
:1015400009780F4A117001210C4A117006E00C490C
:101550000978094A12781143094A117002E0002003
:1015600006490870704700004A000020EE00002085
:101570005800002000824142450000204800002021
:101580004400002010B500205649087056480078E5
:1015900001287DD155480078002879D0544800783A
:1015A00008B9032000E00F20044652480078524951
:1015B0000978884271D04F480078002853D04D48B0
:1015C0000078A04227D04D48007810B901204B493F
:1015D00008704B480078C0F10400484909788842F7
:1015E00017D10020474908704748007820F00400D0
:1015F00045490870032008F0F7FD0121002009F09B
:1016000049FCFFF741FE3B4800783B490870012048
:1016100010BD0020FCE73B48007810B90120394993
:10162000087037480078C0F10400364909788842CC
:1016300017D10020314908703348007820F00800A5
:1016400031490870022008F0CFFD0121084609F059
:1016500021FCFFF719FE2748007827490870012070
:10166000D6E70020D4E700202649087026480078F5
:1016700020F0040024490870002020490870224806
:10168000007820F00800204908701A48007801E02E
:1016900011E002E01849087004E0002019490870C0
:1016A00016490870FFF7F0FD1348007808B90020CC
:1016B000AEE70120ACE700200F490870114908701F
:1016C0000E4908701048007820F008000E49087094
:1016D0000846007820F004000870FFF7D5FD0020D0
:1016E00096E70000480000204A000020EE0000209D
:1016F0005800002044000020460000204F00002039
:101700005A0000204E0000203A00002010B5044688
:10171000204604F005FC10BD2DE9F05F80460F4621
:1017200016461D460024A146A2463A4631466AA006
:1017300004F041FC804608F10100002848D000BFB9
:1017400044E056F8240064A1FFF7BCF950B955F8FD
:101750002400FEF79DFF00F0FF0B5946002016F015
:1017600063FB31E056F824005EA1FFF7ABF950B9F6
:1017700055F82400FEF78CFF1FFA80FB5946002025
:1017800016F018FB20E056F8240059A1FFF79AF94B
:1017900050B955F82400FEF77BFF00F0FF0B5946C7
:1017A000012016F041FB0FE056F8240053A1FFF78B
:1017B00089F948B955F82400FEF76AFF1FFA80FB43
:1017C0005946012016F0F6FA601CC4B2BC42B8DBE0
:1017D0003A4631464CA004F0EEFB804608F1010089
:1017E00010B300241EE056F8240047A1FFF76AF961
:1017F00040B955F824003DA1FFF764F910B908F08D
:10180000E5F90DE056F824003FA1FFF75BF938B980
:1018100055F824003BA1FFF755F908B908F0EAF99B
:10182000601CC4B2BC42DEDB3A46314639A004F04B
:10183000C2FB804608F10100002849D0002410E0D6
:1018400056F8240033A1FFF73DF908B9A14606E098
:1018500056F8240032A1FFF735F900B9A246601C02
:10186000C4B2BC42ECDB55F8290030A1FFF72AF9DD
:1018700058B955F82A00FEF70BFF012802D104F0F1
:101880003BFB25E004F042FB22E055F8290028A1AB
:10189000FFF718F958B955F82A00FEF7F9FE0128A4
:1018A00002D107F077FD13E007F082FD10E055F854
:1018B000290021A1FFF706F950B955F82A00FEF7D3
:1018C000E7FE012802D107F03DFD01E007F048FDE9
:1018D0001BA0BDE8F09F00006669656C645F6E75D3
:1018E0006D5F3000616C6D5F646C795F300000008B
:1018F0006669656C645F6E756D5F3100616C6D5F0C
:10190000646C795F31000000616C61726D5F7265BB
:10191000736574004354525F5459504500000000F1
:101920004354525F56414C55450000006663000029
:10193000625F626600000000615F62660000000096
:101940002F636F6E74726F6C2E7368746D6C000011
:101950002DE9FE4381460E4615461F4600243246B9
:10196000294623A004F027FB814609F10100002845
:101970003AD000BF33E055F824001DA1FFF7A2F8CC
:1019800098B957F82480B8F1000F0ED00A231AA294
:101990004146684616F0B2FA0098A0F5FA60174979
:1019A0000870019848700298887055F8240014A1B6
:1019B000FFF788F888B957F82480B8F1000F0CD0E9
:1019C0000A2311A24146684616F098FA0B4900987E
:1019D000C8700198087102984871601CC4B2B44282
:1019E000C9DB064807F06CFB08A0BDE8FE830000D9
:1019F00044415445000000002D000000BC010020BF
:101A000054494D45000000003A0000002F706172FB
:101A1000616D65746572732E7368746D6C0000007F
:101A20002DE9F04707460D461646984600242A46FB
:101A300031461EA004F0BFFA0746781C98B100BFDB
:101A40000FE056F8240019A1FFF73CF838B958F810
:101A5000240018A1FFF736F808B916F08BFE601CB9
:101A6000C4B2AC42EDDB2A46314613A004F0A3FA1F
:101A70000746781CB8B1002413E056F824000EA1E4
:101A8000FFF720F858B958F82400FEF701FE00F0DF
:101A9000FF09484616F0AEF90AA0BDE8F087601CC1
:101AA000C4B2AC42E9DB0CA0F7E700004445464174
:101AB000554C540031000000636F6E666967636FB8
:101AC000646500002F61646D696E73657474696E7E
:101AD000672E7368746D6C002F636F6E74726F6C19
:101AE0002E7368746D6C000000B58FB02DA0006877
:101AF0000E902DA000680D902CA0D0E900128068F7
:101B0000CDE90A120C900020099008902AA207CA79
:101B100005AB07C32BA207CA02AB07C32CA0006802
:101B20000190002005F0D6F801230EAA1021002014
:101B300003F0A2F901230DAA2021002003F0F2F9FD
:101B400001230AAA3021002003F096F9012305AAF7
:101B50000021022003F090F9012302AA00210420B1
:101B600003F08AF91B4802781BA109A8FEF728FC9C
:101B70001B4802881BA108A8FEF722FC012309AA22
:101B80004021022003F0CEF9012308AA50210420AD
:101B900003F0C8F9012301AA7021042003F06CF9B5
:101BA0000FB000BDA1B6000041000000B7C0C7F8EB
:101BB000B2CECAFDA1B70000B7C0C7F8BAC5A3BA74
:101BC00000000000B8E6BEAFD1D3CAB1A3BA00008E
:101BD000C3EB000034000020253032640000000018
:101BE00036000020253033640000000000B58FB0BF
:101BF0002DA000680E902DA000680D902CA0D0E9BB
:101C000000128068CDE90A120C900020099008901B
:101C10002AA207CA05AB07C32BA207CA02AB07C398
:101C20002CA000680190002005F054F801230EAAB2
:101C30001021002003F020F901230DAA202100200B
:101C400003F070F901230AAA3021002003F014F9EF
:101C5000012305AA0021022003F00EF9012302AAA4
:101C60000021042003F008F91B4842781BA109A8B1
:101C7000FEF7A6FB1B4842881BA108A8FEF7A0FBA5
:101C8000012309AA4021022003F04CF9012308AAEC
:101C90005021042003F046F9012301AA70210420F9
:101CA00003F0EAF80FB000BDA1B60000420000004A
:101CB000B7C0C7F8B2CECAFDA1B70000B7C0C7F819
:101CC000BAC5A3BA00000000B8E6BEAFD1D3CAB10E
:101CD000A3BA0000C3EB00003400002025303264BA
:101CE00000000000360000202530336400000000B2
:101CF00000B587B01AA30FCBCDE90523CDE90301C9
:101D00001BA0006802901BA0006801901AA0006848
:101D10000090002004F0DEFF012303AA1021002020
:101D200003F0AAF8012302AA1021022003F0FAF816
:101D300001236A461821022003F09EF80F4800781C
:101D400058B9012301AA1021042003F0EBF8012364
:101D50006A461821042003F08FF807B000BD000088
:101D6000A1B6B7C0C7F8B2CECAFDA1B70000000047
:101D70004100000042000000C7F8000059000020A8
:101D800000B58DB0F7A30FCBCDE90B23CDE9090149
:101D9000F8A000680890F8A000680790F7A0006815
:101DA0000690F7A000680590F6A000680490F6A0E1
:101DB00000680390F5A207CA8DE80700002004F030
:101DC00089FF012309AA1021002003F055F80123FF
:101DD00008AA1021022003F0A5F8012303AA182164
:101DE000022003F049F8012306AA2821022003F06B
:101DF00099F8E948007888B9012307AA102104203E
:101E000003F090F8012303AA1821042003F034F80A
:101E1000012306AA2821042003F084F801236A463E
:101E20001021062003F028F8012306AA50210620DD
:101E300003F078F8D948007800284ED0D8480078C8
:101E4000012806D1012305AA3021022003F014F84D
:101E500005E0012304AA3021022003F00DF8D14847
:101E6000007800EB4000D04901EB400201235021F3
:101E7000022003F057F8C8480078E0B9CB48007852
:101E8000012806D1012305AA3021042002F0F4FF25
:101E900005E0012304AA3021042002F0EDFFC4482C
:101EA000007800EB4000C04901EB400201235021C3
:101EB000042003F037F8BF480078012806D1012339
:101EC00005AA6021062002F0D7FF85E1012304AABC
:101ED0006021062002F0D0FF7EE1B748007801289B
:101EE00004D002287BD0032871D1ECE0B3480078FD
:101EF00001281ED1B2480078012806D1002305AA86
:101F00003021022002F0B8FF05E0002304AA3021AE
:101F1000022002F0B1FFAB4890F9000000EB400056
:101F2000A14901EB400201235021022002F0FAFFF7
:101F300021E0A248007802281DD1A148007801289C
:101F400006D1012305AA3021022002F095FF05E009
:101F5000012304AA3021022002F08EFF994890F953
:101F6000000000EB4000904901EB400200235021AB
:101F7000022002F0D7FF88480078E0B98B4800784B
:101F8000012806D1012305AA3021042002F074FFA4
:101F900005E0012304AA3021042002F06DFF8448EB
:101FA000007800EB4000804901EB40020123502102
:101FB000042002F0B7FF7F480078012808D10123F0
:101FC00005AA6021062002F057FF07E007E001E1C3
:101FD000012304AA6021062002F04EFFFBE07748AF
:101FE000007801281ED178480078012806D1002306
:101FF00005AA3021042002F03FFF05E0002304AAD7
:102000003021042002F038FF704890F9000000EB06
:102010004000654901EB400201235021042002F0F9
:1020200081FF21E06548007802281DD166480078CC
:10203000012806D1012305AA3021042002F01CFF4B
:1020400005E0012304AA3021042002F015FF5F48B7
:1020500090F9000000EB4000534901EB40020023DF
:102060005021042002F05EFF4D480078012806D17F
:10207000012305AA3021022002F0FEFE05E0012323
:1020800004AA3021022002F0F7FE4648007800EB57
:102090004000454901EB400201235021022002F09B
:1020A00041FF44480078012806D1012305AA602198
:1020B000062002F0E1FE05E0012304AA60210620CB
:1020C00002F0DAFE87E036480078012806D10123C5
:1020D00005AA3021022002F0CFFE05E0012304AA68
:1020E0003021022002F0C8FE2E48007800EB4000AC
:1020F0002D4901EB400201235021022002F012FF82
:1021000025480078E0B929480078012806D1012344
:1021100005AA3021042002F0AFFE05E0012304AA45
:102120003021042002F0A8FE2148007800EB400096
:102130001D4901EB400201235021042002F0F2FE70
:1021400023480078012806D1002305AA6021062033
:1021500002F092FE05E0002304AA6021062002F0AE
:102160008BFE38E0A1B6B2BCB7C0B2CECAFDA1B7F3
:102170000000000041000000420000003A000000A2
:10218000BFAA0000B9D80000C7F80000B7C0B2F07D
:10219000B8E6BEAF0000000059000020A4000020F7
:1021A00049000020ED0000205F0000204A000020D0
:1021B000EE0000203F000020A5000020A600002027
:1021C0005B0000205D0000205C0000205E0000201D
:1021D0004000002000BF00BF0DB000BD00B597B0AB
:1021E0001422EDA112A8FEF7C6FBF0A0006809902A
:1021F000EFA000680890EFA103C9CDE90601142201
:10220000EEA101A8FEF7B7FB002004F063FD012357
:1022100012AA0021084602F02FFE012309AA10216C
:10222000022002F07FFE012306AA1821022002F0FC
:1022300023FEE748007858B9012308AA102104209A
:1022400002F070FE012306AA1821042002F014FEF9
:10225000012301AA0021062002F00EFEDD480078CD
:1022600000286ED0DC4890F90000092833D2DFE85E
:1022700000F0050A0F14191E23282D00D7A10EA85F
:10228000FEF79AFA28E0D7A10EA8FEF795FA23E008
:10229000D7A10EA8FEF790FA1EE0D8A10EA8FEF76F
:1022A0008BFA19E0D8A10EA8FEF786FA14E0D9A19E
:1022B0000EA8FEF781FA0FE0D9A10EA8FEF77CFA6E
:1022C0000AE0DAA10EA8FEF777FA05E0DAA10EA877
:1022D000FEF772FA00E000BF00BF01230EAA402102
:1022E000022002F0C9FDBA480078002841D1BA485E
:1022F00090F90100092834D2DFE800F0050A0F1434
:10230000191E24292E00B5A10AA8FEF755FA29E0C6
:10231000B4A10AA8FEF750FA24E0B5A10AA8FEF776
:102320004BFA1FE0B5A10AA8FEF746FA1AE0B6A1DB
:102330000AA8FEF741FA15E0B6A10AA8FEF73CFA92
:1023400010E017E0B6A10AA8FEF736FA0AE0B7A136
:102350000AA8FEF731FA05E0B7A10AA8FEF72CFAA1
:1023600000E000BF00BF01230AAA4021042002F0C0
:1023700083FD0FE1B3480078012802D0022870D114
:1023800083E0954890F90000092833D2DFE800F097
:10239000050A0F14191E23282D0090A10EA8FEF780
:1023A0000BFA28E08FA10EA8FEF706FA23E090A111
:1023B0000EA8FEF701FA1EE090A10EA8FEF7FCF9A8
:1023C00019E091A10EA8FEF7F7F914E091A10EA86B
:1023D000FEF7F2F90FE092A10EA8FEF7EDF90AE080
:1023E00092A10EA8FEF7E8F905E093A10EA8FEF76A
:1023F000E3F900E000BF00BF00230EAA4021022045
:1024000002F03AFD744890F90100092834D2DFE85F
:1024100000F0050A0F14191E23292E006FA10AA827
:10242000FEF7CAF929E06FA10AA8FEF7C5F924E072
:102430006FA10AA8FEF7C0F91FE070A10AA8FEF775
:10244000BBF91AE070A10AA8FEF7B6F915E071A170
:102450000AA8FEF7B1F910E071A10AA8FEF7ACF9DD
:102460000BE095E071A10AA8FEF7A6F905E072A1BC
:102470000AA8FEF7A1F900E000BF00BF01230AAAE5
:102480004021042002F0F8FC83E0534890F900005A
:10249000092833D2DFE800F0050A0F14191E23289B
:1024A0002D004EA10EA8FEF787F928E04DA10EA839
:1024B000FEF782F923E04EA10EA8FEF77DF91EE09B
:1024C0004EA10EA8FEF778F919E04FA10EA8FEF76D
:1024D00073F914E04FA10EA8FEF76EF90FE050A1BA
:1024E0000EA8FEF769F90AE050A10EA8FEF764F9FC
:1024F00005E051A10EA8FEF75FF900E000BF00BFA4
:1025000001230EAA4021022002F0B6FC324890F9C5
:102510000100092833D2DFE800F0050A0F14191E64
:1025200023282D002DA10AA8FEF746F928E02DA1A9
:102530000AA8FEF741F923E02DA10AA8FEF73CF90D
:102540001EE02EA10AA8FEF737F919E02EA10AA86D
:10255000FEF732F914E02FA10AA8FEF72DF90FE0DB
:102560002FA10AA8FEF728F90AE030A10AA8FEF771
:1025700023F905E030A10AA8FEF71EF900E000BF2C
:1025800000BF00230AAA4021042002F075FC00E0ED
:1025900000BF00BF17B000BDA1B6BCE6C8DDCDE2EC
:1025A000B2BFC9E8B1B8A1B7000000004100000007
:1025B00042000000C7F8A3BA00000000A3A8B3A31C
:1025C000B1D5D0CDBFAAB9D8C1BFA3A90000000022
:1025D00059000020A400002097000020CEDEC9E8AA
:1025E000B1B80000D6F7B6AFBAECCDE200000000FB
:1025F000B1BBB6AFBAECCDE200000000CBABBCF88B
:10260000CCBDB2E200000000BBB7BEB3CCBDB2E2AD
:1026100000000000C3C5B4C5CCBDB2E2000000009C
:10262000BDF4BCB1B0B4C5A500000000CBAEBDFE8A
:10263000CCBDB2E200000000C6E4CBFCC9E8B1B8F2
:1026400000000000A500002000B587B01EA30FCB3E
:10265000CDE90523CDE903011FA0006802901FA06A
:10266000006801901EA000680090002004F032FB7A
:10267000012303AA1021002002F0FEFB012302AA7D
:102680001021022002F04EFC01236A46182102208C
:1026900002F0F2FB1348007858B9012301AA102177
:1026A000042002F03FFC01236A461821042002F0B6
:1026B000E3FB0D480D49098801800D480D49096863
:1026C000016007B000BD0000A1B6B7C0C7F8B2CE28
:1026D000CAFDA1B700000000410000004200000058
:1026E000C7F8000059000020A90000203400002095
:1026F000AC0000203600002010B5B4B01422F3A1C5
:102700002FA8FEF738F9F6A000682E90F5A0006813
:102710002D90F5A000682C90F4A2D2E90131106848
:10272000D268CDE929312B922890F4A2D2E9010395
:102730001168D268CDE92632CDE92410F3A207CA88
:1027400021AB07C3F4A2D2E901031168D268CDE935
:102750001F32CDE91D10F4A30FCB19AC0FC4F6A3A3
:102760000FCB15AC0FC4F8A3D3E90020D3E90213B3
:1027700012AC0BC41192F8A3D3E90012D3E90203FF
:10278000CDE90F03CDE90D12F7A3D3E90012D3E988
:102790000203CDE90B03CDE90912F7A30FCB05AC7A
:1027A0000FC4F9A3D3E90012D3E90203CDE903036F
:1027B000CDE90112F8A000680090F8480078C0F355
:1027C000800010B1F648007801E0F6480078F6493C
:1027D0000870002004F07EFA01232FAA0021084689
:1027E00002F04AFBF1480078EF49097888421CD092
:1027F0000020EF490870062410E0EB4800782041E3
:1028000000F0010040B1EB49E94A12788C54E848E5
:102810000078401CE6490870601E44B2002CECDAD7
:10282000E1480078E149087010E2E1480078401E74
:1028300040B2E1490870DE480078042875DA08469D
:1028400090F90040FFE1DB48005D07286ED2DFE829
:1028500000F0041B3249606EF500D74991F9001071
:10286000091B1DF8010001232EAA002102F05AFBCA
:10287000D14991F90010091B1DF80100012328AA74
:10288000102102F0F9FADBE1CB4991F90010091BA4
:102890001DF8010001232EAA002102F043FBC649C6
:1028A00091F90010091B1DF80100012324AA102131
:1028B00002F0E2FAC4E1C04991F90010091B1DF8C9
:1028C000010001232DAA002102F02CFBBA4991F945
:1028D0000010091B1DF80100012328AA102102F095
:1028E000CBFAADE1B44991F90010091B1DF80100C4
:1028F00001232DAA002102F015FBAF4991F9001028
:10290000091B1DF80100012324AA102102F0B4FACA
:1029100096E1A94991F90010091B1DF80100012356
:1029200021AA002102F0A8FA8AE190E187E1A249F8
:1029300091F90010091B1DF8010001232EAA0021A6
:1029400002F0F0FA9C4991F90010091B1DF80100F2
:1029500001232CAA102102F08FFA984890F9000068
:10296000092868D2DFE800F06705111D2935414DBF
:102970005900914991F90010091B1DF8010001232C
:102980001DAA202102F078FA56E08B4991F9001037
:10299000091B1DF80100012319AA202102F06CFA7D
:1029A0004AE0854991F90010091B1DF80100012337
:1029B00015AA202102F060FA3EE07F4991F900104B
:1029C000091B1DF80100012311AA202102F054FA6D
:1029D00032E0794991F90010091B1DF8010001232B
:1029E0000DAA202102F048FA26E0734991F900105F
:1029F000091B1DF80100012309AA202102F03CFA5D
:102A00001AE06D4991F90010091B1DF8010001231E
:102A100005AA202102F030FA0EE0674991F9001072
:102A2000091B1DF80100012301AA202102F024FA4C
:102A300002E003E0FFE700BF00BF01E15E4991F95A
:102A40000010091B1DF8010001232DAA002102F02E
:102A500069FA594991F90010091B1DF80100012379
:102A60002CAA102102F008FA544890F90100092814
:102A70002AD2DFE800F0E105111DA5B1BDC9D500DE
:102A80004D4991F90010091B1DF8010001231DAAF1
:102A9000202102F0F1F9D0E0474991F90010091B1B
:102AA0001DF80100012319AA202102F0E5F9C4E074
:102AB000414991F90010091B1DF80100012315AAD5
:102AC000202102F0D9F9B8E0B6E00000A1B6B8E6DE
:102AD000BEAFD0C5CFA2C1D0B1EDA1B700000000FC
:102AE0004100000042000000C7F80000B7C0C7F86E
:102AF000B6CCC2B7B8E6BEAF00000000B7C0C7F89A
:102B0000B6CFC2B7B8E6BEAF00000000B7C0B2F0A3
:102B1000B8E6BEAF00000000D6F7B6AFBAECCDE223
:102B2000B8E6BEAF00000000B1BBB6AFBAECCDE274
:102B3000B8E6BEAF00000000CBABBCF8CCBDB2E243
:102B4000B8E6BEAF00000000BBB7BEB3CCBDB2E27A
:102B5000B8E6BEAF00000000C3C5B4C5CCBDB2E24C
:102B6000B8E6BEAF00000000BDF4BCB1B0B4C5A56E
:102B7000B8E6BEAF00000000CBAEBDFECCBDB2E2F9
:102B8000B8E6BEAF00000000C6E4CBFCC9E8B1B8AF
:102B9000B8E6BEAF00000000020406000A010020F3
:102BA0003A0000203B0000203D0000203E000020B5
:102BB000D1000020D3000020D0000020970000208A
:102BC000F74991F90010091B1DF80100012311AA12
:102BD000202102F051F930E0F14991F90010091B70
:102BE0001DF8010001230DAA202102F045F924E07F
:102BF000EB4991F90010091B1DF80100012309AAF6
:102C0000202102F039F918E0E54991F90010091B7B
:102C10001DF80100012305AA202102F02DF90CE086
:102C2000DF4991F90010091B1DF80100012301AAD9
:102C3000202102F021F900E000BF00BF00E000BF4A
:102C400000BF601E44B2002CBFF6FDAD13E2D448B5
:102C50000078D4490978401A44B201E2D248005DB4
:102C600007287DD2DFE800F0042342618292FC0055
:102C7000CB4991F90010091BCA4A92F90020891A20
:102C80001DF8010001232EAA002102F04BF9C449CE
:102C900091F90010091BC34A92F90020891A1DF806
:102CA0000100012328AA102102F0E6F8D5E1BC4971
:102CB00091F90010091BBB4A92F90020891A1DF8EE
:102CC000010001232EAA002102F02CF9B44991F948
:102CD0000010091BB34A92F90020891A1DF801005F
:102CE000012324AA102102F0C7F8B6E1AC4991F9FA
:102CF0000010091BAB4A92F90020891A1DF8010047
:102D000001232DAA002102F00DF9A54991F9001027
:102D1000091BA44A92F90020891A1DF80100012319
:102D200028AA102102F0A8F897E19D4991F9001016
:102D3000091B9C4A92F90020891A1DF80100012301
:102D40002DAA002102F0EEF8954991F90010091B17
:102D5000944A92F90020891A1DF80100012300E02D
:102D60007AE124AA102102F087F876E18C4991F9E2
:102D70000010091B8B4A92F90020891A1DF80100E6
:102D8000012321AA002102F077F866E1844991F934
:102D90000010091B834A92F90020891A1DF80100CE
:102DA00001232EAA002102F0BDF87D4991F90010FF
:102DB000091B7C4A92F90020891A1DF801000123A1
:102DC0002CAA102102F058F8784890F90000092840
:102DD00077D2DFE800F0870515253546566677007F
:102DE0006F4991F90010091B6E4A92F90020891A67
:102DF0001DF8010001231DAA202102F03DF872E018
:102E0000674991F90010091B664A92F90020891A56
:102E10001DF80100012319AA202102F02DF862E01B
:102E20005F4991F90010091B5E4A92F90020891A46
:102E30001DF80100012315AA202102F01DF852E01F
:102E4000574991F90010091B564A92F90020891A36
:102E50001DF80100012311AA202102F00DF842E023
:102E600043E04F4991F90010091B4E4A92F90020A6
:102E7000891A1DF8010001230DAA202101F0FCFF91
:102E800031E0474991F90010091B464A92F90020A8
:102E9000891A1DF80100012309AA202101F0ECFF85
:102EA00021E03F4991F90010091B3E4A92F90020A8
:102EB000891A1DF80100012305AA202101F0DCFF79
:102EC00011E00FE0364991F90010091B354A92F9DB
:102ED0000020891A1DF80100012301AA202101F018
:102EE000CBFF00E000BF00BFB7E02D4991F9001013
:102EF000091B2C4A92F90020891A1DF801000123B0
:102F00002DAA002102F00EF8254991F90010091BA5
:102F1000244A92F90020891A1DF8010001232CAAE5
:102F2000102101F0A9FF214890F9010009286FD272
:102F3000DFE800F08F0515253E4E5E6F7F001849D3
:102F400091F90010091B174A92F90020891A1DF8FF
:102F5000010001231DAA202101F08EFF7AE0104913
:102F600091F90010091B0F4A92F90020891A1DF8E7
:102F70000100012319AA202101F07EFF6AE008491F
:102F800091F90010091B074A92F90020891A1DF8CF
:102F90000100012315AA202101F06EFF5AE0000074
:102FA000D0000020D2000020D30000209700002095
:102FB000324991F90010091B314A92F90020891A0F
:102FC0001DF80100012311AA202101F055FF41E065
:102FD0002A4991F90010091B294A92F90020891AFF
:102FE0001DF8010001230DAA202101F045FF31E069
:102FF000224991F90010091B214A92F90020891AEF
:103000001DF80100012309AA202101F035FF21E06C
:103010001FE01A4991F90010091B194A92F9002082
:10302000891A1DF80100012305AA202101F024FFBF
:1030300010E0124991F90010091B114A92F9002081
:10304000891A1DF80100012301AA202101F014FFB3
:1030500000E000BF00BF00E000BF00BF601E44B240
:10306000064890F90000064991F90010401AC01E68
:10307000A042FFF6F3AD34B010BD0000D000002038
:10308000D200002000B589B0142218A104A8FDF7D1
:1030900072FC1BA0006803901AA0006802901AA09E
:1030A00000680190002003F015FE012304AA00210E
:1030B000084601F0E1FE012303AA1021022001F0DD
:1030C00031FF012301AA2021022001F0D5FE0123B6
:1030D00002AA1021042001F025FF012301AA2021CA
:1030E000042001F0C9FE09B000BD0000A1B6C7E58B
:1030F000B3FDB6CCC2B7B8E6BEAFA1B700000000C2
:103100004100000042000000C7F8000000B589B08F
:10311000142218A104A8FDF72EFC1BA00068039040
:103120001AA0006802901AA000680190002003F025
:10313000D1FD012304AA0021084601F09DFE0123D0
:1031400003AA1021022001F0EDFE012301AA202193
:10315000022001F091FE012302AA1021042001F0B7
:10316000E1FE012301AA2021042001F085FE09B01F
:1031700000BD0000A1B6C7E5B3FDB6CFC2B7B8E643
:10318000BEAFA1B7000000004100000042000000F7
:10319000C7F800001FB507A30FCB8DE80F00002074
:1031A00003F098FD01236A461021032001F064FE1C
:1031B0001FBD0000D5FDD4DAB3F5CABCBBAFA3A1D7
:1031C000000000001FB50AA30FCB8DE80F00002000
:1031D00003F080FD01236A461021184601F04CFEE1
:1031E0000023074A2821042001F09CFE1FBD000097
:1031F000C7EBCAE4C8EBC3DCC2EBA3BA0000000013
:10320000BF00002000B587B014220DA102A8FDF771
:10321000B2FB10A000680190002003F05BFD0123C9
:1032200002AA0021084601F027FE012301AA10216D
:10323000002001F077FE07F091FD07B000BD00000F
:10324000A1B62020C7F8B6CCC2B7B8E6BEAFA1B7CA
:10325000000000004100000000B587B014220DA15D
:1032600002A8FDF788FB10A000680190002003F081
:1032700031FD012302AA0021084601F0FDFD0123D2
:1032800001AA1021002001F04DFE07F067FD07B0F4
:1032900000BD0000A1B62020C7F8B6CFC2B7B8E67F
:1032A000BEAFA1B7000000004100000000B591B022
:1032B00013A30FCBCDE90F23CDE90D013022144923
:1032C00001A8FDF758FB002003F004FD01230DAA1F
:1032D0001021002001F0D0FD012301AA10210220BD
:1032E00001F0CAFD012305AA1021042001F0C4FD4C
:1032F000012309AA1021062001F0BEFD11B000BD76
:10330000A1B6B8E6BEAFBCC7C2BCA1B70000000002
:103310007002020800B587B014220DA102A8FDF7C3
:103320002AFB10A000680190002003F0D3FC0123C9
:1033300002AA0021084601F09FFD012301AA1021E5
:10334000002001F0EFFD07F009FD07B000BD00000F
:10335000A1B62020C7F8B6CCC2B7B8E6BEAFA1B7B9
:10336000000000004200000000B587B014220DA14B
:1033700002A8FDF700FB10A000680190002003F0F8
:10338000A9FC012302AA0021084601F075FD0123D2
:1033900001AA1021002001F0C5FD07F0DFFC07B0F5
:1033A00000BD0000A1B62020C7F8B6CFC2B7B8E66E
:1033B000BEAFA1B7000000004200000000B595B00C
:1033C00054A30FCBCDE91323CDE9110155A000681B
:1033D000109055A000680F9054A000680E9054A063
:1033E00000680D9053A000680C9030225249684646
:1033F000FDF7C1FA002003F06DFC012311AA102192
:10340000002001F039FD01236A461821022001F055
:1034100033FD4A48007828B9012304AA1821042062
:1034200001F02AFD012308AA1021062001F024FD45
:10343000012310AA1021022001F074FD01230EAA1D
:103440002821022001F06EFD3C48007858B9012384
:103450000FAA1021042001F065FD01230EAA2821E6
:10346000042001F05FFD01230EAA5021062001F087
:1034700059FD33480078012806D101230DAA3021D7
:10348000022001F0F9FC05E001230CAA3021022002
:1034900001F0F2FC2B48007800EB40002A4901EBD8
:1034A000400201235021022001F03CFD2348007816
:1034B000E0B926480078012806D101230DAA302161
:1034C000042001F0D9FC05E001230CAA30210420DE
:1034D00001F0D2FC1E48007800EB40001A4901EBD5
:1034E000400201235021042001F01CFD19480078FE
:1034F000012806D101230DAA6021062001F0BCFCA1
:1035000005E001230CAA6021062001F0B5FC15B0EE
:1035100000BD0000A1B6B2BCB7C0B2CECAFDA1B713
:103520000000000041000000420000003A000000DE
:10353000BFAA0000B9D800004002020859000020CC
:1035400049000020ED0000205F0000204A0000201C
:10355000EE0000203F00002000B587B01AA30FCB7B
:10356000CDE90523CDE903011BA0006802901BA053
:10357000006801901AA000680090002003F0AAFBE8
:10358000012303AA1021002001F076FC012302AAE6
:103590001021022001F0C6FC01236A4620210220EE
:1035A00001F06AFC0F48007858B9012301AA1021E4
:1035B000042001F0B7FC01236A462021042001F019
:1035C0005BFC07B000BD0000A1B6B6CCC2B7B8E640
:1035D000BEAFA1B7000000004100000042000000A3
:1035E000C7F800005900002000B587B01AA30FCB20
:1035F000CDE90523CDE903011BA0006802901BA0C3
:10360000006801901AA000680090002003F062FB9F
:10361000012303AA1021002001F02EFC012302AA9D
:103620001021022001F07EFC01236A4620210220A5
:1036300001F022FC0F48007858B9012301AA10219B
:10364000042001F06FFC01236A462021042001F0D0
:1036500013FC07B000BD0000A1B6B6CFCFDFB8E6BF
:10366000BEAFA1B700000000410000004200000012
:10367000C7F800005900002000B58FB014222FA118
:103680000AA8FDF778F932A00068099031A0006817
:10369000089031A103C9CDE9060131A0D0E900129B
:1036A0008068CDE90312059030A103C9CDE901017D
:1036B000002003F00FFB01230AAA0021084601F0B5
:1036C000DBFB2C480078032818DD012308AA102111
:1036D000022001F027FC012306AA3021022001F07C
:1036E000CBFB012303AA1021042001F0C5FB012319
:1036F00001AA1021062001F0BFFB1DE0012309AA49
:103700001021022001F00EFC012306AA3021022024
:1037100001F0B2FB012308AA1021042001F002FCF1
:10372000012306AA3021042001F0A6FB012303AAED
:103730001021062001F0A0FB0FB000BDA1B6B2E938
:10374000D1AFCDF8C2E7B2CECAFDA1B700000000EC
:103750004D41430049500000B5D8D6B700000000E5
:10376000D7D3CDF8D1DAC2EB00000000CDF8B9D83C
:1037700000000000A50000201FB508A30FCB8DE8B6
:103780000F00002003F0A6FA01236A461021002052
:1037900001F072FB07F0E2FA1FBD0000A1B6B7C04E
:1037A000B2F0B8E6BEAFA1B70000000000B587B028
:1037B00011A207CA04AB07C3124890E80E00C06804
:1037C0008DE80E00039010220F496846FDF78EF831
:1037D00000208DF80F0003F07DFA012304AA2021B8
:1037E000002001F049FB01236A460021042001F07A
:1037F00099FB07B000BD0000A1B6CDF8B9D8A1B7BC
:1038000000000000200302080B1D002000B589B055
:1038100018A090E80E00C068CDE906230591089035
:1038200018A000680490184BD3E901211868DB68E0
:10383000CDE90213CDE90002102214496846FDF7D4
:1038400055F800208DF80F0003F044FA012305AA73
:103850001021002001F010FB012304AA20210020E8
:1038600001F060FB01236A460021042001F05AFBAD
:1038700009B000BDA1B620202020B5D8D6B7A1B789
:10388000000000004950000000030208EB1C00206B
:1038900000B58BB01FA30FCBCDE90923CDE90701FC
:1038A00020A000680690204A07CA03AB07C31E4A3F
:1038B0000C3207CA8DE8070003F03AFB08221B49C7
:1038C00003A8FDF7D3F80822184909316846FDF727
:1038D000CDF800208DF814008DF8080003F0FAF9F7
:1038E000012307AA1021002001F0C6FA012306AA2D
:1038F0002021002001F016FB012303AA2021032030
:1039000001F010FB01236A462021052001F00AFB8B
:103910000BB000BDA1B620202020B5D8D6B7A1B7E6
:10392000000000004D414300E8020208D91C0020BD
:1039300000B589B014A0D0E901320168C068CDE9B2
:10394000063205910890144BD3E90012D3E9020323
:10395000CDE90303CDE901121022104901A8FCF7BB
:10396000C5FF00208DF8130003F0B4F9012305AA68
:103970001021002001F080FA012301AA0021042077
:1039800001F0D0FA09B000BDA1B6D7D3CDF8D1DA95
:10399000C2EBA1B70000000010030208FB1C0020CE
:1039A00000B589B011A0D0E901320168C068CDE945
:1039B000063205910890114BD3E90012D3E90203B6
:1039C000CDE90303CDE90112002003F083F90123BF
:1039D00005AA1021002001F04FFA012301AA1021AD
:1039E000022001F049FA09B000BD0000A1B6CFB530
:1039F000CDB3B2CECAFDA1B700000000300202086C
:103A000000B593B025A207CA10AB07C340222649D0
:103A10006846FCF7B0FF002003F05CF9012310AA10
:103A20002021002001F028FA20480078032821DD19
:103A30001E480078C01E694601EB001201231021C8
:103A4000022001F019FA19480078801E694601EB3E
:103A5000001201231021042001F00EFA134800780F
:103A6000401E694601EB001201231021062001F0DF
:103A700003FA11E001236A461021022001F0FCF94B
:103A8000012304AA1021042001F0F6F9012308AA59
:103A90001021062001F0F0F913B000BDA1B6B2E983
:103AA000D1AFA1B70000000050010208A50000201E
:103AB00000B58BB00FA207CA08AB07C3202210497C
:103AC0006846FCF758FF002003F004F9012308AA18
:103AD0002021002001F0D0F901236A4610210220A4
:103AE00001F0CAF9012304AA1021042001F0C4F94D
:103AF0000BB000BDA1B6B2CBB5A5A1B700000000C8
:103B0000B000020800B587B00DA207CA04AB07C316
:103B10000EA090E80E00C0688DE80E000390002013
:103B200003F0D8F8012304AA2021022001F0A4F90F
:103B300001236A461021042001F09EF907B000BD60
:103B4000C3DCC2EBB4EDCEF300000000C7EBD6D867
:103B5000D0C2CAE4C8EBA3A10000000000B599B030
:103B6000142225A114A8FCF706FF142227A10FA8F0
:103B7000FCF701FF14222AA10AA8FCF7FCFE14217D
:103B800005A8FCF74CFF14222AA16846FCF7F3FEB7
:103B90002D4905A8FCF710FE00208DF8240003F045
:103BA00099F82A480078C00958B92948007808B11E
:103BB00014A800E00FA8024601230021084601F0E6
:103BC000B1F901230AAA0021022001F055F90123CD
:103BD00005AA0021042001F0A5F901236A4600216D
:103BE000062001F049F901231A4A5021062001F06C
:103BF00099F919B000BD00002020202058422D3135
:103C000030305744202020200000000020202020B9
:103C100058422D3130305753202020200000000022
:103C2000C2F6B3E5B5E7D7D3CEA7C0B8D6F7BBFA8F
:103C300000000000C9E8B1B8CEC2B6C8A3BA2020BF
:103C40002020A1E600000000A01C00200A010020A6
:103C5000590000201C00002000B58FB053A0006860
:103C60000E9053A000680D9052A207CA0AAB07C37A
:103C700000200990089052A103C9CDE9060152A283
:103C800007CA03AB07C353A00068029052A00068A4
:103C90000190002003F01EF801230EAA102100203D
:103CA00001F0EAF801230DAA2021002001F03AF9E1
:103CB00001230AAA3021002001F0DEF8012306AA20
:103CC0001021022001F0D8F8012302AA402102208D
:103CD00001F028F9012303AA1021042001F0CCF8F7
:103CE000012302AA5021042001F01CF9012301AA9A
:103CF0007021042001F0C0F838480078C0B138487D
:103D0000027838A109A8FCF75BFB3848028838A183
:103D100008A8FCF755FB012309AA5021022001F055
:103D200001F9012308AA5821042001F0FBF83AE028
:103D300031480078012802D0022832D118E02F48FB
:103D4000027828A109A8FCF73BFB2848028828A193
:103D500008A8FCF735FB002309AA5021022001F036
:103D6000E1F8012308AA5821042001F0DBF819E04A
:103D70001B4802781BA109A8FCF722FB20480288F7
:103D80001BA108A8FCF71CFB012309AA5021022053
:103D900001F0C8F8002308AA5821042001F0C2F855
:103DA00000E000BF00BF0FB000BD0000A1B60000E2
:103DB00041000000B7C0C7F8B2CECAFDA1B70000ED
:103DC000B7C0C7F8BAC50000B8E6BEAFD1D3CAB114
:103DD000000000003A000000C3EB0000A400002037
:103DE000340000202530326400000000360000203E
:103DF0002530336400000000A5000020A900002049
:103E0000AC00002000B58FB053A000680E9053A006
:103E100000680D9052A207CA0AAB07C300200990A0
:103E2000089052A103C9CDE9060152A207CA03AB0B
:103E300007C353A00068029052A0006801900020C0
:103E400002F048FF01230EAA1021002001F014F80F
:103E500001230DAA2021002001F064F801230AAA01
:103E60003021002001F008F8012306AA10210220C9
:103E700001F002F8012302AA4021022001F052F8C9
:103E8000012303AA1021042000F0F6FF012302AA57
:103E90005021042001F046F8012301AA70210420DA
:103EA00000F0EAFF38480078C0B13848427838A1BD
:103EB00009A8FCF785FA3848428838A108A8FCF719
:103EC0007FFA012309AA5021022001F02BF80123D7
:103ED00008AA5821042001F025F83AE0314800787A
:103EE000012802D0022832D118E02F48427828A1B8
:103EF00009A8FCF765FA2848428828A108A8FCF719
:103F00005FFA002309AA5021022001F00BF80123D7
:103F100008AA5821042001F005F819E01B4842784E
:103F20001BA109A8FCF74CFA204842881BA108A84D
:103F3000FCF746FA012309AA5021022000F0F2FF03
:103F4000002308AA5821042000F0ECFF00E000BF85
:103F500000BF0FB000BD0000A1B60000420000008D
:103F6000B7C0C7F8B2CECAFDA1B70000B7C0C7F846
:103F7000BAC50000B8E6BEAFD1D3CAB10000000098
:103F80003A000000C3EB0000A40000203400002031
:103F900025303264000000003600002025303364F4
:103FA00000000000A5000020A9000020AC000020B7
:103FB00000B591B026A30FCBCDE90F23CDE90D01BC
:103FC0003022274901A8FCF7D6FC002002F082FE2F
:103FD00001230DAA1021002000F04EFF2148007897
:103FE000032821DD1F480078C01E01A901EB001243
:103FF00001231021022000F03FFF1A480078801EA4
:1040000001A901EB001201231021042000F034FF6C
:1040100014480078401E01A901EB00120123102171
:10402000062000F029FF11E0012301AA102102203F
:1040300000F022FF012305AA1021042000F01CFF3C
:10404000012309AA1021062000F016FF11B000BDBF
:10405000A1B6C7E5B3FDBCC7C2BCA1B70000000054
:10406000E0010208A500002070B586B0FBA191E830
:104070000D00C96802AC0DC405910026002400257E
:10408000002002F027FE012302AA1021002000F0E8
:10409000F3FEF6480078002868D000BF2EE0002428
:1040A00028E0F348805D04EB0411F24A515C884239
:1040B0001ED1F01CC5B2082D0DDA0120009004EBD2
:1040C000041011460844431CE806020E0221012098
:1040D00000F090FE0CE00120009004EB0410E54994
:1040E0000844431CE806020E0221084600F082FE46
:1040F000601CC4B2272CD4D3701CC6B20A2ECEDBEF
:10410000002630E000242AE0D94906F10B00085CC3
:1041100004EB0411D74A515C88421ED1301DC5B250
:10412000082D0DDA0120009004EB0410114608441C
:10413000431CE806020E0421012000F05BFE0CE0A7
:104140000120009004EB0410CA490844431CE8060F
:10415000020E0421022000F04DFE601CC4B2272C88
:10416000D2D3701CC6B2082ECCDBECE1C24800787A
:10417000012802D002287CD1D7E000269CE0002450
:1041800095E0BE48805D04EB0411BA4A515C884258
:1041900018D1F01CC5B2082D31DAB94800780128D1
:1041A0001FD1052D01D0062D0DD10020009004EB6C
:1041B0000410B0490844431CE806020E0221012005
:1041C00000F018FE71E00120009004EB0410A949F2
:1041D0000844431CE806020E0221012000F00AFEFA
:1041E00063E00120009004EB0410A2490844431C42
:1041F000E806020E0221012000F0FCFD55E0A04877
:10420000007802281FD1082D01D0092D0DD10020E2
:10421000009004EB041097490844431CE806020E82
:104220000221084600F0E6FD3FE00120009004EB8B
:10423000041090490844431CE806020E0221084677
:1042400000F0D8FD31E08E480078032820D10B2DF6
:1042500001D00C2D0ED10020009004EB04108549F4
:104260000844431CE806020E0221084600F0C2FD85
:104270001BE066E10120009004EB04107D49084436
:10428000431CE806020E0221084600F0B3FD0CE0D4
:104290000120009004EB041076490844431CE80612
:1042A000020E0221084600F0A5FD601CC4B2272CB6
:1042B000FFF467AF701CC6B20A2EFFF660AF00268F
:1042C00030E000242AE06D4906F10B00085C04EBA5
:1042D0000411684A515C88421ED1301DC5B2082DB8
:1042E0000DDA0120009004EB041011460844431C31
:1042F000E806020E0421012000F07CFD0CE0012004
:10430000009004EB04105B490844431CE806020ECD
:104310000421022000F06EFD601CC4B2272CD2D311
:10432000701CC6B2082ECCDB0CE100262EE0002467
:1043300028E05248805D04EB04114E4A515C8842EB
:104340001ED1F01CC5B2082D0DDA0120009004EB3F
:10435000041011460844431CE806020E0221012005
:1043600000F048FD0CE00120009004EB04104149EE
:104370000844431CE806020E0221084600F03AFDFC
:10438000601CC4B2272CD4D3701CC6B20A2ECEDB5C
:104390000026D2E00024CBE0384906F10B00085C8F
:1043A00004EB0411334A515C884218D1301DC5B268
:1043B000082D68DA3248007801281FD1042D01D079
:1043C000052D0DD10020009004EB0410294908446C
:1043D000431CE806020E0421012000F00BFDA5E0BD
:1043E0000120009004EB041022490844431CE80615
:1043F000020E0421012000F0FDFC97E02048007827
:1044000002281DD1072D0DD10020009004EB0410CF
:1044100018490844431CE806020E0421012000F05C
:10442000E9FC83E00120009004EB041011490844EA
:10443000431CE806020E0421012000F0DBFC75E0BD
:104440000120009004EB04100A490844431CE806CC
:10445000020E0421012000F0CDFC67E0A1B6C8D512
:10446000C6DACAB1BCE4A1B700000000A400002075
:10447000A01C00200CFA0108A5000020C61C00208A
:10448000A6000020FFE73148007802281DD1082D42
:104490000DD10020009004EB04102D490844431C6A
:1044A000E806020E0421022000F0A4FC3EE00120F8
:1044B000009004EB041026490844431CE806020E51
:1044C0000421022000F096FC30E020480078032808
:1044D0001FD10A2D01D00B2D0DD10020009004EB2F
:1044E00004101B490844431CE806020E0421022064
:1044F00000F080FC1AE00120009004EB0410144945
:104500000844431CE806020E0421022000F072FC5D
:104510000CE00120009004EB04100D490844431CFA
:10452000E806020E0421022000F064FC601CC4B204
:10453000272CFFF431AF701CC6B2082EFFF62AAF4D
:1045400000E000BF00BF06B070BD0000A600002064
:104550000CFA010800B58FB014222FA10AA8FCF7AD
:104560000AFA32A00068099031A00068089031A1D1
:1045700003C9CDE9060131A0D0E900128068CDE978
:104580000312059030A103C9CDE90101002002F01A
:10459000A1FB01230AAA0021084600F06DFC2C486B
:1045A0000078032818DD012308AA1021022000F05A
:1045B000B9FC012306AA3021022000F05DFC012392
:1045C00003AA1021042000F057FC012301AA1021A6
:1045D000062000F051FC1DE0012309AA1021022051
:1045E00000F0A0FC012306AA3021022000F044FCC8
:1045F000012308AA1021042000F094FC012306AA3C
:104600003021042000F038FC012303AA10210620E9
:1046100000F032FC0FB000BDA1B6C9E8D6C3CDF89A
:10462000C2E7B2CECAFDA1B7000000004D41430071
:1046300049500000B5D8D6B700000000D7D3CDF858
:10464000D1DAC2EB00000000CDF8B9D800000000BC
:10465000A500002000B587B02FA207CA04AB07C38E
:104660003049D1E90023D1E90201CDE90023CDE9A8
:10467000020110222C496846FCF738F900208DF819
:104680000F0002F027FB012304AA2021002000F0E4
:10469000F3FB264890F90000102839D2DFE800F03B
:1046A0003808090A3814151638202122382C2D2EE6
:1046B00000BF00BF1D480078401EC3B26A460021FB
:1046C000042000F077FC24E000BF00BF174800780A
:1046D000401EC3B26A460021042000F06BFC18E0C3
:1046E00000BF00BF11480078401EC3B26A460021D7
:1046F000042000F05FFC0CE000BF00BF0B48007816
:10470000401EC3B26A460021042000F053FC00E0C2
:1047100000BF00BF07B000BDA1B6CDF8B9D8A1B7A2
:1047200000000000D80202080B1D0020A600002097
:1047300000B589B032A30FCBCDE90723CDE9050140
:1047400033A000680490334B0FCB8DE80F0010228C
:1047500031496846FCF7CAF800208DF80F0002F0D6
:10476000B9FA012305AA1021002000F085FB0123DE
:1047700004AA2021002000F0D5FB284890F9000071
:10478000102839D2DFE800F03808090A3814151665
:1047900038202122382C2D2E00BF00BF1F48007862
:1047A000401EC3B26A460021042000F003FC24E04E
:1047B00000BF00BF19480078401EC3B26A460021FE
:1047C000042000F0F7FB18E000BF00BF134800789A
:1047D000401EC3B26A460021042000F0EBFB0CE04F
:1047E00000BF00BF0D480078401EC3B26A460021DA
:1047F000042000F0DFFB00E000BF00BF09B000BDF7
:10480000A1B620202020B5D8D6B7A1B7000000005F
:1048100049500000B8020208EB1C0020A60000204E
:1048200000B58FB026A30FCBCDE90D23CDE90B0149
:1048300027A000680A902748D0E900128068CDE9D7
:1048400007120990234A0C3207CA04AB07C322A2FD
:1048500007CA01AB07C302F06BFB0822214907A876
:10486000FCF704F908221F49093104A8FCF7FEF8F7
:1048700000208DF824008DF8180002F02BFA012397
:104880000BAA1021002000F0F7FA01230AAA202128
:10489000002000F047FB012307AA2021022000F09E
:1048A00041FB012304AA2021042000F03BFB01234B
:1048B00001AA2021062000F0DFFA0FB000BD0000A1
:1048C000A1B620202020B5D8D6B7A1B7000000009F
:1048D0004D414300A0020208A3A8D6BBB6C1A3A9BC
:1048E00000000000D91C002000B597B025A207CA1F
:1048F00014AB07C3502226496846FCF73CF8002059
:1049000002F0E8F9012314AA2021002000F0B4FAF3
:1049100020480078032821DD1E480078C01E694623
:1049200001EB001201231021022000F0A5FA194822
:104930000078801E694601EB00120123102104203B
:1049400000F09AFA13480078401E694601EB001205
:1049500001231021062000F08FFA11E001236A469E
:104960001021022000F088FA012304AA102104205B
:1049700000F082FA012308AA1021062000F07CFA38
:1049800017B000BDA1B6C9E8B6A8A1B700000000E5
:1049900000010208A500002000B589B032A1D1E9CC
:1049A0000023D1E90201CDE90523CDE90701324B0E
:1049B000D3E90020D3E90213CDE90313CDE90120A7
:1049C00010222E4901A8FBF791FF00208DF813005B
:1049D00002F080F9012305AA1021002000F04CFA12
:1049E000274890F90000102839D2DFE800F0380895
:1049F000090A3814151638202122382C2D2E00BF14
:104A000000BF1F480078401EC3B201AA0021042045
:104A100000F0D0FA24E000BF00BF19480078401E23
:104A2000C3B201AA0021042000F0C4FA18E000BFBC
:104A300000BF13480078401EC3B201AA0021042021
:104A400000F0B8FA0CE000BF00BF0D480078401E2F
:104A5000C3B201AA0021042000F0ACFA00E000BFBC
:104A600000BF09B000BD0000A1B6D7D3CDF8D1DAA0
:104A7000C2EBA1B700000000C8020208FB1C002026
:104A8000A600002000B58DB023A30FCBCDE90B23EA
:104A9000CDE909012022244901A8FBF76CFF002081
:104AA00002F018F9012309AA1021002000F0E4F90E
:104AB0001E480078032821DD1C480078C01E01A98B
:104AC00001EB001201231021022000F0D5F9174854
:104AD0000078801E01A901EB00120123102104209F
:104AE00000F0CAF911480078401E01A901EB00123C
:104AF00001231021062000F0BFF90BE0012301AAD9
:104B00001021022000F0B8F9012305AA1021042089
:104B100000F0B2F90DB000BDA1B6CFB5CDB3B2CEA5
:104B2000CAFDA1B700000000C0010208A5000020D6
:104B300000B58FB025A207CA0CAB07C330222649A7
:104B40006846FBF718FF002002F0C4F801230CAA06
:104B50002021002000F090F920480078032821DD72
:104B60001E480078C01E694601EB00120123102187
:104B7000022000F081F919480078801E694601EB97
:104B8000001201231021042000F076F91348007868
:104B9000401E694601EB001201231021062000F09F
:104BA0006BF911E001236A461021022000F064F93C
:104BB000012304AA1021042000F05EF9012308AAB1
:104BC0001021062000F058F90FB000BDA1B6B2CBFD
:104BD000B5A5A1B70000000080000208A5000020D4
:104BE00000B589B014A30FCBCDE90723CDE90501AA
:104BF0001548007810B101280AD104E013A101A8DA
:104C0000FBF7DAFD05E014A101A8FBF7D5FD00E0F4
:104C100000BF00BF002002F05DF8012305AA1021AB
:104C2000002000F029F9002301AA2021042000F02F
:104C300023F909B000BD0000A1B6D3C3BBA7B5C717
:104C4000C2BCA1B700000000A8000020B3ACBCB6F5
:104C5000D3C3BBA700000000C6D5CDA8D3C3BBA754
:104C60000000000000B591B027A30FCBCDE90F23C2
:104C7000CDE90D013022284901A8FBF77CFE002078
:104C800002F028F801230DAA1021002000F0F4F80A
:104C9000012301AA0021022000F0EEF8012305AA59
:104CA0000021042000F0E8F8012309AA00210620D1
:104CB00000F0E2F80123194A5021022000F032F9F5
:104CC0000123174A5021042000F02CF915480078E0
:104CD00008B915A100E015A101A80988ADF82E10AA
:104CE0001348007808B913A100E013A101A80988AE
:104CF000ADF8301001230DF12E025021062000F0F6
:104D0000BBF811B000BD0000A1B6B0E6B1BED0C581
:104D1000CFA2A1B7000000009001020812010020FC
:104D20001601002059000020CBAB0000B5A5000003
:104D300058000020CBC40000C1F9000000B589B0C4
:104D400020220A4901A8FBF716FE002001F0C2FF4D
:104D5000012301AA2021022000F08EF8012305AAD8
:104D60002021042000F088F809B000BD10020208DC
:104D70002DE9F04781460E4617461D46DDF8208096
:104D8000484601F0C3FF304601F05AFF384601F0B3
:104D900045FF00240DE0B8F1000F03D0285D01F0BD
:104DA00077FF04E0295DC943C8B201F071FF601CC0
:104DB000C4B2102CEFDB711CC8B201F041FF3846C1
:104DC00001F02CFF002411E0B8F1000F05D004F130
:104DD0001001685C01F05CFF06E004F11001695C01
:104DE000C943C8B201F054FF601CC4B2102CEBDB05
:104DF000BDE8F0872DE9F04781460E4617461D466F
:104E0000DDF82080484601F081FF304601F018FFB0
:104E1000384601F003FF00240DE0B8F1000F03D085
:104E2000285D01F035FF04E0295DC943C8B201F0F7
:104E30002FFF601CC4B2082CEFDB711CC8B201F05C
:104E4000FFFE384601F0EAFE002411E0B8F1000F41
:104E500005D004F10801685C01F01AFF06E004F1D6
:104E60000801695CC943C8B201F012FF601CC4B2FA
:104E7000082CEBDBBDE8F0872DE9F84F81460E46A4
:104E8000174698463846FBF7BBFCC0F3470A002498
:104E90003FE0002537E017F8140005EB05111F4A25
:104EA00012F8111088422CD107EB4400407805EB32
:104EB000051102EB41014978884222D106EB04102A
:104EC00040280FDA05EB0510114601EB4000831C6A
:104ED00006EB0410C2B249460120CDF80080FFF76E
:104EE00047FF0EE005EB05100C4901EB4000831C69
:104EF00006EB0410C2B249460220CDF80080FFF74D
:104F000037FF681CC5B2064800788542C3DB601CC9
:104F1000C4B25445BDDBBDE8F88F0000D6DA010805
:104F2000A10000202DE9F84F81460E46174698460D
:104F30003846FBF765FC00F0FF0A002431E000254D
:104F400029E0385D05EB0511184A515C884220D1F3
:104F500006EBC40040280EDA05EB051011460844A4
:104F6000431C06EBC400C2B249460120CDF80080C4
:104F7000FFF740FF0DE005EB05100C490844431C0A
:104F800006EBC400C2B249460220CDF80080FFF70C
:104F900031FF681CC5B2064800788542D1DB601C31
:104FA000C4B25445CBDBBDE8F88F000034F40108EF
:104FB000A20000202DE9F84F81460E46174698467C
:104FC0003846FBF71DFC00F0FF0A002453E00025E3
:104FD0004BE0385D05EB0511294A515C884242D10E
:104FE00006EBC40040281FDA44450ED10020009093
:104FF00005EB051011460844431C06EBC400C2B281
:1050000049460120FFF7F6FE2DE00120009005EB58
:1050100005101B490844431C06EBC400C2B24946B4
:105020000120FFF7E7FE1EE044450ED1002000906E
:1050300005EB051012490844431C06EBC400C2B23C
:1050400049460220FFF7D6FE0DE00120009005EB57
:1050500005100B490844431C06EBC400C2B2494684
:105060000220FFF7C7FE681CC5B2064800788542DB
:10507000AFDB601CC4B25445A9DBBDE8F88F00006B
:1050800034F40108A200002008B53D208DF800008E
:1050900000208DF801008DF8020001208DF803003A
:1050A000684601F069FF08BD01494861704700008A
:1050B0000090024029B1064AD2690243044BDA61EA
:1050C00004E0034AD2698243014BDA617047000071
:1050D0000090024030B10749896941F00201054A58
:1050E000916105E00349896921F00201014A91615A
:1050F000704700000090024070B50C461346002136
:10510000124D286000BF18E000EB41124FF000453F
:10511000156044F2F4555560C1EBC11505EB45052A
:1051200004EB850595605D1E8D4204D900EB4115A9
:105130002035D56000E0D060491C9942E4D3044D8D
:10514000E860044D044E356070BD00003001002061
:1051500000900240C41F00203401002030B10749F4
:10516000896941F40051054A916105E00349896963
:1051700021F40051014A9161704700000090024003
:1051800030B50C46134600210F4D286000BF15E0D6
:1051900000EB41124FF480151560C1EBC11505EB12
:1051A000450504EB850595605D1E8D4204D900EB35
:1051B00041152035D56000E0D060491C9942E7D305
:1051C000024D286130BD00002C01002000900240FB
:1051D00002680A430260704710B50848006840F052
:1051E000007006490860642000F00AF8034800686F
:1051F00020F000700149086010BD00001038024026
:1052000001B581B0002000900198009002E0009864
:10521000401E009000980028F9D10CBD0348806919
:1052200040F48010014988617047000000900240FE
:1052300001480068806870472C010020014608681A
:10524000C0F30D40704700B502460023106800F01F
:10525000004058B9106800F4004038B9106800F4F4
:10526000807018B11046FFF7E9FF0346184600BDED
:1052700000200449096801F0010109B1012000E0A2
:10528000002070470090024010B50121002000F07E
:105290004FFA00F0240008B1012010BD0020FCE707
:1052A00010B501F067FF01E00BF0C4F80748006893
:1052B000FFF7C9FF0028F7D14020FFF7F5FE4FF4B4
:1052C0008030FFF7F1FE01F067FF10BD30010020D4
:1052D0002DE9FC4104460F464FF0000800BF0020B6
:1052E000019000BF00909548056925F01C05944980
:1052F000D4F8BC0000FB01F69248864205D39248E0
:10530000864202D245F008051AE08F48864205D34E
:105310008E48864202D245F00C0511E08B48864249
:1053200003D38B48864200D20AE08948864205D3DF
:105330008848864202D245F0040501E045F0100598
:105340007E4805614FF400420021384600F02EFBF4
:1053500010B90020BDE8FC817F48FFF751FF2068AD
:1053600000284ED000BF0098401C00900121384614
:1053700000F0DEF900F0040018B97849009888427E
:10538000F1D376490098884201D10020E2E700205D
:1053900000904FF480520021384600F007FB08B916
:1053A0000020D7E700BF0098401C0090012138463C
:1053B00000F0BEF900F0200018B968490098884252
:1053C000F1D366490098884201D10020C2E700204D
:1053D00000901F21384600F0ABF9804608F010001D
:1053E00018B14FF40060206201E00020206208F054
:1053F000040010B10020606116E04FF4804060614D
:1054000012E0206AC0F3CF006169C1F34F0140EAA6
:1054100001020021384600F0C9FA08B9002099E7D6
:105420006FF07F40FFF7ECFE444805684C480540AC
:10543000D4E901010843E16808432169084361692F
:105440000843A1690843E1690843216A0843616A86
:105450000843A16A0843E16A0843216B0843616B72
:105460000843054335480560D4E90E010843216C23
:105470000843616C0843A16C0843E16C0843216D4B
:105480000843616D08432D494860A06D8860E06D58
:10549000C860084685694FF641700540B4F8601051
:1054A000606E40EA0140A16E0843E16E0843216F3F
:1054B0000843616F0843054320488561D4E91E0114
:1054C00008431E49C8612748856927480540D4E933
:1054D00020010843D4F888100843D4F88C100843FE
:1054E000D4F890100843D4F894100843D4F89810D6
:1054F0000843D4F89C100843D4F8A010084305438F
:1055000018488561D4E929010843D4F8AC10084350
:10551000D4F8B0100843D4F8B41040EA8100D4F8AD
:10552000B810084340F400000E49086008460068BF
:1055300040F08000086001200CE70000008002407D
:1055400040420F00002D3101C00E16020087930368
:1055500000E1F50580D1F008FFFF0F00FFFF040018
:105560000F8120FF00900240233FDEF810B50B7939
:105570004C7943EA0422094B03441A64CB781B0696
:105580008C7843EA04434C7843EA04230C7843EADA
:105590000402024B03445A6410BD00000080024024
:1055A00010B5002401214FF0606003F01BFFFFF7EE
:1055B00013FE00F053F900BFFFF75AFE0128FBD09D
:1055C0001D4800F065F901201B4908600020C861F2
:1055D0004FF4007088620020C86288634864C86421
:1055E00008654865C1F880004FF00070C1F884007C
:1055F0000011C1F88C000020C1F89400C1F8980097
:105600000420C1F8A000C005C1F8A4004012C1F8F0
:10561000A8008001C1F8AC004012C1F8B000400001
:10562000C1F8B800A820C1F8BC0001210348FFF769
:1056300041FD204610BD0000E01B0020400001009D
:1056400030B10749096841F00401054A116005E0DD
:105650000349096821F00401014A11607047000004
:105660000080024030B10749096841F00801054A4D
:10567000116005E00349096821F00801014A116041
:10568000704700000080024010B50A480168002001
:105690000FF01EFC0848016800200FF019FC0748B5
:1056A000016800200FF014FC0548016800200FF08D
:1056B0000FFC10BD24000020280000202C0000203A
:1056C0003000002010B5A02100200FF01BFC144971
:1056D0000860A02100200FF015FC1249086041F677
:1056E000C45100200FF00EFC0F49086041F6C45170
:1056F00000200FF007FC0D4908600948006840B120
:105700000848006828B10848006810B108460068D9
:1057100018B9FFF7B9FF012010BD0020FCE7000019
:1057200024000020280000202C0000203000002051
:1057300018B502460B46002100200090154801696B
:1057400001F01C014FF4784000EAC22001434FF4FD
:10575000F86000EA8310014321F0020141F00101E9
:105760000C48016100BF0098401C00900948016985
:1057700001F0010018B1084C0098A042F3D3064C88
:105780000098A04201D1002018BD0248406980B2B3
:10579000FAE7000000800240FFFF040010B500217E
:1057A0000548FFF795FDC4B2012C03D10121034840
:1057B000FFF780FC204610BDE01B002040000100E8
:1057C0001EB500210022009201920292214A126825
:1057D000126802F0004282B1002200921E4A526911
:1057E00002F0800222B180221B4B5A6100229A6093
:1057F0009DE81C0080E81C001EBD164A1268126855
:1058000002F40042B2B9134A1268126802F48072BC
:1058100082B1104A1268126802F4007252B10D4A45
:1058200012681268C2F30D42111F0A4A1268926888
:10583000019200E000210091064A12680292054A96
:105840001268D268034B1A609DE81C0080E81C00B7
:1058500000BFD1E7300100200090024003480068FB
:1058600040F00100014908607047000000900240CC
:1058700000B50120FFF7F6FEFFF7D0FC0120FFF78F
:10588000DFFE0120FFF76AFC0120FFF723FC00BDCB
:1058900001210160002141608160C16001614FF41C
:1058A0008041416100218161C1614FF40061016269
:1058B000002141628162C162016341638163C1630E
:1058C000402101642021416400218164C16401659B
:1058D00041658165C165016680214166002181665F
:1058E000C166016741678167C1674FF08061C0F899
:1058F00080104910C0F884100021C0F888104FF4BF
:105900000011C0F88C100021C0F89010C0F894105D
:10591000C0F89810C0F89C10C0F8A0104FF00071AB
:10592000C0F8A4104912C0F8A8108901C0F8AC1042
:105930004912C0F8B0100021C0F8B410C0F8B81077
:1059400070470000014617480068006800F00040FA
:1059500008B100207047C1F30C00124A1268506071
:1059600010480068006840F040500E4A126810600D
:105970000C480068006840F000400A4A1268106055
:105980000948406900F0040020B10420064A506133
:105990000020506003480068C068024A106001207F
:1059A000D8E700002C0100200090024038B50346E3
:1059B0000C460021002000901448016901F01C01F0
:1059C0004FF4784000EAC32001434FF4F86000EA46
:1059D0008410014341F0020141F001010B48426192
:1059E000016100BF0098401C00900848016901F067
:1059F000010018B1064D0098A842F3D3044D009859
:105A0000A84201D1002038BD0120FCE700800240FF
:105A1000FFFF040010B5012017F0C4FF4FF48050C1
:105A200000F040F810BD10B5002017F0BBFF4FF498
:105A3000807000F037F810BD0EB50821002004F08A
:105A400041FA0C21002004F03DFA4FF488500190F7
:105A500000208DF8080010208DF8090001208DF835
:105A60000A0001A800F024F817208DF80000022099
:105A70008DF8010001208DF802008DF803006846C2
:105A800001F07AFA28208DF8000002208DF801003C
:105A900001208DF802008DF80300684601F06CFAD1
:105AA0000EBD00000149086070470000143C014031
:105AB000002123498279002A3AD00A4612680368F5
:105AC0009A430B461A600A1D126803689A430B1D1D
:105AD0001A60027911440A6803681A430A60184A76
:105AE0000832126803689A43154B08331A601A1D6E
:105AF000126803689A43124B0C331A604279102AD9
:105B00000ED11A1F126803681A430D4B08331A602E
:105B10001A1D126803681A43094B0C331A600DE012
:105B20000749427911440A6803681A430A6005E08C
:105B3000027911440A6803689A430A6070470000BA
:105B4000003C014010B50C21062000F011F80221A4
:105B5000202000F00DF80421262000F009F8012192
:105B6000222000F005F80221242000F001F810BDE9
:105B700070B504460D4605E0FF212046FBF74CFCBE
:105B8000601C84B22800A5F101018DB2F4D170BD72
:105B900010B5FFF779FB10490870104800780978B4
:105BA000884217D00C48007868B10D48007830B9A9
:105BB000FFF7F4FD0A49087008F00CFE06E00948FA
:105BC00010F02CFB02E0074810F013FB02480078AD
:105BD0000249087010BD00008A01002089010020E0
:105BE00088010020802B002038B50020009000257F
:105BF0000024834890F82D00C0F3001000287DD0C9
:105C000080480068012831D1020300210846FFF7CF
:105C1000CDFE00BF0098401C009001210020FFF73E
:105C200087FD00F0200018B9774900988842F1D329
:105C300000BF002000901F21FFF77AFD054605F008
:105C4000100020B14FF400606E49086202E00020AD
:105C50006C49086205F0040018B1002069494861E8
:105C600012E04FF48040674948610DE06548006AE2
:105C7000C0F3CF0063494969C1F34F0140EA010213
:105C800000210846FFF792FE60480468604804401F
:105C90005C4840685B49896808435A49C9680843B9
:105CA0005849096908435749496908435549896969
:105CB00008435449C96908435249096A084351498C
:105CC000496A08434F49896A08434E49C96A0843EB
:105CD0004C49096B08434B49496B084304434B4803
:105CE00004604848806B4749C96B08434549096CC3
:105CF00008434449496C0843424900E07FE0896C0D
:105D000008434049C96C08433E49096D08433D4971
:105D1000496D08433D4948603A48806D886039487C
:105D2000C06DC860084684694FF64170044035482C
:105D3000406E3449B1F8601040EA01403149896E43
:105D400008433049C96E08432E49096F08432D495D
:105D5000496F084304432D4884612A48806F2949CC
:105D6000C96F08432949C8612A4884692A48044000
:105D70002448D0F880002349D1F8841008432149F1
:105D8000D1F8881008431F49D1F88C1008431D49E9
:105D9000D1F8901008431B49D1F8941008431949D1
:105DA000D1F8981008431749D1F89C1008431549B9
:105DB000D1F8A01008430443164884611148D0F874
:105DC000A4001049D1F8A81008430E49D1F8AC102E
:105DD00008430C49D1F8B01008430A49D1F8B4106F
:105DE00040EA81000749D1F8B810084340F40000A8
:105DF000084908600846006840F08000086038BD27
:105E0000802B0020E01B0020FFFF040000800240E8
:105E10000F8120FF00900240233FDEF870B530482C
:105E20000078C0F300152F48007801284AD12E4889
:105E30000068C4B22D48007800F08000802813D19B
:105E40000121042005F026F80121022005F022F8A6
:105E50000121032005F01EF80121002005F01AF8A9
:105E60000121084605F016F8AC4229D0012C1AD1C0
:105E70001F48007810B901201D4908701D4800789E
:105E8000C0F104001A49097888420AD1042004F0BC
:105E9000ABF90121042004F0FDFFFBF7F5F9012027
:105EA00070BD0020FCE70020114908700C48007804
:105EB00020F010000A490870FBF7E6F90020EFE730
:105EC0002846EDE700200A4908700548007820F0D0
:105ED000100003490870FBF7D7F90020E0E7000045
:105EE0003A0000203F000020108241420A010020B9
:105EF0004B0000205A00002010B501200249087014
:105F000004F056FF10BD00003F00002010B5002037
:105F10000249087004F04CFF10BD00003F00002053
:105F200070B50446E02101EB44000221FFF720FE9A
:105F3000154931F81400FBF70FFAFF280AD041F297
:105F4000707204FB02F101F5807188B2114600F015
:105F50001FF811E00C4A32F8143041F2707504FB5E
:105F600005F202F580729A1A91B204FB05F202F56D
:105F7000807290B200F00CF8C822002103480EF0A5
:105F8000EAFF00F09DFF70BD1C1D0020301D0020A9
:105F900070B505460C460BE0FF2D03DDFF212846BA
:105FA000FBF73AFA05F1140085B2A4F1140084B2AB
:105FB000002CF1DC70BD2DE9F04107460D46164678
:105FC000002409E055F824103846FAF77BFD10B993
:105FD0002046BDE8F081641CB442F3DB4FF0FF3093
:105FE000F7E7F0B50A4600210023002400BF3DE09A
:105FF000012505FA01F3156805EA03049C4234D132
:1060000005684F000326BE40B543056015794E0074
:10601000B5400668354305601579012D02D0157924
:10602000022D16D185684F000326BE40B54385601A
:1060300055794E00B5408668354385604568012630
:106040008E40B5434560456896798E40B6B235437B
:106050004560C5684F000326BE40B543C560D5798D
:106060004E00B540C6683543C560491C1029BFD3F2
:10607000F0BDF0B5002300244D07ED0E02FA05F344
:10608000CE1000F1200555F826504E07F70E0F26CA
:10609000BE40B543CF1000F1200646F82750CE1081
:1060A00000F1200555F8265045EA0304CE1000F112
:1060B000200545F82640F0BD41837047002031E0BF
:1060C0001A49095C642291FBF2F13031184A02F856
:1060D00020101649095C642291FBF2F302FB1311B4
:1060E0000A2291FBF2F13031012202EB8002104BC7
:1060F00099540E49095C642291FBF2F302FB1311DF
:106100000A2291FBF2F302FB13113031022202EB5F
:106110008002074B99542E21032202EB80029954EE
:10612000411CC8B20428CBD3704700007A2B002052
:106130000B1D0020002031E01A49095C642291FB0C
:10614000F2F13031184A02F820101649095C642235
:1061500091FBF2F302FB13110A2291FBF2F13031B1
:10616000012202EB8002104B99540E49095C642213
:1061700091FBF2F302FB13110A2291FBF2F302FBF3
:1061800013113031022202EB8002074B99542E2169
:10619000032202EB80029954411CC8B20428CBD3DD
:1061A00070470000722B0020EB1C0020002031E023
:1061B0001A49095C642291FBF2F13031184A02F865
:1061C00020101649095C642291FBF2F302FB1311C3
:1061D0000A2291FBF2F13031012202EB8002104BD6
:1061E00099540E49095C642291FBF2F302FB1311EE
:1061F0000A2291FBF2F302FB13113031022202EB6F
:106200008002074B99542E21032202EB80029954FD
:10621000411CC8B20428CBD370470000762B002065
:10622000FB1C002000B5034603F0F000094948704C
:10623000084640780011487003F00F000870487855
:1062400000F00AF803494870087800F005F80149A1
:10625000087000BDCE00002001460846092803DD75
:1062600000F13702D0B202E000F13002D0B2704744
:1062700070B5002518480668314618A0FAF794F85A
:106280001548001D0668314617A0FAF78DF8124828
:1062900008300668314617A0FAF786F80E48143021
:1062A0000668314616A0FAF77FF80FE0681CC5B201
:1062B0001648006808B9012000E000201349086072
:1062C000002400E0641C12488442FBD3052DEDDB62
:1062D00000200E49086070BD28ED00E0434653528F
:1062E0003A2538580D0A0000484653523A25385886
:1062F0000D0A0000444653523A2538580D0A000052
:10630000414653523A2538580D0A00008C0240424B
:10631000FFFF1F000146632900DD63210A2091FB76
:10632000F0F000EB8000A1EB40000A2291FBF2F2BA
:1063300000EB0210C0B270472DE9F84306460F4645
:1063400014461D4605F0FF08002000906A46002113
:106350002648006801F08AF800F086F9304600F01F
:106360004FF900F0D9F940B100F0A8F91F480068D2
:1063700001F098F9FF20BDE8F883384600F040F9B5
:1063800000F0CAF938B100F099F91848006801F036
:1063900089F9FF20EFE700F067F946F0010000F00F
:1063A0002FF900F0B9F938B100F088F90F4800680A
:1063B00001F078F9FF20DEE708E0012000F0EAF8BC
:1063C00004F8010BA8F1010000F0FF08B8F1010F7B
:1063D000F3DC002000F0DEF804F8010B00F06EF9A9
:1063E0000248006801F05EF9E8B2C4E71800002036
:1063F0002DE9F84380460E4614461D46EFB20020B4
:1064000000906A4600211F48006801F02FF800F054
:106410002BF9404600F0F4F800F07EF940B100F0AE
:106420004DF91848006801F03DF9FF20BDE8F883F8
:10643000304600F0E5F800F06FF938B100F03EF9B1
:106440001048006801F02EF9FF20EFE710E014F883
:10645000010B00F0D5F800F05FF938B100F02EF92B
:106460000848006801F01EF9FF20DFE7781EC7B278
:10647000002FECD100F022F90248006801F012F977
:10648000E8B2D3E71800002010B500200F490860DB
:106490000F48006820F440500D4908600846006825
:1064A00040F48050086000200A49C1F89802052095
:1064B00004F064FE012005490860052004F05EFE3A
:1064C00000200449C1F89C0210BD00009C8241429A
:1064D000000C0240008041421CB50121082002F05E
:1064E00081FF8020009001208DF8040000208DF8AD
:1064F000060003208DF8050001208DF8070069468D
:106500000D48FFF76EFD4020009001208DF804003B
:106510008DF8060003208DF8050001208DF8070096
:1065200069460548FFF75DFD0120044908600449FC
:10653000C1F898021CBD0000000C02409C82414240
:106540000080414210B500200F4908600F480068E4
:1065500020F440500D4908600846006840F480501F
:10656000086001200A49C1F89802052004F006FEDF
:10657000012005490860052004F000FE00200449C0
:10658000C1F89C0210BD00009C824142000C0240F8
:106590000080414270B5054600241648006820F48A
:1065A000405014490860084600680860002616E05C
:1065B000002011490860052004F0E0FD01200F498A
:1065C000C1F89C026006040E0B488438006808B1CC
:1065D000601CC4B2052004F0D1FD701CC6B2082EA8
:1065E000E6DB15B9FFF7AEFF01E0FFF74DFF2046F0
:1065F00070BD0000000C02409C824142008041427C
:1066000070B504461548006820F4405013490860EE
:106610000846006840F48050086000201049086077
:10662000002517E0E0090E49091F08606006040E06
:10663000052004F0A3FD01200A49C1F89C020520B1
:1066400004F09CFD002006490860052004F096FD3A
:10665000681CC5B2082DE5DB70BD0000000C0240CF
:106660009C8241420080414210B51148006820F4EC
:1066700040500F4908600846006840F480500860A8
:1066800001200C490860052004F078FD01200A492A
:10669000C1F89C02052004F071FD00200549086046
:1066A000052004F06BFD00200349C1F89C0210BDD9
:1066B000000C0240988241420080414210B51348CC
:1066C000006820F44050114908600846006840F412
:1066D0008050086000200E490860052004F04EFD3F
:1066E00000200C49C1F89802052004F047FD012064
:1066F00007490860052004F041FD01200549C1F863
:106700009802052004F03AFD10BD0000000C024084
:106710009C8241420080414210B500241448006828
:1067200020F44050124908600846006808600120C3
:1067300010490860052004F021FD01200E49C1F830
:106740009C02052004F01AFD07E0601CC4B2FA2C7C
:1067500003DDFFF7B3FF012010BD06488038006855
:106760000028F2D10349091D086000BFF4E70000CA
:10677000000C024098824142008041421CB5012138
:106780000C2002F02FFE4FF47040009000208DF896
:10679000040003208DF8050001208DF807006946EC
:1067A0000448FFF71EFCC020009069460248FFF72E
:1067B00018FC1CBD000C02400008024010B5044645
:1067C00014B10120314908703048007800283DD0CC
:1067D0002F48006890B12E48001D006870B12D4808
:1067E000006858B12B48001F006838B129480830AC
:1067F000006818B12748001D006838BB0A2004F063
:1068000087FC0020214908702148006808B9012050
:1068100010BD1F48001D006808B90220F8E71D4898
:10682000006808B90320F3E71A48001F006808B998
:106830000420EDE717480830006808B90520E7E7AD
:106840001448001D0068F8B90620E1E71048006808
:10685000012819D10E48001D0068012814D10D48E7
:106860000068012810D10B48001F006801280BD1D7
:10687000084808300068012806D10648001D006855
:10688000012801D1014908700020C1E7A0000020C3
:1068900018024142348241421CB5002401211720D4
:1068A00002F0A0FD0121880302F0BCFD012003F0ED
:1068B00003FBC620009003208DF8050002208DF810
:1068C000040000208DF806008DF807006946334863
:1068D000FFF787FB0B2201213048FFF7CAFB0B2291
:1068E00002212E48FFF7C5FB0B2206212B48FFF79C
:1068F000C0FB0B2207212948FFF7BBFB3220009089
:1069000069462748FFF76DFB0B2201212448FFF75A
:10691000B0FB0B2204212248FFF7ABFB0B22052121
:106920001F48FFF7A6FB4FF46050009069461D48D2
:10693000FFF757FB0B2211461A48FFF79AFB0B2271
:106940000C211848FFF795FB0B220D211548FFF786
:1069500090FB0420009003208DF8050001208DF8A5
:10696000040000208DF806008DF8070069460E48E7
:10697000FFF737FB00200D490860322004F0C8FB08
:1069800001200B49C1F88802FEF77EFBFEF708FEE6
:1069900004460CB901201CBD0020FCE700000240A9
:1069A00000080240000402400010024088024242F7
:1069B0000000424200B587B00121022002F012FD22
:1069C0000121082002F00EFD0121102002F00AFD35
:1069D0004CF22040059001208DF8180000208DF821
:1069E0001A0003208DF8190001208DF81B0005A95D
:1069F0002748FFF7F6FA4FF47060039001208DF8F6
:106A0000100000208DF8120003208DF811000120E5
:106A10008DF8130003A91F48FFF7E3FA4FF68060D3
:106A2000019001208DF8080000208DF80A00032055
:106A30008DF8090001208DF80B0001A91648FFF719
:106A4000D0FA00F08FF900201449086000F0C4F873
:106A5000002000F05BF9002000F07CF9002000F03D
:106A600055F9002000F036F9402000F0D7F8B820A2
:106A700000F0E6F8C02000F0DBF8012000F06AF931
:106A8000BF200749087058200649087007B000BDAC
:106A900000040240000C024000100240A882414263
:106AA000A1000020A20000201FB50121084602F02D
:106AB00099FC0121022002F095FC3820029001206F
:106AC0008DF80C0000208DF80E0003208DF80D00CD
:106AD00001208DF80F0002A90E48FFF782FA382135
:106AE0000C48FFF7E9FA0320009001208DF804001C
:106AF00000208DF8060003208DF8050001208DF898
:106B0000070069460448FFF76CFA03210248FFF7C3
:106B1000D3FA1FBD000002400004024038B5002433
:106B20009025002000906A4600211348006800F07C
:106B30009DFCFFF799FD45F00100FFF761FDFFF7B0
:106B4000EBFD18B1FFF7BAFD002038BD0120FFF7BB
:106B500021FD0446601FC4B24FF6FF7000EA042412
:106B60000020FFF717FD0443FFF7A8FD0248006867
:106B700000F098FD2046E8E71800002070B50546B3
:106B8000FFF7CCFF044604F4004060B9C4F3C01022
:106B900008B1052000E000200346220A0AA1284689
:106BA000F9F70EFC0EE0C4F3C01008B1052000E0B8
:106BB000002003466FEA1420401CC2B204A12846FC
:106BC000F9F7FEFB70BD000025642E25640000006F
:106BD0002D25642E2564000010B500200C490860A6
:106BE0000C49C1F89C0201200B4908600949C1F811
:106BF000A402022004F0C2FA00BF05480068002881
:106C0000FBD10549091F0860022004F0B7FA10BD46
:106C1000B882404200004242A802424210B50446F7
:106C200004F03F0444F04004204600F011F810BD89
:106C300010B5044644F0C004204600F009F810BD29
:106C400010B5044644F0B804204600F001F810BD29
:106C500010B50446FFF7C0FF00200B4908600B4940
:106C6000C1F8A802204604F0E7F8012006490831DF
:106C70000860022004F082FA00200449C1F8A4024E
:106C8000022004F07BFA10BD9C0242420000424206
:106C900010B50446FFF7A0FF01200C490860002052
:106CA0000B49C1F8A802204604F0C6F801200749A4
:106CB00008310860022004F061FA00200449C1F89C
:106CC000A402022004F05AFA10BD00009C024242C5
:106CD0000000424270B50646304600F017F8002426
:106CE00010E02046FFF7ACFF0020FFF797FF0025DC
:106CF00004E00020FFF7CCFF681CC5B2402DF8DB94
:106D0000601CC4B2082CECDB70BD000020B101286F
:106D100009D0022817D10EE001210C4A11600C4A5B
:106D2000C2F8A01210E00121084A11600021084AAF
:106D3000C2F8A01208E00021044A11600121044AAF
:106D4000C2F8A01200E000BF00BF7047A482414219
:106D50000080414210B5044644F03E042046FFF74F
:106D600077FF10BD10B50020064908600A2004F026
:106D700005FA01200449C1F8AC020A2004F0FEF92A
:106D800010BD0000AC824142008041422DE9F0413B
:106D900080460D4616461F4600242A4631463AA034
:106DA000FFF709F9804608F10100F0B100BF16E0D5
:106DB00056F8240034A1F9F785FE70B957F824007D
:106DC000F9F766FC32490870C822002131480EF0FC
:106DD000C2F801203049087003E0601CC4B2AC4224
:106DE000E6DB00BF2DA0BDE8F0812A4631462EA08B
:106DF000FFF7E1F8804608F10100B8B1002411E086
:106E000056F8240028A1F9F75DFE48B957F8240088
:106E100027A1F9F757FE18B91D480078FAF776FC54
:106E2000601CC4B2AC42EBDB1CA0DCE72A46314656
:106E300020A0FFF7C0F8804608F1010010B300243D
:106E40001CE056F824001BA1F9F73CFEA0B957F846
:106E500024001AA1F9F736FE20B90D48007802F097
:106E60004FFE09E057F8240011A1F9F72BFE18B9DD
:106E70000748007802F0F4FD601CC4B2AC42E0DBCD
:106E800006A0B0E705A0AEE74C4F47545950450067
:106E900002010020301D0020030100202F6C6F67CD
:106EA0002E7368746D6C0000434C45415200000025
:106EB000310000004745544C4F47000030000000AF
:106EC00010B5002400BF24E0E02101EB440188B2AA
:106ED0000221FAF72AFA134921F81400084630F87B
:106EE00014004FF6FF71884212D141F2707104FB19
:106EF00001F000F580700B4921F814000A4632F8C1
:106F00001410E02202EB440290B20222FAF76EFA69
:106F1000641C052CD8DB0120034908700349087064
:106F200010BD00001C1D00200301002004010020F2
:106F300010B5002416E00D49085DFFF773F93A21FA
:106F400004EB4400801C0A4A11540A48017804EBFF
:106F50004400401C11540748407804EB440150544D
:106F6000601CC4B2062CE6D310BD0000682B0020C4
:106F7000D91C0020CE00002070B5002100230F2274
:106F8000C4781CB3174C246804F4E064C4F5E064CE
:106F9000C4F30721C1F10404E3B20A4144789C40E0
:106FA000E1B28478144021430C07210E0E4C057881
:106FB0006155047804F01F050124AC4005786D117B
:106FC000AD0005F1E025C5F8004109E0047804F0C2
:106FD0001F050124AC40054D0678761145F8264082
:106FE00070BD00000CED00E000E400E080E100E096
:106FF00002490143024A1160704700000000FA058F
:107000000CED00E02DE9F04780460F4615461E4680
:107010000024A1463A46294626A0FEF7CCFF80462A
:1070200008F1010000283CD000BF38E055F82400EA
:1070300021A1F9F747FD30B956F824101F4809F08F
:1070400037FA4FF0010955F824001DA1F9F73AFD70
:1070500038B956F8241019480A3007F006FF4FF0E7
:10706000010955F8240017A1F9F72CFD38B956F895
:10707000241012480E3007F0F8FE4FF0010955F8C1
:10708000240012A1F9F71EFD38B956F824100B4858
:10709000123007F0EAFE4FF00109601CC4B2BC4296
:1070A000C4DBB9F1000F01D009F0CCF909A0BDE8AB
:1070B000F08700004C414E004D414300682B0020FA
:1070C000495000005355424D41534B0047415445F0
:1070D000574559002F706172616D65746572732E2A
:1070E0007368746D6C0000002DE9F04105460E4692
:1070F000144600271148007818B112202070BDE80E
:10710000F0812878012808D0022807D0032802D06F
:10711000042804D100E000BF00BF00BF02E001204E
:107120002070ECE700BFF9F7D1F807466E613846EA
:10713000F9F7D0F80020207000BFE0E755010020EB
:1071400010B500F015F801F0F7FB01F01FFC01F09D
:107150003FFC01F0C1FB01F081FB01F0D3FC01F029
:10716000FDFC01F075FC01F09BFC00F002F810BD85
:107170007047704706480078012808D10548007814
:10718000FF2804D203480078401C02490870704769
:10719000620100205501002010B500241A48007833
:1071A000012830D1F9F792F804461848007820B148
:1071B00016480078401E1549087014480078F8B940
:1071C00013480078E0B901F02BFD12481249097804
:1071D00050F82100114908600F48007810490978DB
:1071E00088420DD00D480068806B401C0B4909682F
:1071F00088630C480068401C0A490860F9F786F863
:107200002046F9F767F810BD620100205501002003
:107210005601002088250020580100207001002020
:10722000570100203C01002070B50546002610489B
:10723000007808B1002070BDF9F748F806460D48FF
:107240000468006820B10B4800684068094908607C
:107250003046F9F73FF84CB1012020700020208122
:10726000656005A06061204601F0EAFA2046E2E789
:1072700055010020400100203F0000002DE9F041B1
:1072800005460F4614464FF000082878012804D020
:10729000012020700020BDE8F0813648007818B148
:1072A000022020700020F6E73348007818B10D2046
:1072B00020700020EFE7F9F709F880466E6846B1C4
:1072C000002068604046F9F705F80020207030463D
:1072D000E1E72A48006890F8300040F002002749B2
:1072E000096881F8300000202449096881F83100DC
:1072F00022480068C762284601F064FA4046F8F761
:10730000E9FF01F053FCF8F7E1FF80461B480068F5
:1073100090F8310020B101280DD002280AD105E0F3
:1073200016480068066A002020700DE000260E2036
:10733000207009E000BF29461048006801F02CFACF
:1073400000260A20207000BF00BF00200B490968FA
:1073500081F830000949096881F831000749096856
:10736000C8610649096808624046F8F7B3FF30462D
:1073700091E700005501002056010020680100201F
:1073800070B504460D4600262078012801D0012062
:1073900070BDF8F79BFF0646A07A60B10023022279
:1073A0002946204601F0B6F93046F8F793FF01F080
:1073B000FDFB0020ECE7606820B13046F8F78AFF5B
:1073C0001420E5E765603046F8F784FF0020DFE72A
:1073D0002DE9F04105460E4600272048007820B1EF
:1073E000102030700020BDE8F081F8F76FFF0746ED
:1073F0001B4850F8250030B13846F8F76BFF2820BD
:1074000030700020EFE70120154941F825001548AC
:1074100004684CB9002041F825003846F8F75AFFB7
:10742000042030702046DEE70E48006840680D49B1
:1074300008603846F8F74EFF04202070FF2040EA2D
:10744000052020810020606007A06061204601F0D7
:10745000F7F9002030702046C5E7000055010020F4
:1074600088250020400100203F0000002DE9F74F53
:1074700082B005461746002001902878042804D0E1
:107480000120387005B0BDE8F08F8048007810B159
:1074900002203870F6E77E48007810B10D20387071
:1074A000F0E7F8F713FF019028894FEA2029287A9E
:1074B000FF281FD1288900F47F4028812889754939
:1074C000096891F8321008432881724800686860A2
:1074D0007048006890F83200484505DC0198F8F7DC
:1074E000F9FE7820387004E00198F8F7F3FE0020E8
:1074F0003870C7E795F808B06C6894F832004845D2
:107500007ADD6448006890F83200584574DA94F8DF
:107510003480614810F8080094F835100840B0B184
:107520005D4810F8080094F8351088435A4901F86E
:107530000800084610F8080030B994F8361057488B
:1075400000788843554908704FF0010A19E0E66950
:10755000AEB194F8348006F10B0010F8080094F8EE
:107560003510884306F10B0101F80800084610F8B1
:10757000080020B9B07A94F836108843B0724FF002
:10758000000A04F8329F2078C010A070207800F024
:1075900007006070A1780120884020716178012087
:1075A0008840E070323CBAF1010F10D13434A07839
:1075B0003A49097808433949087020783649085C07
:1075C0006178084314F83419334A505411E0E669DD
:1075D0007EB1B07A3434A1780843B072217806F1D4
:1075E0000B00405C6178084314F8342906F10B0164
:1075F00088542B4840F829402648006890F830000D
:1076000040F010002349096881F83000002021492A
:10761000096881F831001F4903980968C862284643
:1076200001F0D0F80198F8F755FE01F0BFFAF8F72D
:107630004DFE01901748006890F8310020B10128F4
:1076400009D0022806D102E0002038700BE00E209D
:10765000387008E000BF29460E48006801F09CF829
:107660000A20387000BF00BF00200A49096881F86D
:1076700030000849096881F8310006490968C86185
:107680000198F8F727FE00BFFCE600005501002036
:1076900056010020680100205A01002059010020F5
:1076A000882500202DE9F041044600272C48007869
:1076B00010B10520BDE8F0812078042801D0012018
:1076C000F8E7F8F703FE074620890612257A2549D0
:1076D00060680968884204D03846F8F7FBFD6420EA
:1076E000E8E72048006890F83200B04204D129460B
:1076F0001C48006800F03AF801201B4941F82600B8
:10770000A07A08B3002310221946204601F002F89F
:107710000546208900F47F4020812089284320816C
:10772000114850F825006060B54206DC3846F8F78D
:10773000D1FD01F03BFA7820BCE73846F8F7CAFDE6
:1077400001F034FA0020B5E7208940F0FF002081E5
:10775000002060603846F8F7BDFD0020AAE7000071
:1077600055010020680100208825002030B590F8E0
:1077700034201B4B9B5C90F83540A343184CA3541A
:1077800023469B5C33B990F83640164B1B78A343D5
:10779000144C237000F8321F134B1970C1F3C2034D
:1077A000837001F00703437084780123A3400371C1
:1077B00044780123A340C37003790A4C24782343FF
:1077C000084C23708378064CE35CC47823438478A8
:1077D0003238034D2B55054B43F8210030BD0000D6
:1077E0005A0100205901002057010020882500205F
:1077F0002DE9F04106460F464FF00008204800787A
:1078000010B10020BDE8F081F8F760FD80461D480A
:107810000468006820B11B48006840681949086086
:107820004046F8F757FDFCB1F8F750FD8046164882
:107830000568D5B100680068134908604046F8F74C
:1078400049FD6E6006EB8700A860EE602E61AF8296
:107850000020E882022020700020208165600BA0BB
:107860006061204600F0ECFF08E0064800686060B8
:10787000044804604046F8F72DFD00242046C1E787
:107880005501002040010020800100203F00000041
:107890002DE9F0470446894615464FF0000A207846
:1078A000022804D0012028702046BDE8F087354822
:1078B000007818B10F2028702046F6E7F8F706FD8B
:1078C0008246A07A10B14FF0010801E04FF00008A5
:1078D000B9F1000F03D0B9F1010F49D121E0B8F19E
:1078E000000F17D128A060616668284800683060E2
:1078F000264806600020207025480068606000204F
:107900002081234804605046F8F7E4FC00202870EA
:10791000002705E05046F8F7DDFC4920287027468F
:107920002DE005E0002304221946204600F0F2FE77
:10793000A07A0028F6D114A0606166681348006838
:1079400030601248066000202070114800686060B6
:10795000002020810E4804605046F8F7BBFCB8F1C7
:10796000010F01D101F022F900202870002706E064
:107970005046F8F7AFFC07202870274600BF00BF2D
:10798000384692E7550100203F00000080010020AA
:10799000400100202DE9F0470746884615464FF084
:1079A00000093878022804D0012028700020BDE8A2
:1079B000F0873C48007818B1022028700020F6E7D4
:1079C0003948007818B10D2028700020EFE7F8F74B
:1079D0007DFC81467C68E08A98B12169081D2061A0
:1079E0000E68E08A401EE082A1682069884201D1C9
:1079F000606820614846F8F76DFC0020287030462A
:107A0000D5E72A48006890F8300040F00400274984
:107A1000096881F8300000202449096881F83100A4
:107A200022480068C0F82C80384600F0CBFE48465B
:107A3000F8F750FC01F0BAF8F8F748FC81461B480B
:107A4000006890F8310020B101280DD002280AD139
:107A500005E016480068066A002028700DE0002640
:107A60000E20287009E000BF39461048006800F079
:107A700093FE00260A20287000BF00BF00200B499B
:107A8000096881F830000949096881F8310007491F
:107A90000968C8610549096808624846F8F71AFC90
:107AA000304684E75501002056010020680100207F
:107AB0002DE9F04105460E4600272878022802D01D
:107AC0000120BDE8F081F8F701FC0746A87A60B113
:107AD000002304223146284600F01CFE3846F8F701
:107AE000F9FB01F063F80020EBE76C68E08AA18AFB
:107AF000884204DB3846F8F7EDFB1E20E1E7E16839
:107B0000081DE0600E60E08A401CE082D4E90210AB
:107B1000884201D16068E0603846F8F7DBFB00205E
:107B2000CFE72DE9F04705460C464FF0000A2878CC
:107B3000022802D00120BDE8F087F8F7C7FB824693
:107B4000A87A207405F10B0804F10809002705E064
:107B500018F8010B09F8010B781CC7B2082FF7D3EE
:107B60006E68F08A18B130690068206001E000207A
:107B70002060F08AA080B08AE0805046F8F7AAFB27
:107B80000020D8E710B500240B480078012812D156
:107B9000F8F79CFB04460948007848B90848007883
:107BA000FF2805D206480078401C0549087000BF30
:107BB0002046F8F78FFB10BD620100205501002020
:107BC0005601002010B5002413480078012821D167
:107BD000F8F77CFB044611480078C0B10F480078E4
:107BE000401E0E4908700846007860B90C480078BD
:107BF00028B92046F8F76EFB00F0D8FF0AE02046CF
:107C0000F8F768FB06E02046F8F764FB02E0204640
:107C1000F8F760FB10BD0000620100205601002053
:107C20005501002070B5054600261048007808B1BF
:107C3000002070BDF8F74AFB06460D48046800684E
:107C400020B10B4800684068094908603046F8F7E1
:107C500041FB4CB10320207025810020606005A00D
:107C60006061204600F0ECFD2046E2E7550100206F
:107C7000400100203F0000002DE9F04704468846FF
:107C800015464FF000092078032804D00120287001
:107C90002046BDE8F0872D48007818B10F202870E5
:107CA0002046F6E7F8F712FB8146A07A08B10127D3
:107CB00000E00027B8F1000F03D0B8F1010F3AD16E
:107CC00019E08FB922A0606100202070214800686F
:107CD0006060002020811F4804604846F8F7FAFAE7
:107CE00000202870002605E04846F8F7F3FA4920FE
:107CF0002870264626E005E000230122194620468A
:107D000000F008FDA07A0028F6D111A060610020E3
:107D10002070104800686060002020810D480460D9
:107D20004846F8F7D7FA012F01D100F03FFF0020B5
:107D30002870002606E04846F8F7CCFA072028709D
:107D4000264600BF00BF3046A3E7000055010020D3
:107D50003F000000400100202DE9F04105460E469D
:107D6000144600272878032803D001202070BDE89E
:107D7000F0813148007810B102202070F7E72F48D9
:107D8000007810B10D202070F1E7F8F79FFA074650
:107D9000288940B12889401E28813846F8F79AFA88
:107DA00000202070E3E72648006890F8300040F09B
:107DB00001002349096881F8300000202049096842
:107DC00081F831001E480068C662284600F0FAFCBF
:107DD0003846F8F77FFA00F0E9FEF8F777FA074639
:107DE0001748006890F8310020B1012809D0022816
:107DF00006D102E0002020700BE00E20207008E089
:107E000000BF29460E48006800F0C6FC0A2020701A
:107E100000BF00BF00200A49096881F83000084906
:107E2000096881F8310006490968C8613846F8F7E1
:107E300051FA00BF9BE700005501002056010020C9
:107E40006801002070B5044600252078032801D081
:107E5000012070BDF8F73AFA0546A07A60B1002318
:107E600001221946204600F055FC2846F8F732FA60
:107E700000F09CFE0020ECE720894FF6FF7188425D
:107E800007D22089401C20812846F8F723FA0020D9
:107E9000DFE72846F8F71EFA3320DAE72DE9F04746
:107EA00004460D464FF000092078032802D0012037
:107EB000BDE8F087F8F70AFA8146A07AA87204F1C3
:107EC0000B0705F10208002605E017F8010B08F87A
:107ED000010B701CC6B2082EF7D3208928804846B3
:107EE000F8F7F8F90020E3E710B50B48007890B9EF
:107EF00000F096FE094800780949087009480749CA
:107F0000097850F8210008490860084600680749C8
:107F10000860F8F7E2F910BD620100205801002066
:107F200057010020882500207001002068010020F2
:107F300010B50024022000F02BFBF8F7C7F9044627
:107F400000200B4908602046F8F7C4F9142000F01F
:107F50001FFBF8F7BBF904460548006805490860AF
:107F60000120054908702046F8F7B4F910BD00005B
:107F7000640100204C0100205401002070470000E3
:107F80002DE9FE4F06460F4690461C464FF000096D
:107F9000F8F79CF981461F48007828B14846F8F761
:107FA00099F93C20BDE8FE8F1B4850F8240060BBC7
:107FB0000120194941F824004846F8F78BF90023BD
:107FC00042463946304600F0B5F98246002000901E
:107FD00001900346024651460290204600F036FECC
:107FE000054635B90D48007801280CD100F0DEFDBA
:107FF00009E0F8F76BF981460020074941F82400B1
:108000004846F8F767F92846CCE74846F8F762F99A
:108010002820C7E7550100208825002062010020A4
:108020002DE9F04F85B081468A4693461C46DDE92E
:108030000F78129D00200390F8F748F90390234829
:10804000007830B10398F8F745F93C2005B0BDE859
:10805000F08F1F4850F8240088BB01201C4941F8CC
:1080600024000398F8F736F92A464146384600F0CE
:1080700009FF2B465A465146484600F05BF90490EA
:108080001198CDE9008002953A4620460E9B04994E
:1080900000F0DCFD064636B90E48007801280CD108
:1080A00000F084FD09E0F8F711F903900020084979
:1080B00041F824000398F8F70DF93046C6E7FFE7CA
:1080C0000398F8F707F92820C0E7000055010020C1
:1080D0008825002062010020704700002DE9F04152
:1080E000054600274748007810B14020BDE8F081E0
:1080F0003F2D01D13E20F9E7F8F7E8F80746FF2DBC
:1081000003D14148006890F83250404850F825406B
:1081100024B93846F8F7DEF84320E7E7012C04D10C
:108120003846F8F7D7F83D20E0E714F8340F38491F
:10813000085C617888432178354A505414F8340932
:108140001146085C30B994F83610324800788843FC
:1081500030490870E06918B12046E16900F01CFB65
:10816000666A16B1304600F0A5FB0020E06284F894
:10817000300084F8310028480078FF2804D22648CF
:108180000078401C244908703846F8F7A3F800F03E
:10819000C0FAF8F79BF807461F48007820B11E4840
:1081A0000078401E1C490870204600F041F81B482A
:1081B0000078401E194908700020144941F8250034
:1081C000A06930B90020616988611549606908605B
:1081D00005E0D4E905014861D4E90510886111483A
:1081E000006860610F4804600FA0E0643846F8F74B
:1081F00071F80E480078012801D100F0D7FC00206A
:1082000074E7000055010020680100208825002047
:108210005A0100205901002056010020630100206E
:10822000740100206C0100203F000000620100206A
:10823000704770472DE9F04106460F4614464FF04F
:1082400000081548007818B112202070BDE8F081B0
:10825000F8F73CF88046FF2E03D11048006890F8EC
:1082600032600F4850F826502DB94046F8F732F8E2
:1082700043202070EAE7012D05D14046F8F72AF89F
:1082800043202070E2E7EF644046F8F723F800202F
:10829000207000BFDAE700005501002068010020CF
:1082A00088250020704770472DE9F04707460D46A6
:1082B0004FF0000A002028606860F8F707F882464F
:1082C000FF2F03D11948006890F83270184850F811
:1082D00027402CB95046F7F7FDFF4320BDE8F08753
:1082E000012C04D15046F7F7F5FF4320F6E7207C38
:1082F00000F0010020B95046F7F7ECFF4520EDE70C
:108300000026D4F80C90D4F808805046F7F7E2FF26
:1083100000E0761C58F8041B0029FAD0B000286051
:10832000A9EB0600800068600020D7E76801002004
:108330008825002070B5044610460026051F2846F3
:108340002E604FF48056051F28462E601526051F07
:1083500028462E601426051F28462E601326051F6A
:1083600028462E601226051F28462E601126051F5E
:1083700028462E601026051F28462E600926051F58
:1083800028462E600826051F28462E600726051F52
:1083900028462E600626051F28462E600526051F46
:1083A00028462E600426051F28462E600326051F3A
:1083B00028462E600226051F28462E600126051F2E
:1083C00028462E600026051F28462E604FF0807537
:1083D0000560051F28462C60414E051F28462E606B
:1083E0004FF01236051F28462E604FF00336051F4A
:1083F00028462E604FF00236051F28462E60761064
:10840000051F28462E60051F284629603126051FB6
:1084100028462E603026051F28462E602926051F77
:1084200028462E602826051F28462E602726051F71
:1084300028462E602626051F28462E602526051F65
:1084400028462E602426051F28462E602326051F59
:1084500028462E602226051F28462E602126051F4D
:1084600028462E602026051F28462E601926051F47
:1084700028462E601826051F28462E601726051F41
:1084800028462E601626051F28462E604FF011360E
:10849000051F28462E604FF01036051F28462E6017
:1084A0004FF00936051F28462E604FF00836051F8D
:1084B00028462E604FF00736051F28462E604FF0E5
:1084C0000636051F28462E604FF00536051F284644
:1084D0002E604FF00436051F28462E6070BD000048
:1084E000A98D00082DE9F04105464FF00008F7F787
:1084F000EDFE8046FF2D05D12048006890F83250EF
:10850000012608E01D48006890F83200A84201D119
:10851000012600E000261A4850F825402CB94046B4
:10852000F7F7D8FE4820BDE8F081012C04D1404681
:10853000F7F7D0FE4320F6E794F834701148C05D99
:1085400094F8351088430F49C8550846C05D30B9C6
:1085500094F836100C48007888430B49087094F85A
:10856000300040F0080084F830004046F7F7B2FED3
:10857000012E01D100F01AFB0020D4E76801002091
:10858000882500205A010020590100207047000072
:1085900070B5054600261748007800B170BD164832
:1085A000007800B1FAE71DB3F7F790FE06461348CE
:1085B000006890F834401248005D1049096891F84D
:1085C000351088430E4908550846005D40B90B48F0
:1085D000006890F836100B48007888430949087005
:1085E00006480068C5623046F7F774FE00F0DEFA10
:1085F00000BFD3E75501002056010020680100208C
:108600005A0100205901002070B50025F7F75EFEE1
:108610000546034804682846F7F75CFE204670BD0F
:108620008401002070B5002600F072F8F7F74EFEC6
:10863000064631480068401C2F4908603046F7F76D
:1086400049FE2E480078012853D12D48007820B1EA
:10865000012804D0022809D103E001250BE0002500
:1086600009E0012501202649087004E001250020C9
:108670002349087000BF00BF05B970BD21480468D8
:1086800033E0F7F723FE0646E06A50B3E06A401E87
:10869000E062E06A28BB94F8300000F0370040B197
:1086A00014F8300F00F0C800207001206070303CDA
:1086B00002E0002084F8310094F8300000F0080057
:1086C00078B93434A0781049097808430E49087005
:1086D00020780E49085C6178084314F834190B4A75
:1086E000505464693046F7F7F5FD94F832003F289E
:1086F000C7D100BFC1E70000840100206201002053
:108700007801002074010020590100205A01002046
:10871000704770472DE9F04F05460F469046994641
:10872000A87A19490E5C05F10B00805D11F800B0C4
:108730000BEBC60000F0FF0A144850F82A40002056
:108740002034E0602760207C20EA0800207484F850
:108750001190207C203C00F0080068B994F83600A5
:108760000B49097808430A4908700A48805D94F863
:1087700035100843074988552946204600F00CF873
:108780005046BDE8F08F0000300302088825002025
:10879000590100205A01002010B590F8342001F151
:1087A0000B039B5C90F83540A34301F10B04A354E9
:1087B00023469B5C23B98B7A90F83640A3438B7297
:1087C00010BD000010B51B4A1268D061194A12682A
:1087D00092F8343000F10B02D25C164B1B6893F810
:1087E00035301A43134B1B6893F8344000F10B03E8
:1087F0001A55827A0F4B1B6893F836301A438272EF
:108800000C4A126892F834100B4A525C094B1B68F0
:1088100093F835309A43084B5A541A46525C42B981
:10882000044A126892F83630044A12789A43034B8D
:108830001A7010BD680100205A0100205901002063
:10884000014600228A72002005E0002301F10B029C
:108850001354421CD0B20828F7D370472DE9F041D9
:108860005021114800F044F900250DE0681C86B243
:108870000D4800EB051400EB061700202070676020
:108880000AA0E060681C85B2042DEFD3064800EB17
:10889000051400202070606004A0E06002480449D4
:1088A0000860BDE8F0810000382100203F00000092
:1088B0004401002030B501464A6808682AB9CC68EE
:1088C000606028B10025456002E0106000B14260A0
:1088D0008B6800255D6230BD70B54FF4B4711348EC
:1088E00000F006F9002411E0601C85B204EB44009E
:1088F0000E4901EBC00305EB450001EBC00600206B
:1089000018705E600AA05861601C84B20E2CEBD314
:1089100004EB4400054901EBC003002018705860C7
:1089200003A0586108460349086070BDD01F0020AD
:108930003F0000004001002000200A4908600A4969
:1089400008700A4908700A4908700A4908700A49FB
:1089500008600A4908600A4908600A4908600A492B
:108960000870704784010020550100205601002046
:1089700063010020620100203C010020640100200E
:10898000500100204C0100205401002000210A4A1F
:108990001170002004E00021084A1154411CC8B2A3
:1089A0000828F8D30021064A1170064A1170064AB9
:1089B0001160064A11607047590100205A010020D9
:1089C000570100205801002070010020680100209C
:1089D00070B54FF47C71194800F08AF84FF480713B
:1089E000174800F085F8002413E0601CC5B2C4EB02
:1089F000C40000EB4000114901EB8003C5EBC5004A
:108A000000EB400001EB80065E610EA0D864601CA4
:108A1000C4B20B2CE9D3C4EBC40000EB40000749FF
:108A200001EB80030020586106A0D86400200649AD
:108A3000086002480549086070BD000088260020D3
:108A4000882500203F000000740100206C010020F8
:108A500000B587B00320002180220A4BCDE9013206
:108A6000CDE903104FF6FF703F23074A00900748F7
:108A7000FFF7D6FA06AA06A13F20FFF7DBFB07B0F7
:108A800000BD00008823002084250020818D00087F
:108A900075432F4F532D49492049646C65000000F0
:108AA00000B587B00320002180220A4BCDE90132B6
:108AB000CDE903104FF6FE703E23074A00900748A9
:108AC000FFF7AEFA06AA06A13E20FFF7B3FB07B0F8
:108AD00000BD00008821002084230020C18D0008F3
:108AE00075432F4F532D4949205374617400000082
:108AF00004E0002200F8012B4A1E91B20029F8D1AF
:108B00007047000070B578211148FFF7F1FF00248D
:108B10000EE004EB44000E4901EBC005601C00EBC5
:108B2000400001EBC00068600AA06861601C84B26C
:108B3000042CEED304EB4400054901EBC0050020F2
:108B4000686004A0686108460349086070BD0000C1
:108B5000782A00203F0000007C0100202DE9F04130
:108B600078211048FFF7C4FF00240DE0601C86B296
:108B700004EB44000B4901EBC00506EB460001EB9A
:108B8000C0072F60601C84B2042CEFD304EB4400B8
:108B9000044901EBC005002028600846024908602E
:108BA000BDE8F081F02A00208001002010B50024EB
:108BB000F7F78CFB044613480078F8B912480078A0
:108BC000E0B900F02DF811481149097850F821005A
:108BD000104908600E4800780F49097888420DD086
:108BE0000C480068806B401C0A49096888630B4880
:108BF0000068401C09490860F7F781FB2046F7F739
:108C000069FB10BD55010020560100208825002079
:108C10005801002070010020570100203C01002075
:108C20000649074A1278885C0649095C034A515C88
:108C300001EBC001044A11707047000030030208C4
:108C4000590100205A010020580100202DE9F84F59
:108C500005460F4690469946DDE90AAB0020009094
:108C6000F7F734FB00903F480468002C74D01834A8
:108C700054F8040C3B4908600098F7F72BFB44F8C4
:108C8000187CA576002020766076606144F814BCDC
:108C900044F80CAC44F8108C0C9824F8080C24F818
:108CA000069C0020E077E810207705F00700E076CA
:108CB000217F01208840A077E17E012088406077F5
:108CC00000206060E060A0602062A0626062E062FC
:108CD000206325A06063183C002606E0002104F113
:108CE000500040F82610701CC6B2002EF6D0204668
:108CF000FFF744F92046FFF7EFF9F7F7E7FA00909E
:108D00001A4840F825401A48006860610020A061B8
:108D10001748006810B11648006884611448046060
:108D20003434A07813490978084312490870207830
:108D30001149085C6178084314F834190E4A5054FC
:108D40000E480078401C0D4908700098F7F7C2FAE9
:108D50000020BDE8F88FFFE70098F7F7BBFA422044
:108D6000F7E700006C0100203F000000882500208C
:108D700074010020590100205A01002063010020E5
:108D8000002400BF00BFF7F7A1FA044605480068B9
:108D9000401C044908602046F7F79CFAFFF749FA9F
:108DA000F1E700006401002010B504480068FFF7F7
:108DB00079FAFF20FFF792F910BD0000680100204A
:108DC000002400BF02E02820FFF7E2FB19480078EA
:108DD0000028F8D0184800686421B0FBF1F016496B
:108DE00008600846006828B9002014490870FF2070
:108DF000FFF778FB00BFF7F769FA044610480068F0
:108E00001049086000200E4908602046F7F762FA12
:108E10000C48006808490968B0FBF1F0C0F1640033
:108E200006490870FFF73FFA00F00EF81420FFF72C
:108E3000AFFBE0E7540100204C0100204801002076
:108E400064010020500100207CB5002514E0694633
:108E50002846FFF729FA064666B9094850F8254022
:108E600044B1012C06D0D4E9020100EB810060641A
:108E70000198A064681CC5B23F2DE8D97CBD0000F4
:108E80008825002002F0010343B102F002032BB158
:108E900002E0491E002308C00029FAD170471CB522
:108EA000684600F021F89DF80000632819DC9DF861
:108EB0000100B0B19DF801000C2812DC9DF8020001
:108EC00078B19DF802001F280BDC9DF803001728DD
:108ED00007DC9DF804003B2803DC9DF805003B28D7
:108EE00001DD00F0D3F81CBDFEB50446A225002626
:108EF0000B236A4631462846FDF71EFA00B9FEBD2F
:108F00009DF8020000F07F008DF802009DF803003C
:108F100000F07F008DF803009DF8040000F03F0092
:108F20008DF804009DF8050000F03F008DF8050065
:108F30009DF8070000F01F008DF807009DF808005D
:108F40008DF808009DF8080000F00F009DF808104B
:108F5000091101EB810100EB410020709DF8070031
:108F600000F00F009DF80710091101EB810100EBE3
:108F7000410060709DF8050000F00F009DF805109D
:108F8000091101EB810100EB4100A0709DF8040084
:108F900000F00F009DF80410091101EB810100EBB6
:108FA0004100E0709DF8030000F00F009DF80310F1
:108FB000091101EB810100EB410020719DF80200D5
:108FC00000F00F009DF80210091101EB810100EB88
:108FD0004100607100BF92E770B588B00446A225D9
:108FE0000026FFF75CFF0B2305AA31462846FDF754
:108FF000A3F908B908B070BD9DF8160000F07F0015
:109000008DF816009DF8170000F07F008DF817000E
:109010009DF8180000F03F008DF818009DF8190029
:1090200000F03F008DF819009DF81B0000F01F00B4
:109030008DF81B009DF81C008DF81C009DF8160093
:109040009DF817109DF818209DF81930CDE90032D1
:10905000CDE902109DF81B309DF81C2002A120468E
:10906000F7F7AEF900BFC5E73230253032782D254D
:109070003032782D2530327820253032783A25303C
:1090800032783A2530327800000000007FB5A22403
:10909000002507A30FCB8DE80F0010236A46294651
:1090A0002046FDF7A5F910B90A2002F031F87FBD7E
:1090B000000000000001060118808080808100000F
:1090C0002DE9FF410446A22500263AA3D3E9001268
:1090D000D3E90203CDE90203CDE900126079FDF77F
:1090E00019F98DF802002079FDF714F98DF80300C5
:1090F000E078FDF70FF98DF80400A078FDF70AF984
:109100008DF805006078FDF705F98DF807002078E7
:10911000FDF700F98DF808006078012802D060782A
:10912000022805D160780C3060702078401E2070D5
:109130006178491C01EB4101052291FBF2F1A27813
:109140006378022717FB032211442278114410464A
:10915000D21700EB927201EBA2012278642392FBFA
:10916000F3F2891A22789B0092FBF3F21144072252
:1091700091FBF2F302FB1311C9B28DF806109DF8B2
:109180000600062803D100208DF8060005E09DF8B2
:109190000600401CC0B28DF8060010236A46314616
:1091A0002846FDF725F910B90A2001F0B1FFBDE806
:1091B000FF81000000000007152406040480808061
:1091C0008081000030B589B0044600250A2221467E
:1091D00006A8F7F74BFC00208DF8220006A898B1EE
:1091E0000A231AA206A903A80EF088FE0398A0F588
:1091F000FA60C0B28DF804000498C0B28DF8050082
:109200000598C0B28DF80600082204F10B0106A8EB
:10921000F7F72CFC00208DF8200006A888B10A235F
:109220000BA206A903A80EF069FE0398C0B28DF840
:1092300007000498C0B28DF808000598C0B28DF8F8
:10924000090001A8FFF73CFF09B030BD2D00000068
:109250003A0000002DE9F04707460D4616469846AD
:109260000024A146A2462A4631462AA0FCF7A3FEC6
:109270000746781C08B300BF1DE056F8240025A15E
:10928000F7F720FCA8B958F82400F7F701FA1FFAFD
:1092900080FA4FEA1A200EF079FD0AF0FF000EF076
:1092A00095FD1E48007810B11D48007808B90EF0F1
:1092B0008FFE601CC4B2AC42DFDB2A46314619A0E7
:1092C000FCF779FE0746781C08B300241DE056F829
:1092D000240014A1F7F7F6FBA8B958F82400F7F713
:1092E000D7F981464FF6FF7000EA19400F49088010
:1092F0000F49A1F800900D4800880EF055FD0C486C
:1093000000880EF071FD601CC4B2AC42DFDB09A026
:10931000BDE8F08750574D4C564C0000ED00002042
:10932000EE00002050574D56414C0000F000002048
:10933000F20000202F636F6E74726F6C2E7368746E
:109340006D6C000010B501200349087003490860E6
:1093500001F02EFD10BD00004900002094024042A3
:1093600010B50020074908700748007807490860D1
:109370000748D0F8940208B90EF02AFE01F018FD53
:1093800010BD0000490000204A0000209402404225
:109390000000404210B501200349087003490860ED
:1093A00001F006FD10BD00004A000020940240427A
:1093B00010B5002007490870074800780749086081
:1093C0000748D0F8940208B90EF002FE01F0F0FC54
:1093D00010BD00004A0000204900002094024042D5
:1093E0000000404229B1064A12680243044B1A6049
:1093F00004E0034A12688243014B1A607047000080
:109400003038024029B1064A12680243044B1A6000
:1094100004E0034A12688243014B1A60704700005F
:109420004038024029B1064A12680243044B1A60D0
:1094300004E0034A12688243014B1A60704700003F
:1094400044380240F0B50021002200240225002605
:109450000223324F3F6807F00C0121B1042905D0E7
:10946000082937D105E02E4F076036E02D4F076001
:1094700033E02A4F3F1F3F68C7F38056274F3F1FF7
:109480003F6807F03F036EB1264FB7FBF3F7DFF8F5
:109490008CC0ACF1040CDCF800C0CCF3881C07FBDA
:1094A0000CF40CE01E4FB7FBF3F7DFF870C0ACF123
:1094B000040CDCF800C0CCF3881C07FB0CF4174F3D
:1094C0003F1F3F68C7F301477F1C7D00B4FBF5F7E2
:1094D000076002E0124F076000BF00BF0F4F3F68F8
:1094E00007F0F0010909104F7A5C0768D740476020
:1094F0000A4F3F6807F4E051890A0B4F7A5C4768CE
:10950000D7408760054F3F6807F46041490B064F1D
:109510007A5C4768D740C760F0BD00000838024059
:109520000024F40000127A001B01002010B51E2058
:10953000F7F712FF0149087010BD00000A01002072
:1095400008B5012269462220F7F7DEFE9DF80000EB
:10955000C0F38000074908709DF80000C0F3400088
:10956000054908709DF8000000F0010003490870EB
:1095700008BD00003F0000204A00002049000020F4
:1095800010B52720F7F7E8FE114908702820F7F7F3
:10959000E3FE104908802920F7F7DEFE0D4909781F
:1095A00040EA01200B4908802A20F7F7D5FE084938
:1095B00048702B20F7F7D0FE064948802C20F7F79B
:1095C000CBFE0449897840EA01200249488010BD59
:1095D000340000203600002070B504460D461422E9
:1095E000002128460BF0B7FC054830F81400054967
:1095F00021F814002946204600F002F970BD000051
:109600001C1D0020261D002030B585B00546002415
:1096100002201D4908703C2200211C480BF09BFCD5
:1096200001201B49087069462846FFF7D5FF9DF8C1
:10963000000008B905B030BD1422694613480BF08C
:109640007DFC022001F09AFD012415E069462846C0
:1096500000F0D6F89DF8000000B90FE004EB84019B
:109660000A4A02EB8100142269460BF067FC0220D3
:1096700001F084FD601CC4B2032CE7DB00BF054889
:10968000047000BFD6E7000001010020C01E0020CA
:1096900004010020FF00002030B585B005460024FD
:1096A00000201C4908701C48007878B91B4830F825
:1096B00015101B480078401E00EB8000A1EB8000D5
:1096C000164921F815000120134908703C22002199
:1096D00014480BF040FC002415E06946284600F0D1
:1096E0008FF89DF8000000B90FE004EB84010D4AEB
:1096F00002EB8100142269460BF020FC022001F0ED
:109700003DFD601CC4B2032CE7DB00BF04480470BD
:1097100005B030BD0101002004010020261D0020FD
:10972000FF000020C01E002030B585B00546002493
:1097300000201E4908701E48007801280FD11D48DE
:1097400030F815101C480078401E00EB800001EB3B
:109750008000184921F815000020154908703C22A6
:10976000002116480BF0F7FB002417E06946284655
:1097700000F0BAF89DF8000000B911E0C4F1020150
:1097800001EB81010D4A02EB8100142269460BF0C6
:10979000D5FB022001F0F2FC601CC4B2032CE5DB17
:1097A00000BF0548047005B030BD00000101002075
:1097B00004010020261D0020FF000020C01E002004
:1097C00010B5002406220D492046F7F79DFDA41D83
:1097D00004220A490A312046F7F796FD241D042287
:1097E00006490E312046F7F78FFD241D0422034958
:1097F00012312046F7F788FD10BD0000682B0020CD
:1098000070B504460D461422002128460BF0A3FB38
:109810002B4830F8141041F2707204FB02F000F58E
:10982000807080B2814216D1204606F0A1FB58B16B
:1098300041F2707104FB01F000F5807008441438A7
:109840001F4921F814000DE00121204614F08AF888
:109850000020287070BD1A4830F8140014381849D8
:1098600021F81400164931F8140014222946F7F79C
:109870004BFD0020E874204606F07AFB60B11048EA
:1098800030F814000F4931F81410884215D1012125
:10989000204614F067F8DDE7094830F8141041F26B
:1098A000707204FB02F000F5807080B2814204D136
:1098B0000121204614F056F8CCE700BFCAE70000AB
:1098C000261D00201C1D002010B52020F7F744FDA8
:1098D000034908702120F7F73FFD0249087010BDC9
:1098E000ED000020EE00002070B504460D46142265
:1098F000002128460BF02FFB254830F8141041F2C8
:10990000707204FB02F000F580701044143880B2CD
:10991000814208D1114604FB01F000F580701C491A
:1099200021F814001CE01A4830F81410194830F8D7
:109930001400143881420CD1164830F81400144930
:1099400021F814000221204614F00CF800202870A1
:1099500070BD0F4830F8140014300D4921F8140080
:109960000B4931F8140014222946F7F7CDFC0020EA
:10997000E874074830F81410064830F8140014381A
:10998000814203D10221204613F0ECFF00BFDFE744
:10999000261D00201C1D002010B52420F7F7DCFC3C
:1099A00040B2044908702520F7F7D6FC40B20149BF
:1099B000487010BD9700002030B585B005460024E2
:1099C0000120214908700220204908700020204908
:1099D0000870C82200211F480BF0BDFA01201E4963
:1099E000087069462846FFF7F7FD9DF8000008B9A2
:1099F00005B030BD69461748F6F76CFF17A115484A
:109A0000F6F768FF022001F0B9FB012414E0694673
:109A10002846FFF7F5FE9DF8000000B90EE0694604
:109A20000C48F6F757FF0DA10A48F6F753FF02203E
:109A300001F0A4FB601CC4B20A2CE8DB00BF0448A0
:109A4000047000BFD4E70000FD00002000010020EA
:109A5000FE000020301D0020030100202300000034
:109A600030B585B0044600251E480078401C1D49CD
:109A7000087000201C4908701C48007878B91C4800
:109A800030F814101B480078401E00EB8000A1EB5A
:109A90008000174921F81400012014490870C822D9
:109AA000002115480BF057FA002514E069462046BE
:109AB000FFF7A6FE9DF8000000B90EE069460E48CB
:109AC000F6F708FF0DA10C48F6F704FF022001F09D
:109AD00055FB681CC5B20A2DE8DB00BF05480570C0
:109AE00005B030BDFD000020000100200301002072
:109AF000261D0020FE000020301D00202300000055
:109B000030B585B00446002528480078401E274916
:109B100008700020264908702648007801280FD1D7
:109B2000254830F8141025480078401E00EB8000CE
:109B300001EB8000204921F8140000201D49087025
:109B4000C82200211E480BF006FA002527E06946CE
:109B50002046FFF7C9FE9DF8000000B921E0C822A9
:109B6000002118480BF0F7F9C822154915480BF0E9
:109B7000E5F9C822002112480BF0EDF969461048BA
:109B8000F6F7A8FE10A10E48F6F7A4FE0D490C4802
:109B9000F6F7A0FE022001F0F1FA681CC5B20A2D0A
:109BA000D5DB00BF0548057005B030BDFD000020C5
:109BB0000001002003010020261D0020FE000020DF
:109BC000301D0020F81D0020230000000020054962
:109BD0000860401E04490860044800780449087081
:109BE0007047000084024242500000203A000020EA
:109BF0003B000020002005490860401E0449086021
:109C0000044800780449087070470000800242420E
:109C1000540000203A0000203B0000202DE9FF41C5
:109C200005460C461646152D1FD2DFE805F00B1F22
:109C30002D3B494D555C677C848C939FA6B3C4CB68
:109C4000D6E6ED007848407977490979764AD278A6
:109C5000754B9B78CDE90032CDE90210724843780C
:109C6000027872A12046F6F7ABFBD4E06E48407B49
:109C70006D49097BCDE900106B48C37A827A73A1E4
:109C80002046F6F79DFBC6E06748407C6649097CA4
:109C9000CDE900106448C37B827B6CA12046F6F7B7
:109CA0008FFBB8E06048407D5F49097DCDE9001039
:109CB0005D48C37C827C65A12046F6F781FBAAE063
:109CC000204600F031FFA6E0634A64A12046F6F783
:109CD00077FB0020E0749EE06148027861A1204695
:109CE000F6F76EFB97E0604800786049097840EA33
:109CF00001225CA12046F6F763FB8CE05C4800780B
:109D0000C007400F5B49097801F0010140EA4100BA
:109D10005949097801F0010140EA010251A12046A8
:109D2000F6F74EFB77E0554A4CA12046F6F748FB84
:109D3000002020716FE0524A48A12046F6F740FB10
:109D40000020607167E04F48027846A12046F6F790
:109D500037FB60E04C48007818B94A480078FFF7B4
:109D60002BFE49492046F6F727FD54E04748027884
:109D70003CA12046F6F724FB4DE0454890F9000051
:109D8000434991F9011040EA012236A12046F6F735
:109D900017FB40E03F4840883F49497840EA01438B
:109DA0003C4800883C49097840EA01423BA12046F2
:109DB000F6F706FB2FE03B4802782AA12046F6F78B
:109DC000FFFA28E02F48007803F03CFB07463A46AC
:109DD00024A12046F6F7F4FA1DE03348007802216A
:109DE00001EA40003149097801F0010140EA01022D
:109DF0001CA12046F6F7E4FA0DE02D48027819A1DF
:109E00002046F6F7DDFA06E02A48027815A120463A
:109E1000F6F7D6FA00BF00BF2046F6F7F1FC80B295
:109E200004B0BDE8F0810000682B002025303258D6
:109E30003A253032583A253032583A253032583A9D
:109E4000253032583A2530325800000025642E253E
:109E5000642E25642E256400A01C002025730000BC
:109E60003A00002025640000EE000020ED000020F4
:109E70003F0000204A00002049000020120100207D
:109E80001601002002010020301D002000010020EA
:109E90009700002036000020340000202564232590
:109EA00064000000FD000020580000205900002040
:109EB000990000200A010020014908607047000055
:109EC000DC00274230B500228B071C0F0F2303FA5A
:109ED00004F20B4B8C1053F824309343084C8D1034
:109EE00044F8253023468C1053F824308C07240F77
:109EF00000FA04F42343024C8D1044F8253030BDA1
:109F000008380140274800783038642110FB01F1FF
:109F100024484078303800EB800001EB40012148B4
:109F2000807830380844204988741E4800793038D9
:109F3000642110FB01F11B484079303800EB8000B0
:109F400001EB40011748807930380844C1B2164807
:109F5000C1741448007A3038642110FB01F11148B3
:109F6000407A303800EB800001EB40010D48807AE8
:109F700030380844C1B20C4801750A48007B3038BB
:109F8000642110FB01F10748407B303800EB800072
:109F900001EB40010348807B30380844C1B20248DD
:109FA000417570470B1D0020682B00202748007862
:109FB0003038642110FB01F124484078303800EB40
:109FC000800001EB40012148807830380844204966
:109FD00088721E4800793038642110FB01F11B485B
:109FE0004079303800EB800001EB40011748807960
:109FF00030380844C1B21648C1721448007A30386B
:10A00000642110FB01F11148407A303800EB8000E8
:10A0100001EB40010D48807A30380844C1B20C4849
:10A0200001730A48007B3038642110FB01F10748B6
:10A03000407B303800EB800001EB40010348807B1F
:10A0400030380844C1B2024841737047EB1C00200D
:10A05000682B0020274800783038642110FB01F17C
:10A0600024484078303800EB800001EB4001214863
:10A07000807830380844204988731E480079303889
:10A08000642110FB01F11B484079303800EB80005F
:10A0900001EB40011748807930380844C1B21648B6
:10A0A000C1731448007A3038642110FB01F1114863
:10A0B000407A303800EB800001EB40010D48807A97
:10A0C00030380844C1B20C4801740A48007B30386B
:10A0D000642110FB01F10748407B303800EB800021
:10A0E00001EB40010348807B30380844C1B202488C
:10A0F00041747047FB1C0020682B00200CB5002029
:10A10000019000903448006840F480303249086083
:10A1100000BF3148006800F4003000900198401CF6
:10A120000190009818B90198B0F5A04FF1D12A48D4
:10A13000006800F4003010B10120009001E0002020
:10A1400000900098012846D123484030006840F034
:10A1500080502149403108602048006840F4404068
:10A160001E4908601C48083000681B490831086017
:10A170000846006840F4004008600846006840F463
:10A18000A05008601648091F0860081F006840F0CA
:10A190008070091F086000BF0F48006800F0007061
:10A1A0000028F9D040F205700E4908600A480830CE
:10A1B000006820F00300084908310860084600687C
:10A1C00040F00200086000BF03480830006800F05B
:10A1D0000C000828F8D10CBD003802400070004087
:10A1E00008544007003C024001218140084A12788F
:10A1F0001143074A117007490978C1F3800131B949
:10A2000001218140044A12781143034A11707047BA
:10A210003A0000200A0100203B0000202DE9F04711
:10A2200007460D46164698460024A1462A46314662
:10A2300011A0FBF7C0FE0746781CA0B100BF10E0DC
:10A2400056F824000CA1F6F73DFC40B958F824005C
:10A25000F6F71EFA00F0FF0948460DF0C7FC601C37
:10A26000C4B2AC42ECDBB9F1010F02D105A0BDE8EC
:10A27000F08709A0FBE7000073687574646F776E60
:10A28000000000002F706172616D65746572732E3D
:10A290007368746D6C0000002F72656D6F7465706B
:10A2A0006F7765722E7368746D6C00002DE9F0474E
:10A2B00007460D461646984600242A4631460FA00A
:10A2C000FBF779FE0746781CA0B100BF10E056F8F6
:10A2D00024000AA1F6F7F6FB40B958F82400F6F777
:10A2E000D7F91FFA80F948460DF0D2FD601CC4B2C0
:10A2F000AC42ECDB03A0BDE8F087000053574954A3
:10A30000434800002F706172616D65746572732E31
:10A310007368746D6C000000042808D14FF0E021D0
:10A32000096941F004014FF0E022116107E04FF0AC
:10A33000E021096921F004014FF0E022116170472A
:10A3400010B505480078012805D1FCF713FFFEF78A
:10A3500069F9FCF721FF10BD6201002001480249A4
:10A36000086070470400FA050CED00E010B51548D0
:10A37000006840F47000134908601348006840F01A
:10A3800001001149086000200F49083108600E489B
:10A3900000680E4908400C4908600D48091D086016
:10A3A000081F006820F48020091F0860002006496B
:10A3B0000C310860FFF7A2FE4FF0006001498039C0
:10A3C000086010BD88ED00E000380240FFFFF6FE97
:10A3D0001030002400BFBFF34F8F0748006800F41F
:10A3E000E06006490843001D03490860BFF34F8F32
:10A3F00000BF00BFFEE700000CED00E00000FA0522
:10A4000030B58BB004460D4601210846FEF7EAFF41
:10A4100002208DF8280000208DF82A004FF40060FB
:10A42000099000208DF82B0003208DF8290009A940
:10A430002348FBF7D6FD01220B212148FBF719FE2B
:10A4400001210846FEF7EEFF0020ADF82000ADF830
:10A450001A00A8B2ADF81800079406A9194800F030
:10A4600021FB6020ADF80400ADF804000120ADF838
:10A4700006000020ADF81000FFF726FA1248007819
:10A48000FF2804D108201049087000F089FD0F480A
:10A490000078FF2804D108200C49087000F080FDE6
:10A4A0002820039001A9074800F0BEFA01210548C1
:10A4B00000F085FA0021034800F08DFA0BB030BDA2
:10A4C0000000024000000140ED000020EE000020EE
:10A4D00010B5FCF74FFE0121524800F08BFA01281D
:10A4E0007ED15148007808B1002005E04F4800684F
:10A4F00008B9012000E000204C4908604C48007871
:10A50000401C4B4908704B480078401CC0B2494978
:10A5100008700A2807D1002008704748007840F0EA
:10A5200080004549087045480078401CC0B2434946
:10A530000870022863D1002008703F48007840F07E
:10A5400040003D4908700846007840F0200008703F
:10A550003B48007800280CDD3A480078C0F1040040
:10A5600037490978884204DD35480078401C344971
:10A5700008703548007800280CDD32480078C0F1BA
:10A58000040031490978884204DD2F480078401CD6
:10A590002D4908702D48007800280CDD29480078E6
:10A5A000C0F1040029490978884204DD2748007871
:10A5B000401C264908702648007800280CDD2148F8
:10A5C0000078C0F1040022490978884204DD20485F
:10A5D0000078401C1E4908701E480078002800E0E2
:10A5E00018E00CDD17480078C0F10400194909781B
:10A5F000884204DD17480078401C164908700E4850
:10A60000007840F001000C4908700846007840F0DE
:10A61000020008700121034800F0CEF9FCF7BCFDF0
:10A6200010BD000000040040990000208C02404250
:10A63000A7000020F4000020FC000020F50000200E
:10A640004B0000205A0000204C0000204D0000204C
:10A650004E0000204F0000207FB505460C4601212A
:10A660000220FEF7CFFE0295ADF804400020ADF8C1
:10A670000600ADF80C0001A90D4800F013FA012204
:10A6800011460B4800F0C7F90121094800F097F97D
:10A690001D208DF8000002208DF8010001208DF8AA
:10A6A00002008DF803006846FCF766FC7FBD0000E1
:10A6B0000004004010B5FCF75DFD0121544800F096
:10A6C00099F9012876D15348534A0168881A914272
:10A6D0004AD00FDC14292FD005DCF9B1022924D08F
:10A6E0000A296ED125E01E2929D028292AD06429DB
:10A6F00067D12AE01E2848D006DC02283BD00A2871
:10A700003DD014285DD13DE0282841D0642842D0B6
:10A71000A0F5C3309F38002853D14DE03F48007862
:10A72000012801D13E4908604CE000203C49086006
:10A7300048E0F6F7BBFE45E0F6F7B8FE42E0F6F774
:10A74000B5FE3FE0F6F7B2FE3CE03648007801285F
:10A7500009D135483549097830F81100002802DD63
:10A7600001200DF06BFB2DE02E480078012801D16F
:10A770002F49086026E000202D49086022E0F6F706
:10A780005FFB1FE0F6F75CFB1CE0F6F759FB19E0F6
:10A79000F6F756FB16E021480078012809D1224837
:10A7A0002449097830F81100002802DD01200DF05D
:10A7B00045FB07E025E004E04FF0FF301549086055
:10A7C00000E000BF00BF18481849097830F81100B0
:10A7D00064301049096888420BD01348154909783C
:10A7E00030F811000C49643108440A49096888426C
:10A7F00002D100200DF022FB06480068401C0549EC
:10A8000008600121024800F0D7F8FCF7C5FC10BD34
:10A8100000080040F8000020A08601004A00002047
:10A82000A002414249000020DA000020ED00002093
:10A83000A4024042EE0000207FB505460C460121EF
:10A840000420FEF7DFFD0295ADF804400020ADF8CE
:10A850000600ADF80C0001A90D4800F023F9012213
:10A8600011460B4800F0D7F80121094800F0A7F87D
:10A870001E208DF8000002208DF8010000208DF8C8
:10A88000020001208DF803006846FCF775FB7FBDD0
:10A890000008004010B5FCF76DFC01212A4800F0CB
:10A8A000A9F8012849D129480068401C38B928482E
:10A8B000007800F01300D8B1F6F7E4FD18E0254861
:10A8C000008800EB800021490968B1EB400F0ADBEA
:10A8D0001F48007800F0130010B1F6F7D3FD07E031
:10A8E000FFF774F904E019480068401C1749086034
:10A8F00019480068401C38B91548007800F01C0061
:10A90000D8B1F6F7C9FD18E01248408800EB800086
:10A9100011490968B1EB400F0ADB0D48007800F0DF
:10A920001C0010B1F6F7B8FD07E0FFF763F904E08B
:10A9300009480068401C084908600121024800F0ED
:10A940003BF8FCF729FC10BD000C00405000002033
:10A950003A00002036000020540000207FB5054654
:10A960000C4601210820FEF74DFD0295ADF804408C
:10A970000020ADF80600ADF80C0001A90D4800F06C
:10A9800091F8012211460B4800F045F801210948D1
:10A9900000F015F832208DF8000002208DF801003B
:10A9A00001208DF802008DF803006846FCF7E4FAF8
:10A9B0007FBD0000000C0040CA430282704721B1F5
:10A9C000028842F00102028004E002884FF6FE7322
:10A9D0001A400280704731B1B0F8442042F400427E
:10A9E000A0F8442005E0B0F84420C2F30E02A0F81D
:10A9F0004420704730B50246002000230024158A09
:10AA000005EA0103958905EA010413B10CB101209F
:10AA100000E0002030BD1AB183890B43838102E03E
:10AA200083898B438381704770B500220023002403
:10AA3000058C4EF6FF7635400584038C8488828B26
:10AA400048F6FF752A404FF6FF452A400D884FF61D
:10AA5000FF7606EA05252A434DF6FF752B408D89C2
:10AA600006EA05352B434D8806EA05352B430A4D8A
:10AA7000A84202D0094DA84208D14BF6FF752C40E0
:10AA80000D8A4FF6FF7606EA85152C438480828373
:10AA90008D680564038470BD00000140000401401E
:10AAA0000164704700220288184B98420ED0184B60
:10AAB00098420BD0B0F1804F08D0164B984205D089
:10AAC000154B984202D0154B984204D14FF68F7324
:10AAD0001A404B881A43124B984207D0114B9842A8
:10AAE00004D04FF6FF431A400B891A4302804B688B
:10AAF000C3620B880385054B984202D0044B9842F1
:10AB000001D18B7A038601238382704700000140C4
:10AB1000000401400004004000080040000C004018
:10AB2000001000400014004010B504462046FCF719
:10AB300025F810BD10B5FCF71DFB40F225511E484D
:10AB400000F04CF810B31C4800F002F9C4B21B48E6
:10AB5000008800F40040C8B91848008800F480401C
:10AB600060B10A2C03D000201449088020E013486B
:10AB7000008840F400401149088019E00D2C06D1EE
:10AB80000E48008840F480400C49088010E00B48D3
:10AB90000088C0F30D000A490C5408480088401C86
:10ABA0000649088008460088C72801DD0020088083
:10ABB000FCF7F2FA10BD0000001001401001002067
:10ABC000FC1E002021B1828942F40052828104E0FF
:10ABD00082894DF6FF731A408281704770B5024634
:10ABE000002400230025002040F66A16B14200D15F
:10ABF00000BFC1F3421501F01F03012606FA03F35B
:10AC0000012D02D19689334006E0022D02D1168A29
:10AC1000334001E0968A33400C12012606FA04F410
:10AC20001688344013B10CB1012000E0002070BD43
:10AC3000F0B50346002400260025002040F66A17E0
:10AC4000B94200D100BF1846C1F3421401F01F06FB
:10AC5000012707FA06F5012C01D10C3004E0022C83
:10AC600001D1103000E014301AB107682F4307609B
:10AC700002E00768AF430760F0BD00002DE9FF4721
:10AC800005460E460024A14600BFA046B08900B18B
:10AC900000BF2C8A24F44054F08804432C82AC89F1
:10ACA00041F20C608443B0883189084371890843BC
:10ACB0000443AC81AC8A24F44074B0890443AC8270
:10ACC0006846FEF7BFFB2048854202D01F488542F8
:10ACD00002D1DDF80C9001E0DDF80890A88900F4BD
:10ACE000004040B109EBC90000EB09103168490090
:10ACF000B0FBF1F707E009EBC90000EB0910316880
:10AD00008900B0FBF1F76420B7FBF0F004012009E3
:10AD1000642101FB1078A88900F4004040B1322082
:10AD200000EBC800B0FBF1F000F00700044308E0BE
:10AD3000322000EB08106421B0FBF1F000F00F00AE
:10AD400004432C81BDE8FF8700100140001401403E
:10AD500001468888C0F308007047000010B5002045
:10AD60000D49087400210C4880F8241080F8381030
:10AD7000012302460220FAF7D5F80123064A1432CD
:10AD800000210420FAF7CEF80123034A28320021DB
:10AD90000620FAF7C7F810BDC01E002010B5034802
:10ADA00001781E20F6F738FB10BD00000A010020D4
:10ADB00008B50B480078C007400F0A49097801F030
:10ADC000010140EA41000849097801F00101084306
:10ADD0000090012269462220F6F7F6FA08BD00002D
:10ADE0003F0000204A0000204900002010B5104814
:10ADF00001782720F6F710FB0E480088010A28206A
:10AE0000F6F70AFB0B4801782920F6F705FB0848FE
:10AE100041782A20F6F700FB06484088010A2B20DB
:10AE2000F6F7FAFA034881782C20F6F7F5FA10BD08
:10AE3000340000203600002000F00101114A1160AA
:10AE4000C0F34001104AC2F8AC12C0F380010D4AB1
:10AE500008321160C0F3C001121F1160C0F300116D
:10AE60000A4A1160C0F34011064A0C321160C0F367
:10AE70008011064A14321160C109054AC2F8B8129D
:10AE800070470000B002424200004242A8824042A5
:10AE90000080404230B585B004460D4613222A4951
:10AEA00068460AF04BF88DF81350284830F8141013
:10AEB00041F2707204FB02F000F5807080B28142B2
:10AEC0000BDB224830F8141004FB02F000F5807010
:10AED0001044143880B2814208DD41F2707104FBE5
:10AEE00001F000F58070194921F81400174830F876
:10AEF0001400E02806DB154931F8140014226946D5
:10AF0000F6F762FA114830F8140014300F4921F8AE
:10AF100014000A4632F81410E02202EB4400022228
:10AF2000F6F764FAC822002109480AF014F8012053
:10AF3000084908703C22002107480AF00CF801205B
:10AF40000649087005B030BDA01C00201C1D002063
:10AF5000301D002003010020C01E0020040100203D
:10AF600010B5002406220D492046F6F72DFAA41D3F
:10AF700004220A490A312046F6F726FA241D042243
:10AF800006490E312046F6F71FFA241D0422034914
:10AF900012312046F6F718FA10BD0000682B002089
:10AFA00010B5054801782020F6F736FA03480178F5
:10AFB0002120F6F731FA10BDED000020EE00002050
:10AFC00010B5054801782420F6F726FA02484178A2
:10AFD0002520F6F721FA10BD9700002030380A2806
:10AFE00001D20120704700207047014600BF704722
:10AFF0002DE9F04706460F469046354600BF00BF94
:10B0000005F114000DF09EF928B900BF00BF6FF0E4
:10B010000500BDE8F0872878E96A0AF08DF8044653
:10B0200014B94FF0FF30F4E7676020460CF044FF9E
:10B0300084F80880214605F114000DF071F930B351
:10B04000D4F80490002148460DF0EAFC002148465F
:10B0500010F0D2FA0021484610F030FF04220021FF
:10B0600048460FF051FA002148460EF069F80020DA
:10B07000606004F110000DF09FF804F110000DF075
:10B080004BF920460AF082FA4FF0FF30C1E7E86A38
:10B0900020B1002211462846EB6A98470020B8E705
:10B0A00010B5044600BF00BF01F05CFE0022AFF205
:10B0B0000F0141F288300DF033FA10BD70B504462F
:10B0C0006FF00400FFF728F9E11704EB5171C1F3A9
:10B0D000C7010D4A1170E11704EB5171CD1041F217
:10B0E000883045430520094908804FF0E020006979
:10B0F00040F002004FF0E021086108464561006918
:10B1000040F00100086170BD060100200801002028
:10B1100070B504460F480078A0B10F48007888B990
:10B120000E480088844206DB0C48008894FBF0F54A
:10B13000284600F01DF80948008894FBF0F100FB58
:10B14000114084B24FF47A7104FB01F000F016F85C
:10B1500070BD0000620100205501002008010020A0
:10B1600010B5FCF70FFD10BD10B5FCF72BFD10BDA1
:10B1700010B504462046FDF70BFA10BD2DE9F04747
:10B18000074600264FF0E020D0F8149010480078D1
:10B1900007FB00F8FFF7E4FF4FF0E020856911E0BE
:10B1A0004FF0E0208469AC420CD0AC4202D2281BA4
:10B1B000064403E0A9EB040028440644254646451E
:10B1C00000D300E0ECE700BFFFF7CEFFBDE8F0875B
:10B1D0000601002010B5044620460AF0ADF82046CE
:10B1E0000AF01AF910BD10B50446206890F908005D
:10B1F00010F1090F03DA2068007A207127E0FA20A5
:10B2000020712068406810B32068007800F0F000DA
:10B21000102812D0202808D0402816D12268A16812
:10B2200050680CF081FA207110E0A2892368A168AF
:10B23000586812F08BF9207108E0A2892368A16890
:10B2400058680DF0EFFB207100E000BF00BF2168DF
:10B2500001F10C000DF027F910BD000010B50446F7
:10B2600020684078002815D020684078022811D046
:10B2700000BF20680078102808D000BF23A340F248
:10B28000B1522CA133A0F5F78FF800BF00BFFB200F
:10B29000207134E02068406800282ED020680078B3
:10B2A00010282AD1207A032806D020684078022866
:10B2B00002D1F320207122E0207A00F0010010B1C9
:10B2C00020680AF0BDF800BF2068806A10B92068C5
:10B2D000406A40B100BF0DA340F2BC5228A11DA09E
:10B2E000F5F762F800BF00BF0420216848702068AD
:10B2F0008462206800F052F810BDFA2020712168A5
:10B3000001F10C000DF0CFF800BFF5E72E2E5C4CDC
:10B310005749505C6C7769702D312E342E315C7337
:10B3200072635C6170695C6170695F6D73672E63E5
:10B33000000000006D73672D3E636F6E6E2D3E74CE
:10B34000797065203D3D204E4554434F4E4E5F542D
:10B3500043500000417373657274696F6E2022253B
:10B360007322206661696C6564206174206C696E6B
:10B370006520256420696E2025730D0A00000000F9
:10B38000616C72656164792077726974696E672097
:10B390006F7220636C6F73696E6700002DE9F04770
:10B3A000044600BF44B900BF67A34FF43C7270A1CC
:10B3B00073A0F4F7F9FF00BF00BF00BF207810288A
:10B3C00008D000BF60A340F2F12278A16CA0F4F78E
:10B3D000EBFF00BF00BF00BF6078042808D000BFAB
:10B3E00059A340F2F22279A165A0F4F7DDFF00BF76
:10B3F00000BF00BF606840B900BF53A340F2F32212
:10B400007BA15FA0F4F7D0FF00BF00BF00BFA06A20
:10B4100040B900BF4CA34FF43D727AA158A0F4F795
:10B42000C3FF00BF00BFA06A067A06F0010706F05E
:10B430000208032E01D1012000E000208146B9F16D
:10B44000000F03D0002160680DF0EAFA6068007E0A
:10B45000012804D1002160680DF079FA1BE03FB1AA
:10B460000021606810F0C8F8002160680DF06FFAE4
:10B47000B8F1000F03D00021606810F01FFDB9F192
:10B48000000F08D00422002160680FF03DF8002171
:10B4900060680DF055FEB9F1000F04D060680DF042
:10B4A00055FB054605E042463946606810F0B8FD98
:10B4B000054635BB0020A16A0871A0626070B9F131
:10B4C000000F07D06060E06A20B10022042120460E
:10B4D000E36A984737B1E06A20B10022114620465E
:10B4E000E36A9847B8F1000F06D0E06A20B1002265
:10B4F00002212046E36A984704F10C000CF0D3FFC8
:10B500001FE000BF6068007E012808D100BF0EA3C5
:10B5100040F22D3242A11AA0F4F746FF00BF00BF4F
:10B520004849606810F0CAFC0422474960680EF080
:10B53000EBFF464960680DF003FE214660680DF0A0
:10B540006FFABDE8F08700002E2E5C4C5749505C26
:10B550006C7769702D312E342E315C7372635C61AF
:10B5600070695C6170695F6D73672E630000000035
:10B57000696E76616C696420636F6E6E0000000016
:10B58000417373657274696F6E2022257322206681
:10B5900061696C6564206174206C696E6520256446
:10B5A00020696E2025730D0A00000000746869731D
:10B5B00020697320666F7220746370206E657463F7
:10B5C0006F6E6E73206F6E6C79000000636F6E6E2D
:10B5D000206D75737420626520696E2073746174C8
:10B5E00065204E4554434F4E4E5F434C4F534500EC
:10B5F00070636220616C726561647920636C6F7343
:10B6000065640000636F6E6E2D3E63757272656EC9
:10B61000745F6D736720213D204E554C4C00000037
:10B62000436C6F73696E672061206C697374656E1B
:10B6300020706362206D6179206E6F74206661698D
:10B640006C210000AD7C01084576010891BE000820
:10B6500010B5044620684078002819D0206840784A
:10B66000022815D020684078032811D000BF206838
:10B670000078102808D000BF3EA340F2473247A10F
:10B680004EA0F4F791FE00BF00BFFB20207164E0E4
:10B6900000BF2068407803280ED1206890F8200071
:10B6A00000F0040040B900BF32A340F24A324EA17C
:10B6B00042A0F4F779FE00BF00BF206809F0C0FE89
:10B6C00020684068002838D02068007800F0F0003A
:10B6D000102811D0202806D0402829D12168486898
:10B6E0000CF082F825E0002021684968C8612168D3
:10B6F000486812F017F91CE000BF2068806A10B992
:10B700002068406A40B100BF1AA340F25F323EA1F8
:10B710002AA0F4F749FE00BF00BF0420216848704A
:10B7200003202072206884622068FFF737FE10BD76
:10B7300000BF00BF0020216848602068C06A20B1B7
:10B74000206800221146C36A98472068C06A20B169
:10B75000206800220221C36A9847216801F10C0089
:10B760000CF0A7FE20B1216801F10C000CF09BFE4B
:10B7700000BFDCE72E2E5C4C5749505C6C7769703B
:10B780002D312E342E315C7372635C6170695C61A3
:10B7900070695F6D73672E63000000006D73672D25
:10B7A0003E636F6E6E2D3E74797065203D3D204E78
:10B7B0004554434F4E4E5F544350000041737365F0
:10B7C0007274696F6E2022257322206661696C6530
:10B7D00064206174206C696E6520256420696E2088
:10B7E00025730D0A00000000626C6F636B696E6761
:10B7F00020636F6E6E65637420696E2070726F6770
:10B800007265737300000000616C72656164792079
:10B8100077726974696E67206F7220636C6F7369E9
:10B820006E67000010B5044620684068002853D0B9
:10B83000207C28B12168A06849680968016004E09B
:10B840002168A0684968496801600020207120686B
:10B85000007800F0F000102825D020280CD04028D7
:10B860002DD1207C28B120684068017CE0680180EF
:10B8700001E0F32020712EE0207C28B12068406890
:10B88000418AE06801800DE020684068007C00F09B
:10B89000040010B9F320207104E020684068818A18
:10B8A000E068018017E0207C18B120684068408B78
:10B8B00002E020684068808BE16808800BE000BFF0
:10B8C00000BF09A340F29B5211A117A0F4F76CFD31
:10B8D00000BF00BF00BF01E0F3202071216801F12B
:10B8E0000C000CF0E0FD10BD2E2E5C4C5749505C56
:10B8F0006C7769702D312E342E315C7372635C610C
:10B9000070695C6170695F6D73672E630000000091
:10B91000696E76616C6964206E6574636F6E6E5FCC
:10B920007479706500000000417373657274696F0B
:10B930006E2022257322206661696C656420617423
:10B94000206C696E6520256420696E2025730D0AC0
:10B950000000000070B50446206890F9080010F15E
:10B96000090F03DA2068007A207150E0F32020717B
:10B970002068406800284AD020680078102844D108
:10B9800020684078002842D121684868FF210EF0E5
:10B99000D9F8054615B9FF20207135E0216801F17D
:10B9A00010000CF0CFFC48B1216801F110000CF040
:10B9B00003FC216801F110000CF0AEFC00202071A6
:10B9C000216801F114000CF0BDFC30B9216801F1CF
:10B9D000140014210CF032FC2071207970B902207F
:10B9E0002168487020684560216848680DF018F8A3
:10B9F0002168486809490CF0AAFF05E028460DF0C7
:10BA0000A5F800202168486001E0F220207121683B
:10BA100001F10C000CF047FD70BD0000F1AF000813
:10BA200010B50446002020712068406810B92046F7
:10BA30000BF098FC216801F10C000CF034FD10BDF6
:10BA400070B504460020207120684068B0B12068BD
:10BA50000078102812D1A56800BFB5F5803F02D349
:10BA60004FF6FF7000E0A8B20646216848683146EC
:10BA70000FF096FEAD1B002DEFD100BF216801F144
:10BA80000C000CF010FD70BD10B50446206890F954
:10BA9000080010F1090F03DA2068007A20713CE0F9
:10BAA00020680078102836D12068407810B1FB203B
:10BAB000207132E020684068002829D001202168E8
:10BAC000487000BF2068806A10B92068406A40B1A1
:10BAD00000BF15A340F24C521DA124A0F4F764FC52
:10BAE00000BF00BF00BFE06840B900BF0EA340F236
:10BAF0004E5229A11DA0F4F757FC00BF00BF2068DB
:10BB00008462002021684862206800F04FF810BD70
:10BB1000F320207101E0FA202071216801F10C006E
:10BB20000CF0C1FC00BFF2E72E2E5C4C5749505C74
:10BB30006C7769702D312E342E315C7372635C61C9
:10BB400070695C6170695F6D73672E63000000004F
:10BB5000616C72656164792077726974696E6720BF
:10BB60006F7220636C6F73696E6700004173736559
:10BB70007274696F6E2022257322206661696C657C
:10BB800064206174206C696E6520256420696E20D4
:10BB900025730D0A000000006D73672D3E6D7367FD
:10BBA0002E772E6C656E20213D2030002DE9F84F58
:10BBB00004460020009094F8200000F0020020B914
:10BBC000A06A007C00F0040008B1012000E0002021
:10BBD0000746A06A90F8108000BF44B900BF69A36F
:10BBE00040F2C34271A175A0F4F7DEFB00BF00BFB5
:10BBF00000BF6078012808D000BF62A340F2C442B1
:10BC000079A16EA0F4F7D0FB00BF00BF00BFA06A0F
:10BC100040B900BF5BA340F2C5427BA167A0F4F727
:10BC2000C3FB00BF00BF00BF606840B900BF55A3A1
:10BC300040F2C6427BA161A0F4F7B6FB00BF00BF93
:10BC400000BFD4E90910C068814208D300BF4DA3EA
:10BC500040F2C74279A159A0F4F7A6FB00BF00BF8C
:10BC6000A06A8068616A00EB010BA06AC068616A23
:10BC7000A0EB010ABAF5803F04D34FF6FF7648F0F7
:10BC8000020801E01FFA8AF66068B0F86690B145D4
:10BC900007DA4E461FB126B96FF006051DE048F0E1
:10BCA000020800BF606A8119A06AC068814208D991
:10BCB00000BF34A340F2F5426DA140A0F4F774FB3D
:10BCC00000BF00BF434632465946606810F0C0FDD1
:10BCD00005460DB1681C30BB00BF8FB1A06AC068BB
:10BCE000B0420DD9E06A20B1324603212046E36A12
:10BCF000984794F8200040F0100084F8200012E0EB
:10BD00006068B0F8660040F66931884204DD60681A
:10BD1000B0F86800052806DBE06A20B1324603214E
:10BD20002046E36A98479DB9606A30446062D4E96E
:10BD30000910C068814200D037B1D4E90910C16050
:10BD4000012000900020606260680DF0F3FF0BE0BE
:10BD5000681C20B91FB960680DF0ECFF04E00120F9
:10BD600000900021A06AC160009840B1A06A0571EE
:10BD70000020A062607004F10C000CF094FB002025
:10BD8000BDE8F88F2E2E5C4C5749505C6C7769707B
:10BD90002D312E342E315C7372635C6170695C618D
:10BDA00070695F6D73672E6300000000636F6E6ED5
:10BDB00020213D204E554C4C00000000417373651E
:10BDC0007274696F6E2022257322206661696C652A
:10BDD00064206174206C696E6520256420696E2082
:10BDE00025730D0A00000000636F6E6E2D3E7374A4
:10BDF000617465203D3D204E4554434F4E4E5F5784
:10BE00005249544500000000636F6E6E2D3E63750D
:10BE10007272656E745F6D736720213D204E554CC4
:10BE20004C000000636F6E6E2D3E7063622E746373
:10BE30007020213D204E554C4C000000636F6E6E0B
:10BE40002D3E77726974655F6F6666736574203C1A
:10BE500020636F6E6E2D3E63757272656E745F6DDA
:10BE600073672D3E6D73672E772E6C656E00000034
:10BE7000646F5F77726974656D6F72653A20696E81
:10BE800076616C6964206C656E67746821000000DF
:10BE90002DE9F04707460E463C4600BF44B900BFB7
:10BEA0003BA34FF4B17244A147A0F4F77DFA00BF61
:10BEB00000BF00206060F4F709FA81462672484608
:10BEC000F4F708FA657800206070E06A20B100227B
:10BED00004212046E36A9847E06A20B10022114617
:10BEE0002046E36A9847E06A20B1002202212046FA
:10BEF000E36A984704F110000CF024FA20B1002105
:10BF000004F110000CF00CFA04F114000CF01AFA11
:10BF100020B1002104F114000CF002FA012D03D02D
:10BF2000042D01D0032D24D194F82000C0F3800803
:10BF300000BF94F8200020F0040084F8200000BF27
:10BF4000B8F1000F14D100BFA06A40B900BF10A320
:10BF500040F28B1227A11CA0F4F726FA00BF00BF05
:10BF6000A06A06710020A06204F10C000CF09BFA9C
:10BF70000CE000BFA06A40B100BF05A34FF4C97236
:10BF800023A111A0F4F710FA00BF00BFBDE8F087AD
:10BF90002E2E5C4C5749505C6C7769702D312E34D5
:10BFA0002E315C7372635C6170695C6170695F6D96
:10BFB00073672E6300000000636F6E6E20213D20CA
:10BFC0004E554C4C00000000417373657274696FEC
:10BFD0006E2022257322206661696C65642061747D
:10BFE000206C696E6520256420696E2025730D0A1A
:10BFF00000000000636F6E6E2D3E63757272656E99
:10C00000745F6D736720213D204E554C4C0000003D
:10C01000636F6E6E2D3E63757272656E745F6D73C5
:10C0200067203D3D204E554C4C0000002DE9FC475B
:10C0300005468846164600BF55B900BF51A340F2D9
:10C04000BB225AA15DA0F4F7AFF900BFBDE8FC87A1
:10C0500000BF70892A2805DA00BF00BF30460AF009
:10C0600007FFF3E7776807F10E042088B0F5807FBB
:10C0700008D12079062805D16079042802D160888A
:10C08000082805D000BF00BF30460AF0F1FEDDE70A
:10C09000D4F80E000190A0690090281D08B16868CE
:10C0A00010B94FF0000907E000986968884201D193
:10C0B000012000E000208146B9F1000F01D00120ED
:10C0C00000E00220034604F1080201A9284600F01E
:10C0D00093FEE088B0F5807F03D0B0F5007F47D1B4
:10C0E00043E000BF00BFB9F1000F35D000BF00BF73
:10C0F000022004F07AF9E080D4F80E00A0616868AC
:10C10000C4F80E0000BF95F82600062808D000BF2E
:10C110001CA340F21132344928A0F4F745F900BFBE
:10C1200000BFA068C4F81200A089E082A06838604F
:10C13000A089B880D8F80000A060B8F80400A081F9
:10C14000D8F80000C7F80600B8F804007881314636
:10C150002846AA69904707E0281D08B1686808B911
:10C1600000BF01E000BF00BF05E000BF00BF02E06C
:10C1700000BF00BF00BF00BF30460AF079FE00BF1D
:10C1800064E700002E2E5C4C5749505C6C77697058
:10C190002D312E342E315C7372635C6E657469666A
:10C1A0005C6574686172702E630000006E6574696E
:10C1B0006620213D204E554C4C00000041737365B4
:10C1C0007274696F6E2022257322206661696C6526
:10C1D00064206174206C696E6520256420696E207E
:10C1E00025730D0A00000000C4E104082DE9FE4F8C
:10C1F000064688464FF00A09CA460A27002400204E
:10C2000002900190BB46009000BF6FE004EB8400F9
:10C21000764901EB8000857C0A2F04D11DB900BF4F
:10C2200000BF67B260E0002D5ED000BF012D0AD0D4
:10C23000022D08DA00BF6EA340F22B1276A186A071
:10C24000F4F7B2F800BF00BF6EB104EB8401674A97
:10C2500002EB810130684968884204D100BF00BF09
:10C2600060B2BDE8FE8F012D2AD104EB84005F4946
:10C2700051F8200088B104EB840001EB8000C17C00
:10C280000098814230DB4FFA84FB04EB840057496D
:10C2900001EB8000C07C009026E004EB8400534951
:10C2A00001EB8000C17C029881421DDB4FFA84F9CA
:10C2B00004EB84004D4901EB8000C07C029013E048
:10C2C000022D11DB04EB8400484901EB8000C17CA6
:10C2D0000198814208DB4FFA84FA04EB8400434959
:10C2E00001EB8000C07C0190601CC4B20A2C8DDB85
:10C2F00008F0020020B90A2F07D108F0010020B988
:10C3000000BF00BF4FF0FF30ABE70A2F02DAFCB2EC
:10C3100000BF3AE0BAF10A0F14DA0AF0FF0400BFD6
:10C3200000BF00BF04EB8400304951F8200040B149
:10C3300000BF2FA340F2711252A147A0F4F734F8C6
:10C3400000BF12E0B9F10A0F03DA09F0FF0400BFE1
:10C350000BE0BBF10A0F03DA0BF0FF0400BF04E0AF
:10C3600000BF00BF4FF0FF307BE700BF0A2C08DBA7
:10C3700000BF1FA340F2831248A137A0F4F714F8BE
:10C3800000BF00BF204600F0A9F800BF0A2C08DB60
:10C3900000BF17A340F2871240A12FA0F4F704F8C2
:10C3A00000BF00BF00BF04EB8400104901EB800018
:10C3B000807C40B100BF0EA34FF4C4723CA126A004
:10C3C000F3F7F2FF00BF00BF36B104EB8401074A68
:10C3D00002EB810130684860002004EB8401034ACD
:10C3E00002EB8101C87460B23BE70000743C00209E
:10C3F0002E2E5C4C5749505C6C7769702D312E3471
:10C400002E315C7372635C6E657469665C6574681A
:10C410006172702E630000007374617465203D3D8D
:10C42000204554484152505F53544154455F504554
:10C430004E44494E47207C7C207374617465203ED5
:10C440003D204554484152505F53544154455F5339
:10C450005441424C45000000417373657274696F2A
:10C460006E2022257322206661696C6564206174E8
:10C47000206C696E6520256420696E2025730D0A85
:10C48000000000006172705F7461626C655B695DE1
:10C490002E71203D3D204E554C4C000069203C2023
:10C4A0004152505F5441424C455F53495A45000048
:10C4B0006172705F7461626C655B695D2E7374613B
:10C4C0007465203D3D204554484152505F535441CE
:10C4D00054455F454D5054590000000010B50446C6
:10C4E00004EB8400194951F8200070B100BF00BF6F
:10C4F00004EB8401154A52F821000AF0B9FC00202F
:10C5000004EB8401114A42F82100002004EB84016D
:10C510000E4A02EB8101887404EB840102EB810175
:10C52000C87404EB840102EB8101886004EB840190
:10C5300002EB8101486004EB8400114601EB8000AE
:10C5400003490A68C2608988018210BD743C0020DA
:10C55000A6DF04082DE9FC4704460F461546A94608
:10C5600000BF44B900BF5AA340F2753262A166A071
:10C57000F3F71AFF00BF00BF00BF47B900BF54A3C5
:10C5800040F276326BA160A0F3F70EFF00BF00BF50
:10C5900000BF45B900BF4EA340F2773268A15AA050
:10C5A000F3F702FF00BF00BF0E2138460AF040FD3E
:10C5B00028B100BF00BF6FF00100BDE8FC87214635
:10C5C000286802F02BFC10B1DFF8848177E028782E
:10C5D00000F0F000E02815D101208DF800000020C7
:10C5E0008DF801005E208DF80200687800F07F0071
:10C5F0008DF80300A8788DF80400E8788DF8050020
:10C60000E8465BE02868A1680840D4E901121140BF
:10C61000884210D0288880B24FF6A96188420AD09B
:10C6200004F10C0020B1E06810B104F10C0902E043
:10C630006FF00300C1E74748007800EB80004649EF
:10C6400001EB8000807C022812DB4249097801EB73
:10C650008101414A02EB8101D9F800004968884212
:10C6600006D13C4802783946204600F077F8A4E726
:10C6700000261BE006EB8600374901EB8000807C3A
:10C68000022811DB06EB8601334A02EB8101D9F85F
:10C6900000004968884207D12E490E70F2B239462F
:10C6A000204600F05BF888E7701C46B20A2EE1DBFA
:10C6B0003A464946204600F0DBF87EE700BF434695
:10C6C00004F127023946204600F0F4FA75E700002D
:10C6D0002E2E5C4C5749505C6C7769702D312E348E
:10C6E0002E315C7372635C6E657469665C65746838
:10C6F0006172702E630000006E6574696620213DD2
:10C70000204E554C4C000000417373657274696F84
:10C710006E2022257322206661696C656420617435
:10C72000206C696E6520256420696E2025730D0AD2
:10C73000000000007120213D204E554C4C000000AF
:10C7400069706164647220213D204E554C4C00009C
:10C75000A0DF040822020020743C002070B50546CA
:10C760000E46144600BF04EB84001F4901EB800015
:10C77000807C022808DA00BF1CA34FF4537225A165
:10C7800030A0F3F711FE00BF00BF04EB8400164990
:10C7900001EB8000807C022817D104EB840001EBC0
:10C7A0008000C07CE42810DB04EB84000A4602EB26
:10C7B0008000011D284600F065FA30B9032004EB23
:10C7C0008401094A02EB8101887404EB8400064964
:10C7D00001EB800000F10C0305F1270231462846E9
:10C7E00000F068FA70BD0000743C00202E2E5C4CF6
:10C7F0005749505C6C7769702D312E342E315C7343
:10C8000072635C6E657469665C6574686172702ED3
:10C81000630000006172705F7461626C655B6172DD
:10C82000705F6964785D2E7374617465203E3D208D
:10C830004554484152505F53544154455F5354410D
:10C84000424C4500417373657274696F6E202225F6
:10C850007322206661696C6564206174206C696E66
:10C860006520256420696E2025730D0A00000000F4
:10C870002DE9F05F80460F46164608F127094FF074
:10C88000FF3A4146386802F0C9FA38B9387800F002
:10C89000F000E02802D00FB1386828B900BF00BF0F
:10C8A0006FF00D00BDE8F09F01213846FFF79EFCB8
:10C8B0000446002C06DA00BF00BF0EB100BF00BF67
:10C8C0002046EFE704EB84005C4901EB8000807CAC
:10C8D00030B9012004EB8401584A02EB81018874CD
:10C8E00000BF04EB8400554901EB8000807C0128E7
:10C8F0000FD004EB840001EB8000807C022808DA72
:10C9000000BF4FA340F2194257A161A0F3F74CFDBD
:10C9100000BF00BF04EB8400484901EB8000807C2D
:10C92000012800D03EB93946404600F0ABF98246B6
:10C930000EB95046B6E700BF46B900BF40A340F26B
:10C940002D425EA152A0F3F72FFD00BF00BF04EB04
:10C9500084003A4901EB8000807C02280FDB5A49B1
:10C960000C7004EB8400354901EB800000F10C03EE
:10C970004A463146404600F09DF982465CE004EBB1
:10C9800084002E4901EB8000807C012854D14FF0B7
:10C99000000B354617E000BF6889298988420AD113
:10C9A000286840B100BF26A340F23E4247A138A00C
:10C9B000F3F7FAFC00BF00BF287B012802D04FF03C
:10C9C000010B02E02D68002DE5D100BFBBF1000F87
:10C9D00010D029890022032009F048FD05466DB1D9
:10C9E000314628460AF082F840B128460AF040FA5B
:10C9F000002503E0354628460AF0A6FCBDB104EB4D
:10CA000084000E4951F8200040B100BF00BF04EB84
:10CA100084010A4A52F821000AF02AFA04EB840041
:10CA2000064941F820504FF0000A00BF03E000BF64
:10CA300000BF4FF0FF3A00BF504633E7743C002080
:10CA40002E2E5C4C5749505C6C7769702D312E341A
:10CA50002E315C7372635C6E657469665C657468C4
:10CA60006172702E630000006172705F7461626CAD
:10CA7000655B695D2E7374617465203D3D20504592
:10CA80004E44494E47206F7220535441424C45005A
:10CA9000417373657274696F6E202225732220665C
:10CAA00061696C6564206174206C696E6520256421
:10CAB00020696E2025730D0A000000007120213DC1
:10CAC000204E554C4C000000220200206E6F20705A
:10CAD00061636B65742071756575657320616C6C3D
:10CAE0006F776564210000002DE9F84F07468846FE
:10CAF00091469A46DDF828B00020009000BF47B963
:10CB000000BF39A340F2A54241A145A0F3F74CFC78
:10CB100000BF00BF00222A21032009F0A7FC054620
:10CB20002DB900BF00BF4FF0FF30BDE8F88F00BF48
:10CB300068892A2808DA00BF2BA34FF4966243A124
:10CB400037A0F3F731FC00BF00BF6E6806F10E049A
:10CB500000BF00BF0D9803F048FCE08000BF97F8CD
:10CB60002600062808D000BF1FA34FF4976244494F
:10CB70002BA0F3F719FC00BF00BFDAF80000A0609B
:10CB8000BAF80400A0810B980168C4F812108088DC
:10CB9000E082D9F800003060B9F80400B080D8F81D
:10CBA0000000C6F80600B8F804007081DBF8000049
:10CBB000C4F80E000C980068A0614FF480702080CB
:10CBC0000820608006202071042060714FF4C1604D
:10CBD000B08129463846BA699047009028460AF045
:10CBE00047F900250098A0E72E2E5C4C5749505C71
:10CBF0006C7769702D312E342E315C7372635C6EEC
:10CC0000657469665C6574686172702E630000000B
:10CC10006E6574696620213D204E554C4C00000025
:10CC2000417373657274696F6E20222573222066CA
:10CC300061696C6564206174206C696E652025648F
:10CC400020696E2025730D0A00000000636865638B
:10CC50006B207468617420666972737420706275E9
:10CC6000662063616E20686F6C64207374727563F4
:10CC700074206574686172705F68647200000000FF
:10CC8000C4E104087FB504460D4600BF00BF012182
:10CC9000064A201D04F127038DE825000391044A6C
:10CCA00019462046FFF720FF04B070BDA6DF040838
:10CCB000A0DF04082DE9F04104460E4617469846C9
:10CCC000756800BF94F82600062808D000BF0FA39F
:10CCD00040F2A312174918A0F3F766FB00BF00BF8C
:10CCE000D8F800002860B8F80400A8803868C5F8B3
:10CCF0000600B88868810820A88100BF00BF3146BF
:10CD00002046A2699047BDE8F08100002E2E5C4CC1
:10CD10005749505C6C7769702D312E342E315C731D
:10CD200072635C6E657469665C6574686172702EAE
:10CD300063000000C4E10408417373657274696F95
:10CD40006E2022257322206661696C6564206174FF
:10CD5000206C696E6520256420696E2025730D0A9C
:10CD60000000000070B500BF00BF00243FE004EBEE
:10CD70008400204901EB8000857C35B304EB8400FE
:10CD800001EB8000C07C401C04EB8401194A02EBDB
:10CD90008101C87404EB8400114601EB8000C07C63
:10CDA000F0280DDA04EB840001EB8000807C012880
:10CDB0000CD104EB840001EB8000C07C022805DB71
:10CDC00000BF00BF2046FFF789FB0EE004EB8400A4
:10CDD000084901EB8000807C032806D1022004EB87
:10CDE0008401044A02EB81018874601CC4B20A2CDD
:10CDF000BDDB70BD743C00202DE9F04706460D46B2
:10CE00001746984600BF96F82600062808D000BFAF
:10CE10002FA340F2C31238A141A0F3F7C5FA00BF17
:10CE200000BF00BF00BF5DB1286848B13146286827
:10CE300001F0F4FF20B9287800F0F000E02805D1D7
:10CE400000BF00BF6FF00D00BDE8F08741462846E7
:10CE5000FFF7CCF90446002C01DA2046F4E7022063
:10CE600004EB8401394A02EB8101887404EB8400ED
:10CE7000114601EB8000866000BF00BF04EB840018
:10CE800001EB80003968C160B9880182002004EBA1
:10CE9000840102EB8101C87404EB8400114651F84F
:10CEA000200098B104EB840051F82090002004EB9E
:10CEB000840142F821003B4606F1270249463046EC
:10CEC000FFF7F8FE484609F0D3FF00BF0020BBE79C
:10CED0002E2E5C4C5749505C6C7769702D312E3486
:10CEE0002E315C7372635C6E657469665C65746830
:10CEF0006172702E630000006E657469662D3E6875
:10CF000077616464725F6C656E203D3D20455448D6
:10CF10004152505F4857414444525F4C454E0000D7
:10CF2000417373657274696F6E20222573222066C7
:10CF300061696C6564206174206C696E652025648C
:10CF400020696E2025730D0A00000000743C00204B
:10CF50002DE9F04104460E464FF00E0860890E2878
:10CF600000DC54E0656800BF00BFAF89287800F09E
:10CF70000100B0B12878012809D1687888B9A8786B
:10CF80005E280ED1607B40F01000607309E006223D
:10CF900021492846F3F7E4FB18B9607B40F008000C
:10CFA0006073082F03D0B7F5C16F2BD11DE096F841
:10CFB0002D0000F0200000B929E0C8F1000001B206
:10CFC00020460AF035F858B100BF00BF13A340F265
:10CFD0004F521CA124A0F3F7E7F900BF00BF16E0F1
:10CFE0003146204602F0E6F80DE096F82D0000F0FC
:10CFF000200000B90BE0224606F127013046FFF77A
:10D0000015F800E003E000BF0020BDE8F0812046F5
:10D0100009F02EFF0020F8E7A0DF04082E2E5C4C5C
:10D020005749505C6C7769702D312E342E315C730A
:10D0300072635C6E657469665C6574686172702E9B
:10D040006300000043616E2774206D6F7665206F6A
:10D050007665722068656164657220696E20706112
:10D06000636B657400000000417373657274696FCF
:10D070006E2022257322206661696C6564206174CC
:10D08000206C696E6520256420696E2025730D0A69
:10D090000000000010B5044600BF3CB900BF0BA360
:10D0A0007A2215A117A0F3F77FF900BF00BF652012
:10D0B00084F82E006E212F2001551D4860611D4807
:10D0C000A061204602F096FF002010BD2E2E5C4C81
:10D0D0005749505C6C7769702D312E342E315C735A
:10D0E00072635C6E657469665C65746865726E65B2
:10D0F0007469662E630000006E65746966213D4E9A
:10D10000554C4C00417373657274696F6E20222513
:10D110007322206661696C6564206174206C696E9D
:10D120006520256420696E2025730D0A000000002B
:10D1300055C500080D01010870B50446204602F0EF
:10D14000ABFF064616B94FF0FF3070BD21463046A2
:10D150002269904705462DB100BF00BF304609F057
:10D1600087FE00262846F0E72DE9F04180460E466E
:10D170000EB1307810B90020BDE8F08134460025AA
:10D180002BE008F1F40040F82540274626212046F0
:10D19000F3F7CAFA04461CB100202070641C08E0B2
:10D1A00020213846F3F7C0FA04460CB10020207065
:10D1B00000243D213846F3F7B7FA07463FB1002077
:10D1C0003870781C08F59A7141F8250004E00021B8
:10D1D00008F59A7040F825106D1C102D01DA002C0E
:10D1E000CFD12846C8E7000000BF054A128802F0E8
:10D1F0004002002AF9D0C2B2014B9A807047000069
:10D20000001001400146D1E90102801A704710B5B3
:10D210000446204600F002F810BD000010B501469B
:10D2200000200FE000EB4002084B03EBC2028A42F1
:10D2300007D1002200EB4003044C04EBC3031A7532
:10D2400002E0401C0A28EDDB00BF10BDB42B00201B
:10D25000002114E001EB41000B4A02EBC000007D0D
:10D2600060B9012001EB4102074B03EBC2021075CC
:10D2700001EB41001A4602EBC0007047491C0A2925
:10D28000E8DB0020F9E70000B42B002070B506466B
:10D29000FFF7DEFF05460DB9002070BD0D4C11E013
:10D2A00030466168F3F70EFC58B9A0682860E06862
:10D2B0006860E068A8600020E860207C2874284648
:10D2C000EBE72468002CEBD12846FFF7A7FF0020EE
:10D2D000E3E700001CDF04082DE9F04104460F4697
:10D2E0001646D4E90110884203D14FF0FF30BDE863
:10D2F000F081D4E90101451AB54200DD3546A26846
:10D30000206881182A463846F3F7F0FAA0682844C6
:10D31000A0602846EBE700000146084800788842F4
:10D3200002D107480088704704484078884202D1FB
:10D3300003484088F7E70020F5E7000034000020AC
:10D340003600002001460C480078884204D10B4882
:10D35000007800F0F300704707484078884209D110
:10D360000648007800F0F000044A1278C2F3810207
:10D370001043F0E70020EEE7340000203B000020DF
:10D3800001460C480078884204D10B48007800F030
:10D39000F300704707484078884209D10648007872
:10D3A00000F0F000044A1278C2F381021043F0E763
:10D3B0000020EEE7340000203A0000200146084833
:10D3C0000078884202D107480078704704484078C6
:10D3D000884202D104480078F7E70020F5E7000012
:10D3E00034000020490000204A000020014608487F
:10D3F0000078884202D10748007870470448407896
:10D40000884202D104480078F7E70020F5E70000E1
:10D4100034000020ED000020EE0000200146084806
:10D420000078884202D10648407870470448407826
:10D43000884202D102480078F7E70020F5E70000B3
:10D440003400002010B50446204602F091FD08B1DA
:10D450001E2010BD114830F8141041F2707204FB08
:10D4600002F000F5807080B2814201D10120F0E726
:10D470000A4830F81410143941F2707204FB02F0BB
:10D4800000F5807080B2081A142190FBF1F00A2197
:10D4900090FBF1F0401CC0B2DBE700001C1D002037
:10D4A00070B5044631480068F0B131480068D8B121
:10D4B00030480068C0B1002512E02D48006850F8DF
:10D4C000251004F12E00F3F7FDFA40B9C02204F153
:10D4D00030012846254B1B689847608570BD6D1C40
:10D4E000244800688542E8DB04F12E00F3F788F950
:10D4F000A72804D204F12E00F3F782F900E0A72058
:10D50000064612221CA104F13000F3F734FA324629
:10D5100004F12E0104F14200F3F7E8F906F11200DC
:10D5200004F13001084419A10A6802608A888280E7
:10D5300089798171002206F1190004F130010A5441
:10D540000846F3F75DF9064600BFB6F5803F08D3FD
:10D5500000BF10A340F2952217A11BA0F2F724FFF1
:10D5600000BF00BF668500BFB8E70000A80100202B
:10D57000B0010020AC0100203C623E2A2A2A554E10
:10D580004B4E4F574E205441472000002A2A2A3C38
:10D590002F623E002E2E5C4C5749505C6C776970B0
:10D5A0005F6170705C7765625F7365727665725CEF
:10D5B00068747470642E63006C656E203C3D20308E
:10D5C0007866666666000000417373657274696F01
:10D5D0006E2022257322206661696C656420617467
:10D5E000206C696E6520256420696E2025730D0A04
:10D5F000000000002DE9F04105460E4690462F46FA
:10D6000000BF00BF00BF387E012808D000BF17A3AD
:10D610004FF404621EA12AA0F2F7C6FE00BF00BFAD
:10D62000012130460EF0FAFC01F042F804462CB914
:10D6300000BF00BF4FF0FF30BDE8F081214630460B
:10D640000BF0EEF9294930460DF0D6FF2849304657
:10D650000BF076FD0422274930460CF055FF264991
:10D6600030460EF02BFC0020E6E700002E2E5C4C2E
:10D670005749505C6C7769705F6170705C77656268
:10D680005F7365727665725C68747470642E630093
:10D690007063622D3E7374617465203D3D204C497A
:10D6A0005354454E202863616C6C656420666F722C
:10D6B0002077726F6E67207063623F290000000060
:10D6C000417373657274696F6E2022257322206620
:10D6D00061696C6564206174206C696E65202564E5
:10D6E00020696E2025730D0A00000000BDDC0008D3
:10D6F00055D7000861DC0008BFE4000870B5064695
:10D700000D4600BF00BF002130460BF089F9002113
:10D7100030460DF071FF002130460BF011FD002264
:10D72000114630460CF0F0FE002130460EF0C6FBEC
:10D73000284600F0CBFF30460BF008FA044634B11F
:10D7400000BF00BF0422024930460CF0DDFE70BD70
:10D7500061DC000870B504460E46254600BF00BFD8
:10D7600015B1284600F0B2FF70BD00002DE9F74F5B
:10D77000064691464FF00008002086F82C000198DC
:10D7800000782F282BD10198407840BB002418E066
:10D7900000BF00BF454951F83400FFF777FD8046D0
:10D7A000424850F834000190B8F1000F08D000BF93
:10D7B00000BF3E4800EBC400007986F82C0002E070
:10D7C000641C052CE4D300BFB8F1000F66D101A89A
:10D7D00000F074F88046002086F82C005EE03F21BF
:10D7E0000198F2F7A1FF054615B1002028706D1CC5
:10D7F0002F48006870B32F48006858B300271CE01A
:10D800002C48006850F837100198F3F75BF998B985
:10D8100029463046FFF7A8FC82462648006800EB00
:10D82000C70006F59A7306F1F4025146D0F804C019
:10D830003846E047019004E07F1C1D48006887429D
:10D84000DEDB00BF1A480068874203D115B16D1EA8
:10D850003F20287000BF00BF0198FFF717FD8046EA
:10D86000B8F1000F03D101A800F028F88046B8F104
:10D87000000F13D0002086F82C0000240BE00E4887
:10D8800050F824100198F2F759FF18B1012086F8DA
:10D890002C0002E0641C042CF1D300BF4A46414630
:10D8A0003046019B00F038F8BDE8FE8F30DF0408F9
:10D8B000B8010020B40100209801002070B5044692
:10D8C0000CA020602068FFF7E1FC05467DB90CA0A4
:10D8D00020602068FFF7DAFC054645B90BA0206000
:10D8E0002068FFF7D3FC05460DB9002020602846CC
:10D8F00070BD00002F3430342E68746D6C00000051
:10D900002F3430342E68746D000000002F34303412
:10D910002E7368746D6C00002DE9F04104460D46CD
:10D9200016469846002D43D00020208584F8F1004B
:10D930002868E0616868606228682062256028685D
:10D94000606000BF6868002808DA00BF1CA34FF4BD
:10D95000EC6224A12BA0F2F727FD00BF00BF68688E
:10D9600060610020207600BF2068007C002808D17C
:10D9700000BF13A340F267722DA122A0F2F714FD9D
:10D9800000BF00BF2068007CB8B1B6B133A16269A6
:10D9900060680AF039FB07464FB1391D6268881A82
:10D9A0006168014461606169091A616100BF04E056
:10D9B000002020606060606120760020BDE8F0817A
:10D9C0002E2E5C4C5749505C6C7769705F617070AB
:10D9D0005C7765625F7365727665725C687474709B
:10D9E000642E630046696C65206C656E6774682000
:10D9F0006D75737420626520706F736974697665E4
:10DA000021000000417373657274696F6E202225D6
:10DA10007322206661696C6564206174206C696E94
:10DA20006520256420696E2025730D0A0000000022
:10DA3000485454502068656164657273206E6F7439
:10DA400020696E636C7564656420696E2066696C1C
:10DA5000652073797374656D000000000D0A0D0A6E
:10DA6000000000002DE9F74F84B00C4604980668CA
:10DA700000BF46B900BF5BA340F23D6262A165A052
:10DA8000F2F792FC00BF00BF00BF44B900BF55A32E
:10DA900040F23E626AA15FA0F2F786FC00BF00BFC1
:10DAA000206808B9606830B100BF00BF6FF00700A0
:10DAB00007B0BDE8F08F00BF00BFA06818B900BF75
:10DAC00000BFA66005E000BF00BF3146A06808F0B7
:10DAD0005FFFA068006898B1A068008940F2FF313C
:10DAE000884202DAA068008901E040F2FF308146F6
:10DAF00000234A465549A06809F014F9534F08E03D
:10DB00007768B6F80A9070893189884201D000BFE1
:10DB100000BFB9F1070F50DB4A464DA138460AF065
:10DB200073FA8246BAF1000F47D00020039000BF7D
:10DB300000BF042247A13846F2F781FE10B9FD1C50
:10DB400000BF06E00020387100BF00BF6FF00D007D
:10DB5000AEE7681CC01BA9EB000080B202903FA199
:10DB6000681C029A0AF050FA8046B8F1000F07D1FB
:10DB700037A1681C029A0AF047FA804601200390F8
:10DB8000681CA8EB000080B20190B8F1000F11D022
:10DB9000A8450FD9681C0090002028700022DDE9FC
:10DBA0000001425400BF00BF2046039A0099FFF7CE
:10DBB000DDFD7DE700BF00BF00BFA06808F08CFF5F
:10DBC0008346A0680089B0F5806F05DABBF10A0FC3
:10DBD00002DC6FF004006BE700BF00BF6FF00D00C8
:10DBE00066E700002E2E5C4C5749505C6C776970DC
:10DBF0005F6170705C7765625F7365727665725C99
:10DC000068747470642E63007020213D204E554C62
:10DC10004C000000417373657274696F6E20222599
:10DC20007322206661696C6564206174206C696E82
:10DC30006520256420696E2025730D0A0000000010
:10DC4000687320213D204E554C4C0000A42C002030
:10DC50000D0A00004745542000000000200000008D
:10DC600070B505460E462C4600BF00BF3CB900BF4C
:10DC700000BF21463046FFF741FD002070BD207EE9
:10DC8000401C2076207E042807D100BF00BF21461B
:10DC90003046FFF733FD0020F0E76CB1206858B143
:10DCA00000BF00BF2146304600F0AAF820B100BFF7
:10DCB00000BF30460CF03EF80020DFE72DE9FF41C1
:10DCC00007460E4698466FF009043D4600BF00BF68
:10DCD000B8F1000F02D1029800B1A5B9029838B18D
:10DCE0000298018930460DF05BFD029809F0C0F8FA
:10DCF0000DB900BF00BF29463046FFF7FFFC0020EA
:10DD000004B0BDE8F0810298018930460DF048FD6D
:10DD1000286800281AD13246294602A8FFF7A2FE39
:10DD2000044600BF002C10D0601D00280DD0093023
:10DD300000280AD0801F40B100BF12A340F6110294
:10DD400019A124A0F2F730FB00BF01E000BF00BF23
:10DD5000601D30B1A86820B1A86809F089F80020DA
:10DD6000A86034B900BF00BF2946304600F048F82B
:10DD700006E004F10E0018B929463046FFF7BEFC54
:10DD80000020BDE72E2E5C4C5749505C6C776970C3
:10DD90005F6170705C7765625F7365727665725CF7
:10DDA00068747470642E6300687474705F7061725C
:10DDB00073655F726571756573743A20756E657809
:10DDC0007065637465642072657475726E20766127
:10DDD0006C756500417373657274696F6E202225DE
:10DDE0007322206661696C6564206174206C696EC1
:10DDF0006520256420696E2025730D0A000000004F
:10DE00002DE9F84305460C464FF0000900BF00BF5E
:10DE100000276069002853D1206830B92146284680
:10DE2000FFF76CFC0020BDE8F8832068FFF7EAF9F3
:10DE3000002807DC00BF00BF21462846FFF75EFC34
:10DE40000020F0E7E06808B126691EE0A87F00F036
:10DE5000080010B1E88E0C3800E0E88E460000BFE4
:10DE6000B0B206F0CBFBE060E06808B1266105E0E7
:10DE7000304606EBD0714E10642EF1DC00BFE06836
:10DE800018B900BF00BF0020CDE700BF00BF324679
:10DE9000E1682068FFF720FA0646002E07DA00BF87
:10DEA00000BF21462846FFF729FC0120BBE700BF41
:10DEB00000BF6661E06860606662E068E06100BFC4
:10DEC00094F82C0000284BD1B5F8660061698842AF
:10DED00003D2B5F86600009012E0A08A80B20090EC
:10DEE00000BFBDF800106069884208D000BFE8A3F9
:10DEF00040F2B132EFA1F8A0F2F756FA00BF00BF2E
:10DF0000A87F00F0080010B1E88E0C3800E0E88E21
:10DF10001FFA80F84FEA4800BDF80010884203DA83
:10DF20004FEA4840000C009094F82C0008B1012002
:10DF300000E0002003466A462846616800F0DCFBEA
:10DF40000746002F0BD14FF00109BDF800106068A3
:10DF500008446060BDF800106069401A60619BE28F
:10DF6000B5F8660000906168E069884253D961683D
:10DF7000E069401AB5F86610884203DDB5F866001E
:10DF8000009015E000BF6168E069401AB0F5803F7D
:10DF900008DB00BFBEA340F2CF32DAA1CEA0F2F779
:10DFA00003FA00BF00BFA08BA188401A80B2009086
:10DFB000A87F00F0080010B1E88E0C3800E0E88E71
:10DFC0001FFA80F84FEA4800BDF80010884203DAD3
:10DFD0004FEA4840000C009094F82C0008B1012052
:10DFE00000E0002003466A462846616800F084FB92
:10DFF00007465FB94FF00109BDF80010606808449A
:10E000006060BDF800106069401A6061B5F8660094
:10E0100008B9484607E700BF00BFDAE1BDF80000D5
:10E0200008B94846FFE694F8F100052815D2DFE864
:10E0300000F0031534A7F000E0690078BA490968D8
:10E040000978884203D1012084F8F1002085606AB4
:10E05000401E6062E069401CE061B9E1208D052846
:10E0600005D100202085022084F8F10014E0E06949
:10E070000078218DAC4A1268515C884203D1208D12
:10E08000401C208502E0002084F8F100606A401EF8
:10E090006062E069401CE0619AE1208DB0B9E069FE
:10E0A000007820280BD0E0690078092807D0E069C3
:10E0B00000780A2803D0E06900780D2806D1606A4C
:10E0C000401E6062E069401CE06181E1E069007827
:10E0D00096490968097888420FD0E06900782028BD
:10E0E0000BD0E0690078092807D0E06900780A2899
:10E0F00003D0E06900780D282CD1208D18B90020BC
:10E1000084F8F10035E0032084F8F10000BF208D91
:10E11000FF2808DD00BF5EA340F2374284A16EA055
:10E12000F2F742F900BF00BF94F8280084F82D00F0
:10E130000021228D04F12E008154E06900787B4992
:10E1400009680978884202D10120208511E0002069
:10E1500020850EE0208D012808DAE0690178228D03
:10E16000501C208504F12E00815402E0002084F828
:10E17000F100606A401E6062E069401CE06127E1D6
:10E18000208DB0B9E069007820280BD0E0690078D4
:10E19000092807D0E06900780A2803D0E0690078F0
:10E1A0000D2806D1606A401E6062E069401CE06193
:10E1B0000EE1E0690078218D5C4A1268515C88426A
:10E1C00042D1606A401E6062E069401CE061208DBF
:10E1D000022835D12046FFF763F90020208504206E
:10E1E00084F8F100E06920626168206A884234D9CD
:10E1F0006168206A401ABDF80010884204DA208C59
:10E20000A188401A80B2009094F82C0010B101202F
:10E2100001E023E0002003466A462846616800F0DA
:10E220006BFA0746CFB94FF00109BDF800106068DE
:10E2300008446060BDF800106069401A60610CE03D
:10E24000208D401C208508E0606A401E6062E06905
:10E25000401CE061002084F8F100B9E06168206AA8
:10E26000884271D96168206A401ABDF8001088425E
:10E2700004DA208CA188401A80B20090BDF800001A
:10E2800020B194F82C0010B101205FE066E05CE062
:10E290002E2E5C4C5749505C6C7769705F617070D2
:10E2A0005C7765625F7365727665725C68747470C2
:10E2B000642E630068732D3E6C6566742064696427
:10E2C000206E6F742066697420696E746F207531DA
:10E2D000365F742100000000417373657274696FCA
:10E2E0006E2022257322206661696C65642061744A
:10E2F000206C696E6520256420696E2025730D0AE7
:10E3000000000000446174612073697A6520646FC5
:10E310006573206E6F742066697420696E746F2057
:10E320007531365F7421000058DF04085CDF040893
:10E3300068732D3E7461675F696E646578203C3D4B
:10E34000203078666600000017E0002003466A4629
:10E350002846616800F0D0F9074600E000277FBB3F
:10E360004FF00109BDF80010606808446060BDF816
:10E3700000106069401A60612AE0208D618D88423A
:10E380001FDA608D218D401ABDF80010884204DA32
:10E39000608D218D401A80B20090228D04F13000F2
:10E3A000111801236A46284600F0A6F9074677B9F6
:10E3B0004FF00109208DBDF800100844208506E0CB
:10E3C00006E000BF00BF0020208584F8F10000BFF8
:10E3D00000BF606A10B1002F3FF420AE94F8F10046
:10E3E000042859D06168E069884255D96168E069BC
:10E3F000401AB5F86610884203DDB5F86600009053
:10E4000018E000BF6168E069401AB0F5803F0BDB9F
:10E4100000BFAFF2841340F2FD42AFF21811AFF229
:10E420004810F1F7C1FF00BF00BFA08BA188401AC0
:10E4300080B20090A87F00F0080010B1E88E0C3880
:10E4400000E0E88E4000BDF8001088420ADAA87F9C
:10E4500000F0080010B1E88E0C3800E0E88E4004AF
:10E46000000C009094F82C0008B1012000E000207E
:10E4700003466A462846616800F03EF907465FB9E0
:10E480004FF00109BDF80010606808446060BDF8F5
:10E4900000106069401A6061606960B92068FEF729
:10E4A000B1FE002807DC00BF00BF21462846FFF769
:10E4B00025F90020B7E400BF00BF4846B3E42DE9CA
:10E4C000F04105460E4617462C4600BF00BF14B962
:10E4D0000020BDE8F0810020207621463046FFF77D
:10E4E0008FFC0020F5E7000070B505460C4600BF24
:10E4F00045B900BF0DA340F6AB0215A118A0F1F776
:10E5000053FF00BF00BF00BF002C08DC00BF07A303
:10E5100040F6AC021DA112A0F1F746FF00BF00BFFC
:10E52000214805602148046070BD00002E2E5C4C1F
:10E530005749505C6C7769705F6170705C77656299
:10E540005F7365727665725C68747470642E6300C4
:10E550006E6F206367697320676976656E000000DF
:10E56000417373657274696F6E2022257322206671
:10E5700061696C6564206174206C696E6520256436
:10E5800020696E2025730D0A00000000696E766117
:10E590006C6964206E756D626572206F66206861BB
:10E5A0006E646C6572730000B4010020B801002035
:10E5B00070B506460C46154600BF00BF00BF46B901
:10E5C00000BF14A340F695021BA121A0F1F7ECFEB9
:10E5D00000BF00BF00BF44B900BF0EA340F69602C3
:10E5E00026A11BA0F1F7E0FE00BF00BF00BF002D79
:10E5F00008DC00BF07A340F6970224A114A0F1F79E
:10E60000D3FE00BF00BF27480660274804602748A4
:10E61000056070BD2E2E5C4C5749505C6C7769705C
:10E620005F6170705C7765625F7365727665725C5E
:10E6300068747470642E63006E6F207373695F6812
:10E64000616E646C657220676976656E000000001B
:10E65000417373657274696F6E2022257322206680
:10E6600061696C6564206174206C696E6520256445
:10E6700020696E2025730D0A000000006E6F207463
:10E6800061677320676976656E000000696E766168
:10E690006C6964206E756D626572206F66207461AE
:10E6A00067730000A8010020B0010020AC01002029
:10E6B00010B54FF4BA7005F0A1FF044624B14FF431
:10E6C000BA712046F2F7ABF9204610BD10B50446EA
:10E6D00084B1206820B12068FEF799FD00202060F9
:10E6E000E06820B1E06805F05BFE0020E0602046B5
:10E6F00005F056FE10BD00002DE9F047074688469C
:10E700001546994600BF45B900BF16A34FF4EB72FA
:10E710001DA121A0F1F748FE00BF00BF2C8800BF5B
:10E7200000BF00BF4B462246414638460EF090F8E7
:10E730000646701C68B9B7F8660018B1B7F86800EB
:10E74000082801DB012404E0204604EBD071C1F36A
:10E750004F04701C08B9012CE2DC2C803046BDE867
:10E76000F08700002E2E5C4C5749505C6C77697026
:10E770005F6170705C7765625F7365727665725C0D
:10E7800068747470642E63006C656E677468202111
:10E790003D204E554C4C0000417373657274696F97
:10E7A0006E2022257322206661696C656420617485
:10E7B000206C696E6520256420696E2025730D0A22
:10E7C0000000000010B508210148FFF78DFE10BDC4
:10E7D00060DF040810B500BF00BF00F0A1F8FFF72C
:10E7E000F1FF024800F004F810BD0000ACDF04089F
:10E7F00070B506460BF056FA044600BF44B900BF98
:10E800001CA340F6630224A12AA0F1F7CDFD00BFAE
:10E8100000BF012120460DF001FC50223146204668
:10E820000AF000F9054600BF45B100BF11A340F64C
:10E8300067022BA11FA0F1F7B7FD00BF00BFFF21AA
:10E8400020460BF07FF9044600BF44B900BF09A37E
:10E8500040F6690229A117A0F1F7A6FD00BF00BF8D
:10E86000214620460AF0DCF82C4920460AF06FF8D1
:10E8700070BD00002E2E5C4C5749505C6C7769705F
:10E880005F6170705C7765625F7365727665725CFC
:10E8900068747470642E630068747470645F696E69
:10E8A00069743A207463705F6E6577206661696C85
:10E8B00065640000417373657274696F6E20222570
:10E8C0007322206661696C6564206174206C696ED6
:10E8D0006520256420696E2025730D0A0000000064
:10E8E00068747470645F696E69743A207463705FF1
:10E8F00062696E64206661696C6564006874747036
:10E90000645F696E69743A207463705F6C697374D4
:10E91000656E206661696C6564000000F5D50008CD
:10E9200010B5152202490348FFF742FE10BD000052
:10E93000C40100201D9C000870B505460C46224607
:10E940000321284600F09CF970BD00002DE9FE4F20
:10E9500004468946666830780007870E794220466B
:10E9600008F066FB10B92089042802D200BF00BF5E
:10E97000D9E0606890F800A0606890F801B0BAF142
:10E98000000F03D0BAF1080F76D100E0C6E00125F0
:10E990006948007800F0F000E02800D100256649C1
:10E9A0000868494600F03AFA00B1002535B900BFC1
:10E9B00000BF204608F05CFABDE8FE8F00BF00BF34
:10E9C0002089082802D200BF00BFACE0204600F03A
:10E9D000FAF928B100BF00BF204608F049FAEBE77A
:10E9E0002221204608F024FB002852D03946204638
:10E9F00008F01EFB00280AD000BF00BF4FA39822DA
:10EA000058A165A0F1F7D0FC00BF00BF8FE02189BD
:10EA10000022022007F02AFD054615B900BF00BFFD
:10EA200085E000BF698907F10800814207D200BF75
:10EA300042A3A12263A158A0F1F7B6FC00BF00BF1A
:10EA40002146284608F052F850B100BF00BF3BA352
:10EA5000A5226AA150A0F1F7A7FC00BF00BF66E0A5
:10EA60006E68784201B2284608F0E2FA60B100BF51
:10EA700000BF32A3AB2200E04DE06AA146A0F1F74F
:10EA800093FC00BF00BF52E0204608F0F1F92C468D
:10EA900010E06FF02101204608F0CAFA50B100BF23
:10EAA00000BF26A3B5225FA13BA0F1F77DFC00BF0C
:10EAB00000BF3CE0D4F804801F480068F06066485E
:10EAC00000683061002088F80000A8F80200FF20EC
:10EAD0003072002070813946204608F0A9FA48B10A
:10EAE00000BF00BF15A3E9225CA12BA0F1F75CFCDD
:10EAF00000BF0FE001200021FF230A46CDE90109F4
:10EB000000910D49204600F093FC05460DB100BF71
:10EB100000BF00BF02E000BF00BF00BF00BF204633
:10EB200008F0A6F948E7204608F0A2F944E7204695
:10EB300008F09EF900BF3FE7300200202E2E5C4C0B
:10EB40005749505C6C7769702D312E342E315C73CF
:10EB500072635C636F72655C697076345C69636D67
:10EB6000702E630069636D705F696E7075743A2012
:10EB70006D6F76696E6720702D3E7061796C6F6184
:10EB80006420746F20697020686561646572206616
:10EB900061696C65640A0000417373657274696F22
:10EBA0006E2022257322206661696C656420617481
:10EBB000206C696E6520256420696E2025730D0A1E
:10EBC00000000000636865636B20746861742066F0
:10EBD0006972737420706275662063616E20686F5D
:10EBE0006C64207374727563742074686520494383
:10EBF0004D502068656164657200000069636D7046
:10EC00005F696E7075743A20636F7079696E672002
:10EC1000746F206E65772070627566206661696C1E
:10EC200065640A0069636D705F696E7075743A207F
:10EC3000726573746F72696E67206F726967696E4F
:10EC4000616C20702D3E7061796C6F61642066612B
:10EC5000696C65640A0000002C02002043616E2785
:10EC600074206D6F7665206F7665722068656164CB
:10EC7000657220696E207061636B6574000000002E
:10EC80002DE9FE4306460F4690460022242101202E
:10EC900007F0ECFB05461DB900BF00BFBDE8FE83D1
:10ECA00000BF6889242808D200BF1DA340F241128A
:10ECB00025A130A0F1F778FB00BF00BFD6F8049083
:10ECC00000BF00BF00BF00BF00BF00BF00BF00BF4C
:10ECD00000BF00BF6C68277084F801800020A0800E
:10ECE000E08071686A6802F108001C22F1F7FEFDFD
:10ECF000002060806989204600F05BF86080D9F8C8
:10ED00000C00029001200021FF2302AACDE900108F
:10ED1000284600F033FB284608F0AAF800BFBDE7FC
:10ED20002E2E5C4C5749505C6C7769702D312E3417
:10ED30002E315C7372635C636F72655C69707634EC
:10ED40005C69636D702E6300636865636B20746833
:10ED500061742066697273742070627566206361E5
:10ED60006E20686F6C642069636D70206D657373CD
:10ED700061676500417373657274696F6E20222547
:10ED80007322206661696C6564206174206C696E11
:10ED90006520256420696E2025730D0A000000009F
:10EDA00070B505460C4622460B212846FFF768FF42
:10EDB00070BD70B504460D462946204601F049FB5A
:10EDC000C04380B270BD2DE9F04106460024002703
:10EDD000354617E06989686801F03BFB0444A0B23E
:10EDE00000EB1444688900EBD0714910A0EB41019D
:10EDF00039B1C7F10100C7B2E0B2C4F3072141EA5B
:10EE000000242D68002DE5D127B1E0B2C4F307211D
:10EE100041EA0024E04380B2BDE8F08118B5024623
:10EE20000092D04300B10AB9012018BD91F82D001D
:10EE300000F0020008B90020F7E74868904201D1CD
:10EE40000020F2E700988B681840D1E90134234094
:10EE5000984208D1886822EA00008C68E34398420F
:10EE600001D10120E1E70020DFE730B503460022B1
:10EE7000002428E008782E2813D1641C032C02DC1F
:10EE800048782E2802D14FF0FF3030BD002A05DB34
:10EE9000FF2A03DC601E1A54002213E04FF0FF30FB
:10EEA000F3E7087830280ADB0878392807DC087887
:10EEB00002EB820500EB4500A0F1300202E04FF0CA
:10EEC000FF30E2E7491C08780028D3D1002A03DB91
:10EED000FF2A01DCDA70D8E74FF0FF30D5E70000F9
:10EEE0002DE9F74F8CB004468946B9F82400089004
:10EEF000142004904FF0000860680B900B9EF0887F
:10EF000001F091FA03900398C0F30C000790039866
:10EF100000F4005006902089143880B209900899B6
:10EF2000A1F11400C11700EB5171C1F3CF010A9197
:10EF3000B0E0089814380999884201DB012000E00C
:10EF4000002005900798C0F30C0006990843039031
:10EF5000059818B9039840F400500390059808B13B
:10EF6000099801E00A98C0001FFA80FB00221421D2
:10EF7000022007F07BFA054625B94FF0FF300FB0AD
:10EF8000BDE8F08F00BF6089142808DA00BF44A3F1
:10EF900040F2FB224DA155A0F1F706FA00BF00BFD9
:10EFA000142268680B99F1F7A1FC6E6861680498F7
:10EFB0000844606061890498081A6081CDF808B03F
:10EFC0003FE061890298814201DD029800E060899A
:10EFD0008046B8F1000F01D1246832E000F09EF8BD
:10EFE00007462FB9284607F043FF4FF0FF30C6E72A
:10EFF00060683B4602224146CDE90008032007F045
:10F0000043FC8246BAF1000F08D1384600F08CF874
:10F01000284607F02DFF4FF0FF30B0E7204608F0FC
:10F0200093F97C613C4838615146284607F0B0FCB2
:10F030000298A0EB080080B20290029800B1246808
:10F0400000BF02980028BCD1CDF81080039801F0D1
:10F05000CCF9F0800BF1140188B201F0C6F9708090
:10F060000020708114213046FFF7A3FE7081D9F88B
:10F070001430294648460E9A9847284607F0F8FE6D
:10F080000998A0EB0B0080B209900A9907980844F0
:10F0900080B20790099800287FF44BAF00BF6EE75D
:10F0A0002E2E5C4C5749505C6C7769702D312E3494
:10F0B0002E315C7372635C636F72655C6970763469
:10F0C0005C69705F667261672E63000074686973C3
:10F0D000206E656564732061207062756620696EBC
:10F0E000206F6E65207069656365210041737365EB
:10F0F0007274696F6E2022257322206661696C65C7
:10F1000064206174206C696E6520256420696E201E
:10F1100025730D0A000000007DFE000810B50620D2
:10F1200005F03EFD10BD000010B5044600BF44B917
:10F1300000BF07A340F2792210A113A0F1F734F920
:10F1400000BF00BF2146062005F092FC10BD000064
:10F150002E2E5C4C5749505C6C7769702D312E34E3
:10F160002E315C7372635C636F72655C69707634B8
:10F170005C69705F667261672E6300007020213DDC
:10F18000204E554C4C000000417373657274696FDA
:10F190006E2022257322206661696C65642061748B
:10F1A000206C696E6520256420696E2025730D0A28
:10F1B000000000002DE9F047054688466E6830786B
:10F1C0000421B1EB201F07D000BF00BF284607F085
:10F1D0004FFE0020BDE8F087307800F00F094FF6B1
:10F1E000FF7000EA8909708801F01DF907466889F7
:10F1F000484502DB2889B8420EDA6889484501DAB9
:10F2000000BF00BF2889B84201DA00BF00BF28460E
:10F2100007F02EFE0020DDE73946284607F0B2FF52
:10F22000306951490860F068504908604FF0010AA0
:10F23000444600BF00BF00BF94F82D0000F001005D
:10F2400088B1201D78B1606868B14748006861687E
:10F25000884205D0444908682146FFF7DFFD10B118
:10F2600000BF00BF0DE0BAF1000F04D04FF0000A5C
:10F270003F48046800E02468444500D12468002C1D
:10F28000D8D100BF394908684146FFF7C7FD28B902
:10F290003648007800F0F000E02806D100BF00BF3B
:10F2A000284607F0E5FD002094E734B900BF00BF11
:10F2B000284607F0DDFD00208CE7F0884FF63F710F
:10F2C000084048B100BF00BF284600F079F9054664
:10F2D0000DB900207EE76E6800BF00BF00BF00BF11
:10F2E0002448C0F80080244806604146284608F0BB
:10F2F00023FA68BB707A01280DD0062806D01128A1
:10F300000ED1414628460EF0A9F920E04146284694
:10F3100009F0A8FF1BE041462846FFF717FB16E05F
:10F32000114908684146FFF779FD50B90E48007849
:10F3300000F0F000E02804D06E6002212846FFF7BC
:10F34000FBFA284607F094FD00BF00BF00BF00BFD6
:10F35000002008490860084908600449086002491B
:10F36000086000BF36E70000300200202C020020B9
:10F370007C02002024020020280200202DE9FE4FFC
:10F3800005460F4616469846DDE90C9A00BFE88907
:10F39000012808D000BF0EA340F2393216A119A0EF
:10F3A000F1F702F800BF00BF304600F03BFD04005B
:10F3B00004D100BF00BF001FBDE8FE8F43463246A8
:10F3C00039462846CDE9009A029400F031F8F3E777
:10F3D0002E2E5C4C5749505C6C7769702D312E3461
:10F3E0002E315C7372635C636F72655C6970763436
:10F3F0005C69702E63000000702D3E726566203DD2
:10F400003D203100417373657274696F6E2022254F
:10F410007322206661696C6564206174206C696E7A
:10F420006520256420696E2025730D0A0000000008
:10F430002DE9F84F05460F4690469A46DDF828B06C
:10F440000C9E00BFE889012808D000BF37A34FF405
:10F45000277240A142A0F0F7A7FF00BF00BFB8F19C
:10F46000000F49D04FF014091421284607F0E0FDA1
:10F4700028B100BF00BF6FF00100BDE8F88F6C68D5
:10F4800000BF6889142808D200BF28A340F2C9220F
:10F490003EA133A0F0F788FF00BF00BF84F808A0AA
:10F4A0000B986072D8F80000206148464FEAE97175
:10F4B00009EB9171C1F3870141F04001217084F89B
:10F4C00001B0288900F091FF60800020E0803B4877
:10F4D000008800F08AFFA08038480088401C374927
:10F4E00008800FB1386810B97068E06001E03868D2
:10F4F000E0600020608103E06C6820690090E846CD
:10F5000000BF00BFB08C48B12889B18C884205DDAE
:10F51000424631462846FFF7E3FCAEE700BF00BF96
:10F5200042462946304673699847A6E72E2E5C4C22
:10F530005749505C6C7769702D312E342E315C73D5
:10F5400072635C636F72655C697076345C69702E9F
:10F5500063000000702D3E726566203D3D20310045
:10F56000417373657274696F6E2022257322206661
:10F5700061696C6564206174206C696E6520256426
:10F5800020696E2025730D0A000000006368656322
:10F590006B20746861742066697273742070627580
:10F5A000662063616E20686F6C642073747275638B
:10F5B000742069705F6864720000000034020020EB
:10F5C0002DE9F84F804600200090D8F804502878A4
:10F5D00000F00F001421B1EB800F02D000BF00BF7C
:10F5E000B4E0E88800F01FFFC0F30C004FF6FF7195
:10F5F00001EAC00A688800F016FF297801F00F01BF
:10F60000A0EB81001FFA80FB404607F065FA064632
:10F610005248018888190A280CDD3146284600F036
:10F6200097FB20B14D48008830440A2802DD00BF16
:10F6300000BF8BE04A48046814E06069E9688842CA
:10F6400009D1A0692969884205D1A089A988884281
:10F6500001D1012000E0002010B100BF00BF03E095
:10F6600000942468002CE8D100BF34B93146284604
:10F6700000F05CFA044694B968E0E88800F0D3FE34
:10F68000C0F30C0058B9E08900F0CDFEC0F30C00C7
:10F6900028B11422294604F10800F1F727F92F4870
:10F6A000008830442D490880A87900F0200040B936
:10F6B000A07F40F00100A0770AEB0B00A08300BF01
:10F6C00000BF4146204600F04DF8D0B3A08B143067
:10F6D000A08360684068076860684568142204F188
:10F6E00008012846F1F702F9A08B00F07EFE688041
:10F6F0000020E880688114212846FFF75AFB6881C2
:10F70000D4F804800CE0D7F804906FF01301384669
:10F7100007F08EFC3946404607F03AF9D9F80070F8
:10F72000002FF0D12046009900F0A4F9404607F0E0
:10F73000D3F90A490988081A084908804046BDE8F3
:10F74000F88FFFE700BF00BF0020F8E700BF00BF51
:10F75000404607F08DFB0020F1E700003C0200204E
:10F76000380200202DE9FC5F06460F4600254FF0C9
:10F77000010BD7F804A0BAF8020000F054FE9AF882
:10F78000001001F00F01A0EB810080B20090BAF8E8
:10F79000060000F048FEC0F30C004FF6FF7101EACE
:10F7A000C000019000BF00BF7C680020206001986D
:10F7B000A080DDE900100844E080D6F804902EE037
:10F7C000D9F80480A088B8F80410884210DAC4F888
:10F7D00000905DB1A088E988884204DBE088B8F831
:10F7E0000410884200DDABE02F6000E0776019E094
:10F7F000A088B8F80410884200D1A1E0A088B8F829
:10F800000610884200DA9BE035B1E888B8F80410A9
:10F81000884201D04FF0000BD8F800904546B9F16E
:10F82000000FCDD100BFB9F1000F26D1002D16D0A9
:10F8300000BFE888A188884208DD00BF47A340F2E6
:10F84000931251A158A0F0F7AFFD00BF00BF2F6089
:10F85000E888A188884210D04FF0000B0DE000BF6F
:10F86000706840B100BF3DA340F29B1259A14EA069
:10F87000F0F79AFD00BF00BF7760B07F00F0010095
:10F8800000285BD0BBF1000F55D0706840688088BD
:10F8900010B14FF0000B4EE02546D4F800900BE07D
:10F8A000D9F80440E888A188884202D04FF0000BC4
:10F8B00005E02546D4F80090B9F1000FF0D100BF63
:10F8C000BBF1000F37D000BF706840B900BF23A361
:10F8D0004FF4DE724DA134A0F0F766FD00BF00BF0B
:10F8E00000BF70684068A04208D100BF1BA340F26F
:10F8F000BD1246A12CA0F0F757FD00BF00BF00BF0E
:10F90000206840B100BF15A340F2BF1243A126A05A
:10F91000F0F74AFD00BF00BF00BFE088B18B88420E
:10F9200008D000BF0DA340F2C11245A11EA0F0F700
:10F930003BFD00BF00BF5846BDE8FC9F0020FBE731
:10F94000384607F0C9F84A490988081A4849088022
:10F95000384607F08DFA0020EEE700002E2E5C4CB2
:10F960005749505C6C7769702D312E342E315C73A1
:10F9700072635C636F72655C697076345C69705F3A
:10F98000667261672E630000636865636B20667250
:10F9900061676D656E747320646F6E2774206F7677
:10F9A00065726C6170000000417373657274696FF9
:10F9B0006E2022257322206661696C656420617463
:10F9C000206C696E6520256420696E2025730D0A00
:10F9D000000000006E6F2070726576696F7573208D
:10F9E000667261676D656E742C2074686973206D32
:10F9F000757374206265207468652066697273741B
:10FA000020667261676D656E7421000073616E69B6
:10FA1000747920636865636B0000000076616C692F
:10FA2000646174655F646174616772616D3A6E658B
:10FA300078745F70627566213D4E554C4C00000035
:10FA400076616C69646174655F6461746167726139
:10FA50006D3A646174616772616D20656E64213D09
:10FA6000646174616772616D206C656E00000000F6
:10FA70003C02002070B504460D460E480068A042C6
:10FA800003D10C49206808600EE000BF002D08D1AA
:10FA900000BF09A340F2391212A119A0F0F784FCAB
:10FAA00000BF00BF206828602146052004F0E0FF69
:10FAB00070BD0000380200202E2E5C4C5749505C6F
:10FAC0006C7769702D312E342E315C7372635C63F8
:10FAD0006F72655C697076345C69705F66726167CD
:10FAE0002E63000073616E69747920636865636BCF
:10FAF000206C696E6B6564206C6973740000000093
:10FB0000417373657274696F6E20222573222066BB
:10FB100061696C6564206174206C696E6520256480
:10FB200020696E2025730D0A0000000070B505469F
:10FB30000E46052005F034F8044674B931462846CF
:10FB400000F006F9B04203DB052005F029F8044671
:10FB50001CB900BF00BF002070BD20212046F0F777
:10FB60005EFF0320E07706480068206004480460D8
:10FB70001422294604F10800F0F7B8FE2046EBE70E
:10FB8000380200202DE9F04704468846002500BFD2
:10FB9000A04507D100BF40A3A5224AA14CA0F0F781
:10FBA00003FC00BF00BFB8F1000F0DD000BFD8F8B4
:10FBB0000000A04207D000BF37A3A7224FA144A056
:10FBC000F0F7F2FB00BF00BF6068D0F80490B9F80E
:10FBD0000400002824D16768D9F80000606014226E
:10FBE00004F108017868F0F781FE01213846FFF73B
:10FBF000D7F8384606F070FF064600BFA819B0F5E2
:10FC0000803F07DB00BF24A3B62241A130A0F0F75C
:10FC1000CBFB00BF00BFA81985B2384607F028F912
:10FC200067681CE0D7F80490BA46D9F800705046CF
:10FC300006F052FF064600BFA819B0F5803F07DB6B
:10FC400000BF15A3C62232A121A0F0F7ADFB00BF73
:10FC500000BFA81985B2504607F00AF900BF002F6F
:10FC6000E0D141462046FFF705FF00BF304800883D
:10FC7000A84207DA00BF08A3CC222EA114A0F0F7F7
:10FC800093FB00BF00BF2A480088401B284908801A
:10FC90002846BDE8F08700002E2E5C4C5749505C8A
:10FCA0006C7769702D312E342E315C7372635C6316
:10FCB0006F72655C697076345C69705F66726167EB
:10FCC0002E6300007072657620213D2069707200FD
:10FCD000417373657274696F6E20222573222066EA
:10FCE00061696C6564206174206C696E65202564AF
:10FCF00020696E2025730D0A000000007072657681
:10FD00002D3E6E657874203D3D20697072000000C4
:10FD100070627566735F6672656564202B20636C24
:10FD2000656E203C3D203078666666660000000007
:10FD30003C02002069705F72656173735F70627569
:10FD400066636F756E74203E3D20636C656E0000C7
:10FD50002DE9F05F05468946002700BF0026B3461F
:10FD6000B246194804681DE06069E968884207D115
:10FD7000A0692969884203D1A089A988884201D055
:10FD8000012000E0002048B10AF1010A0EB9264620
:10FD900004E0E07FF17F884200DC2646206800B165
:10FDA000A3462468002CDFD12EB159463046FFF718
:10FDB000E9FE804647444F4502DABAF1010FCDDC37
:10FDC0003846BDE8F09F00003802002010B5044618
:10FDD00000BF00BF00F008F80022AFF20F014FF49F
:10FDE0007A7008F09DFB10BD70B500260C480468C1
:10FDF00013E0E07F002807DDE07F401EE07700BFD2
:10FE000000BF2646246808E000BF00BF25462468DE
:10FE100031462846FFF7B6FE00BF002CE9D170BD81
:10FE20003802002010B50246124801680FE091F830
:10FE30002D0000F0010048B110688B681840D1E92E
:10FE400001342340984201D1084610BD09680029B9
:10FE5000EDD10948006830B10748006890F82D00DE
:10FE600000F0010018B900BF00BF0020EDE7024814
:10FE70000068EAE77C0200208002002070B5054699
:10FE80002C4600BF44B900BF0FA340F2832219A142
:10FE90001BA0F0F789FA00BF00BF00BFAC4208D03A
:10FEA00000BF09A34FF4217220A115A0F0F77CFA3E
:10FEB00000BF00BF606910B1606906F0D9FF20463D
:10FEC000FFF732F970BD00002E2E5C4C5749505C94
:10FED0006C7769702D312E342E315C7372635C63E4
:10FEE0006F72655C697076345C69705F66726167B9
:10FEF0002E63000070637220213D204E554C4C0053
:10FF0000417373657274696F6E20222573222066B7
:10FF100061696C6564206174206C696E652025647C
:10FF200020696E2025730D0A0000000070637220A6
:10FF30003D3D20700000000010B50446204600F052
:10FF400017F808B1012010BD41F2707104FB01F0F7
:10FF500000F5807080B23C30044931F814108842BA
:10FF600001DA0120EFE70020EDE700001C1D002072
:10FF700010B5044641F2707204FB02F101F5807184
:10FF80001144143988B2F1F7E7F9FF2801D00120B4
:10FF900010BD0020FCE7000010B504462046FFF726
:10FFA000E7FF08B1012010BD41F2707104FB01F0C0
:10FFB00000F5807080B2C830044931F814108842CE
:10FFC00001DA0120EFE70020EDE700001C1D002012
:10FFD00000BF0CE00020F6F7F1FB044624B12146F7
:10FFE00003480068F7F7CCF90A20FBF791F8F1E72E
:10FFF0000000002070B50446062084F82600214841
:020000040801F1
:10000000007884F827001F484178282001551D48B2
:100010008178292001551B48C1782A2001551948AB
:1000200001792B200155174841792C20015540F2C8
:10003000DC50A084322084F82D0004F12701002038
:10004000F5F794FA05221048016810480068F5F7A2
:1000500097F805220E4801680E480068F5F74CF83D
:10006000002508E00949096801EB45104FF44001FB
:10007000F5F7AEF86D1C052DF4DBF5F7F9FB002064
:1000800070BD0000682B00203000002028000020F8
:100090002C000020240000202DE9F04387B0814689
:1000A0000026002501A8F5F78BFB01A807C804ABC3
:1000B00007C3049887B2DDF814800322394610463E
:1000C00006F0D4F9054665B12C4608E0628908EBD4
:1000D00006016068F0F70AFC608906442468002C79
:1000E000F4D14FF00040069908600748406900F0DD
:1000F000800020B1802004494861002088602846A3
:1001000007B0BDE8F0830000009002402DE9F04701
:1001100081460F460026F5F78BF880463C4608E0FE
:10012000628908EB06006168F0F7E0FB608906442D
:100130002468002CF4D1B0B2F5F704FC054615B9DB
:10014000601EBDE8F0870020FBE7000070B50446A4
:100150001F480568C020A071A821E171002121720B
:100160005A2161721B480078FF2810D11948407845
:10017000FF280CD117488078FF2808D1164800784E
:10018000207015484078607013488078A070280C63
:10019000E070280A20716571C020A072A821E17268
:1001A000002121731E216173FF20A073FF21E173E1
:1001B000217400216174C020A074A821E174002181
:1001C0002175012161750020A075FAF7C9FE70BD87
:1001D000107AFF1F682B00208B01002030B587B0FC
:1001E000F5F770FA10B1012007B030BD00F0B6F895
:1001F00008B10120F8E7F6F74FFB002108460CF0A4
:10020000F1FF00F059F82748407B01062548007BA4
:1002100041EA00412348C07A41EA00202149897A15
:10022000084306901F48407C01061E48007C41EAB6
:1002300000411C48C07B41EA00201A49897B0843E1
:1002400005901848407D01061648007D41EA0041AE
:100250001448C07C41EA00201249897C084304907C
:10026000F0F734F8054610481049002204ABCDE9F8
:100270000021029005AA06A90D4805F0CDFE04460E
:100280002846F0F727F80CB90320ADE7084805F039
:100290005BFF074805F0ECFF0649054805F0A6FF9F
:1002A0000020A1E7682B0020C1D2010895D00008EA
:1002B000802B0020E95B000810B5F9F781FA164899
:1002C0000078552813D11448407839280FD11248A6
:1002D000807872280BD1114800780F4908700F48B8
:1002E000407848700D4880788870FAF739FE0A48DF
:1002F000807AFF280ED10848C07AFF280AD1064824
:10030000007BFF2806D10448407BFF2802D1024829
:10031000FFF71CFF10BD0000682B00208B010020A0
:1003200010B50A480168002004F0D2FD08480168B1
:10033000002004F0CDFD07480168002004F0C8FD4E
:1003400005480168002004F0C3FD10BD78020020BC
:10035000E0020020900100209401002070B504F01C
:10036000E7FB05462946002004F0CCFD144908604F
:1003700043F69C642146002004F0C4FD1149086046
:100380004FF47A61002004F0BDFD0F4908604FF47E
:100390000071002004F0B6FD0C49086008480068B0
:1003A00040B10848006828B10748006810B1084605
:1003B000006818B9FFF7B4FF012070BD0020FCE70A
:1003C00078020020E002002090010020940100202B
:1003D0000146080601F47F4240EA022001F47F0250
:1003E00040EA122040EA1160704701460806000CFE
:1003F00040EA1120704710B507F0DDFE04F084F8E4
:1004000004F09AFB05F08AFE00F022F80DF024F9C2
:1004100008F026FF08F028F910BD00B5034618467D
:10042000FFF7D6FF00BD00B502461046FFF7DDFF1F
:1004300000BD000010B50248FCF77EFE10BD0000B4
:10044000802B002010B5FAF78BFDF9F787FF10BD60
:100450007047F8B505460A462B460020009000215B
:1004600003F0010636B1002A04DD13F8010B8DF804
:100470000100521E1C4603E034F8027B3944921EF0
:10048000012AF9DC002A02DD20788DF80000BDF891
:100490000000014488B200EB114188B200EB114129
:1004A00026B1C8B2C1F3072747EA002188B2F8BDD8
:1004B00030B50346002200243EE008783A2813D1E4
:1004C000641C052C02DC48783A2802D14FF0FF303A
:1004D00030BD002A05DBFF2A03DC601E1A5400220F
:1004E00029E04FF0FF30F3E70878302808DB087880
:1004F000392805DC087800EB0210A0F130021AE080
:100500000878612808DB0878662805DC087800EBA5
:100510000210A0F157020EE00878412808DB0878A5
:10052000462805DC087800EB0210A0F1370202E053
:100530004FF0FF30CCE7491C08780028BDD1002AD5
:1005400003DBFF2A01DC5A71C2E74FF0FF30BFE73F
:1005500010B54FF4A060F6F74BFD08F00FF9F6F771
:10056000EFFDFFF73BFE0A23054A00210548F7F798
:1005700007FD0BF0F3FCF7F7B7FC002010BD0000FF
:100580001C040020557F010886B0002005900390D0
:100590000120039003F0FFBE04AA0A21FD48006871
:1005A000F6F76CFE05900120FB490860FBA0EFF711
:1005B000FBFE059848B9FD480068322808D2FB4880
:1005C0000068401CF949086002E00020F749086013
:1005D000F6480068322814D10398012811D1F44854
:1005E0000078C0F3800010B1F248007801E0F248D2
:1005F000007830B12E2003900120F0490870F2F706
:100600007BF80398332883F0C186DFE810F0BF1E23
:100610003300BF1EB202A0038F04C5045705090FA3
:10062000651006066F081D099409B61AB71A330A31
:10063000700A0E0B580EB011BF1EBF1EBF1EBF1E8C
:100640006B12FD129013B1116A12CB13F31326161D
:1006500056188B1A8C1A8D1A8E1ADF1A1A1B551BF4
:10066000901BCB1B671C96005B01081D791D530076
:1006700077013802D24800780A2804DBF3F76EFAD3
:100680000020CF4908700598022804D0052807D01B
:1006900006280BD107E030200390F4F7A1FA06E01A
:1006A000F9F794FA03E0F9F7A5FA00E000BF00BFFC
:1006B00003F06DBE059800283ED00598012806D0AD
:1006C000022811D003281BD0042833D125E00120B3
:1006D0000390BCA1BD48F0F76FF8BDA1BE48F0F78C
:1006E0006BF8F3F73BFA26E02C200390BBA1B74848
:1006F000F0F762F80020BB490870F2F763FD1AE0DA
:10070000B948007818B10020B749087002E001200C
:10071000B5490870F4F764FA0DE0B348007818B1F1
:100720000020B149087002E00120AF490870F4F7D9
:1007300057FA00E000BF00BFBAE70598002875D05F
:100740000598072873D2DFE800F0BA041156738EBB
:10075000A40001200390A1A19C48F0F72DF89CA1D2
:100760009D48F0F729F8F3F7F9F9A9E09E480078D9
:1007700010B101283CD11DE09C499448F0F7A2F942
:1007800098B9F4F7D5F901208C4908700090084613
:1007900000784006000E964B04220146029001208C
:1007A000F4F728FB3120039003E0F3F7ABF92D2099
:1007B00003901EE08F498548F0F784F998B9F3F764
:1007C00077F901207D4908700090084600784006BE
:1007D000000E874B0422014602900120F4F70AFB29
:1007E0003220039003E0F3F78DF92D20039000E011
:1007F00000BF00BF64E075487A4991F90010405C81
:10080000401CC1B27148774A92F900208154754961
:1008100091F90010405C392805DD30206B49714AA0
:1008200092F900208854F2F7CDFC49E049E046E017
:1008300066486C4991F90010405C401E6349694A62
:1008400092F9002088540846664991F90010405CEE
:10085000302805DA39205D49624A92F9002088542F
:10086000F2F7B0FC2CE05F480078401E40B25D49D2
:100870000870084690F90000002801DA0520087089
:1008800030205249574A92F900208854F2F79AFCD6
:1008900016E054480078401C40B25249087008469F
:1008A00090F90000052801DD00200870302047493C
:1008B0004C4A92F900208854F2F784FC00E000BF13
:1008C00000BFF5E60598C0B10598012802D00228BE
:1008D00011D100E000BF41A13C48EFF76DFF3CA102
:1008E0003D48EFF769FF00203E490870F2F76AFCC7
:1008F0002C20039000E000BF00BFD9E60598002837
:1009000047D00598012806D0022811D003287DD0B1
:10091000042872D195E0F4F763F9302003902FA1F9
:100920002A48EFF749FF2AA12B48EFF745FFA4E03B
:1009300022480078012804D0022816D0032862D16A
:100940005CE0F3F7D1FF01201C49087000900846D5
:1009500000784006000E264B04220146029001203A
:10096000F4F748FA032003904EE0F3F749F801202A
:10097000124908700090084600784006000E1C4B93
:100980000422014602900120F4F734FA0420039077
:100990003AE073E0000000209482404268656C6C8D
:1009A0006F20776F726C64200A0000001400002032
:1009B0000A0100203A0000203B000020A500002092
:1009C000A70000202020202020200000BF000020C1
:1009D0002024242424240000C600002030242424C1
:1009E00024240000A6000020A8000020B100002060
:1009F00004000020B800002008E03DE0F4F732F9E0
:100A00000520039000E000BF00BF36E0FC480078FE
:100A1000401EFB49087008460078012801DA0320CF
:100A20000870F4F785F801200090F548007840063A
:100A3000000EF44B0422014602900120F4F7DAF98B
:100A40001BE0EF480078401CED490870084600782C
:100A5000032801DD01200870F4F76AF801200090F6
:100A6000E74800784006000EE64B0422014602905B
:100A70000120F4F7BFF900E000BF00BF18E60598B9
:100A8000002875D00598012806D0022813D0032825
:100A900034D004286AD14CE0F4F7A2F83020039057
:100AA000AFF2C801D848EFF787FEAFF2DC01D748B4
:100AB000EFF782FE5BE0D2480078012802D00228DE
:100AC00019D113E0F2F79CFF0120CD490870009086
:100AD000084600784006000ECA4B042201460290E8
:100AE0000120F4F787F90420039005E0F4F7BAF841
:100AF0000520039000E000BF00BF38E0C048007848
:100B0000401EBF49087008460078012801DA02201B
:100B10000870F2F7CDFF01200090B9480078400638
:100B2000000EB84B0422014602900120F4F762F94E
:100B30001DE0B3480078401CB149087008460078B1
:100B4000022801DD01200870F2F7B2FF01200090B9
:100B5000AB4800784006000EAA4B042201460290E2
:100B60000120F4F747F902E002E0FFE700BF00BF11
:100B70009EE5059800287AD00598072878D2DFE806
:100B800000F0E3041993BAE1E20001209C490870E7
:100B9000F3F7CEFF01200090994800784006000E40
:100BA000984B0422014602900120F4F723F93120EA
:100BB0000390CAE092480078062872D2DFE800F07D
:100BC0007103182D425901208D490870F3F75AFF1F
:100BD000012000908A4800784006000E894B0422CC
:100BE000014602900120F4F705F90620039059E030
:100BF000012083490870F1F727FD0120009080480B
:100C000000784006000E7F4B04220146029001202E
:100C1000F4F7F0F80720039044E0012078490870C9
:100C2000F1F7AEF801200090754800784006000EFC
:100C3000744B0422014602900120F4F7DBF80A20ED
:100C400003902FE001206E490870F3F7B1F90120FD
:100C500000906B4800784006000E6A4B0422014663
:100C600002900120F4F7C6F80B2003901AE06DE023
:100C70006AE001206249087065490870F1F7AEFA30
:100C8000012000905E4800784006000E5D4B042273
:100C9000014602900120F4F7ADF82F20039001E007
:100CA000FFE700BF00BF50E055480078401E5449A0
:100CB000087008460078012801DA05200870F3F76B
:100CC00013FE4F480078032807DD01204D4B042216
:100CD00006210090F4F78EF80CE0012000904848BF
:100CE00000784006000E474B042201460290012086
:100CF000F4F780F829E042480078401C4049087029
:100D000008460078052801DD01200870F3F7ECFDA6
:100D10003B480078032807DD01203A4B04220621D6
:100D20000090F4F767F80CE0012000903448007858
:100D30004006000E334B0422014602900120F4F7D6
:100D400059F802E001E000E000BF00BFB0E4059800
:100D5000002876D00598072874D2DFE800F0E40474
:100D60003194BBE2E3002B480078A0B9012024496C
:100D70000870F3F7DDFE012000902148007840065E
:100D8000000E204B0422014602900120F4F732F8B5
:100D90003120039013E0012019490870F2F788FE12
:100DA00001200090164800784006000E154B0422E2
:100DB000014602900120F4F71DF832200390B3E0C1
:100DC0000F480078012806D0022825D003283AD001
:100DD000042855D13FE0012009490870F2F7E0FDF1
:100DE00001200090064800784006000E054B0422C2
:100DF000014602900120F3F7FDFF0C20039040E034
:100E0000A500002004000020BF000020C600002034
:100E1000A4000020A80000200120F9490870F0F784
:100E200067FF01200090F64800784006000EF54B61
:100E30000422014602900120F3F7DCFF0D2003900D
:100E40001FE072E06FE00120ED490870F2F7B6FA9A
:100E50001020039015E00120E9490870F2F726FA06
:100E600001200090E64800784006000EE54B042281
:100E7000014602900120F3F7BDFF1120039000E02E
:100E800000BF00BF50E0DE480078401EDC4908701B
:100E900008460078012801DA04200870F2F7B0FD56
:100EA000D7480078032807DD0120D64B042206210D
:100EB0000090F3F79FFF0CE001200090D0480078ED
:100EC0004006000ECF4B0422014602900120F3F7AA
:100ED00091FF29E0CA480078401CC94908700846BB
:100EE0000078042801DD01200870F2F789FDC4486C
:100EF0000078032807DD0120C24B04220621009060
:100F0000F3F778FF0CE001200090BD480078400620
:100F1000000EBC4B0422014602900120F3F76AFF49
:100F200002E001E000E000BF00BF05E4059878B3EF
:100F3000059801282DD1B4480078A0B90120B04906
:100F40000870F3F7F5FD01200090AD4800784006E9
:100F5000000EAC4B0422014602900120F3F74AFF39
:100F60003120039013E00120A5490870F2F7A0FD9D
:100F700001200090A24800784006000EA14B0422F8
:100F8000014602900120F3F735FF3220039001E083
:100F900001E000BF00BF94E40598C8B30598072896
:100FA0007ED2DFE800F08804194E698687000120B0
:100FB00093490870F3F798FC01200090904800785E
:100FC0004006000E8F4B0422014602900120F3F7E9
:100FD00011FF032003906FE089480078012802D0B8
:100FE00002282BD115E0012085490870F3F73CF861
:100FF00001200090824800784006000E814B0422B8
:10100000014602900120F3F7F5FE1220039016E04E
:1010100053E001207A490870F3F79CFA0120009010
:10102000774800784006000E764B04220146029075
:101030000120F3F7DFFE1320039000E000BF00BFA4
:101040003AE06F480078401E6D4908700846007805
:10105000012801DA02200870F3F714FD0120009046
:10106000674800784006000E664B04220146029055
:101070000120F3F7BFFE1FE061480078401C604983
:10108000087008460078022801DD01200870F3F797
:10109000F9FC012000905A4800784006000E00E05C
:1010A00009E0584B0422014602900120F3F7A2FE0A
:1010B00002E001E000E000BF00BF1EE40598C8B3F5
:1010C0000598072875D2DFE800F0A504194E75A32E
:1010D000A40001204A490870F3F706FC01200090A3
:1010E000474800784006000E464B04220146029015
:1010F0000120F3F77FFE032003908CE04048007846
:10110000012802D002282BD115E001203C490870AB
:10111000F2F7A2FD01200090394800784006000E49
:10112000384B0422014602900120F3F763FE0820A9
:10113000039016E070E0012031490870F2F762FE7A
:10114000012000902E4800784006000E2D4B04220E
:10115000014602900120F3F74DFE0920039000E0C4
:1011600000BF00BF57E026480078401E24490870A1
:101170002648007830B108460078012809DA0120B5
:10118000087006E01E480078012802DA02201C4997
:101190000870F1F759FA01200090194800784006CC
:1011A000000E184B0422014602900120F3F722FEA4
:1011B00031E02FE012480078401C114908701348B4
:1011C000007830B108460078012809DD0120087058
:1011D00006E00B480078022802DD0120084908706B
:1011E000F1F732FA01200090054800784006000E21
:1011F000044B0422014602900120F3F7FBFD0AE0B4
:10120000A500002004000020A800002059000020B4
:1012100001E000E000BF00BF30E40598002878D06E
:10122000F9480078D8B30598072873D2DFE800F0B2
:10123000B904195B8AB7B8000120F4490870F3F7C4
:1012400053FB01200090F14800784006000EF04B5F
:101250000422014602900120F3F7CCFD0320039005
:10126000A0E0EC480078EC490870EC480078EC49C4
:101270000870EC48007840B2EB490870EB48007801
:1012800040B2EB4908700020DF490870DF48007861
:10129000012805D002280ED003281FD116E082E0D5
:1012A000DC480078DC4908700020D749087001202C
:1012B000E049087013E0D9480078D9490870002047
:1012C000D14908700120DB49087008E0DA4800784D
:1012D000DA4908700020CC49087000E000BF00BF68
:1012E000F0F74EFD5EE0C9480078401EC74908701F
:1012F000D348007878B108460078012801DA032045
:101300000870C248007802280CD10120BF4908703B
:1013100008E0EAE145E0BD480078012802DA032050
:10132000BA490870F0F72CFD01200090B74800780A
:101330004006000EB64B0422014602900120F3F74E
:1013400059FD2FE0B1480078401CB0490870BC48F6
:10135000007868B108460078032801DD0120087094
:10136000AA48007802280AD10320A849087006E09C
:10137000A6480078032802DD0120A4490870F0F790
:10138000FFFC01200090A14800784006000EA04B11
:101390000422014602900120F3F72CFD02E001E057
:1013A00000E000BFA1E1059807287DD2DFE800F04A
:1013B0007C042D84F3F1F0000120934908709E48CD
:1013C00000789E49087093480078934908709348C4
:1013D0000078934908709348007840B292490870A9
:1013E0009248007840B292490870F0F7C9FC012099
:1013F0000090864800784006000E854B0422014686
:1014000002900120F3F7F6FC6EE18B4800788B49DF
:10141000097888420BD089480078874908700846C7
:10142000007810B1F4F768FD01E0F4F76FFD79483A
:1014300000787949097888420BD077480078754957
:1014400008700846007810B1F7F77CFF01E0F7F765
:1014500087FF724800787249097888420BD070483B
:1014600000786E4908700846007810B1F7F792FFCF
:1014700001E0F7F79DFF6B4800786B4991F9001088
:10148000884204D068480078029006F07FFC6748E4
:101490000078674991F90010884204D064480078C8
:1014A000029006F093FC00E01DE10120564908700F
:1014B00000206049087017E154480078012804D0E2
:1014C00002282BD003285ED151E05A4890F9000041
:1014D000012802D002281ED10BE04F4800780128D5
:1014E00003D100204C49087002E001204A490870ED
:1014F00012E04D480078401C40B24B490870084645
:1015000090F90000082801DD0020087041480078AB
:101510004149087000E000BF00BF35E0454890F940
:101520000000012802D002281ED10BE03C480078C0
:10153000012803D100203A49087002E0012038490F
:10154000087012E03A480078401C40B238490870F0
:10155000084690F90000082801DD002008702F4897
:1015600000782F49087000E000BF00BF0CE033484E
:101570000078012803D100203049087002E00120E2
:101580002E49087000E000BF00BFF0F7F9FBABE0A8
:1015900099E088E0FFE71D480078012804D0022880
:1015A0002AD003287AD16DE0224890F90000012862
:1015B00002D002281DD10AE01748007818B901208E
:1015C0001549087002E000201349087012E016481F
:1015D0000078401E40B214490870084690F9000097
:1015E000002801DA082008700A4800780A490870C3
:1015F00000E000BF00BF52E00E4890F90000012853
:1016000020D002283BD128E0A4000020A500002023
:1016100004000020490000205B0000204A00002058
:101620005C000020ED0000205D000020EE000020A6
:101630005E000020A60000203F00002040000020A7
:1016400059000020FE48007818B90120FC490870B4
:1016500002E00020FA49087012E0FA480078401EC3
:1016600040B2F8490870084690F90000002801DAF5
:1016700008200870F4480078F149087000E000BFC5
:1016800000BF0CE0F148007820B90120EF49087054
:1016900003E003E00020ED49087000E000BF00BF58
:1016A000F0F76EFB20E0EA480078401E40B2E849BF
:1016B0000870084690F90000012801DA022008703D
:1016C000F0F75EFB10E0E2480078401C40B2E049D1
:1016D0000870084690F90000022801DD012008701A
:1016E000F0F74EFB00E000BF00BF1EE40598D8B342
:1016F000059807287ED2DFE800F0A404196A87A2C3
:10170000A3000120D3490870F3F7EEF80120009000
:10171000D04800784006000ECF4B042201460290CC
:101720000120F3F767FB032003908BE0C9480078A2
:10173000012804D0022818D0032845D12AE001202E
:10174000C4490870F1F79EFC01200090C148007860
:101750004006000EC04B0422014602900120F3F720
:1017600049FB2A20039030E06DE00120B949087060
:10177000F1F7CCFC01200090B64800784006000E3E
:10178000B54B0422014602900120F3F733FB2B20D6
:1017900003901AE0F3F7D2FA0420EFF7B7FF012025
:1017A000AC490870F2F704FC01200090A9480078C9
:1017B0004006000EA84B0422014602900120F3F7D8
:1017C00019FB0B20039000E000BF00BF3AE0A148E6
:1017D0000078401E9F49087008460078012801DA09
:1017E00003200870F2F7E4FB01200090994800788C
:1017F000400600E025E0000E974B042201460290CF
:101800000120F3F7F7FA1DE092480078401C914957
:10181000087008460078032801DD01200870F2F7FF
:10182000C7FB012000908B4800784006000E8A4BD1
:101830000422014602900120F3F7DCFA02E001E005
:1018400000E000BF00BF38E40598A8B3059807285A
:101850006ED2DFE800F06D041935506B6C0001208A
:101860007C490870F2F7CCF80120009079480078A4
:101870004006000E784B0422014602900120F3F747
:10188000B9FA0420039054E072480078012814D17A
:1018900070490870F1F7F0FE012000906D48007863
:1018A0004006000E6C4B0422014602900120F3F723
:1018B000A1FA1C20039001E03CE000BF00BF38E02B
:1018C00064480078401E6349087008460078012883
:1018D00001DA01200870F2F763F8012000905D48FA
:1018E00000784006000E5C4B042201460290012065
:1018F000F3F780FA1DE057480078401C55490870FE
:1019000008460078012801DD01200870F2F748F848
:10191000012000904F4800784006000E4E4B0422F4
:10192000014602900120F3F765FA02E001E000E0D1
:1019300000BF00BF70E40598A0B3059807287DD2CA
:10194000DFE800F0950419345A93940001204149CE
:101950000870F2F755F8012000903E4800784006E4
:10196000000E3D4B0422014602900120F3F742FA9B
:10197000042003907CE037480078012802D0022838
:1019800011D107E0012033490870F0F7ADF80E20BF
:10199000039009E001202F490870F0F727F90F2084
:1019A000039001E065E000BF00BF61E029480078D6
:1019B000401E284908702948007830B10846007850
:1019C000012809DA0120087006E022480078012881
:1019D00002DA02201F490870F0F78AF9012000900E
:1019E0001C4800784006000E1B4B04220146029062
:1019F0000120F3F7FFF93BE016480078401C154939
:101A000008701648007830B108460078012809DDD2
:101A10000120087006E00F480078022802DD01204E
:101A20000C490870F0F764F901200090094800782B
:101A30004006000E084B0422014611E017E00000AA
:101A40005C0000205E0000204A00002040000020D2
:101A5000A6000020A500002004000020590000205E
:101A600002900120F3F7C6F902E001E000E000BFB8
:101A700000BF3AE6059890B30598072834D2DFE80E
:101A800000F03304192F303132000120FC49087076
:101A9000F1F7B6FF01200090F94800784006000EEB
:101AA000F84B0422014602900120F3F7A3F9042029
:101AB00003901AE00120F2490870F1F7A1FF01201C
:101AC0000090EF4800784006000EEE4B04220146DD
:101AD00002900120F3F78EF90420039005E005E061
:101AE00003E002E001E000E000BF00BFFDE5059873
:101AF000D8B30598072877D2DFE800F09404195B83
:101B0000779293000120DE490870F1F779FF0120F8
:101B10000090DB4800784006000EDA4B04220146B4
:101B200002900120F3F766F9042003907BE0D4488B
:101B30000078012804D0022818D0032836D12AE0E2
:101B40000120CF490870F1F707FD01200090CC4833
:101B500000784006000ECB4B042201460290012083
:101B6000F3F748F91920039021E05DE00120C44912
:101B70000870F1F739FD01200090C1480078400657
:101B8000000EC04B0422014602900120F3F732F907
:101B90001A2003900BE00120B94908700420F7F7E0
:101BA00033FDF1F7E9FD1B20039000E000BF00BF0B
:101BB00039E0B3480078401EB14908700846007803
:101BC000012801DA03200870F1F770FB0120009072
:101BD000AB4800784006000EAA4B04220146029052
:101BE0000120F3F707F91EE01CE0A5480078401C2F
:101BF000A349087008460078032801DD0120087019
